{
	"FreelanceMarketplace.sol": {
		"FreelanceMarketplace": {
			"abi": [
				{
					"inputs": [],
					"stateMutability": "nonpayable",
					"type": "constructor"
				},
				{
					"anonymous": false,
					"inputs": [
						{
							"indexed": true,
							"internalType": "uint256",
							"name": "jobId",
							"type": "uint256"
						},
						{
							"indexed": true,
							"internalType": "address",
							"name": "freelancer",
							"type": "address"
						},
						{
							"indexed": false,
							"internalType": "uint256",
							"name": "amount",
							"type": "uint256"
						}
					],
					"name": "BidPlaced",
					"type": "event"
				},
				{
					"anonymous": false,
					"inputs": [
						{
							"indexed": true,
							"internalType": "uint256",
							"name": "jobId",
							"type": "uint256"
						},
						{
							"indexed": false,
							"internalType": "string",
							"name": "outcome",
							"type": "string"
						}
					],
					"name": "DisputeResolved",
					"type": "event"
				},
				{
					"anonymous": false,
					"inputs": [
						{
							"indexed": true,
							"internalType": "uint256",
							"name": "jobId",
							"type": "uint256"
						},
						{
							"indexed": true,
							"internalType": "address",
							"name": "client",
							"type": "address"
						},
						{
							"indexed": true,
							"internalType": "address",
							"name": "freelancer",
							"type": "address"
						},
						{
							"indexed": false,
							"internalType": "uint256",
							"name": "feeDeducted",
							"type": "uint256"
						}
					],
					"name": "JobCompleted",
					"type": "event"
				},
				{
					"anonymous": false,
					"inputs": [
						{
							"indexed": true,
							"internalType": "uint256",
							"name": "jobId",
							"type": "uint256"
						},
						{
							"indexed": true,
							"internalType": "address",
							"name": "client",
							"type": "address"
						}
					],
					"name": "JobDisputed",
					"type": "event"
				},
				{
					"anonymous": false,
					"inputs": [
						{
							"indexed": true,
							"internalType": "uint256",
							"name": "jobId",
							"type": "uint256"
						},
						{
							"indexed": true,
							"internalType": "address",
							"name": "client",
							"type": "address"
						},
						{
							"indexed": true,
							"internalType": "address",
							"name": "freelancer",
							"type": "address"
						},
						{
							"indexed": false,
							"internalType": "uint256",
							"name": "amount",
							"type": "uint256"
						}
					],
					"name": "JobHired",
					"type": "event"
				},
				{
					"anonymous": false,
					"inputs": [
						{
							"indexed": true,
							"internalType": "uint256",
							"name": "jobId",
							"type": "uint256"
						},
						{
							"indexed": true,
							"internalType": "address",
							"name": "client",
							"type": "address"
						},
						{
							"indexed": false,
							"internalType": "string",
							"name": "title",
							"type": "string"
						}
					],
					"name": "JobPosted",
					"type": "event"
				},
				{
					"anonymous": false,
					"inputs": [
						{
							"indexed": true,
							"internalType": "address",
							"name": "user",
							"type": "address"
						},
						{
							"indexed": false,
							"internalType": "string",
							"name": "name",
							"type": "string"
						},
						{
							"indexed": false,
							"internalType": "enum FreelanceMarketplace.Role",
							"name": "role",
							"type": "uint8"
						}
					],
					"name": "UserRegistered",
					"type": "event"
				},
				{
					"anonymous": false,
					"inputs": [
						{
							"indexed": true,
							"internalType": "uint256",
							"name": "jobId",
							"type": "uint256"
						},
						{
							"indexed": true,
							"internalType": "address",
							"name": "freelancer",
							"type": "address"
						}
					],
					"name": "WorkSubmitted",
					"type": "event"
				},
				{
					"inputs": [
						{
							"internalType": "uint256",
							"name": "_jobId",
							"type": "uint256"
						}
					],
					"name": "approveWork",
					"outputs": [],
					"stateMutability": "nonpayable",
					"type": "function"
				},
				{
					"inputs": [],
					"name": "arbiter",
					"outputs": [
						{
							"internalType": "address",
							"name": "",
							"type": "address"
						}
					],
					"stateMutability": "view",
					"type": "function"
				},
				{
					"inputs": [
						{
							"internalType": "uint256",
							"name": "_jobId",
							"type": "uint256"
						}
					],
					"name": "disputeJob",
					"outputs": [],
					"stateMutability": "nonpayable",
					"type": "function"
				},
				{
					"inputs": [
						{
							"internalType": "uint256",
							"name": "_jobId",
							"type": "uint256"
						},
						{
							"internalType": "uint256",
							"name": "_bidIndex",
							"type": "uint256"
						}
					],
					"name": "hireFreelancer",
					"outputs": [],
					"stateMutability": "payable",
					"type": "function"
				},
				{
					"inputs": [
						{
							"internalType": "uint256",
							"name": "",
							"type": "uint256"
						},
						{
							"internalType": "uint256",
							"name": "",
							"type": "uint256"
						}
					],
					"name": "jobBids",
					"outputs": [
						{
							"internalType": "uint256",
							"name": "jobId",
							"type": "uint256"
						},
						{
							"internalType": "address",
							"name": "freelancer",
							"type": "address"
						},
						{
							"internalType": "uint256",
							"name": "bidAmount",
							"type": "uint256"
						},
						{
							"internalType": "string",
							"name": "proposedTime",
							"type": "string"
						}
					],
					"stateMutability": "view",
					"type": "function"
				},
				{
					"inputs": [],
					"name": "jobCounter",
					"outputs": [
						{
							"internalType": "uint256",
							"name": "",
							"type": "uint256"
						}
					],
					"stateMutability": "view",
					"type": "function"
				},
				{
					"inputs": [
						{
							"internalType": "uint256",
							"name": "",
							"type": "uint256"
						}
					],
					"name": "jobs",
					"outputs": [
						{
							"internalType": "uint256",
							"name": "id",
							"type": "uint256"
						},
						{
							"internalType": "address",
							"name": "client",
							"type": "address"
						},
						{
							"internalType": "string",
							"name": "title",
							"type": "string"
						},
						{
							"internalType": "string",
							"name": "category",
							"type": "string"
						},
						{
							"internalType": "uint256",
							"name": "maxBudget",
							"type": "uint256"
						},
						{
							"internalType": "uint256",
							"name": "deadline",
							"type": "uint256"
						},
						{
							"internalType": "enum FreelanceMarketplace.JobStatus",
							"name": "status",
							"type": "uint8"
						},
						{
							"internalType": "uint256",
							"name": "lockedAmount",
							"type": "uint256"
						},
						{
							"internalType": "address",
							"name": "selectedFreelancer",
							"type": "address"
						}
					],
					"stateMutability": "view",
					"type": "function"
				},
				{
					"inputs": [
						{
							"internalType": "uint256",
							"name": "_jobId",
							"type": "uint256"
						},
						{
							"internalType": "uint256",
							"name": "_bidAmount",
							"type": "uint256"
						},
						{
							"internalType": "string",
							"name": "_proposedTime",
							"type": "string"
						}
					],
					"name": "placeBid",
					"outputs": [],
					"stateMutability": "nonpayable",
					"type": "function"
				},
				{
					"inputs": [],
					"name": "platformFeesCollected",
					"outputs": [
						{
							"internalType": "uint256",
							"name": "",
							"type": "uint256"
						}
					],
					"stateMutability": "view",
					"type": "function"
				},
				{
					"inputs": [
						{
							"internalType": "string",
							"name": "_title",
							"type": "string"
						},
						{
							"internalType": "string",
							"name": "_category",
							"type": "string"
						},
						{
							"internalType": "uint256",
							"name": "_maxBudget",
							"type": "uint256"
						},
						{
							"internalType": "uint256",
							"name": "_deadline",
							"type": "uint256"
						}
					],
					"name": "postJob",
					"outputs": [],
					"stateMutability": "nonpayable",
					"type": "function"
				},
				{
					"inputs": [
						{
							"internalType": "string",
							"name": "_name",
							"type": "string"
						},
						{
							"internalType": "uint8",
							"name": "_roleIndex",
							"type": "uint8"
						}
					],
					"name": "registerUser",
					"outputs": [],
					"stateMutability": "nonpayable",
					"type": "function"
				},
				{
					"inputs": [
						{
							"internalType": "uint256",
							"name": "_jobId",
							"type": "uint256"
						},
						{
							"internalType": "bool",
							"name": "_payFreelancer",
							"type": "bool"
						}
					],
					"name": "resolveDispute",
					"outputs": [],
					"stateMutability": "nonpayable",
					"type": "function"
				},
				{
					"inputs": [
						{
							"internalType": "uint256",
							"name": "_jobId",
							"type": "uint256"
						}
					],
					"name": "submitWork",
					"outputs": [],
					"stateMutability": "nonpayable",
					"type": "function"
				},
				{
					"inputs": [
						{
							"internalType": "address",
							"name": "",
							"type": "address"
						}
					],
					"name": "users",
					"outputs": [
						{
							"internalType": "string",
							"name": "name",
							"type": "string"
						},
						{
							"internalType": "enum FreelanceMarketplace.Role",
							"name": "role",
							"type": "uint8"
						},
						{
							"internalType": "address",
							"name": "walletAddress",
							"type": "address"
						},
						{
							"internalType": "uint256",
							"name": "reputation",
							"type": "uint256"
						},
						{
							"internalType": "bool",
							"name": "isRegistered",
							"type": "bool"
						}
					],
					"stateMutability": "view",
					"type": "function"
				}
			],
			"devdoc": {
				"kind": "dev",
				"methods": {},
				"version": 1
			},
			"evm": {
				"assembly": "    /* \"FreelanceMarketplace.sol\":60:9432  contract FreelanceMarketplace {\r... */\n  mstore(0x40, 0x80)\n    /* \"FreelanceMarketplace.sol\":2518:2598  constructor() {\r... */\n  callvalue\n  dup1\n  iszero\n  tag_1\n  jumpi\n  0x00\n  dup1\n  revert\ntag_1:\n  pop\n    /* \"FreelanceMarketplace.sol\":2553:2563  msg.sender */\n  caller\n    /* \"FreelanceMarketplace.sol\":2543:2550  arbiter */\n  0x00\n  dup1\n    /* \"FreelanceMarketplace.sol\":2543:2563  arbiter = msg.sender */\n  0x0100\n  exp\n  dup2\n  sload\n  dup2\n  0xffffffffffffffffffffffffffffffffffffffff\n  mul\n  not\n  and\n  swap1\n  dup4\n  0xffffffffffffffffffffffffffffffffffffffff\n  and\n  mul\n  or\n  swap1\n  sstore\n  pop\n    /* \"FreelanceMarketplace.sol\":60:9432  contract FreelanceMarketplace {\r... */\n  dataSize(sub_0)\n  dup1\n  dataOffset(sub_0)\n  0x00\n  codecopy\n  0x00\n  return\nstop\n\nsub_0: assembly {\n        /* \"FreelanceMarketplace.sol\":60:9432  contract FreelanceMarketplace {\r... */\n      mstore(0x40, 0x80)\n      jumpi(tag_1, lt(calldatasize, 0x04))\n      shr(0xe0, calldataload(0x00))\n      dup1\n      0x840850d1\n      gt\n      tag_16\n      jumpi\n      dup1\n      0xc4c11523\n      gt\n      tag_17\n      jumpi\n      dup1\n      0xc4c11523\n      eq\n      tag_12\n      jumpi\n      dup1\n      0xd93d9beb\n      eq\n      tag_13\n      jumpi\n      dup1\n      0xf73b60a9\n      eq\n      tag_14\n      jumpi\n      dup1\n      0xfe25e00a\n      eq\n      tag_15\n      jumpi\n      jump(tag_1)\n    tag_17:\n      dup1\n      0x840850d1\n      eq\n      tag_9\n      jumpi\n      dup1\n      0xa87430ba\n      eq\n      tag_10\n      jumpi\n      dup1\n      0xb36ffca6\n      eq\n      tag_11\n      jumpi\n      jump(tag_1)\n    tag_16:\n      dup1\n      0x3d01e0fa\n      gt\n      tag_18\n      jumpi\n      dup1\n      0x3d01e0fa\n      eq\n      tag_5\n      jumpi\n      dup1\n      0x44739b52\n      eq\n      tag_6\n      jumpi\n      dup1\n      0x50355d76\n      eq\n      tag_7\n      jumpi\n      dup1\n      0x71bf6bed\n      eq\n      tag_8\n      jumpi\n      jump(tag_1)\n    tag_18:\n      dup1\n      0x180aedf3\n      eq\n      tag_2\n      jumpi\n      dup1\n      0x338e12eb\n      eq\n      tag_3\n      jumpi\n      dup1\n      0x34b25ee2\n      eq\n      tag_4\n      jumpi\n    tag_1:\n      0x00\n      dup1\n      revert\n        /* \"FreelanceMarketplace.sol\":1114:1149  mapping(uint256 => Job) public jobs */\n    tag_2:\n      callvalue\n      dup1\n      iszero\n      tag_19\n      jumpi\n      0x00\n      dup1\n      revert\n    tag_19:\n      pop\n      tag_20\n      0x04\n      dup1\n      calldatasize\n      sub\n      dup2\n      add\n      swap1\n      tag_21\n      swap2\n      swap1\n      tag_22\n      jump\t// in\n    tag_21:\n      tag_23\n      jump\t// in\n    tag_20:\n      mload(0x40)\n      tag_24\n      swap10\n      swap9\n      swap8\n      swap7\n      swap6\n      swap5\n      swap4\n      swap3\n      swap2\n      swap1\n      tag_25\n      jump\t// in\n    tag_24:\n      mload(0x40)\n      dup1\n      swap2\n      sub\n      swap1\n      return\n        /* \"FreelanceMarketplace.sol\":2657:3809  function registerUser(string memory _name, uint8 _roleIndex) public {\r... */\n    tag_3:\n      callvalue\n      dup1\n      iszero\n      tag_26\n      jumpi\n      0x00\n      dup1\n      revert\n    tag_26:\n      pop\n      tag_27\n      0x04\n      dup1\n      calldatasize\n      sub\n      dup2\n      add\n      swap1\n      tag_28\n      swap2\n      swap1\n      tag_29\n      jump\t// in\n    tag_28:\n      tag_30\n      jump\t// in\n    tag_27:\n      stop\n        /* \"FreelanceMarketplace.sol\":8121:9429  function resolveDispute(uint256 _jobId, bool _payFreelancer) public onlyArbiter {\r... */\n    tag_4:\n      callvalue\n      dup1\n      iszero\n      tag_31\n      jumpi\n      0x00\n      dup1\n      revert\n    tag_31:\n      pop\n      tag_32\n      0x04\n      dup1\n      calldatasize\n      sub\n      dup2\n      add\n      swap1\n      tag_33\n      swap2\n      swap1\n      tag_34\n      jump\t// in\n    tag_33:\n      tag_35\n      jump\t// in\n    tag_32:\n      stop\n        /* \"FreelanceMarketplace.sol\":6639:7676  function approveWork(uint256 _jobId) public onlyRegistered onlyClient {\r... */\n    tag_5:\n      callvalue\n      dup1\n      iszero\n      tag_36\n      jumpi\n      0x00\n      dup1\n      revert\n    tag_36:\n      pop\n      tag_37\n      0x04\n      dup1\n      calldatasize\n      sub\n      dup2\n      add\n      swap1\n      tag_38\n      swap2\n      swap1\n      tag_22\n      jump\t// in\n    tag_38:\n      tag_39\n      jump\t// in\n    tag_37:\n      stop\n        /* \"FreelanceMarketplace.sol\":4505:5296  function placeBid(uint256 _jobId, uint256 _bidAmount, string memory _proposedTime) public onlyRegistered onlyFreelancer {\r... */\n    tag_6:\n      callvalue\n      dup1\n      iszero\n      tag_40\n      jumpi\n      0x00\n      dup1\n      revert\n    tag_40:\n      pop\n      tag_41\n      0x04\n      dup1\n      calldatasize\n      sub\n      dup2\n      add\n      swap1\n      tag_42\n      swap2\n      swap1\n      tag_43\n      jump\t// in\n    tag_42:\n      tag_44\n      jump\t// in\n    tag_41:\n      stop\n        /* \"FreelanceMarketplace.sol\":976:1001  uint256 public jobCounter */\n    tag_7:\n      callvalue\n      dup1\n      iszero\n      tag_45\n      jumpi\n      0x00\n      dup1\n      revert\n    tag_45:\n      pop\n      tag_46\n      tag_47\n      jump\t// in\n    tag_46:\n      mload(0x40)\n      tag_48\n      swap2\n      swap1\n      tag_49\n      jump\t// in\n    tag_48:\n      mload(0x40)\n      dup1\n      swap2\n      sub\n      swap1\n      return\n        /* \"FreelanceMarketplace.sol\":3861:4449  function postJob(string memory _title, string memory _category, uint256 _maxBudget, uint256 _deadline) public onlyRegistered onlyClient {\r... */\n    tag_8:\n      callvalue\n      dup1\n      iszero\n      tag_50\n      jumpi\n      0x00\n      dup1\n      revert\n    tag_50:\n      pop\n      tag_51\n      0x04\n      dup1\n      calldatasize\n      sub\n      dup2\n      add\n      swap1\n      tag_52\n      swap2\n      swap1\n      tag_53\n      jump\t// in\n    tag_52:\n      tag_54\n      jump\t// in\n    tag_51:\n      stop\n        /* \"FreelanceMarketplace.sol\":1156:1196  mapping(uint256 => Bid[]) public jobBids */\n    tag_9:\n      callvalue\n      dup1\n      iszero\n      tag_55\n      jumpi\n      0x00\n      dup1\n      revert\n    tag_55:\n      pop\n      tag_56\n      0x04\n      dup1\n      calldatasize\n      sub\n      dup2\n      add\n      swap1\n      tag_57\n      swap2\n      swap1\n      tag_58\n      jump\t// in\n    tag_57:\n      tag_59\n      jump\t// in\n    tag_56:\n      mload(0x40)\n      tag_60\n      swap5\n      swap4\n      swap3\n      swap2\n      swap1\n      tag_61\n      jump\t// in\n    tag_60:\n      mload(0x40)\n      dup1\n      swap2\n      sub\n      swap1\n      return\n        /* \"FreelanceMarketplace.sol\":1070:1107  mapping(address => User) public users */\n    tag_10:\n      callvalue\n      dup1\n      iszero\n      tag_62\n      jumpi\n      0x00\n      dup1\n      revert\n    tag_62:\n      pop\n      tag_63\n      0x04\n      dup1\n      calldatasize\n      sub\n      dup2\n      add\n      swap1\n      tag_64\n      swap2\n      swap1\n      tag_65\n      jump\t// in\n    tag_64:\n      tag_66\n      jump\t// in\n    tag_63:\n      mload(0x40)\n      tag_67\n      swap6\n      swap5\n      swap4\n      swap3\n      swap2\n      swap1\n      tag_68\n      jump\t// in\n    tag_67:\n      mload(0x40)\n      dup1\n      swap2\n      sub\n      swap1\n      return\n        /* \"FreelanceMarketplace.sol\":1008:1044  uint256 public platformFeesCollected */\n    tag_11:\n      callvalue\n      dup1\n      iszero\n      tag_69\n      jumpi\n      0x00\n      dup1\n      revert\n    tag_69:\n      pop\n      tag_70\n      tag_71\n      jump\t// in\n    tag_70:\n      mload(0x40)\n      tag_72\n      swap2\n      swap1\n      tag_49\n      jump\t// in\n    tag_72:\n      mload(0x40)\n      dup1\n      swap2\n      sub\n      swap1\n      return\n        /* \"FreelanceMarketplace.sol\":6195:6631  function submitWork(uint256 _jobId) public onlyRegistered onlyFreelancer {\r... */\n    tag_12:\n      callvalue\n      dup1\n      iszero\n      tag_73\n      jumpi\n      0x00\n      dup1\n      revert\n    tag_73:\n      pop\n      tag_74\n      0x04\n      dup1\n      calldatasize\n      sub\n      dup2\n      add\n      swap1\n      tag_75\n      swap2\n      swap1\n      tag_22\n      jump\t// in\n    tag_75:\n      tag_76\n      jump\t// in\n    tag_74:\n      stop\n        /* \"FreelanceMarketplace.sol\":7738:8113  function disputeJob(uint256 _jobId) public onlyRegistered onlyClient {\r... */\n    tag_13:\n      callvalue\n      dup1\n      iszero\n      tag_77\n      jumpi\n      0x00\n      dup1\n      revert\n    tag_77:\n      pop\n      tag_78\n      0x04\n      dup1\n      calldatasize\n      sub\n      dup2\n      add\n      swap1\n      tag_79\n      swap2\n      swap1\n      tag_22\n      jump\t// in\n    tag_79:\n      tag_80\n      jump\t// in\n    tag_78:\n      stop\n        /* \"FreelanceMarketplace.sol\":5351:6125  function hireFreelancer(uint256 _jobId, uint256 _bidIndex) public payable onlyRegistered onlyClient {\r... */\n    tag_14:\n      tag_81\n      0x04\n      dup1\n      calldatasize\n      sub\n      dup2\n      add\n      swap1\n      tag_82\n      swap2\n      swap1\n      tag_58\n      jump\t// in\n    tag_82:\n      tag_83\n      jump\t// in\n    tag_81:\n      stop\n        /* \"FreelanceMarketplace.sol\":925:947  address public arbiter */\n    tag_15:\n      callvalue\n      dup1\n      iszero\n      tag_84\n      jumpi\n      0x00\n      dup1\n      revert\n    tag_84:\n      pop\n      tag_85\n      tag_86\n      jump\t// in\n    tag_85:\n      mload(0x40)\n      tag_87\n      swap2\n      swap1\n      tag_88\n      jump\t// in\n    tag_87:\n      mload(0x40)\n      dup1\n      swap2\n      sub\n      swap1\n      return\n        /* \"FreelanceMarketplace.sol\":1114:1149  mapping(uint256 => Job) public jobs */\n    tag_23:\n      mstore(0x20, 0x04)\n      dup1\n      0x00\n      mstore\n      keccak256(0x00, 0x40)\n      0x00\n      swap2\n      pop\n      swap1\n      pop\n      dup1\n      0x00\n      add\n      sload\n      swap1\n      dup1\n      0x01\n      add\n      0x00\n      swap1\n      sload\n      swap1\n      0x0100\n      exp\n      swap1\n      div\n      0xffffffffffffffffffffffffffffffffffffffff\n      and\n      swap1\n      dup1\n      0x02\n      add\n      dup1\n      sload\n      tag_89\n      swap1\n      tag_90\n      jump\t// in\n    tag_89:\n      dup1\n      0x1f\n      add\n      0x20\n      dup1\n      swap2\n      div\n      mul\n      0x20\n      add\n      mload(0x40)\n      swap1\n      dup2\n      add\n      0x40\n      mstore\n      dup1\n      swap3\n      swap2\n      swap1\n      dup2\n      dup2\n      mstore\n      0x20\n      add\n      dup3\n      dup1\n      sload\n      tag_91\n      swap1\n      tag_90\n      jump\t// in\n    tag_91:\n      dup1\n      iszero\n      tag_92\n      jumpi\n      dup1\n      0x1f\n      lt\n      tag_93\n      jumpi\n      0x0100\n      dup1\n      dup4\n      sload\n      div\n      mul\n      dup4\n      mstore\n      swap2\n      0x20\n      add\n      swap2\n      jump(tag_92)\n    tag_93:\n      dup3\n      add\n      swap2\n      swap1\n      0x00\n      mstore\n      keccak256(0x00, 0x20)\n      swap1\n    tag_94:\n      dup2\n      sload\n      dup2\n      mstore\n      swap1\n      0x01\n      add\n      swap1\n      0x20\n      add\n      dup1\n      dup4\n      gt\n      tag_94\n      jumpi\n      dup3\n      swap1\n      sub\n      0x1f\n      and\n      dup3\n      add\n      swap2\n    tag_92:\n      pop\n      pop\n      pop\n      pop\n      pop\n      swap1\n      dup1\n      0x03\n      add\n      dup1\n      sload\n      tag_95\n      swap1\n      tag_90\n      jump\t// in\n    tag_95:\n      dup1\n      0x1f\n      add\n      0x20\n      dup1\n      swap2\n      div\n      mul\n      0x20\n      add\n      mload(0x40)\n      swap1\n      dup2\n      add\n      0x40\n      mstore\n      dup1\n      swap3\n      swap2\n      swap1\n      dup2\n      dup2\n      mstore\n      0x20\n      add\n      dup3\n      dup1\n      sload\n      tag_96\n      swap1\n      tag_90\n      jump\t// in\n    tag_96:\n      dup1\n      iszero\n      tag_97\n      jumpi\n      dup1\n      0x1f\n      lt\n      tag_98\n      jumpi\n      0x0100\n      dup1\n      dup4\n      sload\n      div\n      mul\n      dup4\n      mstore\n      swap2\n      0x20\n      add\n      swap2\n      jump(tag_97)\n    tag_98:\n      dup3\n      add\n      swap2\n      swap1\n      0x00\n      mstore\n      keccak256(0x00, 0x20)\n      swap1\n    tag_99:\n      dup2\n      sload\n      dup2\n      mstore\n      swap1\n      0x01\n      add\n      swap1\n      0x20\n      add\n      dup1\n      dup4\n      gt\n      tag_99\n      jumpi\n      dup3\n      swap1\n      sub\n      0x1f\n      and\n      dup3\n      add\n      swap2\n    tag_97:\n      pop\n      pop\n      pop\n      pop\n      pop\n      swap1\n      dup1\n      0x04\n      add\n      sload\n      swap1\n      dup1\n      0x05\n      add\n      sload\n      swap1\n      dup1\n      0x06\n      add\n      0x00\n      swap1\n      sload\n      swap1\n      0x0100\n      exp\n      swap1\n      div\n      0xff\n      and\n      swap1\n      dup1\n      0x07\n      add\n      sload\n      swap1\n      dup1\n      0x08\n      add\n      0x00\n      swap1\n      sload\n      swap1\n      0x0100\n      exp\n      swap1\n      div\n      0xffffffffffffffffffffffffffffffffffffffff\n      and\n      swap1\n      pop\n      dup10\n      jump\t// out\n        /* \"FreelanceMarketplace.sol\":2657:3809  function registerUser(string memory _name, uint8 _roleIndex) public {\r... */\n    tag_30:\n        /* \"FreelanceMarketplace.sol\":2745:2750  users */\n      0x03\n        /* \"FreelanceMarketplace.sol\":2745:2762  users[msg.sender] */\n      0x00\n        /* \"FreelanceMarketplace.sol\":2751:2761  msg.sender */\n      caller\n        /* \"FreelanceMarketplace.sol\":2745:2762  users[msg.sender] */\n      0xffffffffffffffffffffffffffffffffffffffff\n      and\n      0xffffffffffffffffffffffffffffffffffffffff\n      and\n      dup2\n      mstore\n      0x20\n      add\n      swap1\n      dup2\n      mstore\n      0x20\n      add\n      0x00\n      keccak256\n        /* \"FreelanceMarketplace.sol\":2745:2775  users[msg.sender].isRegistered */\n      0x03\n      add\n      0x00\n      swap1\n      sload\n      swap1\n      0x0100\n      exp\n      swap1\n      div\n      0xff\n      and\n        /* \"FreelanceMarketplace.sol\":2744:2775  !users[msg.sender].isRegistered */\n      iszero\n        /* \"FreelanceMarketplace.sol\":2736:2803  require(!users[msg.sender].isRegistered, \"User already registered\") */\n      tag_101\n      jumpi\n      mload(0x40)\n      0x08c379a000000000000000000000000000000000000000000000000000000000\n      dup2\n      mstore\n      0x04\n      add\n      tag_102\n      swap1\n      tag_103\n      jump\t// in\n    tag_102:\n      mload(0x40)\n      dup1\n      swap2\n      sub\n      swap1\n      revert\n    tag_101:\n        /* \"FreelanceMarketplace.sol\":2824:2834  Role _role */\n      0x00\n        /* \"FreelanceMarketplace.sol\":2842:2852  _roleIndex */\n      dup2\n        /* \"FreelanceMarketplace.sol\":2837:2853  Role(_roleIndex) */\n      0xff\n      and\n      0x03\n      dup2\n      gt\n      iszero\n      tag_104\n      jumpi\n      mstore(0x00, 0x4e487b7100000000000000000000000000000000000000000000000000000000)\n      mstore(0x04, 0x21)\n      revert(0x00, 0x24)\n    tag_104:\n        /* \"FreelanceMarketplace.sol\":2824:2853  Role _role = Role(_roleIndex) */\n      swap1\n      pop\n        /* \"FreelanceMarketplace.sol\":3025:3036  Role.Client */\n      0x02\n        /* \"FreelanceMarketplace.sol\":3016:3036  _role == Role.Client */\n      0x03\n      dup2\n      gt\n      iszero\n      tag_105\n      jumpi\n      mstore(0x00, 0x4e487b7100000000000000000000000000000000000000000000000000000000)\n      mstore(0x04, 0x21)\n      revert(0x00, 0x24)\n    tag_105:\n        /* \"FreelanceMarketplace.sol\":3016:3021  _role */\n      dup2\n        /* \"FreelanceMarketplace.sol\":3016:3036  _role == Role.Client */\n      0x03\n      dup2\n      gt\n      iszero\n      tag_106\n      jumpi\n      mstore(0x00, 0x4e487b7100000000000000000000000000000000000000000000000000000000)\n      mstore(0x04, 0x21)\n      revert(0x00, 0x24)\n    tag_106:\n      eq\n        /* \"FreelanceMarketplace.sol\":3016:3064  _role == Role.Client || _role == Role.Freelancer */\n      dup1\n      tag_107\n      jumpi\n      pop\n        /* \"FreelanceMarketplace.sol\":3049:3064  Role.Freelancer */\n      0x03\n        /* \"FreelanceMarketplace.sol\":3040:3064  _role == Role.Freelancer */\n      dup1\n      dup2\n      gt\n      iszero\n      tag_108\n      jumpi\n      mstore(0x00, 0x4e487b7100000000000000000000000000000000000000000000000000000000)\n      mstore(0x04, 0x21)\n      revert(0x00, 0x24)\n    tag_108:\n        /* \"FreelanceMarketplace.sol\":3040:3045  _role */\n      dup2\n        /* \"FreelanceMarketplace.sol\":3040:3064  _role == Role.Freelancer */\n      0x03\n      dup2\n      gt\n      iszero\n      tag_109\n      jumpi\n      mstore(0x00, 0x4e487b7100000000000000000000000000000000000000000000000000000000)\n      mstore(0x04, 0x21)\n      revert(0x00, 0x24)\n    tag_109:\n      eq\n        /* \"FreelanceMarketplace.sol\":3016:3064  _role == Role.Client || _role == Role.Freelancer */\n    tag_107:\n        /* \"FreelanceMarketplace.sol\":3016:3089  _role == Role.Client || _role == Role.Freelancer || _role == Role.Arbiter */\n      dup1\n      tag_110\n      jumpi\n      pop\n        /* \"FreelanceMarketplace.sol\":3077:3089  Role.Arbiter */\n      0x01\n        /* \"FreelanceMarketplace.sol\":3068:3089  _role == Role.Arbiter */\n      0x03\n      dup2\n      gt\n      iszero\n      tag_111\n      jumpi\n      mstore(0x00, 0x4e487b7100000000000000000000000000000000000000000000000000000000)\n      mstore(0x04, 0x21)\n      revert(0x00, 0x24)\n    tag_111:\n        /* \"FreelanceMarketplace.sol\":3068:3073  _role */\n      dup2\n        /* \"FreelanceMarketplace.sol\":3068:3089  _role == Role.Arbiter */\n      0x03\n      dup2\n      gt\n      iszero\n      tag_112\n      jumpi\n      mstore(0x00, 0x4e487b7100000000000000000000000000000000000000000000000000000000)\n      mstore(0x04, 0x21)\n      revert(0x00, 0x24)\n    tag_112:\n      eq\n        /* \"FreelanceMarketplace.sol\":3016:3089  _role == Role.Client || _role == Role.Freelancer || _role == Role.Arbiter */\n    tag_110:\n        /* \"FreelanceMarketplace.sol\":3008:3106  require(_role == Role.Client || _role == Role.Freelancer || _role == Role.Arbiter, \"Invalid role\") */\n      tag_113\n      jumpi\n      mload(0x40)\n      0x08c379a000000000000000000000000000000000000000000000000000000000\n      dup2\n      mstore\n      0x04\n      add\n      tag_114\n      swap1\n      tag_115\n      jump\t// in\n    tag_114:\n      mload(0x40)\n      dup1\n      swap2\n      sub\n      swap1\n      revert\n    tag_113:\n        /* \"FreelanceMarketplace.sol\":3208:3220  Role.Arbiter */\n      0x01\n        /* \"FreelanceMarketplace.sol\":3199:3220  _role == Role.Arbiter */\n      0x03\n      dup2\n      gt\n      iszero\n      tag_116\n      jumpi\n      mstore(0x00, 0x4e487b7100000000000000000000000000000000000000000000000000000000)\n      mstore(0x04, 0x21)\n      revert(0x00, 0x24)\n    tag_116:\n        /* \"FreelanceMarketplace.sol\":3199:3204  _role */\n      dup2\n        /* \"FreelanceMarketplace.sol\":3199:3220  _role == Role.Arbiter */\n      0x03\n      dup2\n      gt\n      iszero\n      tag_117\n      jumpi\n      mstore(0x00, 0x4e487b7100000000000000000000000000000000000000000000000000000000)\n      mstore(0x04, 0x21)\n      revert(0x00, 0x24)\n    tag_117:\n      eq\n        /* \"FreelanceMarketplace.sol\":3195:3320  if (_role == Role.Arbiter) {\r... */\n      iszero\n      tag_118\n      jumpi\n        /* \"FreelanceMarketplace.sol\":3259:3266  arbiter */\n      0x00\n      dup1\n      sload\n      swap1\n      0x0100\n      exp\n      swap1\n      div\n      0xffffffffffffffffffffffffffffffffffffffff\n      and\n        /* \"FreelanceMarketplace.sol\":3245:3266  msg.sender == arbiter */\n      0xffffffffffffffffffffffffffffffffffffffff\n      and\n        /* \"FreelanceMarketplace.sol\":3245:3255  msg.sender */\n      caller\n        /* \"FreelanceMarketplace.sol\":3245:3266  msg.sender == arbiter */\n      0xffffffffffffffffffffffffffffffffffffffff\n      and\n      eq\n        /* \"FreelanceMarketplace.sol\":3237:3308  require(msg.sender == arbiter, \"Only deployer can register as Arbiter\") */\n      tag_119\n      jumpi\n      mload(0x40)\n      0x08c379a000000000000000000000000000000000000000000000000000000000\n      dup2\n      mstore\n      0x04\n      add\n      tag_120\n      swap1\n      tag_121\n      jump\t// in\n    tag_120:\n      mload(0x40)\n      dup1\n      swap2\n      sub\n      swap1\n      revert\n    tag_119:\n        /* \"FreelanceMarketplace.sol\":3195:3320  if (_role == Role.Arbiter) {\r... */\n    tag_118:\n        /* \"FreelanceMarketplace.sol\":3332:3357  uint256 initialReputation */\n      0x00\n        /* \"FreelanceMarketplace.sol\":3458:3473  Role.Freelancer */\n      0x03\n        /* \"FreelanceMarketplace.sol\":3449:3473  _role == Role.Freelancer */\n      dup1\n      dup2\n      gt\n      iszero\n      tag_122\n      jumpi\n      mstore(0x00, 0x4e487b7100000000000000000000000000000000000000000000000000000000)\n      mstore(0x04, 0x21)\n      revert(0x00, 0x24)\n    tag_122:\n        /* \"FreelanceMarketplace.sol\":3449:3454  _role */\n      dup3\n        /* \"FreelanceMarketplace.sol\":3449:3473  _role == Role.Freelancer */\n      0x03\n      dup2\n      gt\n      iszero\n      tag_123\n      jumpi\n      mstore(0x00, 0x4e487b7100000000000000000000000000000000000000000000000000000000)\n      mstore(0x04, 0x21)\n      revert(0x00, 0x24)\n    tag_123:\n      eq\n        /* \"FreelanceMarketplace.sol\":3445:3525  if (_role == Role.Freelancer) {\r... */\n      iszero\n      tag_124\n      jumpi\n        /* \"FreelanceMarketplace.sol\":3510:3513  100 */\n      0x64\n        /* \"FreelanceMarketplace.sol\":3490:3513  initialReputation = 100 */\n      swap1\n      pop\n        /* \"FreelanceMarketplace.sol\":3445:3525  if (_role == Role.Freelancer) {\r... */\n    tag_124:\n        /* \"FreelanceMarketplace.sol\":3557:3743  User({\r... */\n      mload(0x40)\n      dup1\n      0xa0\n      add\n      0x40\n      mstore\n      dup1\n        /* \"FreelanceMarketplace.sol\":3583:3588  _name */\n      dup6\n        /* \"FreelanceMarketplace.sol\":3557:3743  User({\r... */\n      dup2\n      mstore\n      0x20\n      add\n        /* \"FreelanceMarketplace.sol\":3609:3614  _role */\n      dup4\n        /* \"FreelanceMarketplace.sol\":3557:3743  User({\r... */\n      0x03\n      dup2\n      gt\n      iszero\n      tag_125\n      jumpi\n      mstore(0x00, 0x4e487b7100000000000000000000000000000000000000000000000000000000)\n      mstore(0x04, 0x21)\n      revert(0x00, 0x24)\n    tag_125:\n      dup2\n      mstore\n      0x20\n      add\n        /* \"FreelanceMarketplace.sol\":3644:3654  msg.sender */\n      caller\n        /* \"FreelanceMarketplace.sol\":3557:3743  User({\r... */\n      0xffffffffffffffffffffffffffffffffffffffff\n      and\n      dup2\n      mstore\n      0x20\n      add\n        /* \"FreelanceMarketplace.sol\":3681:3698  initialReputation */\n      dup3\n        /* \"FreelanceMarketplace.sol\":3557:3743  User({\r... */\n      dup2\n      mstore\n      0x20\n      add\n        /* \"FreelanceMarketplace.sol\":3727:3731  true */\n      0x01\n        /* \"FreelanceMarketplace.sol\":3557:3743  User({\r... */\n      iszero\n      iszero\n      dup2\n      mstore\n      pop\n        /* \"FreelanceMarketplace.sol\":3537:3542  users */\n      0x03\n        /* \"FreelanceMarketplace.sol\":3537:3554  users[msg.sender] */\n      0x00\n        /* \"FreelanceMarketplace.sol\":3543:3553  msg.sender */\n      caller\n        /* \"FreelanceMarketplace.sol\":3537:3554  users[msg.sender] */\n      0xffffffffffffffffffffffffffffffffffffffff\n      and\n      0xffffffffffffffffffffffffffffffffffffffff\n      and\n      dup2\n      mstore\n      0x20\n      add\n      swap1\n      dup2\n      mstore\n      0x20\n      add\n      0x00\n      keccak256\n        /* \"FreelanceMarketplace.sol\":3537:3743  users[msg.sender] = User({\r... */\n      0x00\n      dup3\n      add\n      mload\n      dup2\n      0x00\n      add\n      swap1\n      dup1\n      mload\n      swap1\n      0x20\n      add\n      swap1\n      tag_126\n      swap3\n      swap2\n      swap1\n      tag_127\n      jump\t// in\n    tag_126:\n      pop\n      0x20\n      dup3\n      add\n      mload\n      dup2\n      0x01\n      add\n      exp(0x0100, 0x00)\n      dup2\n      sload\n      dup2\n      0xff\n      mul\n      not\n      and\n      swap1\n      dup4\n      0x03\n      dup2\n      gt\n      iszero\n      tag_128\n      jumpi\n      mstore(0x00, 0x4e487b7100000000000000000000000000000000000000000000000000000000)\n      mstore(0x04, 0x21)\n      revert(0x00, 0x24)\n    tag_128:\n      mul\n      or\n      swap1\n      sstore\n      pop\n      0x40\n      dup3\n      add\n      mload\n      dup2\n      0x01\n      add\n      exp(0x0100, 0x01)\n      dup2\n      sload\n      dup2\n      0xffffffffffffffffffffffffffffffffffffffff\n      mul\n      not\n      and\n      swap1\n      dup4\n      0xffffffffffffffffffffffffffffffffffffffff\n      and\n      mul\n      or\n      swap1\n      sstore\n      pop\n      0x60\n      dup3\n      add\n      mload\n      dup2\n      0x02\n      add\n      sstore\n      0x80\n      dup3\n      add\n      mload\n      dup2\n      0x03\n      add\n      exp(0x0100, 0x00)\n      dup2\n      sload\n      dup2\n      0xff\n      mul\n      not\n      and\n      swap1\n      dup4\n      iszero\n      iszero\n      mul\n      or\n      swap1\n      sstore\n      pop\n      swap1\n      pop\n      pop\n        /* \"FreelanceMarketplace.sol\":3776:3786  msg.sender */\n      caller\n        /* \"FreelanceMarketplace.sol\":3761:3801  UserRegistered(msg.sender, _name, _role) */\n      0xffffffffffffffffffffffffffffffffffffffff\n      and\n      0xc2e5d5da58bd71d1a2d14cdef02a4256d971b728088f8190d067ccfbae3bd73e\n        /* \"FreelanceMarketplace.sol\":3788:3793  _name */\n      dup6\n        /* \"FreelanceMarketplace.sol\":3795:3800  _role */\n      dup5\n        /* \"FreelanceMarketplace.sol\":3761:3801  UserRegistered(msg.sender, _name, _role) */\n      mload(0x40)\n      tag_129\n      swap3\n      swap2\n      swap1\n      tag_130\n      jump\t// in\n    tag_129:\n      mload(0x40)\n      dup1\n      swap2\n      sub\n      swap1\n      log2\n        /* \"FreelanceMarketplace.sol\":2657:3809  function registerUser(string memory _name, uint8 _roleIndex) public {\r... */\n      pop\n      pop\n      pop\n      pop\n      jump\t// out\n        /* \"FreelanceMarketplace.sol\":8121:9429  function resolveDispute(uint256 _jobId, bool _payFreelancer) public onlyArbiter {\r... */\n    tag_35:\n        /* \"FreelanceMarketplace.sol\":2005:2012  arbiter */\n      0x00\n      dup1\n      sload\n      swap1\n      0x0100\n      exp\n      swap1\n      div\n      0xffffffffffffffffffffffffffffffffffffffff\n      and\n        /* \"FreelanceMarketplace.sol\":1991:2012  msg.sender == arbiter */\n      0xffffffffffffffffffffffffffffffffffffffff\n      and\n        /* \"FreelanceMarketplace.sol\":1991:2001  msg.sender */\n      caller\n        /* \"FreelanceMarketplace.sol\":1991:2012  msg.sender == arbiter */\n      0xffffffffffffffffffffffffffffffffffffffff\n      and\n      eq\n        /* \"FreelanceMarketplace.sol\":1983:2053  require(msg.sender == arbiter, \"Only Arbiter can perform this action\") */\n      tag_132\n      jumpi\n      mload(0x40)\n      0x08c379a000000000000000000000000000000000000000000000000000000000\n      dup2\n      mstore\n      0x04\n      add\n      tag_133\n      swap1\n      tag_134\n      jump\t// in\n    tag_133:\n      mload(0x40)\n      dup1\n      swap2\n      sub\n      swap1\n      revert\n    tag_132:\n        /* \"FreelanceMarketplace.sol\":8212:8227  Job storage job */\n      0x00\n        /* \"FreelanceMarketplace.sol\":8230:8234  jobs */\n      0x04\n        /* \"FreelanceMarketplace.sol\":8230:8242  jobs[_jobId] */\n      0x00\n        /* \"FreelanceMarketplace.sol\":8235:8241  _jobId */\n      dup5\n        /* \"FreelanceMarketplace.sol\":8230:8242  jobs[_jobId] */\n      dup2\n      mstore\n      0x20\n      add\n      swap1\n      dup2\n      mstore\n      0x20\n      add\n      0x00\n      keccak256\n        /* \"FreelanceMarketplace.sol\":8212:8242  Job storage job = jobs[_jobId] */\n      swap1\n      pop\n        /* \"FreelanceMarketplace.sol\":8275:8293  JobStatus.Disputed */\n      0x03\n        /* \"FreelanceMarketplace.sol\":8261:8293  job.status == JobStatus.Disputed */\n      0x05\n      dup2\n      gt\n      iszero\n      tag_136\n      jumpi\n      mstore(0x00, 0x4e487b7100000000000000000000000000000000000000000000000000000000)\n      mstore(0x04, 0x21)\n      revert(0x00, 0x24)\n    tag_136:\n        /* \"FreelanceMarketplace.sol\":8261:8264  job */\n      dup2\n        /* \"FreelanceMarketplace.sol\":8261:8271  job.status */\n      0x06\n      add\n      0x00\n      swap1\n      sload\n      swap1\n      0x0100\n      exp\n      swap1\n      div\n      0xff\n      and\n        /* \"FreelanceMarketplace.sol\":8261:8293  job.status == JobStatus.Disputed */\n      0x05\n      dup2\n      gt\n      iszero\n      tag_137\n      jumpi\n      mstore(0x00, 0x4e487b7100000000000000000000000000000000000000000000000000000000)\n      mstore(0x04, 0x21)\n      revert(0x00, 0x24)\n    tag_137:\n      eq\n        /* \"FreelanceMarketplace.sol\":8253:8317  require(job.status == JobStatus.Disputed, \"Job is not disputed\") */\n      tag_138\n      jumpi\n      mload(0x40)\n      0x08c379a000000000000000000000000000000000000000000000000000000000\n      dup2\n      mstore\n      0x04\n      add\n      tag_139\n      swap1\n      tag_140\n      jump\t// in\n    tag_139:\n      mload(0x40)\n      dup1\n      swap2\n      sub\n      swap1\n      revert\n    tag_138:\n        /* \"FreelanceMarketplace.sol\":8330:8349  uint256 totalAmount */\n      0x00\n        /* \"FreelanceMarketplace.sol\":8352:8355  job */\n      dup2\n        /* \"FreelanceMarketplace.sol\":8352:8368  job.lockedAmount */\n      0x07\n      add\n      sload\n        /* \"FreelanceMarketplace.sol\":8330:8368  uint256 totalAmount = job.lockedAmount */\n      swap1\n      pop\n        /* \"FreelanceMarketplace.sol\":8398:8399  0 */\n      0x00\n        /* \"FreelanceMarketplace.sol\":8379:8382  job */\n      dup3\n        /* \"FreelanceMarketplace.sol\":8379:8395  job.lockedAmount */\n      0x07\n      add\n        /* \"FreelanceMarketplace.sol\":8379:8399  job.lockedAmount = 0 */\n      dup2\n      swap1\n      sstore\n      pop\n        /* \"FreelanceMarketplace.sol\":8423:8441  JobStatus.Resolved */\n      0x04\n        /* \"FreelanceMarketplace.sol\":8410:8413  job */\n      dup3\n        /* \"FreelanceMarketplace.sol\":8410:8420  job.status */\n      0x06\n      add\n      0x00\n        /* \"FreelanceMarketplace.sol\":8410:8441  job.status = JobStatus.Resolved */\n      0x0100\n      exp\n      dup2\n      sload\n      dup2\n      0xff\n      mul\n      not\n      and\n      swap1\n      dup4\n      0x05\n      dup2\n      gt\n      iszero\n      tag_141\n      jumpi\n      mstore(0x00, 0x4e487b7100000000000000000000000000000000000000000000000000000000)\n      mstore(0x04, 0x21)\n      revert(0x00, 0x24)\n    tag_141:\n      mul\n      or\n      swap1\n      sstore\n      pop\n        /* \"FreelanceMarketplace.sol\":8458:8472  _payFreelancer */\n      dup3\n        /* \"FreelanceMarketplace.sol\":8454:9422  if (_payFreelancer) {\r... */\n      iszero\n      tag_142\n      jumpi\n        /* \"FreelanceMarketplace.sol\":8550:8561  uint256 fee */\n      0x00\n        /* \"FreelanceMarketplace.sol\":8594:8601  1 ether */\n      0x0de0b6b3a7640000\n        /* \"FreelanceMarketplace.sol\":8580:8591  totalAmount */\n      dup3\n        /* \"FreelanceMarketplace.sol\":8580:8601  totalAmount < 1 ether */\n      lt\n        /* \"FreelanceMarketplace.sol\":8576:8737  if (totalAmount < 1 ether) {\r... */\n      iszero\n      tag_143\n      jumpi\n        /* \"FreelanceMarketplace.sol\":8648:8651  100 */\n      0x64\n        /* \"FreelanceMarketplace.sol\":8643:8644  2 */\n      0x02\n        /* \"FreelanceMarketplace.sol\":8629:8640  totalAmount */\n      dup4\n        /* \"FreelanceMarketplace.sol\":8629:8644  totalAmount * 2 */\n      tag_144\n      swap2\n      swap1\n      tag_145\n      jump\t// in\n    tag_144:\n        /* \"FreelanceMarketplace.sol\":8628:8651  (totalAmount * 2) / 100 */\n      tag_146\n      swap2\n      swap1\n      tag_147\n      jump\t// in\n    tag_146:\n        /* \"FreelanceMarketplace.sol\":8622:8651  fee = (totalAmount * 2) / 100 */\n      swap1\n      pop\n        /* \"FreelanceMarketplace.sol\":8576:8737  if (totalAmount < 1 ether) {\r... */\n      jump(tag_148)\n    tag_143:\n        /* \"FreelanceMarketplace.sol\":8718:8721  100 */\n      0x64\n        /* \"FreelanceMarketplace.sol\":8713:8714  1 */\n      0x01\n        /* \"FreelanceMarketplace.sol\":8699:8710  totalAmount */\n      dup4\n        /* \"FreelanceMarketplace.sol\":8699:8714  totalAmount * 1 */\n      tag_149\n      swap2\n      swap1\n      tag_145\n      jump\t// in\n    tag_149:\n        /* \"FreelanceMarketplace.sol\":8698:8721  (totalAmount * 1) / 100 */\n      tag_150\n      swap2\n      swap1\n      tag_147\n      jump\t// in\n    tag_150:\n        /* \"FreelanceMarketplace.sol\":8692:8721  fee = (totalAmount * 1) / 100 */\n      swap1\n      pop\n        /* \"FreelanceMarketplace.sol\":8576:8737  if (totalAmount < 1 ether) {\r... */\n    tag_148:\n        /* \"FreelanceMarketplace.sol\":8776:8779  fee */\n      dup1\n        /* \"FreelanceMarketplace.sol\":8751:8772  platformFeesCollected */\n      0x02\n      0x00\n        /* \"FreelanceMarketplace.sol\":8751:8779  platformFeesCollected += fee */\n      dup3\n      dup3\n      sload\n      tag_151\n      swap2\n      swap1\n      tag_152\n      jump\t// in\n    tag_151:\n      swap3\n      pop\n      pop\n      dup2\n      swap1\n      sstore\n      pop\n        /* \"FreelanceMarketplace.sol\":8802:8805  job */\n      dup3\n        /* \"FreelanceMarketplace.sol\":8802:8824  job.selectedFreelancer */\n      0x08\n      add\n      0x00\n      swap1\n      sload\n      swap1\n      0x0100\n      exp\n      swap1\n      div\n      0xffffffffffffffffffffffffffffffffffffffff\n      and\n        /* \"FreelanceMarketplace.sol\":8794:8834  payable(job.selectedFreelancer).transfer */\n      0xffffffffffffffffffffffffffffffffffffffff\n      and\n        /* \"FreelanceMarketplace.sol\":8794:8853  payable(job.selectedFreelancer).transfer(totalAmount - fee) */\n      0x08fc\n        /* \"FreelanceMarketplace.sol\":8849:8852  fee */\n      dup3\n        /* \"FreelanceMarketplace.sol\":8835:8846  totalAmount */\n      dup5\n        /* \"FreelanceMarketplace.sol\":8835:8852  totalAmount - fee */\n      tag_153\n      swap2\n      swap1\n      tag_154\n      jump\t// in\n    tag_153:\n        /* \"FreelanceMarketplace.sol\":8794:8853  payable(job.selectedFreelancer).transfer(totalAmount - fee) */\n      swap1\n      dup2\n      iszero\n      mul\n      swap1\n      mload(0x40)\n      0x00\n      mload(0x40)\n      dup1\n      dup4\n      sub\n      dup2\n      dup6\n      dup9\n      dup9\n      call\n      swap4\n      pop\n      pop\n      pop\n      pop\n      iszero\n      dup1\n      iszero\n      tag_156\n      jumpi\n      returndatasize\n      0x00\n      dup1\n      returndatacopy\n      revert(0x00, returndatasize)\n    tag_156:\n      pop\n        /* \"FreelanceMarketplace.sol\":8889:8895  _jobId */\n      dup5\n        /* \"FreelanceMarketplace.sol\":8873:8915  DisputeResolved(_jobId, \"Freelancer Paid\") */\n      0x831764ac02a33c193cba23a0de34c986e9b50402bf3c9febf6ff2f63d4c0435d\n      mload(0x40)\n      tag_157\n      swap1\n      tag_158\n      jump\t// in\n    tag_157:\n      mload(0x40)\n      dup1\n      swap2\n      sub\n      swap1\n      log2\n        /* \"FreelanceMarketplace.sol\":8454:9422  if (_payFreelancer) {\r... */\n      pop\n      jump(tag_159)\n    tag_142:\n        /* \"FreelanceMarketplace.sol\":9109:9111  20 */\n      0x14\n        /* \"FreelanceMarketplace.sol\":9065:9070  users */\n      0x03\n        /* \"FreelanceMarketplace.sol\":9065:9094  users[job.selectedFreelancer] */\n      0x00\n        /* \"FreelanceMarketplace.sol\":9071:9074  job */\n      dup5\n        /* \"FreelanceMarketplace.sol\":9071:9093  job.selectedFreelancer */\n      0x08\n      add\n      0x00\n      swap1\n      sload\n      swap1\n      0x0100\n      exp\n      swap1\n      div\n      0xffffffffffffffffffffffffffffffffffffffff\n      and\n        /* \"FreelanceMarketplace.sol\":9065:9094  users[job.selectedFreelancer] */\n      0xffffffffffffffffffffffffffffffffffffffff\n      and\n      0xffffffffffffffffffffffffffffffffffffffff\n      and\n      dup2\n      mstore\n      0x20\n      add\n      swap1\n      dup2\n      mstore\n      0x20\n      add\n      0x00\n      keccak256\n        /* \"FreelanceMarketplace.sol\":9065:9105  users[job.selectedFreelancer].reputation */\n      0x02\n      add\n      sload\n        /* \"FreelanceMarketplace.sol\":9065:9111  users[job.selectedFreelancer].reputation >= 20 */\n      lt\n        /* \"FreelanceMarketplace.sol\":9061:9279  if (users[job.selectedFreelancer].reputation >= 20) {\r... */\n      tag_160\n      jumpi\n        /* \"FreelanceMarketplace.sol\":9176:9178  20 */\n      0x14\n        /* \"FreelanceMarketplace.sol\":9132:9137  users */\n      0x03\n        /* \"FreelanceMarketplace.sol\":9132:9161  users[job.selectedFreelancer] */\n      0x00\n        /* \"FreelanceMarketplace.sol\":9138:9141  job */\n      dup5\n        /* \"FreelanceMarketplace.sol\":9138:9160  job.selectedFreelancer */\n      0x08\n      add\n      0x00\n      swap1\n      sload\n      swap1\n      0x0100\n      exp\n      swap1\n      div\n      0xffffffffffffffffffffffffffffffffffffffff\n      and\n        /* \"FreelanceMarketplace.sol\":9132:9161  users[job.selectedFreelancer] */\n      0xffffffffffffffffffffffffffffffffffffffff\n      and\n      0xffffffffffffffffffffffffffffffffffffffff\n      and\n      dup2\n      mstore\n      0x20\n      add\n      swap1\n      dup2\n      mstore\n      0x20\n      add\n      0x00\n      keccak256\n        /* \"FreelanceMarketplace.sol\":9132:9172  users[job.selectedFreelancer].reputation */\n      0x02\n      add\n      0x00\n        /* \"FreelanceMarketplace.sol\":9132:9178  users[job.selectedFreelancer].reputation -= 20 */\n      dup3\n      dup3\n      sload\n      tag_161\n      swap2\n      swap1\n      tag_154\n      jump\t// in\n    tag_161:\n      swap3\n      pop\n      pop\n      dup2\n      swap1\n      sstore\n      pop\n        /* \"FreelanceMarketplace.sol\":9061:9279  if (users[job.selectedFreelancer].reputation >= 20) {\r... */\n      jump(tag_162)\n    tag_160:\n        /* \"FreelanceMarketplace.sol\":9262:9263  0 */\n      0x00\n        /* \"FreelanceMarketplace.sol\":9219:9224  users */\n      0x03\n        /* \"FreelanceMarketplace.sol\":9219:9248  users[job.selectedFreelancer] */\n      0x00\n        /* \"FreelanceMarketplace.sol\":9225:9228  job */\n      dup5\n        /* \"FreelanceMarketplace.sol\":9225:9247  job.selectedFreelancer */\n      0x08\n      add\n      0x00\n      swap1\n      sload\n      swap1\n      0x0100\n      exp\n      swap1\n      div\n      0xffffffffffffffffffffffffffffffffffffffff\n      and\n        /* \"FreelanceMarketplace.sol\":9219:9248  users[job.selectedFreelancer] */\n      0xffffffffffffffffffffffffffffffffffffffff\n      and\n      0xffffffffffffffffffffffffffffffffffffffff\n      and\n      dup2\n      mstore\n      0x20\n      add\n      swap1\n      dup2\n      mstore\n      0x20\n      add\n      0x00\n      keccak256\n        /* \"FreelanceMarketplace.sol\":9219:9259  users[job.selectedFreelancer].reputation */\n      0x02\n      add\n        /* \"FreelanceMarketplace.sol\":9219:9263  users[job.selectedFreelancer].reputation = 0 */\n      dup2\n      swap1\n      sstore\n      pop\n        /* \"FreelanceMarketplace.sol\":9061:9279  if (users[job.selectedFreelancer].reputation >= 20) {\r... */\n    tag_162:\n        /* \"FreelanceMarketplace.sol\":9315:9318  job */\n      dup2\n        /* \"FreelanceMarketplace.sol\":9315:9325  job.client */\n      0x01\n      add\n      0x00\n      swap1\n      sload\n      swap1\n      0x0100\n      exp\n      swap1\n      div\n      0xffffffffffffffffffffffffffffffffffffffff\n      and\n        /* \"FreelanceMarketplace.sol\":9307:9335  payable(job.client).transfer */\n      0xffffffffffffffffffffffffffffffffffffffff\n      and\n        /* \"FreelanceMarketplace.sol\":9307:9348  payable(job.client).transfer(totalAmount) */\n      0x08fc\n        /* \"FreelanceMarketplace.sol\":9336:9347  totalAmount */\n      dup3\n        /* \"FreelanceMarketplace.sol\":9307:9348  payable(job.client).transfer(totalAmount) */\n      swap1\n      dup2\n      iszero\n      mul\n      swap1\n      mload(0x40)\n      0x00\n      mload(0x40)\n      dup1\n      dup4\n      sub\n      dup2\n      dup6\n      dup9\n      dup9\n      call\n      swap4\n      pop\n      pop\n      pop\n      pop\n      iszero\n      dup1\n      iszero\n      tag_164\n      jumpi\n      returndatasize\n      0x00\n      dup1\n      returndatacopy\n      revert(0x00, returndatasize)\n    tag_164:\n      pop\n        /* \"FreelanceMarketplace.sol\":9384:9390  _jobId */\n      dup4\n        /* \"FreelanceMarketplace.sol\":9368:9410  DisputeResolved(_jobId, \"Client Refunded\") */\n      0x831764ac02a33c193cba23a0de34c986e9b50402bf3c9febf6ff2f63d4c0435d\n      mload(0x40)\n      tag_165\n      swap1\n      tag_166\n      jump\t// in\n    tag_165:\n      mload(0x40)\n      dup1\n      swap2\n      sub\n      swap1\n      log2\n        /* \"FreelanceMarketplace.sol\":8454:9422  if (_payFreelancer) {\r... */\n    tag_159:\n        /* \"FreelanceMarketplace.sol\":2064:2065  _ */\n      pop\n      pop\n        /* \"FreelanceMarketplace.sol\":8121:9429  function resolveDispute(uint256 _jobId, bool _payFreelancer) public onlyArbiter {\r... */\n      pop\n      pop\n      jump\t// out\n        /* \"FreelanceMarketplace.sol\":6639:7676  function approveWork(uint256 _jobId) public onlyRegistered onlyClient {\r... */\n    tag_39:\n        /* \"FreelanceMarketplace.sol\":2126:2131  users */\n      0x03\n        /* \"FreelanceMarketplace.sol\":2126:2143  users[msg.sender] */\n      0x00\n        /* \"FreelanceMarketplace.sol\":2132:2142  msg.sender */\n      caller\n        /* \"FreelanceMarketplace.sol\":2126:2143  users[msg.sender] */\n      0xffffffffffffffffffffffffffffffffffffffff\n      and\n      0xffffffffffffffffffffffffffffffffffffffff\n      and\n      dup2\n      mstore\n      0x20\n      add\n      swap1\n      dup2\n      mstore\n      0x20\n      add\n      0x00\n      keccak256\n        /* \"FreelanceMarketplace.sol\":2126:2156  users[msg.sender].isRegistered */\n      0x03\n      add\n      0x00\n      swap1\n      sload\n      swap1\n      0x0100\n      exp\n      swap1\n      div\n      0xff\n      and\n        /* \"FreelanceMarketplace.sol\":2118:2184  require(users[msg.sender].isRegistered, \"User must be registered\") */\n      tag_168\n      jumpi\n      mload(0x40)\n      0x08c379a000000000000000000000000000000000000000000000000000000000\n      dup2\n      mstore\n      0x04\n      add\n      tag_169\n      swap1\n      tag_170\n      jump\t// in\n    tag_169:\n      mload(0x40)\n      dup1\n      swap2\n      sub\n      swap1\n      revert\n    tag_168:\n        /* \"FreelanceMarketplace.sol\":2279:2290  Role.Client */\n      0x02\n        /* \"FreelanceMarketplace.sol\":2253:2290  users[msg.sender].role == Role.Client */\n      0x03\n      dup2\n      gt\n      iszero\n      tag_172\n      jumpi\n      mstore(0x00, 0x4e487b7100000000000000000000000000000000000000000000000000000000)\n      mstore(0x04, 0x21)\n      revert(0x00, 0x24)\n    tag_172:\n        /* \"FreelanceMarketplace.sol\":2253:2258  users */\n      0x03\n        /* \"FreelanceMarketplace.sol\":2253:2270  users[msg.sender] */\n      0x00\n        /* \"FreelanceMarketplace.sol\":2259:2269  msg.sender */\n      caller\n        /* \"FreelanceMarketplace.sol\":2253:2270  users[msg.sender] */\n      0xffffffffffffffffffffffffffffffffffffffff\n      and\n      0xffffffffffffffffffffffffffffffffffffffff\n      and\n      dup2\n      mstore\n      0x20\n      add\n      swap1\n      dup2\n      mstore\n      0x20\n      add\n      0x00\n      keccak256\n        /* \"FreelanceMarketplace.sol\":2253:2275  users[msg.sender].role */\n      0x01\n      add\n      0x00\n      swap1\n      sload\n      swap1\n      0x0100\n      exp\n      swap1\n      div\n      0xff\n      and\n        /* \"FreelanceMarketplace.sol\":2253:2290  users[msg.sender].role == Role.Client */\n      0x03\n      dup2\n      gt\n      iszero\n      tag_173\n      jumpi\n      mstore(0x00, 0x4e487b7100000000000000000000000000000000000000000000000000000000)\n      mstore(0x04, 0x21)\n      revert(0x00, 0x24)\n    tag_173:\n      eq\n        /* \"FreelanceMarketplace.sol\":2245:2331  require(users[msg.sender].role == Role.Client, \"Only Clients can perform this action\") */\n      tag_174\n      jumpi\n      mload(0x40)\n      0x08c379a000000000000000000000000000000000000000000000000000000000\n      dup2\n      mstore\n      0x04\n      add\n      tag_175\n      swap1\n      tag_176\n      jump\t// in\n    tag_175:\n      mload(0x40)\n      dup1\n      swap2\n      sub\n      swap1\n      revert\n    tag_174:\n        /* \"FreelanceMarketplace.sol\":6720:6735  Job storage job */\n      0x00\n        /* \"FreelanceMarketplace.sol\":6738:6742  jobs */\n      0x04\n        /* \"FreelanceMarketplace.sol\":6738:6750  jobs[_jobId] */\n      0x00\n        /* \"FreelanceMarketplace.sol\":6743:6749  _jobId */\n      dup4\n        /* \"FreelanceMarketplace.sol\":6738:6750  jobs[_jobId] */\n      dup2\n      mstore\n      0x20\n      add\n      swap1\n      dup2\n      mstore\n      0x20\n      add\n      0x00\n      keccak256\n        /* \"FreelanceMarketplace.sol\":6720:6750  Job storage job = jobs[_jobId] */\n      swap1\n      pop\n        /* \"FreelanceMarketplace.sol\":6783:6793  msg.sender */\n      caller\n        /* \"FreelanceMarketplace.sol\":6769:6793  job.client == msg.sender */\n      0xffffffffffffffffffffffffffffffffffffffff\n      and\n        /* \"FreelanceMarketplace.sol\":6769:6772  job */\n      dup2\n        /* \"FreelanceMarketplace.sol\":6769:6779  job.client */\n      0x01\n      add\n      0x00\n      swap1\n      sload\n      swap1\n      0x0100\n      exp\n      swap1\n      div\n      0xffffffffffffffffffffffffffffffffffffffff\n      and\n        /* \"FreelanceMarketplace.sol\":6769:6793  job.client == msg.sender */\n      0xffffffffffffffffffffffffffffffffffffffff\n      and\n      eq\n        /* \"FreelanceMarketplace.sol\":6761:6824  require(job.client == msg.sender, \"Only job owner can approve\") */\n      tag_178\n      jumpi\n      mload(0x40)\n      0x08c379a000000000000000000000000000000000000000000000000000000000\n      dup2\n      mstore\n      0x04\n      add\n      tag_179\n      swap1\n      tag_180\n      jump\t// in\n    tag_179:\n      mload(0x40)\n      dup1\n      swap2\n      sub\n      swap1\n      revert\n    tag_178:\n        /* \"FreelanceMarketplace.sol\":6857:6877  JobStatus.InProgress */\n      0x01\n        /* \"FreelanceMarketplace.sol\":6843:6877  job.status == JobStatus.InProgress */\n      0x05\n      dup2\n      gt\n      iszero\n      tag_181\n      jumpi\n      mstore(0x00, 0x4e487b7100000000000000000000000000000000000000000000000000000000)\n      mstore(0x04, 0x21)\n      revert(0x00, 0x24)\n    tag_181:\n        /* \"FreelanceMarketplace.sol\":6843:6846  job */\n      dup2\n        /* \"FreelanceMarketplace.sol\":6843:6853  job.status */\n      0x06\n      add\n      0x00\n      swap1\n      sload\n      swap1\n      0x0100\n      exp\n      swap1\n      div\n      0xff\n      and\n        /* \"FreelanceMarketplace.sol\":6843:6877  job.status == JobStatus.InProgress */\n      0x05\n      dup2\n      gt\n      iszero\n      tag_182\n      jumpi\n      mstore(0x00, 0x4e487b7100000000000000000000000000000000000000000000000000000000)\n      mstore(0x04, 0x21)\n      revert(0x00, 0x24)\n    tag_182:\n      eq\n        /* \"FreelanceMarketplace.sol\":6835:6901  require(job.status == JobStatus.InProgress, \"Job not in progress\") */\n      tag_183\n      jumpi\n      mload(0x40)\n      0x08c379a000000000000000000000000000000000000000000000000000000000\n      dup2\n      mstore\n      0x04\n      add\n      tag_184\n      swap1\n      tag_185\n      jump\t// in\n    tag_184:\n      mload(0x40)\n      dup1\n      swap2\n      sub\n      swap1\n      revert\n    tag_183:\n        /* \"FreelanceMarketplace.sol\":6914:6928  uint256 payout */\n      0x00\n        /* \"FreelanceMarketplace.sol\":6931:6934  job */\n      dup2\n        /* \"FreelanceMarketplace.sol\":6931:6947  job.lockedAmount */\n      0x07\n      add\n      sload\n        /* \"FreelanceMarketplace.sol\":6914:6947  uint256 payout = job.lockedAmount */\n      swap1\n      pop\n        /* \"FreelanceMarketplace.sol\":6958:6969  uint256 fee */\n      0x00\n        /* \"FreelanceMarketplace.sol\":7049:7056  1 ether */\n      0x0de0b6b3a7640000\n        /* \"FreelanceMarketplace.sol\":7040:7046  payout */\n      dup3\n        /* \"FreelanceMarketplace.sol\":7040:7056  payout < 1 ether */\n      lt\n        /* \"FreelanceMarketplace.sol\":7036:7178  if (payout < 1 ether) {\r... */\n      iszero\n      tag_186\n      jumpi\n        /* \"FreelanceMarketplace.sol\":7094:7097  100 */\n      0x64\n        /* \"FreelanceMarketplace.sol\":7089:7090  2 */\n      0x02\n        /* \"FreelanceMarketplace.sol\":7080:7086  payout */\n      dup4\n        /* \"FreelanceMarketplace.sol\":7080:7090  payout * 2 */\n      tag_187\n      swap2\n      swap1\n      tag_145\n      jump\t// in\n    tag_187:\n        /* \"FreelanceMarketplace.sol\":7079:7097  (payout * 2) / 100 */\n      tag_188\n      swap2\n      swap1\n      tag_147\n      jump\t// in\n    tag_188:\n        /* \"FreelanceMarketplace.sol\":7073:7097  fee = (payout * 2) / 100 */\n      swap1\n      pop\n        /* \"FreelanceMarketplace.sol\":7036:7178  if (payout < 1 ether) {\r... */\n      jump(tag_189)\n    tag_186:\n        /* \"FreelanceMarketplace.sol\":7157:7160  100 */\n      0x64\n        /* \"FreelanceMarketplace.sol\":7152:7153  1 */\n      0x01\n        /* \"FreelanceMarketplace.sol\":7143:7149  payout */\n      dup4\n        /* \"FreelanceMarketplace.sol\":7143:7153  payout * 1 */\n      tag_190\n      swap2\n      swap1\n      tag_145\n      jump\t// in\n    tag_190:\n        /* \"FreelanceMarketplace.sol\":7142:7160  (payout * 1) / 100 */\n      tag_191\n      swap2\n      swap1\n      tag_147\n      jump\t// in\n    tag_191:\n        /* \"FreelanceMarketplace.sol\":7136:7160  fee = (payout * 1) / 100 */\n      swap1\n      pop\n        /* \"FreelanceMarketplace.sol\":7036:7178  if (payout < 1 ether) {\r... */\n    tag_189:\n        /* \"FreelanceMarketplace.sol\":7190:7214  uint256 freelancerAmount */\n      0x00\n        /* \"FreelanceMarketplace.sol\":7226:7229  fee */\n      dup2\n        /* \"FreelanceMarketplace.sol\":7217:7223  payout */\n      dup4\n        /* \"FreelanceMarketplace.sol\":7217:7229  payout - fee */\n      tag_192\n      swap2\n      swap1\n      tag_154\n      jump\t// in\n    tag_192:\n        /* \"FreelanceMarketplace.sol\":7190:7229  uint256 freelancerAmount = payout - fee */\n      swap1\n      pop\n        /* \"FreelanceMarketplace.sol\":7305:7308  fee */\n      dup2\n        /* \"FreelanceMarketplace.sol\":7280:7301  platformFeesCollected */\n      0x02\n      0x00\n        /* \"FreelanceMarketplace.sol\":7280:7308  platformFeesCollected += fee */\n      dup3\n      dup3\n      sload\n      tag_193\n      swap2\n      swap1\n      tag_152\n      jump\t// in\n    tag_193:\n      swap3\n      pop\n      pop\n      dup2\n      swap1\n      sstore\n      pop\n        /* \"FreelanceMarketplace.sol\":7332:7348  JobStatus.Closed */\n      0x05\n        /* \"FreelanceMarketplace.sol\":7319:7322  job */\n      dup5\n        /* \"FreelanceMarketplace.sol\":7319:7329  job.status */\n      0x06\n      add\n      0x00\n        /* \"FreelanceMarketplace.sol\":7319:7348  job.status = JobStatus.Closed */\n      0x0100\n      exp\n      dup2\n      sload\n      dup2\n      0xff\n      mul\n      not\n      and\n      swap1\n      dup4\n      0x05\n      dup2\n      gt\n      iszero\n      tag_194\n      jumpi\n      mstore(0x00, 0x4e487b7100000000000000000000000000000000000000000000000000000000)\n      mstore(0x04, 0x21)\n      revert(0x00, 0x24)\n    tag_194:\n      mul\n      or\n      swap1\n      sstore\n      pop\n        /* \"FreelanceMarketplace.sol\":7378:7379  0 */\n      0x00\n        /* \"FreelanceMarketplace.sol\":7359:7362  job */\n      dup5\n        /* \"FreelanceMarketplace.sol\":7359:7375  job.lockedAmount */\n      0x07\n      add\n        /* \"FreelanceMarketplace.sol\":7359:7379  job.lockedAmount = 0 */\n      dup2\n      swap1\n      sstore\n      pop\n        /* \"FreelanceMarketplace.sol\":7489:7491  10 */\n      0x0a\n        /* \"FreelanceMarketplace.sol\":7445:7450  users */\n      0x03\n        /* \"FreelanceMarketplace.sol\":7445:7474  users[job.selectedFreelancer] */\n      0x00\n        /* \"FreelanceMarketplace.sol\":7451:7454  job */\n      dup7\n        /* \"FreelanceMarketplace.sol\":7451:7473  job.selectedFreelancer */\n      0x08\n      add\n      0x00\n      swap1\n      sload\n      swap1\n      0x0100\n      exp\n      swap1\n      div\n      0xffffffffffffffffffffffffffffffffffffffff\n      and\n        /* \"FreelanceMarketplace.sol\":7445:7474  users[job.selectedFreelancer] */\n      0xffffffffffffffffffffffffffffffffffffffff\n      and\n      0xffffffffffffffffffffffffffffffffffffffff\n      and\n      dup2\n      mstore\n      0x20\n      add\n      swap1\n      dup2\n      mstore\n      0x20\n      add\n      0x00\n      keccak256\n        /* \"FreelanceMarketplace.sol\":7445:7485  users[job.selectedFreelancer].reputation */\n      0x02\n      add\n      0x00\n        /* \"FreelanceMarketplace.sol\":7445:7491  users[job.selectedFreelancer].reputation += 10 */\n      dup3\n      dup3\n      sload\n      tag_195\n      swap2\n      swap1\n      tag_152\n      jump\t// in\n    tag_195:\n      swap3\n      pop\n      pop\n      dup2\n      swap1\n      sstore\n      pop\n        /* \"FreelanceMarketplace.sol\":7539:7542  job */\n      dup4\n        /* \"FreelanceMarketplace.sol\":7539:7561  job.selectedFreelancer */\n      0x08\n      add\n      0x00\n      swap1\n      sload\n      swap1\n      0x0100\n      exp\n      swap1\n      div\n      0xffffffffffffffffffffffffffffffffffffffff\n      and\n        /* \"FreelanceMarketplace.sol\":7531:7571  payable(job.selectedFreelancer).transfer */\n      0xffffffffffffffffffffffffffffffffffffffff\n      and\n        /* \"FreelanceMarketplace.sol\":7531:7589  payable(job.selectedFreelancer).transfer(freelancerAmount) */\n      0x08fc\n        /* \"FreelanceMarketplace.sol\":7572:7588  freelancerAmount */\n      dup3\n        /* \"FreelanceMarketplace.sol\":7531:7589  payable(job.selectedFreelancer).transfer(freelancerAmount) */\n      swap1\n      dup2\n      iszero\n      mul\n      swap1\n      mload(0x40)\n      0x00\n      mload(0x40)\n      dup1\n      dup4\n      sub\n      dup2\n      dup6\n      dup9\n      dup9\n      call\n      swap4\n      pop\n      pop\n      pop\n      pop\n      iszero\n      dup1\n      iszero\n      tag_197\n      jumpi\n      returndatasize\n      0x00\n      dup1\n      returndatacopy\n      revert(0x00, returndatasize)\n    tag_197:\n      pop\n        /* \"FreelanceMarketplace.sol\":7640:7643  job */\n      dup4\n        /* \"FreelanceMarketplace.sol\":7640:7662  job.selectedFreelancer */\n      0x08\n      add\n      0x00\n      swap1\n      sload\n      swap1\n      0x0100\n      exp\n      swap1\n      div\n      0xffffffffffffffffffffffffffffffffffffffff\n      and\n        /* \"FreelanceMarketplace.sol\":7607:7668  JobCompleted(_jobId, msg.sender, job.selectedFreelancer, fee) */\n      0xffffffffffffffffffffffffffffffffffffffff\n      and\n        /* \"FreelanceMarketplace.sol\":7628:7638  msg.sender */\n      caller\n        /* \"FreelanceMarketplace.sol\":7607:7668  JobCompleted(_jobId, msg.sender, job.selectedFreelancer, fee) */\n      0xffffffffffffffffffffffffffffffffffffffff\n      and\n        /* \"FreelanceMarketplace.sol\":7620:7626  _jobId */\n      dup7\n        /* \"FreelanceMarketplace.sol\":7607:7668  JobCompleted(_jobId, msg.sender, job.selectedFreelancer, fee) */\n      0x38ba31afab7a6f7c4f61e48a6dd88917047ea884c3659fa86145e037c2216276\n        /* \"FreelanceMarketplace.sol\":7664:7667  fee */\n      dup6\n        /* \"FreelanceMarketplace.sol\":7607:7668  JobCompleted(_jobId, msg.sender, job.selectedFreelancer, fee) */\n      mload(0x40)\n      tag_198\n      swap2\n      swap1\n      tag_49\n      jump\t// in\n    tag_198:\n      mload(0x40)\n      dup1\n      swap2\n      sub\n      swap1\n      log4\n        /* \"FreelanceMarketplace.sol\":2342:2343  _ */\n      pop\n      pop\n      pop\n      pop\n        /* \"FreelanceMarketplace.sol\":6639:7676  function approveWork(uint256 _jobId) public onlyRegistered onlyClient {\r... */\n      pop\n      jump\t// out\n        /* \"FreelanceMarketplace.sol\":4505:5296  function placeBid(uint256 _jobId, uint256 _bidAmount, string memory _proposedTime) public onlyRegistered onlyFreelancer {\r... */\n    tag_44:\n        /* \"FreelanceMarketplace.sol\":2126:2131  users */\n      0x03\n        /* \"FreelanceMarketplace.sol\":2126:2143  users[msg.sender] */\n      0x00\n        /* \"FreelanceMarketplace.sol\":2132:2142  msg.sender */\n      caller\n        /* \"FreelanceMarketplace.sol\":2126:2143  users[msg.sender] */\n      0xffffffffffffffffffffffffffffffffffffffff\n      and\n      0xffffffffffffffffffffffffffffffffffffffff\n      and\n      dup2\n      mstore\n      0x20\n      add\n      swap1\n      dup2\n      mstore\n      0x20\n      add\n      0x00\n      keccak256\n        /* \"FreelanceMarketplace.sol\":2126:2156  users[msg.sender].isRegistered */\n      0x03\n      add\n      0x00\n      swap1\n      sload\n      swap1\n      0x0100\n      exp\n      swap1\n      div\n      0xff\n      and\n        /* \"FreelanceMarketplace.sol\":2118:2184  require(users[msg.sender].isRegistered, \"User must be registered\") */\n      tag_200\n      jumpi\n      mload(0x40)\n      0x08c379a000000000000000000000000000000000000000000000000000000000\n      dup2\n      mstore\n      0x04\n      add\n      tag_201\n      swap1\n      tag_170\n      jump\t// in\n    tag_201:\n      mload(0x40)\n      dup1\n      swap2\n      sub\n      swap1\n      revert\n    tag_200:\n        /* \"FreelanceMarketplace.sol\":2430:2445  Role.Freelancer */\n      0x03\n        /* \"FreelanceMarketplace.sol\":2404:2445  users[msg.sender].role == Role.Freelancer */\n      dup1\n      dup2\n      gt\n      iszero\n      tag_203\n      jumpi\n      mstore(0x00, 0x4e487b7100000000000000000000000000000000000000000000000000000000)\n      mstore(0x04, 0x21)\n      revert(0x00, 0x24)\n    tag_203:\n        /* \"FreelanceMarketplace.sol\":2404:2409  users */\n      0x03\n        /* \"FreelanceMarketplace.sol\":2404:2421  users[msg.sender] */\n      0x00\n        /* \"FreelanceMarketplace.sol\":2410:2420  msg.sender */\n      caller\n        /* \"FreelanceMarketplace.sol\":2404:2421  users[msg.sender] */\n      0xffffffffffffffffffffffffffffffffffffffff\n      and\n      0xffffffffffffffffffffffffffffffffffffffff\n      and\n      dup2\n      mstore\n      0x20\n      add\n      swap1\n      dup2\n      mstore\n      0x20\n      add\n      0x00\n      keccak256\n        /* \"FreelanceMarketplace.sol\":2404:2426  users[msg.sender].role */\n      0x01\n      add\n      0x00\n      swap1\n      sload\n      swap1\n      0x0100\n      exp\n      swap1\n      div\n      0xff\n      and\n        /* \"FreelanceMarketplace.sol\":2404:2445  users[msg.sender].role == Role.Freelancer */\n      0x03\n      dup2\n      gt\n      iszero\n      tag_204\n      jumpi\n      mstore(0x00, 0x4e487b7100000000000000000000000000000000000000000000000000000000)\n      mstore(0x04, 0x21)\n      revert(0x00, 0x24)\n    tag_204:\n      eq\n        /* \"FreelanceMarketplace.sol\":2396:2490  require(users[msg.sender].role == Role.Freelancer, \"Only Freelancers can perform this action\") */\n      tag_205\n      jumpi\n      mload(0x40)\n      0x08c379a000000000000000000000000000000000000000000000000000000000\n      dup2\n      mstore\n      0x04\n      add\n      tag_206\n      swap1\n      tag_207\n      jump\t// in\n    tag_206:\n      mload(0x40)\n      dup1\n      swap2\n      sub\n      swap1\n      revert\n    tag_205:\n        /* \"FreelanceMarketplace.sol\":4636:4651  Job storage job */\n      0x00\n        /* \"FreelanceMarketplace.sol\":4654:4658  jobs */\n      0x04\n        /* \"FreelanceMarketplace.sol\":4654:4666  jobs[_jobId] */\n      0x00\n        /* \"FreelanceMarketplace.sol\":4659:4665  _jobId */\n      dup6\n        /* \"FreelanceMarketplace.sol\":4654:4666  jobs[_jobId] */\n      dup2\n      mstore\n      0x20\n      add\n      swap1\n      dup2\n      mstore\n      0x20\n      add\n      0x00\n      keccak256\n        /* \"FreelanceMarketplace.sol\":4636:4666  Job storage job = jobs[_jobId] */\n      swap1\n      pop\n        /* \"FreelanceMarketplace.sol\":4709:4723  JobStatus.Open */\n      0x00\n        /* \"FreelanceMarketplace.sol\":4695:4723  job.status == JobStatus.Open */\n      0x05\n      dup2\n      gt\n      iszero\n      tag_209\n      jumpi\n      mstore(0x00, 0x4e487b7100000000000000000000000000000000000000000000000000000000)\n      mstore(0x04, 0x21)\n      revert(0x00, 0x24)\n    tag_209:\n        /* \"FreelanceMarketplace.sol\":4695:4698  job */\n      dup2\n        /* \"FreelanceMarketplace.sol\":4695:4705  job.status */\n      0x06\n      add\n      0x00\n      swap1\n      sload\n      swap1\n      0x0100\n      exp\n      swap1\n      div\n      0xff\n      and\n        /* \"FreelanceMarketplace.sol\":4695:4723  job.status == JobStatus.Open */\n      0x05\n      dup2\n      gt\n      iszero\n      tag_210\n      jumpi\n      mstore(0x00, 0x4e487b7100000000000000000000000000000000000000000000000000000000)\n      mstore(0x04, 0x21)\n      revert(0x00, 0x24)\n    tag_210:\n      eq\n        /* \"FreelanceMarketplace.sol\":4687:4743  require(job.status == JobStatus.Open, \"Job is not open\") */\n      tag_211\n      jumpi\n      mload(0x40)\n      0x08c379a000000000000000000000000000000000000000000000000000000000\n      dup2\n      mstore\n      0x04\n      add\n      tag_212\n      swap1\n      tag_213\n      jump\t// in\n    tag_212:\n      mload(0x40)\n      dup1\n      swap2\n      sub\n      swap1\n      revert\n    tag_211:\n        /* \"FreelanceMarketplace.sol\":4856:4859  job */\n      dup1\n        /* \"FreelanceMarketplace.sol\":4856:4869  job.maxBudget */\n      0x04\n      add\n      sload\n        /* \"FreelanceMarketplace.sol\":4842:4852  _bidAmount */\n      dup4\n        /* \"FreelanceMarketplace.sol\":4842:4869  _bidAmount <= job.maxBudget */\n      gt\n      iszero\n        /* \"FreelanceMarketplace.sol\":4834:4892  require(_bidAmount <= job.maxBudget, \"Bid exceeds budget\") */\n      tag_214\n      jumpi\n      mload(0x40)\n      0x08c379a000000000000000000000000000000000000000000000000000000000\n      dup2\n      mstore\n      0x04\n      add\n      tag_215\n      swap1\n      tag_216\n      jump\t// in\n    tag_215:\n      mload(0x40)\n      dup1\n      swap2\n      sub\n      swap1\n      revert\n    tag_214:\n        /* \"FreelanceMarketplace.sol\":5003:5005  50 */\n      0x32\n        /* \"FreelanceMarketplace.sol\":4971:4976  users */\n      0x03\n        /* \"FreelanceMarketplace.sol\":4971:4988  users[msg.sender] */\n      0x00\n        /* \"FreelanceMarketplace.sol\":4977:4987  msg.sender */\n      caller\n        /* \"FreelanceMarketplace.sol\":4971:4988  users[msg.sender] */\n      0xffffffffffffffffffffffffffffffffffffffff\n      and\n      0xffffffffffffffffffffffffffffffffffffffff\n      and\n      dup2\n      mstore\n      0x20\n      add\n      swap1\n      dup2\n      mstore\n      0x20\n      add\n      0x00\n      keccak256\n        /* \"FreelanceMarketplace.sol\":4971:4999  users[msg.sender].reputation */\n      0x02\n      add\n      sload\n        /* \"FreelanceMarketplace.sol\":4971:5005  users[msg.sender].reputation >= 50 */\n      lt\n      iszero\n        /* \"FreelanceMarketplace.sol\":4963:5035  require(users[msg.sender].reputation >= 50, \"Reputation too low to bid\") */\n      tag_217\n      jumpi\n      mload(0x40)\n      0x08c379a000000000000000000000000000000000000000000000000000000000\n      dup2\n      mstore\n      0x04\n      add\n      tag_218\n      swap1\n      tag_219\n      jump\t// in\n    tag_218:\n      mload(0x40)\n      dup1\n      swap2\n      sub\n      swap1\n      revert\n    tag_217:\n        /* \"FreelanceMarketplace.sol\":5048:5055  jobBids */\n      0x05\n        /* \"FreelanceMarketplace.sol\":5048:5063  jobBids[_jobId] */\n      0x00\n        /* \"FreelanceMarketplace.sol\":5056:5062  _jobId */\n      dup6\n        /* \"FreelanceMarketplace.sol\":5048:5063  jobBids[_jobId] */\n      dup2\n      mstore\n      0x20\n      add\n      swap1\n      dup2\n      mstore\n      0x20\n      add\n      0x00\n      keccak256\n        /* \"FreelanceMarketplace.sol\":5069:5228  Bid({\r... */\n      mload(0x40)\n      dup1\n      0x80\n      add\n      0x40\n      mstore\n      dup1\n        /* \"FreelanceMarketplace.sol\":5095:5101  _jobId */\n      dup7\n        /* \"FreelanceMarketplace.sol\":5069:5228  Bid({\r... */\n      dup2\n      mstore\n      0x20\n      add\n        /* \"FreelanceMarketplace.sol\":5128:5138  msg.sender */\n      caller\n        /* \"FreelanceMarketplace.sol\":5069:5228  Bid({\r... */\n      0xffffffffffffffffffffffffffffffffffffffff\n      and\n      dup2\n      mstore\n      0x20\n      add\n        /* \"FreelanceMarketplace.sol\":5164:5174  _bidAmount */\n      dup6\n        /* \"FreelanceMarketplace.sol\":5069:5228  Bid({\r... */\n      dup2\n      mstore\n      0x20\n      add\n        /* \"FreelanceMarketplace.sol\":5203:5216  _proposedTime */\n      dup5\n        /* \"FreelanceMarketplace.sol\":5069:5228  Bid({\r... */\n      dup2\n      mstore\n      pop\n        /* \"FreelanceMarketplace.sol\":5048:5229  jobBids[_jobId].push(Bid({\r... */\n      swap1\n      dup1\n      0x01\n      dup2\n      sload\n      add\n      dup1\n      dup3\n      sstore\n      dup1\n      swap2\n      pop\n      pop\n      0x01\n      swap1\n      sub\n      swap1\n      0x00\n      mstore\n      keccak256(0x00, 0x20)\n      swap1\n      0x04\n      mul\n      add\n      0x00\n      swap1\n      swap2\n      swap1\n      swap2\n      swap1\n      swap2\n      pop\n      0x00\n      dup3\n      add\n      mload\n      dup2\n      0x00\n      add\n      sstore\n      0x20\n      dup3\n      add\n      mload\n      dup2\n      0x01\n      add\n      exp(0x0100, 0x00)\n      dup2\n      sload\n      dup2\n      0xffffffffffffffffffffffffffffffffffffffff\n      mul\n      not\n      and\n      swap1\n      dup4\n      0xffffffffffffffffffffffffffffffffffffffff\n      and\n      mul\n      or\n      swap1\n      sstore\n      pop\n      0x40\n      dup3\n      add\n      mload\n      dup2\n      0x02\n      add\n      sstore\n      0x60\n      dup3\n      add\n      mload\n      dup2\n      0x03\n      add\n      swap1\n      dup1\n      mload\n      swap1\n      0x20\n      add\n      swap1\n      tag_221\n      swap3\n      swap2\n      swap1\n      tag_127\n      jump\t// in\n    tag_221:\n      pop\n      pop\n      pop\n        /* \"FreelanceMarketplace.sol\":5265:5275  msg.sender */\n      caller\n        /* \"FreelanceMarketplace.sol\":5247:5288  BidPlaced(_jobId, msg.sender, _bidAmount) */\n      0xffffffffffffffffffffffffffffffffffffffff\n      and\n        /* \"FreelanceMarketplace.sol\":5257:5263  _jobId */\n      dup5\n        /* \"FreelanceMarketplace.sol\":5247:5288  BidPlaced(_jobId, msg.sender, _bidAmount) */\n      0x0e54eff26401bf69b81b26f60bd85ef47f5d85275c1d268d84f68d6897431c47\n        /* \"FreelanceMarketplace.sol\":5277:5287  _bidAmount */\n      dup6\n        /* \"FreelanceMarketplace.sol\":5247:5288  BidPlaced(_jobId, msg.sender, _bidAmount) */\n      mload(0x40)\n      tag_222\n      swap2\n      swap1\n      tag_49\n      jump\t// in\n    tag_222:\n      mload(0x40)\n      dup1\n      swap2\n      sub\n      swap1\n      log3\n        /* \"FreelanceMarketplace.sol\":2501:2502  _ */\n      pop\n        /* \"FreelanceMarketplace.sol\":4505:5296  function placeBid(uint256 _jobId, uint256 _bidAmount, string memory _proposedTime) public onlyRegistered onlyFreelancer {\r... */\n      pop\n      pop\n      pop\n      jump\t// out\n        /* \"FreelanceMarketplace.sol\":976:1001  uint256 public jobCounter */\n    tag_47:\n      sload(0x01)\n      dup2\n      jump\t// out\n        /* \"FreelanceMarketplace.sol\":3861:4449  function postJob(string memory _title, string memory _category, uint256 _maxBudget, uint256 _deadline) public onlyRegistered onlyClient {\r... */\n    tag_54:\n        /* \"FreelanceMarketplace.sol\":2126:2131  users */\n      0x03\n        /* \"FreelanceMarketplace.sol\":2126:2143  users[msg.sender] */\n      0x00\n        /* \"FreelanceMarketplace.sol\":2132:2142  msg.sender */\n      caller\n        /* \"FreelanceMarketplace.sol\":2126:2143  users[msg.sender] */\n      0xffffffffffffffffffffffffffffffffffffffff\n      and\n      0xffffffffffffffffffffffffffffffffffffffff\n      and\n      dup2\n      mstore\n      0x20\n      add\n      swap1\n      dup2\n      mstore\n      0x20\n      add\n      0x00\n      keccak256\n        /* \"FreelanceMarketplace.sol\":2126:2156  users[msg.sender].isRegistered */\n      0x03\n      add\n      0x00\n      swap1\n      sload\n      swap1\n      0x0100\n      exp\n      swap1\n      div\n      0xff\n      and\n        /* \"FreelanceMarketplace.sol\":2118:2184  require(users[msg.sender].isRegistered, \"User must be registered\") */\n      tag_224\n      jumpi\n      mload(0x40)\n      0x08c379a000000000000000000000000000000000000000000000000000000000\n      dup2\n      mstore\n      0x04\n      add\n      tag_225\n      swap1\n      tag_170\n      jump\t// in\n    tag_225:\n      mload(0x40)\n      dup1\n      swap2\n      sub\n      swap1\n      revert\n    tag_224:\n        /* \"FreelanceMarketplace.sol\":2279:2290  Role.Client */\n      0x02\n        /* \"FreelanceMarketplace.sol\":2253:2290  users[msg.sender].role == Role.Client */\n      0x03\n      dup2\n      gt\n      iszero\n      tag_227\n      jumpi\n      mstore(0x00, 0x4e487b7100000000000000000000000000000000000000000000000000000000)\n      mstore(0x04, 0x21)\n      revert(0x00, 0x24)\n    tag_227:\n        /* \"FreelanceMarketplace.sol\":2253:2258  users */\n      0x03\n        /* \"FreelanceMarketplace.sol\":2253:2270  users[msg.sender] */\n      0x00\n        /* \"FreelanceMarketplace.sol\":2259:2269  msg.sender */\n      caller\n        /* \"FreelanceMarketplace.sol\":2253:2270  users[msg.sender] */\n      0xffffffffffffffffffffffffffffffffffffffff\n      and\n      0xffffffffffffffffffffffffffffffffffffffff\n      and\n      dup2\n      mstore\n      0x20\n      add\n      swap1\n      dup2\n      mstore\n      0x20\n      add\n      0x00\n      keccak256\n        /* \"FreelanceMarketplace.sol\":2253:2275  users[msg.sender].role */\n      0x01\n      add\n      0x00\n      swap1\n      sload\n      swap1\n      0x0100\n      exp\n      swap1\n      div\n      0xff\n      and\n        /* \"FreelanceMarketplace.sol\":2253:2290  users[msg.sender].role == Role.Client */\n      0x03\n      dup2\n      gt\n      iszero\n      tag_228\n      jumpi\n      mstore(0x00, 0x4e487b7100000000000000000000000000000000000000000000000000000000)\n      mstore(0x04, 0x21)\n      revert(0x00, 0x24)\n    tag_228:\n      eq\n        /* \"FreelanceMarketplace.sol\":2245:2331  require(users[msg.sender].role == Role.Client, \"Only Clients can perform this action\") */\n      tag_229\n      jumpi\n      mload(0x40)\n      0x08c379a000000000000000000000000000000000000000000000000000000000\n      dup2\n      mstore\n      0x04\n      add\n      tag_230\n      swap1\n      tag_176\n      jump\t// in\n    tag_230:\n      mload(0x40)\n      dup1\n      swap2\n      sub\n      swap1\n      revert\n    tag_229:\n        /* \"FreelanceMarketplace.sol\":4008:4018  jobCounter */\n      0x01\n      0x00\n        /* \"FreelanceMarketplace.sol\":4008:4020  jobCounter++ */\n      dup2\n      sload\n      dup1\n      swap3\n      swap2\n      swap1\n      tag_232\n      swap1\n      tag_233\n      jump\t// in\n    tag_232:\n      swap2\n      swap1\n      pop\n      sstore\n      pop\n        /* \"FreelanceMarketplace.sol\":4060:4382  Job({\r... */\n      mload(0x40)\n      dup1\n      0x0120\n      add\n      0x40\n      mstore\n      dup1\n        /* \"FreelanceMarketplace.sol\":4083:4093  jobCounter */\n      sload(0x01)\n        /* \"FreelanceMarketplace.sol\":4060:4382  Job({\r... */\n      dup2\n      mstore\n      0x20\n      add\n        /* \"FreelanceMarketplace.sol\":4116:4126  msg.sender */\n      caller\n        /* \"FreelanceMarketplace.sol\":4060:4382  Job({\r... */\n      0xffffffffffffffffffffffffffffffffffffffff\n      and\n      dup2\n      mstore\n      0x20\n      add\n        /* \"FreelanceMarketplace.sol\":4148:4154  _title */\n      dup6\n        /* \"FreelanceMarketplace.sol\":4060:4382  Job({\r... */\n      dup2\n      mstore\n      0x20\n      add\n        /* \"FreelanceMarketplace.sol\":4179:4188  _category */\n      dup5\n        /* \"FreelanceMarketplace.sol\":4060:4382  Job({\r... */\n      dup2\n      mstore\n      0x20\n      add\n        /* \"FreelanceMarketplace.sol\":4214:4224  _maxBudget */\n      dup4\n        /* \"FreelanceMarketplace.sol\":4060:4382  Job({\r... */\n      dup2\n      mstore\n      0x20\n      add\n        /* \"FreelanceMarketplace.sol\":4249:4258  _deadline */\n      dup3\n        /* \"FreelanceMarketplace.sol\":4060:4382  Job({\r... */\n      dup2\n      mstore\n      0x20\n      add\n        /* \"FreelanceMarketplace.sol\":4281:4295  JobStatus.Open */\n      0x00\n        /* \"FreelanceMarketplace.sol\":4060:4382  Job({\r... */\n      0x05\n      dup2\n      gt\n      iszero\n      tag_234\n      jumpi\n      mstore(0x00, 0x4e487b7100000000000000000000000000000000000000000000000000000000)\n      mstore(0x04, 0x21)\n      revert(0x00, 0x24)\n    tag_234:\n      dup2\n      mstore\n      0x20\n      add\n        /* \"FreelanceMarketplace.sol\":4324:4325  0 */\n      0x00\n        /* \"FreelanceMarketplace.sol\":4060:4382  Job({\r... */\n      dup2\n      mstore\n      0x20\n      add\n        /* \"FreelanceMarketplace.sol\":4368:4369  0 */\n      0x00\n        /* \"FreelanceMarketplace.sol\":4060:4382  Job({\r... */\n      0xffffffffffffffffffffffffffffffffffffffff\n      and\n      dup2\n      mstore\n      pop\n        /* \"FreelanceMarketplace.sol\":4041:4045  jobs */\n      0x04\n        /* \"FreelanceMarketplace.sol\":4041:4057  jobs[jobCounter] */\n      0x00\n        /* \"FreelanceMarketplace.sol\":4046:4056  jobCounter */\n      sload(0x01)\n        /* \"FreelanceMarketplace.sol\":4041:4057  jobs[jobCounter] */\n      dup2\n      mstore\n      0x20\n      add\n      swap1\n      dup2\n      mstore\n      0x20\n      add\n      0x00\n      keccak256\n        /* \"FreelanceMarketplace.sol\":4041:4382  jobs[jobCounter] = Job({\r... */\n      0x00\n      dup3\n      add\n      mload\n      dup2\n      0x00\n      add\n      sstore\n      0x20\n      dup3\n      add\n      mload\n      dup2\n      0x01\n      add\n      exp(0x0100, 0x00)\n      dup2\n      sload\n      dup2\n      0xffffffffffffffffffffffffffffffffffffffff\n      mul\n      not\n      and\n      swap1\n      dup4\n      0xffffffffffffffffffffffffffffffffffffffff\n      and\n      mul\n      or\n      swap1\n      sstore\n      pop\n      0x40\n      dup3\n      add\n      mload\n      dup2\n      0x02\n      add\n      swap1\n      dup1\n      mload\n      swap1\n      0x20\n      add\n      swap1\n      tag_235\n      swap3\n      swap2\n      swap1\n      tag_127\n      jump\t// in\n    tag_235:\n      pop\n      0x60\n      dup3\n      add\n      mload\n      dup2\n      0x03\n      add\n      swap1\n      dup1\n      mload\n      swap1\n      0x20\n      add\n      swap1\n      tag_236\n      swap3\n      swap2\n      swap1\n      tag_127\n      jump\t// in\n    tag_236:\n      pop\n      0x80\n      dup3\n      add\n      mload\n      dup2\n      0x04\n      add\n      sstore\n      0xa0\n      dup3\n      add\n      mload\n      dup2\n      0x05\n      add\n      sstore\n      0xc0\n      dup3\n      add\n      mload\n      dup2\n      0x06\n      add\n      exp(0x0100, 0x00)\n      dup2\n      sload\n      dup2\n      0xff\n      mul\n      not\n      and\n      swap1\n      dup4\n      0x05\n      dup2\n      gt\n      iszero\n      tag_237\n      jumpi\n      mstore(0x00, 0x4e487b7100000000000000000000000000000000000000000000000000000000)\n      mstore(0x04, 0x21)\n      revert(0x00, 0x24)\n    tag_237:\n      mul\n      or\n      swap1\n      sstore\n      pop\n      0xe0\n      dup3\n      add\n      mload\n      dup2\n      0x07\n      add\n      sstore\n      0x0100\n      dup3\n      add\n      mload\n      dup2\n      0x08\n      add\n      exp(0x0100, 0x00)\n      dup2\n      sload\n      dup2\n      0xffffffffffffffffffffffffffffffffffffffff\n      mul\n      not\n      and\n      swap1\n      dup4\n      0xffffffffffffffffffffffffffffffffffffffff\n      and\n      mul\n      or\n      swap1\n      sstore\n      pop\n      swap1\n      pop\n      pop\n        /* \"FreelanceMarketplace.sol\":4422:4432  msg.sender */\n      caller\n        /* \"FreelanceMarketplace.sol\":4400:4441  JobPosted(jobCounter, msg.sender, _title) */\n      0xffffffffffffffffffffffffffffffffffffffff\n      and\n        /* \"FreelanceMarketplace.sol\":4410:4420  jobCounter */\n      sload(0x01)\n        /* \"FreelanceMarketplace.sol\":4400:4441  JobPosted(jobCounter, msg.sender, _title) */\n      0x874d4755e4be9f976c7833fc413deb77c1acbf096d6535b71953c36eb838cf40\n        /* \"FreelanceMarketplace.sol\":4434:4440  _title */\n      dup7\n        /* \"FreelanceMarketplace.sol\":4400:4441  JobPosted(jobCounter, msg.sender, _title) */\n      mload(0x40)\n      tag_238\n      swap2\n      swap1\n      tag_239\n      jump\t// in\n    tag_238:\n      mload(0x40)\n      dup1\n      swap2\n      sub\n      swap1\n      log3\n        /* \"FreelanceMarketplace.sol\":3861:4449  function postJob(string memory _title, string memory _category, uint256 _maxBudget, uint256 _deadline) public onlyRegistered onlyClient {\r... */\n      pop\n      pop\n      pop\n      pop\n      jump\t// out\n        /* \"FreelanceMarketplace.sol\":1156:1196  mapping(uint256 => Bid[]) public jobBids */\n    tag_59:\n      mstore(0x20, 0x05)\n      dup2\n      0x00\n      mstore\n      keccak256(0x00, 0x40)\n      dup2\n      dup2\n      sload\n      dup2\n      lt\n      tag_240\n      jumpi\n      0x00\n      dup1\n      revert\n    tag_240:\n      swap1\n      0x00\n      mstore\n      keccak256(0x00, 0x20)\n      swap1\n      0x04\n      mul\n      add\n      0x00\n      swap2\n      pop\n      swap2\n      pop\n      pop\n      dup1\n      0x00\n      add\n      sload\n      swap1\n      dup1\n      0x01\n      add\n      0x00\n      swap1\n      sload\n      swap1\n      0x0100\n      exp\n      swap1\n      div\n      0xffffffffffffffffffffffffffffffffffffffff\n      and\n      swap1\n      dup1\n      0x02\n      add\n      sload\n      swap1\n      dup1\n      0x03\n      add\n      dup1\n      sload\n      tag_242\n      swap1\n      tag_90\n      jump\t// in\n    tag_242:\n      dup1\n      0x1f\n      add\n      0x20\n      dup1\n      swap2\n      div\n      mul\n      0x20\n      add\n      mload(0x40)\n      swap1\n      dup2\n      add\n      0x40\n      mstore\n      dup1\n      swap3\n      swap2\n      swap1\n      dup2\n      dup2\n      mstore\n      0x20\n      add\n      dup3\n      dup1\n      sload\n      tag_243\n      swap1\n      tag_90\n      jump\t// in\n    tag_243:\n      dup1\n      iszero\n      tag_244\n      jumpi\n      dup1\n      0x1f\n      lt\n      tag_245\n      jumpi\n      0x0100\n      dup1\n      dup4\n      sload\n      div\n      mul\n      dup4\n      mstore\n      swap2\n      0x20\n      add\n      swap2\n      jump(tag_244)\n    tag_245:\n      dup3\n      add\n      swap2\n      swap1\n      0x00\n      mstore\n      keccak256(0x00, 0x20)\n      swap1\n    tag_246:\n      dup2\n      sload\n      dup2\n      mstore\n      swap1\n      0x01\n      add\n      swap1\n      0x20\n      add\n      dup1\n      dup4\n      gt\n      tag_246\n      jumpi\n      dup3\n      swap1\n      sub\n      0x1f\n      and\n      dup3\n      add\n      swap2\n    tag_244:\n      pop\n      pop\n      pop\n      pop\n      pop\n      swap1\n      pop\n      dup5\n      jump\t// out\n        /* \"FreelanceMarketplace.sol\":1070:1107  mapping(address => User) public users */\n    tag_66:\n      mstore(0x20, 0x03)\n      dup1\n      0x00\n      mstore\n      keccak256(0x00, 0x40)\n      0x00\n      swap2\n      pop\n      swap1\n      pop\n      dup1\n      0x00\n      add\n      dup1\n      sload\n      tag_247\n      swap1\n      tag_90\n      jump\t// in\n    tag_247:\n      dup1\n      0x1f\n      add\n      0x20\n      dup1\n      swap2\n      div\n      mul\n      0x20\n      add\n      mload(0x40)\n      swap1\n      dup2\n      add\n      0x40\n      mstore\n      dup1\n      swap3\n      swap2\n      swap1\n      dup2\n      dup2\n      mstore\n      0x20\n      add\n      dup3\n      dup1\n      sload\n      tag_248\n      swap1\n      tag_90\n      jump\t// in\n    tag_248:\n      dup1\n      iszero\n      tag_249\n      jumpi\n      dup1\n      0x1f\n      lt\n      tag_250\n      jumpi\n      0x0100\n      dup1\n      dup4\n      sload\n      div\n      mul\n      dup4\n      mstore\n      swap2\n      0x20\n      add\n      swap2\n      jump(tag_249)\n    tag_250:\n      dup3\n      add\n      swap2\n      swap1\n      0x00\n      mstore\n      keccak256(0x00, 0x20)\n      swap1\n    tag_251:\n      dup2\n      sload\n      dup2\n      mstore\n      swap1\n      0x01\n      add\n      swap1\n      0x20\n      add\n      dup1\n      dup4\n      gt\n      tag_251\n      jumpi\n      dup3\n      swap1\n      sub\n      0x1f\n      and\n      dup3\n      add\n      swap2\n    tag_249:\n      pop\n      pop\n      pop\n      pop\n      pop\n      swap1\n      dup1\n      0x01\n      add\n      0x00\n      swap1\n      sload\n      swap1\n      0x0100\n      exp\n      swap1\n      div\n      0xff\n      and\n      swap1\n      dup1\n      0x01\n      add\n      0x01\n      swap1\n      sload\n      swap1\n      0x0100\n      exp\n      swap1\n      div\n      0xffffffffffffffffffffffffffffffffffffffff\n      and\n      swap1\n      dup1\n      0x02\n      add\n      sload\n      swap1\n      dup1\n      0x03\n      add\n      0x00\n      swap1\n      sload\n      swap1\n      0x0100\n      exp\n      swap1\n      div\n      0xff\n      and\n      swap1\n      pop\n      dup6\n      jump\t// out\n        /* \"FreelanceMarketplace.sol\":1008:1044  uint256 public platformFeesCollected */\n    tag_71:\n      sload(0x02)\n      dup2\n      jump\t// out\n        /* \"FreelanceMarketplace.sol\":6195:6631  function submitWork(uint256 _jobId) public onlyRegistered onlyFreelancer {\r... */\n    tag_76:\n        /* \"FreelanceMarketplace.sol\":2126:2131  users */\n      0x03\n        /* \"FreelanceMarketplace.sol\":2126:2143  users[msg.sender] */\n      0x00\n        /* \"FreelanceMarketplace.sol\":2132:2142  msg.sender */\n      caller\n        /* \"FreelanceMarketplace.sol\":2126:2143  users[msg.sender] */\n      0xffffffffffffffffffffffffffffffffffffffff\n      and\n      0xffffffffffffffffffffffffffffffffffffffff\n      and\n      dup2\n      mstore\n      0x20\n      add\n      swap1\n      dup2\n      mstore\n      0x20\n      add\n      0x00\n      keccak256\n        /* \"FreelanceMarketplace.sol\":2126:2156  users[msg.sender].isRegistered */\n      0x03\n      add\n      0x00\n      swap1\n      sload\n      swap1\n      0x0100\n      exp\n      swap1\n      div\n      0xff\n      and\n        /* \"FreelanceMarketplace.sol\":2118:2184  require(users[msg.sender].isRegistered, \"User must be registered\") */\n      tag_253\n      jumpi\n      mload(0x40)\n      0x08c379a000000000000000000000000000000000000000000000000000000000\n      dup2\n      mstore\n      0x04\n      add\n      tag_254\n      swap1\n      tag_170\n      jump\t// in\n    tag_254:\n      mload(0x40)\n      dup1\n      swap2\n      sub\n      swap1\n      revert\n    tag_253:\n        /* \"FreelanceMarketplace.sol\":2430:2445  Role.Freelancer */\n      0x03\n        /* \"FreelanceMarketplace.sol\":2404:2445  users[msg.sender].role == Role.Freelancer */\n      dup1\n      dup2\n      gt\n      iszero\n      tag_256\n      jumpi\n      mstore(0x00, 0x4e487b7100000000000000000000000000000000000000000000000000000000)\n      mstore(0x04, 0x21)\n      revert(0x00, 0x24)\n    tag_256:\n        /* \"FreelanceMarketplace.sol\":2404:2409  users */\n      0x03\n        /* \"FreelanceMarketplace.sol\":2404:2421  users[msg.sender] */\n      0x00\n        /* \"FreelanceMarketplace.sol\":2410:2420  msg.sender */\n      caller\n        /* \"FreelanceMarketplace.sol\":2404:2421  users[msg.sender] */\n      0xffffffffffffffffffffffffffffffffffffffff\n      and\n      0xffffffffffffffffffffffffffffffffffffffff\n      and\n      dup2\n      mstore\n      0x20\n      add\n      swap1\n      dup2\n      mstore\n      0x20\n      add\n      0x00\n      keccak256\n        /* \"FreelanceMarketplace.sol\":2404:2426  users[msg.sender].role */\n      0x01\n      add\n      0x00\n      swap1\n      sload\n      swap1\n      0x0100\n      exp\n      swap1\n      div\n      0xff\n      and\n        /* \"FreelanceMarketplace.sol\":2404:2445  users[msg.sender].role == Role.Freelancer */\n      0x03\n      dup2\n      gt\n      iszero\n      tag_257\n      jumpi\n      mstore(0x00, 0x4e487b7100000000000000000000000000000000000000000000000000000000)\n      mstore(0x04, 0x21)\n      revert(0x00, 0x24)\n    tag_257:\n      eq\n        /* \"FreelanceMarketplace.sol\":2396:2490  require(users[msg.sender].role == Role.Freelancer, \"Only Freelancers can perform this action\") */\n      tag_258\n      jumpi\n      mload(0x40)\n      0x08c379a000000000000000000000000000000000000000000000000000000000\n      dup2\n      mstore\n      0x04\n      add\n      tag_259\n      swap1\n      tag_207\n      jump\t// in\n    tag_259:\n      mload(0x40)\n      dup1\n      swap2\n      sub\n      swap1\n      revert\n    tag_258:\n        /* \"FreelanceMarketplace.sol\":6279:6294  Job storage job */\n      0x00\n        /* \"FreelanceMarketplace.sol\":6297:6301  jobs */\n      0x04\n        /* \"FreelanceMarketplace.sol\":6297:6309  jobs[_jobId] */\n      0x00\n        /* \"FreelanceMarketplace.sol\":6302:6308  _jobId */\n      dup4\n        /* \"FreelanceMarketplace.sol\":6297:6309  jobs[_jobId] */\n      dup2\n      mstore\n      0x20\n      add\n      swap1\n      dup2\n      mstore\n      0x20\n      add\n      0x00\n      keccak256\n        /* \"FreelanceMarketplace.sol\":6279:6309  Job storage job = jobs[_jobId] */\n      swap1\n      pop\n        /* \"FreelanceMarketplace.sol\":6354:6364  msg.sender */\n      caller\n        /* \"FreelanceMarketplace.sol\":6328:6364  job.selectedFreelancer == msg.sender */\n      0xffffffffffffffffffffffffffffffffffffffff\n      and\n        /* \"FreelanceMarketplace.sol\":6328:6331  job */\n      dup2\n        /* \"FreelanceMarketplace.sol\":6328:6350  job.selectedFreelancer */\n      0x08\n      add\n      0x00\n      swap1\n      sload\n      swap1\n      0x0100\n      exp\n      swap1\n      div\n      0xffffffffffffffffffffffffffffffffffffffff\n      and\n        /* \"FreelanceMarketplace.sol\":6328:6364  job.selectedFreelancer == msg.sender */\n      0xffffffffffffffffffffffffffffffffffffffff\n      and\n      eq\n        /* \"FreelanceMarketplace.sol\":6320:6399  require(job.selectedFreelancer == msg.sender, \"You are not hired for this job\") */\n      tag_261\n      jumpi\n      mload(0x40)\n      0x08c379a000000000000000000000000000000000000000000000000000000000\n      dup2\n      mstore\n      0x04\n      add\n      tag_262\n      swap1\n      tag_263\n      jump\t// in\n    tag_262:\n      mload(0x40)\n      dup1\n      swap2\n      sub\n      swap1\n      revert\n    tag_261:\n        /* \"FreelanceMarketplace.sol\":6432:6452  JobStatus.InProgress */\n      0x01\n        /* \"FreelanceMarketplace.sol\":6418:6452  job.status == JobStatus.InProgress */\n      0x05\n      dup2\n      gt\n      iszero\n      tag_264\n      jumpi\n      mstore(0x00, 0x4e487b7100000000000000000000000000000000000000000000000000000000)\n      mstore(0x04, 0x21)\n      revert(0x00, 0x24)\n    tag_264:\n        /* \"FreelanceMarketplace.sol\":6418:6421  job */\n      dup2\n        /* \"FreelanceMarketplace.sol\":6418:6428  job.status */\n      0x06\n      add\n      0x00\n      swap1\n      sload\n      swap1\n      0x0100\n      exp\n      swap1\n      div\n      0xff\n      and\n        /* \"FreelanceMarketplace.sol\":6418:6452  job.status == JobStatus.InProgress */\n      0x05\n      dup2\n      gt\n      iszero\n      tag_265\n      jumpi\n      mstore(0x00, 0x4e487b7100000000000000000000000000000000000000000000000000000000)\n      mstore(0x04, 0x21)\n      revert(0x00, 0x24)\n    tag_265:\n      eq\n        /* \"FreelanceMarketplace.sol\":6410:6476  require(job.status == JobStatus.InProgress, \"Job not in progress\") */\n      tag_266\n      jumpi\n      mload(0x40)\n      0x08c379a000000000000000000000000000000000000000000000000000000000\n      dup2\n      mstore\n      0x04\n      add\n      tag_267\n      swap1\n      tag_185\n      jump\t// in\n    tag_267:\n      mload(0x40)\n      dup1\n      swap2\n      sub\n      swap1\n      revert\n    tag_266:\n        /* \"FreelanceMarketplace.sol\":6612:6622  msg.sender */\n      caller\n        /* \"FreelanceMarketplace.sol\":6590:6623  WorkSubmitted(_jobId, msg.sender) */\n      0xffffffffffffffffffffffffffffffffffffffff\n      and\n        /* \"FreelanceMarketplace.sol\":6604:6610  _jobId */\n      dup3\n        /* \"FreelanceMarketplace.sol\":6590:6623  WorkSubmitted(_jobId, msg.sender) */\n      0x2e1034180f85502b3a04560be6ed4c24fe9b9c9e0bd7f4e09720494ac48859fa\n      mload(0x40)\n      mload(0x40)\n      dup1\n      swap2\n      sub\n      swap1\n      log3\n        /* \"FreelanceMarketplace.sol\":2501:2502  _ */\n      pop\n        /* \"FreelanceMarketplace.sol\":6195:6631  function submitWork(uint256 _jobId) public onlyRegistered onlyFreelancer {\r... */\n      pop\n      jump\t// out\n        /* \"FreelanceMarketplace.sol\":7738:8113  function disputeJob(uint256 _jobId) public onlyRegistered onlyClient {\r... */\n    tag_80:\n        /* \"FreelanceMarketplace.sol\":2126:2131  users */\n      0x03\n        /* \"FreelanceMarketplace.sol\":2126:2143  users[msg.sender] */\n      0x00\n        /* \"FreelanceMarketplace.sol\":2132:2142  msg.sender */\n      caller\n        /* \"FreelanceMarketplace.sol\":2126:2143  users[msg.sender] */\n      0xffffffffffffffffffffffffffffffffffffffff\n      and\n      0xffffffffffffffffffffffffffffffffffffffff\n      and\n      dup2\n      mstore\n      0x20\n      add\n      swap1\n      dup2\n      mstore\n      0x20\n      add\n      0x00\n      keccak256\n        /* \"FreelanceMarketplace.sol\":2126:2156  users[msg.sender].isRegistered */\n      0x03\n      add\n      0x00\n      swap1\n      sload\n      swap1\n      0x0100\n      exp\n      swap1\n      div\n      0xff\n      and\n        /* \"FreelanceMarketplace.sol\":2118:2184  require(users[msg.sender].isRegistered, \"User must be registered\") */\n      tag_269\n      jumpi\n      mload(0x40)\n      0x08c379a000000000000000000000000000000000000000000000000000000000\n      dup2\n      mstore\n      0x04\n      add\n      tag_270\n      swap1\n      tag_170\n      jump\t// in\n    tag_270:\n      mload(0x40)\n      dup1\n      swap2\n      sub\n      swap1\n      revert\n    tag_269:\n        /* \"FreelanceMarketplace.sol\":2279:2290  Role.Client */\n      0x02\n        /* \"FreelanceMarketplace.sol\":2253:2290  users[msg.sender].role == Role.Client */\n      0x03\n      dup2\n      gt\n      iszero\n      tag_272\n      jumpi\n      mstore(0x00, 0x4e487b7100000000000000000000000000000000000000000000000000000000)\n      mstore(0x04, 0x21)\n      revert(0x00, 0x24)\n    tag_272:\n        /* \"FreelanceMarketplace.sol\":2253:2258  users */\n      0x03\n        /* \"FreelanceMarketplace.sol\":2253:2270  users[msg.sender] */\n      0x00\n        /* \"FreelanceMarketplace.sol\":2259:2269  msg.sender */\n      caller\n        /* \"FreelanceMarketplace.sol\":2253:2270  users[msg.sender] */\n      0xffffffffffffffffffffffffffffffffffffffff\n      and\n      0xffffffffffffffffffffffffffffffffffffffff\n      and\n      dup2\n      mstore\n      0x20\n      add\n      swap1\n      dup2\n      mstore\n      0x20\n      add\n      0x00\n      keccak256\n        /* \"FreelanceMarketplace.sol\":2253:2275  users[msg.sender].role */\n      0x01\n      add\n      0x00\n      swap1\n      sload\n      swap1\n      0x0100\n      exp\n      swap1\n      div\n      0xff\n      and\n        /* \"FreelanceMarketplace.sol\":2253:2290  users[msg.sender].role == Role.Client */\n      0x03\n      dup2\n      gt\n      iszero\n      tag_273\n      jumpi\n      mstore(0x00, 0x4e487b7100000000000000000000000000000000000000000000000000000000)\n      mstore(0x04, 0x21)\n      revert(0x00, 0x24)\n    tag_273:\n      eq\n        /* \"FreelanceMarketplace.sol\":2245:2331  require(users[msg.sender].role == Role.Client, \"Only Clients can perform this action\") */\n      tag_274\n      jumpi\n      mload(0x40)\n      0x08c379a000000000000000000000000000000000000000000000000000000000\n      dup2\n      mstore\n      0x04\n      add\n      tag_275\n      swap1\n      tag_176\n      jump\t// in\n    tag_275:\n      mload(0x40)\n      dup1\n      swap2\n      sub\n      swap1\n      revert\n    tag_274:\n        /* \"FreelanceMarketplace.sol\":7818:7833  Job storage job */\n      0x00\n        /* \"FreelanceMarketplace.sol\":7836:7840  jobs */\n      0x04\n        /* \"FreelanceMarketplace.sol\":7836:7848  jobs[_jobId] */\n      0x00\n        /* \"FreelanceMarketplace.sol\":7841:7847  _jobId */\n      dup4\n        /* \"FreelanceMarketplace.sol\":7836:7848  jobs[_jobId] */\n      dup2\n      mstore\n      0x20\n      add\n      swap1\n      dup2\n      mstore\n      0x20\n      add\n      0x00\n      keccak256\n        /* \"FreelanceMarketplace.sol\":7818:7848  Job storage job = jobs[_jobId] */\n      swap1\n      pop\n        /* \"FreelanceMarketplace.sol\":7881:7891  msg.sender */\n      caller\n        /* \"FreelanceMarketplace.sol\":7867:7891  job.client == msg.sender */\n      0xffffffffffffffffffffffffffffffffffffffff\n      and\n        /* \"FreelanceMarketplace.sol\":7867:7870  job */\n      dup2\n        /* \"FreelanceMarketplace.sol\":7867:7877  job.client */\n      0x01\n      add\n      0x00\n      swap1\n      sload\n      swap1\n      0x0100\n      exp\n      swap1\n      div\n      0xffffffffffffffffffffffffffffffffffffffff\n      and\n        /* \"FreelanceMarketplace.sol\":7867:7891  job.client == msg.sender */\n      0xffffffffffffffffffffffffffffffffffffffff\n      and\n      eq\n        /* \"FreelanceMarketplace.sol\":7859:7922  require(job.client == msg.sender, \"Only job owner can dispute\") */\n      tag_277\n      jumpi\n      mload(0x40)\n      0x08c379a000000000000000000000000000000000000000000000000000000000\n      dup2\n      mstore\n      0x04\n      add\n      tag_278\n      swap1\n      tag_279\n      jump\t// in\n    tag_278:\n      mload(0x40)\n      dup1\n      swap2\n      sub\n      swap1\n      revert\n    tag_277:\n        /* \"FreelanceMarketplace.sol\":7955:7975  JobStatus.InProgress */\n      0x01\n        /* \"FreelanceMarketplace.sol\":7941:7975  job.status == JobStatus.InProgress */\n      0x05\n      dup2\n      gt\n      iszero\n      tag_280\n      jumpi\n      mstore(0x00, 0x4e487b7100000000000000000000000000000000000000000000000000000000)\n      mstore(0x04, 0x21)\n      revert(0x00, 0x24)\n    tag_280:\n        /* \"FreelanceMarketplace.sol\":7941:7944  job */\n      dup2\n        /* \"FreelanceMarketplace.sol\":7941:7951  job.status */\n      0x06\n      add\n      0x00\n      swap1\n      sload\n      swap1\n      0x0100\n      exp\n      swap1\n      div\n      0xff\n      and\n        /* \"FreelanceMarketplace.sol\":7941:7975  job.status == JobStatus.InProgress */\n      0x05\n      dup2\n      gt\n      iszero\n      tag_281\n      jumpi\n      mstore(0x00, 0x4e487b7100000000000000000000000000000000000000000000000000000000)\n      mstore(0x04, 0x21)\n      revert(0x00, 0x24)\n    tag_281:\n      eq\n        /* \"FreelanceMarketplace.sol\":7933:8014  require(job.status == JobStatus.InProgress, \"Job must be in progress to dispute\") */\n      tag_282\n      jumpi\n      mload(0x40)\n      0x08c379a000000000000000000000000000000000000000000000000000000000\n      dup2\n      mstore\n      0x04\n      add\n      tag_283\n      swap1\n      tag_284\n      jump\t// in\n    tag_283:\n      mload(0x40)\n      dup1\n      swap2\n      sub\n      swap1\n      revert\n    tag_282:\n        /* \"FreelanceMarketplace.sol\":8040:8058  JobStatus.Disputed */\n      0x03\n        /* \"FreelanceMarketplace.sol\":8027:8030  job */\n      dup2\n        /* \"FreelanceMarketplace.sol\":8027:8037  job.status */\n      0x06\n      add\n      0x00\n        /* \"FreelanceMarketplace.sol\":8027:8058  job.status = JobStatus.Disputed */\n      0x0100\n      exp\n      dup2\n      sload\n      dup2\n      0xff\n      mul\n      not\n      and\n      swap1\n      dup4\n      0x05\n      dup2\n      gt\n      iszero\n      tag_285\n      jumpi\n      mstore(0x00, 0x4e487b7100000000000000000000000000000000000000000000000000000000)\n      mstore(0x04, 0x21)\n      revert(0x00, 0x24)\n    tag_285:\n      mul\n      or\n      swap1\n      sstore\n      pop\n        /* \"FreelanceMarketplace.sol\":8094:8104  msg.sender */\n      caller\n        /* \"FreelanceMarketplace.sol\":8074:8105  JobDisputed(_jobId, msg.sender) */\n      0xffffffffffffffffffffffffffffffffffffffff\n      and\n        /* \"FreelanceMarketplace.sol\":8086:8092  _jobId */\n      dup3\n        /* \"FreelanceMarketplace.sol\":8074:8105  JobDisputed(_jobId, msg.sender) */\n      0x7a04c23fac86b9f00290f402ccec895256f0b46ad331c80038b783acbfe419\n      mload(0x40)\n      mload(0x40)\n      dup1\n      swap2\n      sub\n      swap1\n      log3\n        /* \"FreelanceMarketplace.sol\":2342:2343  _ */\n      pop\n        /* \"FreelanceMarketplace.sol\":7738:8113  function disputeJob(uint256 _jobId) public onlyRegistered onlyClient {\r... */\n      pop\n      jump\t// out\n        /* \"FreelanceMarketplace.sol\":5351:6125  function hireFreelancer(uint256 _jobId, uint256 _bidIndex) public payable onlyRegistered onlyClient {\r... */\n    tag_83:\n        /* \"FreelanceMarketplace.sol\":2126:2131  users */\n      0x03\n        /* \"FreelanceMarketplace.sol\":2126:2143  users[msg.sender] */\n      0x00\n        /* \"FreelanceMarketplace.sol\":2132:2142  msg.sender */\n      caller\n        /* \"FreelanceMarketplace.sol\":2126:2143  users[msg.sender] */\n      0xffffffffffffffffffffffffffffffffffffffff\n      and\n      0xffffffffffffffffffffffffffffffffffffffff\n      and\n      dup2\n      mstore\n      0x20\n      add\n      swap1\n      dup2\n      mstore\n      0x20\n      add\n      0x00\n      keccak256\n        /* \"FreelanceMarketplace.sol\":2126:2156  users[msg.sender].isRegistered */\n      0x03\n      add\n      0x00\n      swap1\n      sload\n      swap1\n      0x0100\n      exp\n      swap1\n      div\n      0xff\n      and\n        /* \"FreelanceMarketplace.sol\":2118:2184  require(users[msg.sender].isRegistered, \"User must be registered\") */\n      tag_287\n      jumpi\n      mload(0x40)\n      0x08c379a000000000000000000000000000000000000000000000000000000000\n      dup2\n      mstore\n      0x04\n      add\n      tag_288\n      swap1\n      tag_170\n      jump\t// in\n    tag_288:\n      mload(0x40)\n      dup1\n      swap2\n      sub\n      swap1\n      revert\n    tag_287:\n        /* \"FreelanceMarketplace.sol\":2279:2290  Role.Client */\n      0x02\n        /* \"FreelanceMarketplace.sol\":2253:2290  users[msg.sender].role == Role.Client */\n      0x03\n      dup2\n      gt\n      iszero\n      tag_290\n      jumpi\n      mstore(0x00, 0x4e487b7100000000000000000000000000000000000000000000000000000000)\n      mstore(0x04, 0x21)\n      revert(0x00, 0x24)\n    tag_290:\n        /* \"FreelanceMarketplace.sol\":2253:2258  users */\n      0x03\n        /* \"FreelanceMarketplace.sol\":2253:2270  users[msg.sender] */\n      0x00\n        /* \"FreelanceMarketplace.sol\":2259:2269  msg.sender */\n      caller\n        /* \"FreelanceMarketplace.sol\":2253:2270  users[msg.sender] */\n      0xffffffffffffffffffffffffffffffffffffffff\n      and\n      0xffffffffffffffffffffffffffffffffffffffff\n      and\n      dup2\n      mstore\n      0x20\n      add\n      swap1\n      dup2\n      mstore\n      0x20\n      add\n      0x00\n      keccak256\n        /* \"FreelanceMarketplace.sol\":2253:2275  users[msg.sender].role */\n      0x01\n      add\n      0x00\n      swap1\n      sload\n      swap1\n      0x0100\n      exp\n      swap1\n      div\n      0xff\n      and\n        /* \"FreelanceMarketplace.sol\":2253:2290  users[msg.sender].role == Role.Client */\n      0x03\n      dup2\n      gt\n      iszero\n      tag_291\n      jumpi\n      mstore(0x00, 0x4e487b7100000000000000000000000000000000000000000000000000000000)\n      mstore(0x04, 0x21)\n      revert(0x00, 0x24)\n    tag_291:\n      eq\n        /* \"FreelanceMarketplace.sol\":2245:2331  require(users[msg.sender].role == Role.Client, \"Only Clients can perform this action\") */\n      tag_292\n      jumpi\n      mload(0x40)\n      0x08c379a000000000000000000000000000000000000000000000000000000000\n      dup2\n      mstore\n      0x04\n      add\n      tag_293\n      swap1\n      tag_176\n      jump\t// in\n    tag_293:\n      mload(0x40)\n      dup1\n      swap2\n      sub\n      swap1\n      revert\n    tag_292:\n        /* \"FreelanceMarketplace.sol\":5462:5477  Job storage job */\n      0x00\n        /* \"FreelanceMarketplace.sol\":5480:5484  jobs */\n      0x04\n        /* \"FreelanceMarketplace.sol\":5480:5492  jobs[_jobId] */\n      0x00\n        /* \"FreelanceMarketplace.sol\":5485:5491  _jobId */\n      dup5\n        /* \"FreelanceMarketplace.sol\":5480:5492  jobs[_jobId] */\n      dup2\n      mstore\n      0x20\n      add\n      swap1\n      dup2\n      mstore\n      0x20\n      add\n      0x00\n      keccak256\n        /* \"FreelanceMarketplace.sol\":5462:5492  Job storage job = jobs[_jobId] */\n      swap1\n      pop\n        /* \"FreelanceMarketplace.sol\":5525:5535  msg.sender */\n      caller\n        /* \"FreelanceMarketplace.sol\":5511:5535  job.client == msg.sender */\n      0xffffffffffffffffffffffffffffffffffffffff\n      and\n        /* \"FreelanceMarketplace.sol\":5511:5514  job */\n      dup2\n        /* \"FreelanceMarketplace.sol\":5511:5521  job.client */\n      0x01\n      add\n      0x00\n      swap1\n      sload\n      swap1\n      0x0100\n      exp\n      swap1\n      div\n      0xffffffffffffffffffffffffffffffffffffffff\n      and\n        /* \"FreelanceMarketplace.sol\":5511:5535  job.client == msg.sender */\n      0xffffffffffffffffffffffffffffffffffffffff\n      and\n      eq\n        /* \"FreelanceMarketplace.sol\":5503:5567  require(job.client == msg.sender, \"Only the job owner can hire\") */\n      tag_295\n      jumpi\n      mload(0x40)\n      0x08c379a000000000000000000000000000000000000000000000000000000000\n      dup2\n      mstore\n      0x04\n      add\n      tag_296\n      swap1\n      tag_297\n      jump\t// in\n    tag_296:\n      mload(0x40)\n      dup1\n      swap2\n      sub\n      swap1\n      revert\n    tag_295:\n        /* \"FreelanceMarketplace.sol\":5600:5614  JobStatus.Open */\n      0x00\n        /* \"FreelanceMarketplace.sol\":5586:5614  job.status == JobStatus.Open */\n      0x05\n      dup2\n      gt\n      iszero\n      tag_298\n      jumpi\n      mstore(0x00, 0x4e487b7100000000000000000000000000000000000000000000000000000000)\n      mstore(0x04, 0x21)\n      revert(0x00, 0x24)\n    tag_298:\n        /* \"FreelanceMarketplace.sol\":5586:5589  job */\n      dup2\n        /* \"FreelanceMarketplace.sol\":5586:5596  job.status */\n      0x06\n      add\n      0x00\n      swap1\n      sload\n      swap1\n      0x0100\n      exp\n      swap1\n      div\n      0xff\n      and\n        /* \"FreelanceMarketplace.sol\":5586:5614  job.status == JobStatus.Open */\n      0x05\n      dup2\n      gt\n      iszero\n      tag_299\n      jumpi\n      mstore(0x00, 0x4e487b7100000000000000000000000000000000000000000000000000000000)\n      mstore(0x04, 0x21)\n      revert(0x00, 0x24)\n    tag_299:\n      eq\n        /* \"FreelanceMarketplace.sol\":5578:5634  require(job.status == JobStatus.Open, \"Job is not open\") */\n      tag_300\n      jumpi\n      mload(0x40)\n      0x08c379a000000000000000000000000000000000000000000000000000000000\n      dup2\n      mstore\n      0x04\n      add\n      tag_301\n      swap1\n      tag_213\n      jump\t// in\n    tag_301:\n      mload(0x40)\n      dup1\n      swap2\n      sub\n      swap1\n      revert\n    tag_300:\n        /* \"FreelanceMarketplace.sol\":5655:5677  Bid memory selectedBid */\n      0x00\n        /* \"FreelanceMarketplace.sol\":5680:5687  jobBids */\n      0x05\n        /* \"FreelanceMarketplace.sol\":5680:5695  jobBids[_jobId] */\n      0x00\n        /* \"FreelanceMarketplace.sol\":5688:5694  _jobId */\n      dup6\n        /* \"FreelanceMarketplace.sol\":5680:5695  jobBids[_jobId] */\n      dup2\n      mstore\n      0x20\n      add\n      swap1\n      dup2\n      mstore\n      0x20\n      add\n      0x00\n      keccak256\n        /* \"FreelanceMarketplace.sol\":5696:5705  _bidIndex */\n      dup4\n        /* \"FreelanceMarketplace.sol\":5680:5706  jobBids[_jobId][_bidIndex] */\n      dup2\n      sload\n      dup2\n      lt\n      tag_302\n      jumpi\n      mstore(0x00, 0x4e487b7100000000000000000000000000000000000000000000000000000000)\n      mstore(0x04, 0x32)\n      revert(0x00, 0x24)\n    tag_302:\n      swap1\n      0x00\n      mstore\n      keccak256(0x00, 0x20)\n      swap1\n      0x04\n      mul\n      add\n        /* \"FreelanceMarketplace.sol\":5655:5706  Bid memory selectedBid = jobBids[_jobId][_bidIndex] */\n      mload(0x40)\n      dup1\n      0x80\n      add\n      0x40\n      mstore\n      swap1\n      dup2\n      0x00\n      dup3\n      add\n      sload\n      dup2\n      mstore\n      0x20\n      add\n      0x01\n      dup3\n      add\n      0x00\n      swap1\n      sload\n      swap1\n      0x0100\n      exp\n      swap1\n      div\n      0xffffffffffffffffffffffffffffffffffffffff\n      and\n      0xffffffffffffffffffffffffffffffffffffffff\n      and\n      0xffffffffffffffffffffffffffffffffffffffff\n      and\n      dup2\n      mstore\n      0x20\n      add\n      0x02\n      dup3\n      add\n      sload\n      dup2\n      mstore\n      0x20\n      add\n      0x03\n      dup3\n      add\n      dup1\n      sload\n      tag_304\n      swap1\n      tag_90\n      jump\t// in\n    tag_304:\n      dup1\n      0x1f\n      add\n      0x20\n      dup1\n      swap2\n      div\n      mul\n      0x20\n      add\n      mload(0x40)\n      swap1\n      dup2\n      add\n      0x40\n      mstore\n      dup1\n      swap3\n      swap2\n      swap1\n      dup2\n      dup2\n      mstore\n      0x20\n      add\n      dup3\n      dup1\n      sload\n      tag_305\n      swap1\n      tag_90\n      jump\t// in\n    tag_305:\n      dup1\n      iszero\n      tag_306\n      jumpi\n      dup1\n      0x1f\n      lt\n      tag_307\n      jumpi\n      0x0100\n      dup1\n      dup4\n      sload\n      div\n      mul\n      dup4\n      mstore\n      swap2\n      0x20\n      add\n      swap2\n      jump(tag_306)\n    tag_307:\n      dup3\n      add\n      swap2\n      swap1\n      0x00\n      mstore\n      keccak256(0x00, 0x20)\n      swap1\n    tag_308:\n      dup2\n      sload\n      dup2\n      mstore\n      swap1\n      0x01\n      add\n      swap1\n      0x20\n      add\n      dup1\n      dup4\n      gt\n      tag_308\n      jumpi\n      dup3\n      swap1\n      sub\n      0x1f\n      and\n      dup3\n      add\n      swap2\n    tag_306:\n      pop\n      pop\n      pop\n      pop\n      pop\n      dup2\n      mstore\n      pop\n      pop\n      swap1\n      pop\n        /* \"FreelanceMarketplace.sol\":5814:5825  selectedBid */\n      dup1\n        /* \"FreelanceMarketplace.sol\":5814:5835  selectedBid.bidAmount */\n      0x40\n      add\n      mload\n        /* \"FreelanceMarketplace.sol\":5801:5810  msg.value */\n      callvalue\n        /* \"FreelanceMarketplace.sol\":5801:5835  msg.value == selectedBid.bidAmount */\n      eq\n        /* \"FreelanceMarketplace.sol\":5793:5867  require(msg.value == selectedBid.bidAmount, \"Incorrect Ether amount sent\") */\n      tag_309\n      jumpi\n      mload(0x40)\n      0x08c379a000000000000000000000000000000000000000000000000000000000\n      dup2\n      mstore\n      0x04\n      add\n      tag_310\n      swap1\n      tag_311\n      jump\t// in\n    tag_310:\n      mload(0x40)\n      dup1\n      swap2\n      sub\n      swap1\n      revert\n    tag_309:\n        /* \"FreelanceMarketplace.sol\":5905:5916  selectedBid */\n      dup1\n        /* \"FreelanceMarketplace.sol\":5905:5927  selectedBid.freelancer */\n      0x20\n      add\n      mload\n        /* \"FreelanceMarketplace.sol\":5880:5883  job */\n      dup3\n        /* \"FreelanceMarketplace.sol\":5880:5902  job.selectedFreelancer */\n      0x08\n      add\n      0x00\n        /* \"FreelanceMarketplace.sol\":5880:5927  job.selectedFreelancer = selectedBid.freelancer */\n      0x0100\n      exp\n      dup2\n      sload\n      dup2\n      0xffffffffffffffffffffffffffffffffffffffff\n      mul\n      not\n      and\n      swap1\n      dup4\n      0xffffffffffffffffffffffffffffffffffffffff\n      and\n      mul\n      or\n      swap1\n      sstore\n      pop\n        /* \"FreelanceMarketplace.sol\":5957:5966  msg.value */\n      callvalue\n        /* \"FreelanceMarketplace.sol\":5938:5941  job */\n      dup3\n        /* \"FreelanceMarketplace.sol\":5938:5954  job.lockedAmount */\n      0x07\n      add\n        /* \"FreelanceMarketplace.sol\":5938:5966  job.lockedAmount = msg.value */\n      dup2\n      swap1\n      sstore\n      pop\n        /* \"FreelanceMarketplace.sol\":6016:6036  JobStatus.InProgress */\n      0x01\n        /* \"FreelanceMarketplace.sol\":6003:6006  job */\n      dup3\n        /* \"FreelanceMarketplace.sol\":6003:6013  job.status */\n      0x06\n      add\n      0x00\n        /* \"FreelanceMarketplace.sol\":6003:6036  job.status = JobStatus.InProgress */\n      0x0100\n      exp\n      dup2\n      sload\n      dup2\n      0xff\n      mul\n      not\n      and\n      swap1\n      dup4\n      0x05\n      dup2\n      gt\n      iszero\n      tag_312\n      jumpi\n      mstore(0x00, 0x4e487b7100000000000000000000000000000000000000000000000000000000)\n      mstore(0x04, 0x21)\n      revert(0x00, 0x24)\n    tag_312:\n      mul\n      or\n      swap1\n      sstore\n      pop\n        /* \"FreelanceMarketplace.sol\":6083:6094  selectedBid */\n      dup1\n        /* \"FreelanceMarketplace.sol\":6083:6105  selectedBid.freelancer */\n      0x20\n      add\n      mload\n        /* \"FreelanceMarketplace.sol\":6054:6117  JobHired(_jobId, msg.sender, selectedBid.freelancer, msg.value) */\n      0xffffffffffffffffffffffffffffffffffffffff\n      and\n        /* \"FreelanceMarketplace.sol\":6071:6081  msg.sender */\n      caller\n        /* \"FreelanceMarketplace.sol\":6054:6117  JobHired(_jobId, msg.sender, selectedBid.freelancer, msg.value) */\n      0xffffffffffffffffffffffffffffffffffffffff\n      and\n        /* \"FreelanceMarketplace.sol\":6063:6069  _jobId */\n      dup6\n        /* \"FreelanceMarketplace.sol\":6054:6117  JobHired(_jobId, msg.sender, selectedBid.freelancer, msg.value) */\n      0x3296be5329aa51bec44418f854418438cc19283bf0c117497123e5ccfa662d8e\n        /* \"FreelanceMarketplace.sol\":6107:6116  msg.value */\n      callvalue\n        /* \"FreelanceMarketplace.sol\":6054:6117  JobHired(_jobId, msg.sender, selectedBid.freelancer, msg.value) */\n      mload(0x40)\n      tag_313\n      swap2\n      swap1\n      tag_49\n      jump\t// in\n    tag_313:\n      mload(0x40)\n      dup1\n      swap2\n      sub\n      swap1\n      log4\n        /* \"FreelanceMarketplace.sol\":2342:2343  _ */\n      pop\n      pop\n        /* \"FreelanceMarketplace.sol\":5351:6125  function hireFreelancer(uint256 _jobId, uint256 _bidIndex) public payable onlyRegistered onlyClient {\r... */\n      pop\n      pop\n      jump\t// out\n        /* \"FreelanceMarketplace.sol\":925:947  address public arbiter */\n    tag_86:\n      0x00\n      dup1\n      sload\n      swap1\n      0x0100\n      exp\n      swap1\n      div\n      0xffffffffffffffffffffffffffffffffffffffff\n      and\n      dup2\n      jump\t// out\n    tag_127:\n      dup3\n      dup1\n      sload\n      tag_314\n      swap1\n      tag_90\n      jump\t// in\n    tag_314:\n      swap1\n      0x00\n      mstore\n      keccak256(0x00, 0x20)\n      swap1\n      0x1f\n      add\n      0x20\n      swap1\n      div\n      dup2\n      add\n      swap3\n      dup3\n      tag_316\n      jumpi\n      0x00\n      dup6\n      sstore\n      jump(tag_315)\n    tag_316:\n      dup3\n      0x1f\n      lt\n      tag_317\n      jumpi\n      dup1\n      mload\n      not(0xff)\n      and\n      dup4\n      dup1\n      add\n      or\n      dup6\n      sstore\n      jump(tag_315)\n    tag_317:\n      dup3\n      dup1\n      add\n      0x01\n      add\n      dup6\n      sstore\n      dup3\n      iszero\n      tag_315\n      jumpi\n      swap2\n      dup3\n      add\n    tag_318:\n      dup3\n      dup2\n      gt\n      iszero\n      tag_319\n      jumpi\n      dup3\n      mload\n      dup3\n      sstore\n      swap2\n      0x20\n      add\n      swap2\n      swap1\n      0x01\n      add\n      swap1\n      jump(tag_318)\n    tag_319:\n    tag_315:\n      pop\n      swap1\n      pop\n      tag_320\n      swap2\n      swap1\n      tag_321\n      jump\t// in\n    tag_320:\n      pop\n      swap1\n      jump\t// out\n    tag_321:\n    tag_322:\n      dup1\n      dup3\n      gt\n      iszero\n      tag_323\n      jumpi\n      0x00\n      dup2\n      0x00\n      swap1\n      sstore\n      pop\n      0x01\n      add\n      jump(tag_322)\n    tag_323:\n      pop\n      swap1\n      jump\t// out\n        /* \"#utility.yul\":7:351   */\n    tag_325:\n      0x00\n        /* \"#utility.yul\":110:175   */\n      tag_327\n        /* \"#utility.yul\":125:174   */\n      tag_328\n        /* \"#utility.yul\":167:173   */\n      dup5\n        /* \"#utility.yul\":125:174   */\n      tag_329\n      jump\t// in\n    tag_328:\n        /* \"#utility.yul\":110:175   */\n      tag_330\n      jump\t// in\n    tag_327:\n        /* \"#utility.yul\":101:175   */\n      swap1\n      pop\n        /* \"#utility.yul\":198:204   */\n      dup3\n        /* \"#utility.yul\":191:196   */\n      dup2\n        /* \"#utility.yul\":184:205   */\n      mstore\n        /* \"#utility.yul\":236:240   */\n      0x20\n        /* \"#utility.yul\":229:234   */\n      dup2\n        /* \"#utility.yul\":225:241   */\n      add\n        /* \"#utility.yul\":274:277   */\n      dup5\n        /* \"#utility.yul\":265:271   */\n      dup5\n        /* \"#utility.yul\":260:263   */\n      dup5\n        /* \"#utility.yul\":256:272   */\n      add\n        /* \"#utility.yul\":253:278   */\n      gt\n        /* \"#utility.yul\":250:252   */\n      iszero\n      tag_331\n      jumpi\n        /* \"#utility.yul\":291:292   */\n      0x00\n        /* \"#utility.yul\":288:289   */\n      dup1\n        /* \"#utility.yul\":281:293   */\n      revert\n        /* \"#utility.yul\":250:252   */\n    tag_331:\n        /* \"#utility.yul\":304:345   */\n      tag_332\n        /* \"#utility.yul\":338:344   */\n      dup5\n        /* \"#utility.yul\":333:336   */\n      dup3\n        /* \"#utility.yul\":328:331   */\n      dup6\n        /* \"#utility.yul\":304:345   */\n      tag_333\n      jump\t// in\n    tag_332:\n        /* \"#utility.yul\":91:351   */\n      pop\n      swap4\n      swap3\n      pop\n      pop\n      pop\n      jump\t// out\n        /* \"#utility.yul\":357:496   */\n    tag_334:\n      0x00\n        /* \"#utility.yul\":441:447   */\n      dup2\n        /* \"#utility.yul\":428:448   */\n      calldataload\n        /* \"#utility.yul\":419:448   */\n      swap1\n      pop\n        /* \"#utility.yul\":457:490   */\n      tag_336\n        /* \"#utility.yul\":484:489   */\n      dup2\n        /* \"#utility.yul\":457:490   */\n      tag_337\n      jump\t// in\n    tag_336:\n        /* \"#utility.yul\":409:496   */\n      swap3\n      swap2\n      pop\n      pop\n      jump\t// out\n        /* \"#utility.yul\":502:635   */\n    tag_338:\n      0x00\n        /* \"#utility.yul\":583:589   */\n      dup2\n        /* \"#utility.yul\":570:590   */\n      calldataload\n        /* \"#utility.yul\":561:590   */\n      swap1\n      pop\n        /* \"#utility.yul\":599:629   */\n      tag_340\n        /* \"#utility.yul\":623:628   */\n      dup2\n        /* \"#utility.yul\":599:629   */\n      tag_341\n      jump\t// in\n    tag_340:\n        /* \"#utility.yul\":551:635   */\n      swap3\n      swap2\n      pop\n      pop\n      jump\t// out\n        /* \"#utility.yul\":655:928   */\n    tag_342:\n      0x00\n        /* \"#utility.yul\":760:763   */\n      dup3\n        /* \"#utility.yul\":753:757   */\n      0x1f\n        /* \"#utility.yul\":745:751   */\n      dup4\n        /* \"#utility.yul\":741:758   */\n      add\n        /* \"#utility.yul\":737:764   */\n      slt\n        /* \"#utility.yul\":727:729   */\n      tag_344\n      jumpi\n        /* \"#utility.yul\":778:779   */\n      0x00\n        /* \"#utility.yul\":775:776   */\n      dup1\n        /* \"#utility.yul\":768:780   */\n      revert\n        /* \"#utility.yul\":727:729   */\n    tag_344:\n        /* \"#utility.yul\":818:824   */\n      dup2\n        /* \"#utility.yul\":805:825   */\n      calldataload\n        /* \"#utility.yul\":843:922   */\n      tag_345\n        /* \"#utility.yul\":918:921   */\n      dup5\n        /* \"#utility.yul\":910:916   */\n      dup3\n        /* \"#utility.yul\":903:907   */\n      0x20\n        /* \"#utility.yul\":895:901   */\n      dup7\n        /* \"#utility.yul\":891:908   */\n      add\n        /* \"#utility.yul\":843:922   */\n      tag_325\n      jump\t// in\n    tag_345:\n        /* \"#utility.yul\":834:922   */\n      swap2\n      pop\n        /* \"#utility.yul\":717:928   */\n      pop\n      swap3\n      swap2\n      pop\n      pop\n      jump\t// out\n        /* \"#utility.yul\":934:1073   */\n    tag_346:\n      0x00\n        /* \"#utility.yul\":1018:1024   */\n      dup2\n        /* \"#utility.yul\":1005:1025   */\n      calldataload\n        /* \"#utility.yul\":996:1025   */\n      swap1\n      pop\n        /* \"#utility.yul\":1034:1067   */\n      tag_348\n        /* \"#utility.yul\":1061:1066   */\n      dup2\n        /* \"#utility.yul\":1034:1067   */\n      tag_349\n      jump\t// in\n    tag_348:\n        /* \"#utility.yul\":986:1073   */\n      swap3\n      swap2\n      pop\n      pop\n      jump\t// out\n        /* \"#utility.yul\":1079:1214   */\n    tag_350:\n      0x00\n        /* \"#utility.yul\":1161:1167   */\n      dup2\n        /* \"#utility.yul\":1148:1168   */\n      calldataload\n        /* \"#utility.yul\":1139:1168   */\n      swap1\n      pop\n        /* \"#utility.yul\":1177:1208   */\n      tag_352\n        /* \"#utility.yul\":1202:1207   */\n      dup2\n        /* \"#utility.yul\":1177:1208   */\n      tag_353\n      jump\t// in\n    tag_352:\n        /* \"#utility.yul\":1129:1214   */\n      swap3\n      swap2\n      pop\n      pop\n      jump\t// out\n        /* \"#utility.yul\":1220:1482   */\n    tag_65:\n      0x00\n        /* \"#utility.yul\":1328:1330   */\n      0x20\n        /* \"#utility.yul\":1316:1325   */\n      dup3\n        /* \"#utility.yul\":1307:1314   */\n      dup5\n        /* \"#utility.yul\":1303:1326   */\n      sub\n        /* \"#utility.yul\":1299:1331   */\n      slt\n        /* \"#utility.yul\":1296:1298   */\n      iszero\n      tag_355\n      jumpi\n        /* \"#utility.yul\":1344:1345   */\n      0x00\n        /* \"#utility.yul\":1341:1342   */\n      dup1\n        /* \"#utility.yul\":1334:1346   */\n      revert\n        /* \"#utility.yul\":1296:1298   */\n    tag_355:\n        /* \"#utility.yul\":1387:1388   */\n      0x00\n        /* \"#utility.yul\":1412:1465   */\n      tag_356\n        /* \"#utility.yul\":1457:1464   */\n      dup5\n        /* \"#utility.yul\":1448:1454   */\n      dup3\n        /* \"#utility.yul\":1437:1446   */\n      dup6\n        /* \"#utility.yul\":1433:1455   */\n      add\n        /* \"#utility.yul\":1412:1465   */\n      tag_334\n      jump\t// in\n    tag_356:\n        /* \"#utility.yul\":1402:1465   */\n      swap2\n      pop\n        /* \"#utility.yul\":1358:1475   */\n      pop\n        /* \"#utility.yul\":1286:1482   */\n      swap3\n      swap2\n      pop\n      pop\n      jump\t// out\n        /* \"#utility.yul\":1488:2412   */\n    tag_53:\n      0x00\n      dup1\n      0x00\n      dup1\n        /* \"#utility.yul\":1667:1670   */\n      0x80\n        /* \"#utility.yul\":1655:1664   */\n      dup6\n        /* \"#utility.yul\":1646:1653   */\n      dup8\n        /* \"#utility.yul\":1642:1665   */\n      sub\n        /* \"#utility.yul\":1638:1671   */\n      slt\n        /* \"#utility.yul\":1635:1637   */\n      iszero\n      tag_358\n      jumpi\n        /* \"#utility.yul\":1684:1685   */\n      0x00\n        /* \"#utility.yul\":1681:1682   */\n      dup1\n        /* \"#utility.yul\":1674:1686   */\n      revert\n        /* \"#utility.yul\":1635:1637   */\n    tag_358:\n        /* \"#utility.yul\":1755:1756   */\n      0x00\n        /* \"#utility.yul\":1744:1753   */\n      dup6\n        /* \"#utility.yul\":1740:1757   */\n      add\n        /* \"#utility.yul\":1727:1758   */\n      calldataload\n        /* \"#utility.yul\":1785:1803   */\n      0xffffffffffffffff\n        /* \"#utility.yul\":1777:1783   */\n      dup2\n        /* \"#utility.yul\":1774:1804   */\n      gt\n        /* \"#utility.yul\":1771:1773   */\n      iszero\n      tag_359\n      jumpi\n        /* \"#utility.yul\":1817:1818   */\n      0x00\n        /* \"#utility.yul\":1814:1815   */\n      dup1\n        /* \"#utility.yul\":1807:1819   */\n      revert\n        /* \"#utility.yul\":1771:1773   */\n    tag_359:\n        /* \"#utility.yul\":1845:1908   */\n      tag_360\n        /* \"#utility.yul\":1900:1907   */\n      dup8\n        /* \"#utility.yul\":1891:1897   */\n      dup3\n        /* \"#utility.yul\":1880:1889   */\n      dup9\n        /* \"#utility.yul\":1876:1898   */\n      add\n        /* \"#utility.yul\":1845:1908   */\n      tag_342\n      jump\t// in\n    tag_360:\n        /* \"#utility.yul\":1835:1908   */\n      swap5\n      pop\n        /* \"#utility.yul\":1698:1918   */\n      pop\n        /* \"#utility.yul\":1985:1987   */\n      0x20\n        /* \"#utility.yul\":1974:1983   */\n      dup6\n        /* \"#utility.yul\":1970:1988   */\n      add\n        /* \"#utility.yul\":1957:1989   */\n      calldataload\n        /* \"#utility.yul\":2016:2034   */\n      0xffffffffffffffff\n        /* \"#utility.yul\":2008:2014   */\n      dup2\n        /* \"#utility.yul\":2005:2035   */\n      gt\n        /* \"#utility.yul\":2002:2004   */\n      iszero\n      tag_361\n      jumpi\n        /* \"#utility.yul\":2048:2049   */\n      0x00\n        /* \"#utility.yul\":2045:2046   */\n      dup1\n        /* \"#utility.yul\":2038:2050   */\n      revert\n        /* \"#utility.yul\":2002:2004   */\n    tag_361:\n        /* \"#utility.yul\":2076:2139   */\n      tag_362\n        /* \"#utility.yul\":2131:2138   */\n      dup8\n        /* \"#utility.yul\":2122:2128   */\n      dup3\n        /* \"#utility.yul\":2111:2120   */\n      dup9\n        /* \"#utility.yul\":2107:2129   */\n      add\n        /* \"#utility.yul\":2076:2139   */\n      tag_342\n      jump\t// in\n    tag_362:\n        /* \"#utility.yul\":2066:2139   */\n      swap4\n      pop\n        /* \"#utility.yul\":1928:2149   */\n      pop\n        /* \"#utility.yul\":2188:2190   */\n      0x40\n        /* \"#utility.yul\":2214:2267   */\n      tag_363\n        /* \"#utility.yul\":2259:2266   */\n      dup8\n        /* \"#utility.yul\":2250:2256   */\n      dup3\n        /* \"#utility.yul\":2239:2248   */\n      dup9\n        /* \"#utility.yul\":2235:2257   */\n      add\n        /* \"#utility.yul\":2214:2267   */\n      tag_346\n      jump\t// in\n    tag_363:\n        /* \"#utility.yul\":2204:2267   */\n      swap3\n      pop\n        /* \"#utility.yul\":2159:2277   */\n      pop\n        /* \"#utility.yul\":2316:2318   */\n      0x60\n        /* \"#utility.yul\":2342:2395   */\n      tag_364\n        /* \"#utility.yul\":2387:2394   */\n      dup8\n        /* \"#utility.yul\":2378:2384   */\n      dup3\n        /* \"#utility.yul\":2367:2376   */\n      dup9\n        /* \"#utility.yul\":2363:2385   */\n      add\n        /* \"#utility.yul\":2342:2395   */\n      tag_346\n      jump\t// in\n    tag_364:\n        /* \"#utility.yul\":2332:2395   */\n      swap2\n      pop\n        /* \"#utility.yul\":2287:2405   */\n      pop\n        /* \"#utility.yul\":1625:2412   */\n      swap3\n      swap6\n      swap2\n      swap5\n      pop\n      swap3\n      pop\n      jump\t// out\n        /* \"#utility.yul\":2418:2934   */\n    tag_29:\n      0x00\n      dup1\n        /* \"#utility.yul\":2551:2553   */\n      0x40\n        /* \"#utility.yul\":2539:2548   */\n      dup4\n        /* \"#utility.yul\":2530:2537   */\n      dup6\n        /* \"#utility.yul\":2526:2549   */\n      sub\n        /* \"#utility.yul\":2522:2554   */\n      slt\n        /* \"#utility.yul\":2519:2521   */\n      iszero\n      tag_366\n      jumpi\n        /* \"#utility.yul\":2567:2568   */\n      0x00\n        /* \"#utility.yul\":2564:2565   */\n      dup1\n        /* \"#utility.yul\":2557:2569   */\n      revert\n        /* \"#utility.yul\":2519:2521   */\n    tag_366:\n        /* \"#utility.yul\":2638:2639   */\n      0x00\n        /* \"#utility.yul\":2627:2636   */\n      dup4\n        /* \"#utility.yul\":2623:2640   */\n      add\n        /* \"#utility.yul\":2610:2641   */\n      calldataload\n        /* \"#utility.yul\":2668:2686   */\n      0xffffffffffffffff\n        /* \"#utility.yul\":2660:2666   */\n      dup2\n        /* \"#utility.yul\":2657:2687   */\n      gt\n        /* \"#utility.yul\":2654:2656   */\n      iszero\n      tag_367\n      jumpi\n        /* \"#utility.yul\":2700:2701   */\n      0x00\n        /* \"#utility.yul\":2697:2698   */\n      dup1\n        /* \"#utility.yul\":2690:2702   */\n      revert\n        /* \"#utility.yul\":2654:2656   */\n    tag_367:\n        /* \"#utility.yul\":2728:2791   */\n      tag_368\n        /* \"#utility.yul\":2783:2790   */\n      dup6\n        /* \"#utility.yul\":2774:2780   */\n      dup3\n        /* \"#utility.yul\":2763:2772   */\n      dup7\n        /* \"#utility.yul\":2759:2781   */\n      add\n        /* \"#utility.yul\":2728:2791   */\n      tag_342\n      jump\t// in\n    tag_368:\n        /* \"#utility.yul\":2718:2791   */\n      swap3\n      pop\n        /* \"#utility.yul\":2581:2801   */\n      pop\n        /* \"#utility.yul\":2840:2842   */\n      0x20\n        /* \"#utility.yul\":2866:2917   */\n      tag_369\n        /* \"#utility.yul\":2909:2916   */\n      dup6\n        /* \"#utility.yul\":2900:2906   */\n      dup3\n        /* \"#utility.yul\":2889:2898   */\n      dup7\n        /* \"#utility.yul\":2885:2907   */\n      add\n        /* \"#utility.yul\":2866:2917   */\n      tag_350\n      jump\t// in\n    tag_369:\n        /* \"#utility.yul\":2856:2917   */\n      swap2\n      pop\n        /* \"#utility.yul\":2811:2927   */\n      pop\n        /* \"#utility.yul\":2509:2934   */\n      swap3\n      pop\n      swap3\n      swap1\n      pop\n      jump\t// out\n        /* \"#utility.yul\":2940:3202   */\n    tag_22:\n      0x00\n        /* \"#utility.yul\":3048:3050   */\n      0x20\n        /* \"#utility.yul\":3036:3045   */\n      dup3\n        /* \"#utility.yul\":3027:3034   */\n      dup5\n        /* \"#utility.yul\":3023:3046   */\n      sub\n        /* \"#utility.yul\":3019:3051   */\n      slt\n        /* \"#utility.yul\":3016:3018   */\n      iszero\n      tag_371\n      jumpi\n        /* \"#utility.yul\":3064:3065   */\n      0x00\n        /* \"#utility.yul\":3061:3062   */\n      dup1\n        /* \"#utility.yul\":3054:3066   */\n      revert\n        /* \"#utility.yul\":3016:3018   */\n    tag_371:\n        /* \"#utility.yul\":3107:3108   */\n      0x00\n        /* \"#utility.yul\":3132:3185   */\n      tag_372\n        /* \"#utility.yul\":3177:3184   */\n      dup5\n        /* \"#utility.yul\":3168:3174   */\n      dup3\n        /* \"#utility.yul\":3157:3166   */\n      dup6\n        /* \"#utility.yul\":3153:3175   */\n      add\n        /* \"#utility.yul\":3132:3185   */\n      tag_346\n      jump\t// in\n    tag_372:\n        /* \"#utility.yul\":3122:3185   */\n      swap2\n      pop\n        /* \"#utility.yul\":3078:3195   */\n      pop\n        /* \"#utility.yul\":3006:3202   */\n      swap3\n      swap2\n      pop\n      pop\n      jump\t// out\n        /* \"#utility.yul\":3208:3609   */\n    tag_34:\n      0x00\n      dup1\n        /* \"#utility.yul\":3330:3332   */\n      0x40\n        /* \"#utility.yul\":3318:3327   */\n      dup4\n        /* \"#utility.yul\":3309:3316   */\n      dup6\n        /* \"#utility.yul\":3305:3328   */\n      sub\n        /* \"#utility.yul\":3301:3333   */\n      slt\n        /* \"#utility.yul\":3298:3300   */\n      iszero\n      tag_374\n      jumpi\n        /* \"#utility.yul\":3346:3347   */\n      0x00\n        /* \"#utility.yul\":3343:3344   */\n      dup1\n        /* \"#utility.yul\":3336:3348   */\n      revert\n        /* \"#utility.yul\":3298:3300   */\n    tag_374:\n        /* \"#utility.yul\":3389:3390   */\n      0x00\n        /* \"#utility.yul\":3414:3467   */\n      tag_375\n        /* \"#utility.yul\":3459:3466   */\n      dup6\n        /* \"#utility.yul\":3450:3456   */\n      dup3\n        /* \"#utility.yul\":3439:3448   */\n      dup7\n        /* \"#utility.yul\":3435:3457   */\n      add\n        /* \"#utility.yul\":3414:3467   */\n      tag_346\n      jump\t// in\n    tag_375:\n        /* \"#utility.yul\":3404:3467   */\n      swap3\n      pop\n        /* \"#utility.yul\":3360:3477   */\n      pop\n        /* \"#utility.yul\":3516:3518   */\n      0x20\n        /* \"#utility.yul\":3542:3592   */\n      tag_376\n        /* \"#utility.yul\":3584:3591   */\n      dup6\n        /* \"#utility.yul\":3575:3581   */\n      dup3\n        /* \"#utility.yul\":3564:3573   */\n      dup7\n        /* \"#utility.yul\":3560:3582   */\n      add\n        /* \"#utility.yul\":3542:3592   */\n      tag_338\n      jump\t// in\n    tag_376:\n        /* \"#utility.yul\":3532:3592   */\n      swap2\n      pop\n        /* \"#utility.yul\":3487:3602   */\n      pop\n        /* \"#utility.yul\":3288:3609   */\n      swap3\n      pop\n      swap3\n      swap1\n      pop\n      jump\t// out\n        /* \"#utility.yul\":3615:4022   */\n    tag_58:\n      0x00\n      dup1\n        /* \"#utility.yul\":3740:3742   */\n      0x40\n        /* \"#utility.yul\":3728:3737   */\n      dup4\n        /* \"#utility.yul\":3719:3726   */\n      dup6\n        /* \"#utility.yul\":3715:3738   */\n      sub\n        /* \"#utility.yul\":3711:3743   */\n      slt\n        /* \"#utility.yul\":3708:3710   */\n      iszero\n      tag_378\n      jumpi\n        /* \"#utility.yul\":3756:3757   */\n      0x00\n        /* \"#utility.yul\":3753:3754   */\n      dup1\n        /* \"#utility.yul\":3746:3758   */\n      revert\n        /* \"#utility.yul\":3708:3710   */\n    tag_378:\n        /* \"#utility.yul\":3799:3800   */\n      0x00\n        /* \"#utility.yul\":3824:3877   */\n      tag_379\n        /* \"#utility.yul\":3869:3876   */\n      dup6\n        /* \"#utility.yul\":3860:3866   */\n      dup3\n        /* \"#utility.yul\":3849:3858   */\n      dup7\n        /* \"#utility.yul\":3845:3867   */\n      add\n        /* \"#utility.yul\":3824:3877   */\n      tag_346\n      jump\t// in\n    tag_379:\n        /* \"#utility.yul\":3814:3877   */\n      swap3\n      pop\n        /* \"#utility.yul\":3770:3887   */\n      pop\n        /* \"#utility.yul\":3926:3928   */\n      0x20\n        /* \"#utility.yul\":3952:4005   */\n      tag_380\n        /* \"#utility.yul\":3997:4004   */\n      dup6\n        /* \"#utility.yul\":3988:3994   */\n      dup3\n        /* \"#utility.yul\":3977:3986   */\n      dup7\n        /* \"#utility.yul\":3973:3995   */\n      add\n        /* \"#utility.yul\":3952:4005   */\n      tag_346\n      jump\t// in\n    tag_380:\n        /* \"#utility.yul\":3942:4005   */\n      swap2\n      pop\n        /* \"#utility.yul\":3897:4015   */\n      pop\n        /* \"#utility.yul\":3698:4022   */\n      swap3\n      pop\n      swap3\n      swap1\n      pop\n      jump\t// out\n        /* \"#utility.yul\":4028:4693   */\n    tag_43:\n      0x00\n      dup1\n      0x00\n        /* \"#utility.yul\":4180:4182   */\n      0x60\n        /* \"#utility.yul\":4168:4177   */\n      dup5\n        /* \"#utility.yul\":4159:4166   */\n      dup7\n        /* \"#utility.yul\":4155:4178   */\n      sub\n        /* \"#utility.yul\":4151:4183   */\n      slt\n        /* \"#utility.yul\":4148:4150   */\n      iszero\n      tag_382\n      jumpi\n        /* \"#utility.yul\":4196:4197   */\n      0x00\n        /* \"#utility.yul\":4193:4194   */\n      dup1\n        /* \"#utility.yul\":4186:4198   */\n      revert\n        /* \"#utility.yul\":4148:4150   */\n    tag_382:\n        /* \"#utility.yul\":4239:4240   */\n      0x00\n        /* \"#utility.yul\":4264:4317   */\n      tag_383\n        /* \"#utility.yul\":4309:4316   */\n      dup7\n        /* \"#utility.yul\":4300:4306   */\n      dup3\n        /* \"#utility.yul\":4289:4298   */\n      dup8\n        /* \"#utility.yul\":4285:4307   */\n      add\n        /* \"#utility.yul\":4264:4317   */\n      tag_346\n      jump\t// in\n    tag_383:\n        /* \"#utility.yul\":4254:4317   */\n      swap4\n      pop\n        /* \"#utility.yul\":4210:4327   */\n      pop\n        /* \"#utility.yul\":4366:4368   */\n      0x20\n        /* \"#utility.yul\":4392:4445   */\n      tag_384\n        /* \"#utility.yul\":4437:4444   */\n      dup7\n        /* \"#utility.yul\":4428:4434   */\n      dup3\n        /* \"#utility.yul\":4417:4426   */\n      dup8\n        /* \"#utility.yul\":4413:4435   */\n      add\n        /* \"#utility.yul\":4392:4445   */\n      tag_346\n      jump\t// in\n    tag_384:\n        /* \"#utility.yul\":4382:4445   */\n      swap3\n      pop\n        /* \"#utility.yul\":4337:4455   */\n      pop\n        /* \"#utility.yul\":4522:4524   */\n      0x40\n        /* \"#utility.yul\":4511:4520   */\n      dup5\n        /* \"#utility.yul\":4507:4525   */\n      add\n        /* \"#utility.yul\":4494:4526   */\n      calldataload\n        /* \"#utility.yul\":4553:4571   */\n      0xffffffffffffffff\n        /* \"#utility.yul\":4545:4551   */\n      dup2\n        /* \"#utility.yul\":4542:4572   */\n      gt\n        /* \"#utility.yul\":4539:4541   */\n      iszero\n      tag_385\n      jumpi\n        /* \"#utility.yul\":4585:4586   */\n      0x00\n        /* \"#utility.yul\":4582:4583   */\n      dup1\n        /* \"#utility.yul\":4575:4587   */\n      revert\n        /* \"#utility.yul\":4539:4541   */\n    tag_385:\n        /* \"#utility.yul\":4613:4676   */\n      tag_386\n        /* \"#utility.yul\":4668:4675   */\n      dup7\n        /* \"#utility.yul\":4659:4665   */\n      dup3\n        /* \"#utility.yul\":4648:4657   */\n      dup8\n        /* \"#utility.yul\":4644:4666   */\n      add\n        /* \"#utility.yul\":4613:4676   */\n      tag_342\n      jump\t// in\n    tag_386:\n        /* \"#utility.yul\":4603:4676   */\n      swap2\n      pop\n        /* \"#utility.yul\":4465:4686   */\n      pop\n        /* \"#utility.yul\":4138:4693   */\n      swap3\n      pop\n      swap3\n      pop\n      swap3\n      jump\t// out\n        /* \"#utility.yul\":4699:4817   */\n    tag_387:\n        /* \"#utility.yul\":4786:4810   */\n      tag_389\n        /* \"#utility.yul\":4804:4809   */\n      dup2\n        /* \"#utility.yul\":4786:4810   */\n      tag_390\n      jump\t// in\n    tag_389:\n        /* \"#utility.yul\":4781:4784   */\n      dup3\n        /* \"#utility.yul\":4774:4811   */\n      mstore\n        /* \"#utility.yul\":4764:4817   */\n      pop\n      pop\n      jump\t// out\n        /* \"#utility.yul\":4823:4932   */\n    tag_391:\n        /* \"#utility.yul\":4904:4925   */\n      tag_393\n        /* \"#utility.yul\":4919:4924   */\n      dup2\n        /* \"#utility.yul\":4904:4925   */\n      tag_394\n      jump\t// in\n    tag_393:\n        /* \"#utility.yul\":4899:4902   */\n      dup3\n        /* \"#utility.yul\":4892:4926   */\n      mstore\n        /* \"#utility.yul\":4882:4932   */\n      pop\n      pop\n      jump\t// out\n        /* \"#utility.yul\":4938:5089   */\n    tag_395:\n        /* \"#utility.yul\":5035:5082   */\n      tag_397\n        /* \"#utility.yul\":5076:5081   */\n      dup2\n        /* \"#utility.yul\":5035:5082   */\n      tag_398\n      jump\t// in\n    tag_397:\n        /* \"#utility.yul\":5030:5033   */\n      dup3\n        /* \"#utility.yul\":5023:5083   */\n      mstore\n        /* \"#utility.yul\":5013:5089   */\n      pop\n      pop\n      jump\t// out\n        /* \"#utility.yul\":5095:5234   */\n    tag_399:\n        /* \"#utility.yul\":5186:5227   */\n      tag_401\n        /* \"#utility.yul\":5221:5226   */\n      dup2\n        /* \"#utility.yul\":5186:5227   */\n      tag_402\n      jump\t// in\n    tag_401:\n        /* \"#utility.yul\":5181:5184   */\n      dup3\n        /* \"#utility.yul\":5174:5228   */\n      mstore\n        /* \"#utility.yul\":5164:5234   */\n      pop\n      pop\n      jump\t// out\n        /* \"#utility.yul\":5240:5604   */\n    tag_403:\n      0x00\n        /* \"#utility.yul\":5356:5395   */\n      tag_405\n        /* \"#utility.yul\":5389:5394   */\n      dup3\n        /* \"#utility.yul\":5356:5395   */\n      tag_406\n      jump\t// in\n    tag_405:\n        /* \"#utility.yul\":5411:5482   */\n      tag_407\n        /* \"#utility.yul\":5475:5481   */\n      dup2\n        /* \"#utility.yul\":5470:5473   */\n      dup6\n        /* \"#utility.yul\":5411:5482   */\n      tag_408\n      jump\t// in\n    tag_407:\n        /* \"#utility.yul\":5404:5482   */\n      swap4\n      pop\n        /* \"#utility.yul\":5491:5543   */\n      tag_409\n        /* \"#utility.yul\":5536:5542   */\n      dup2\n        /* \"#utility.yul\":5531:5534   */\n      dup6\n        /* \"#utility.yul\":5524:5528   */\n      0x20\n        /* \"#utility.yul\":5517:5522   */\n      dup7\n        /* \"#utility.yul\":5513:5529   */\n      add\n        /* \"#utility.yul\":5491:5543   */\n      tag_410\n      jump\t// in\n    tag_409:\n        /* \"#utility.yul\":5568:5597   */\n      tag_411\n        /* \"#utility.yul\":5590:5596   */\n      dup2\n        /* \"#utility.yul\":5568:5597   */\n      tag_412\n      jump\t// in\n    tag_411:\n        /* \"#utility.yul\":5563:5566   */\n      dup5\n        /* \"#utility.yul\":5559:5598   */\n      add\n        /* \"#utility.yul\":5552:5598   */\n      swap2\n      pop\n        /* \"#utility.yul\":5332:5604   */\n      pop\n      swap3\n      swap2\n      pop\n      pop\n      jump\t// out\n        /* \"#utility.yul\":5610:5976   */\n    tag_413:\n      0x00\n        /* \"#utility.yul\":5773:5840   */\n      tag_415\n        /* \"#utility.yul\":5837:5839   */\n      0x22\n        /* \"#utility.yul\":5832:5835   */\n      dup4\n        /* \"#utility.yul\":5773:5840   */\n      tag_408\n      jump\t// in\n    tag_415:\n        /* \"#utility.yul\":5766:5840   */\n      swap2\n      pop\n        /* \"#utility.yul\":5870:5904   */\n      0x4a6f62206d75737420626520696e2070726f677265737320746f206469737075\n        /* \"#utility.yul\":5866:5867   */\n      0x00\n        /* \"#utility.yul\":5861:5864   */\n      dup4\n        /* \"#utility.yul\":5857:5868   */\n      add\n        /* \"#utility.yul\":5850:5905   */\n      mstore\n        /* \"#utility.yul\":5936:5940   */\n      0x7465000000000000000000000000000000000000000000000000000000000000\n        /* \"#utility.yul\":5931:5933   */\n      0x20\n        /* \"#utility.yul\":5926:5929   */\n      dup4\n        /* \"#utility.yul\":5922:5934   */\n      add\n        /* \"#utility.yul\":5915:5941   */\n      mstore\n        /* \"#utility.yul\":5967:5969   */\n      0x40\n        /* \"#utility.yul\":5962:5965   */\n      dup3\n        /* \"#utility.yul\":5958:5970   */\n      add\n        /* \"#utility.yul\":5951:5970   */\n      swap1\n      pop\n        /* \"#utility.yul\":5756:5976   */\n      swap2\n      swap1\n      pop\n      jump\t// out\n        /* \"#utility.yul\":5982:6350   */\n    tag_416:\n      0x00\n        /* \"#utility.yul\":6145:6212   */\n      tag_418\n        /* \"#utility.yul\":6209:6211   */\n      0x24\n        /* \"#utility.yul\":6204:6207   */\n      dup4\n        /* \"#utility.yul\":6145:6212   */\n      tag_408\n      jump\t// in\n    tag_418:\n        /* \"#utility.yul\":6138:6212   */\n      swap2\n      pop\n        /* \"#utility.yul\":6242:6276   */\n      0x4f6e6c7920436c69656e74732063616e20706572666f726d2074686973206163\n        /* \"#utility.yul\":6238:6239   */\n      0x00\n        /* \"#utility.yul\":6233:6236   */\n      dup4\n        /* \"#utility.yul\":6229:6240   */\n      add\n        /* \"#utility.yul\":6222:6277   */\n      mstore\n        /* \"#utility.yul\":6308:6314   */\n      0x74696f6e00000000000000000000000000000000000000000000000000000000\n        /* \"#utility.yul\":6303:6305   */\n      0x20\n        /* \"#utility.yul\":6298:6301   */\n      dup4\n        /* \"#utility.yul\":6294:6306   */\n      add\n        /* \"#utility.yul\":6287:6315   */\n      mstore\n        /* \"#utility.yul\":6341:6343   */\n      0x40\n        /* \"#utility.yul\":6336:6339   */\n      dup3\n        /* \"#utility.yul\":6332:6344   */\n      add\n        /* \"#utility.yul\":6325:6344   */\n      swap1\n      pop\n        /* \"#utility.yul\":6128:6350   */\n      swap2\n      swap1\n      pop\n      jump\t// out\n        /* \"#utility.yul\":6356:6669   */\n    tag_419:\n      0x00\n        /* \"#utility.yul\":6519:6586   */\n      tag_421\n        /* \"#utility.yul\":6583:6585   */\n      0x0f\n        /* \"#utility.yul\":6578:6581   */\n      dup4\n        /* \"#utility.yul\":6519:6586   */\n      tag_408\n      jump\t// in\n    tag_421:\n        /* \"#utility.yul\":6512:6586   */\n      swap2\n      pop\n        /* \"#utility.yul\":6616:6633   */\n      0x4a6f62206973206e6f74206f70656e0000000000000000000000000000000000\n        /* \"#utility.yul\":6612:6613   */\n      0x00\n        /* \"#utility.yul\":6607:6610   */\n      dup4\n        /* \"#utility.yul\":6603:6614   */\n      add\n        /* \"#utility.yul\":6596:6634   */\n      mstore\n        /* \"#utility.yul\":6660:6662   */\n      0x20\n        /* \"#utility.yul\":6655:6658   */\n      dup3\n        /* \"#utility.yul\":6651:6663   */\n      add\n        /* \"#utility.yul\":6644:6663   */\n      swap1\n      pop\n        /* \"#utility.yul\":6502:6669   */\n      swap2\n      swap1\n      pop\n      jump\t// out\n        /* \"#utility.yul\":6675:6988   */\n    tag_422:\n      0x00\n        /* \"#utility.yul\":6838:6905   */\n      tag_424\n        /* \"#utility.yul\":6902:6904   */\n      0x0f\n        /* \"#utility.yul\":6897:6900   */\n      dup4\n        /* \"#utility.yul\":6838:6905   */\n      tag_408\n      jump\t// in\n    tag_424:\n        /* \"#utility.yul\":6831:6905   */\n      swap2\n      pop\n        /* \"#utility.yul\":6935:6952   */\n      0x436c69656e7420526566756e6465640000000000000000000000000000000000\n        /* \"#utility.yul\":6931:6932   */\n      0x00\n        /* \"#utility.yul\":6926:6929   */\n      dup4\n        /* \"#utility.yul\":6922:6933   */\n      add\n        /* \"#utility.yul\":6915:6953   */\n      mstore\n        /* \"#utility.yul\":6979:6981   */\n      0x20\n        /* \"#utility.yul\":6974:6977   */\n      dup3\n        /* \"#utility.yul\":6970:6982   */\n      add\n        /* \"#utility.yul\":6963:6982   */\n      swap1\n      pop\n        /* \"#utility.yul\":6821:6988   */\n      swap2\n      swap1\n      pop\n      jump\t// out\n        /* \"#utility.yul\":6994:7363   */\n    tag_425:\n      0x00\n        /* \"#utility.yul\":7157:7224   */\n      tag_427\n        /* \"#utility.yul\":7221:7223   */\n      0x25\n        /* \"#utility.yul\":7216:7219   */\n      dup4\n        /* \"#utility.yul\":7157:7224   */\n      tag_408\n      jump\t// in\n    tag_427:\n        /* \"#utility.yul\":7150:7224   */\n      swap2\n      pop\n        /* \"#utility.yul\":7254:7288   */\n      0x4f6e6c79206465706c6f7965722063616e207265676973746572206173204172\n        /* \"#utility.yul\":7250:7251   */\n      0x00\n        /* \"#utility.yul\":7245:7248   */\n      dup4\n        /* \"#utility.yul\":7241:7252   */\n      add\n        /* \"#utility.yul\":7234:7289   */\n      mstore\n        /* \"#utility.yul\":7320:7327   */\n      0x6269746572000000000000000000000000000000000000000000000000000000\n        /* \"#utility.yul\":7315:7317   */\n      0x20\n        /* \"#utility.yul\":7310:7313   */\n      dup4\n        /* \"#utility.yul\":7306:7318   */\n      add\n        /* \"#utility.yul\":7299:7328   */\n      mstore\n        /* \"#utility.yul\":7354:7356   */\n      0x40\n        /* \"#utility.yul\":7349:7352   */\n      dup3\n        /* \"#utility.yul\":7345:7357   */\n      add\n        /* \"#utility.yul\":7338:7357   */\n      swap1\n      pop\n        /* \"#utility.yul\":7140:7363   */\n      swap2\n      swap1\n      pop\n      jump\t// out\n        /* \"#utility.yul\":7369:7686   */\n    tag_428:\n      0x00\n        /* \"#utility.yul\":7532:7599   */\n      tag_430\n        /* \"#utility.yul\":7596:7598   */\n      0x13\n        /* \"#utility.yul\":7591:7594   */\n      dup4\n        /* \"#utility.yul\":7532:7599   */\n      tag_408\n      jump\t// in\n    tag_430:\n        /* \"#utility.yul\":7525:7599   */\n      swap2\n      pop\n        /* \"#utility.yul\":7629:7650   */\n      0x4a6f62206e6f7420696e2070726f677265737300000000000000000000000000\n        /* \"#utility.yul\":7625:7626   */\n      0x00\n        /* \"#utility.yul\":7620:7623   */\n      dup4\n        /* \"#utility.yul\":7616:7627   */\n      add\n        /* \"#utility.yul\":7609:7651   */\n      mstore\n        /* \"#utility.yul\":7677:7679   */\n      0x20\n        /* \"#utility.yul\":7672:7675   */\n      dup3\n        /* \"#utility.yul\":7668:7680   */\n      add\n        /* \"#utility.yul\":7661:7680   */\n      swap1\n      pop\n        /* \"#utility.yul\":7515:7686   */\n      swap2\n      swap1\n      pop\n      jump\t// out\n        /* \"#utility.yul\":7692:8060   */\n    tag_431:\n      0x00\n        /* \"#utility.yul\":7855:7922   */\n      tag_433\n        /* \"#utility.yul\":7919:7921   */\n      0x24\n        /* \"#utility.yul\":7914:7917   */\n      dup4\n        /* \"#utility.yul\":7855:7922   */\n      tag_408\n      jump\t// in\n    tag_433:\n        /* \"#utility.yul\":7848:7922   */\n      swap2\n      pop\n        /* \"#utility.yul\":7952:7986   */\n      0x4f6e6c7920417262697465722063616e20706572666f726d2074686973206163\n        /* \"#utility.yul\":7948:7949   */\n      0x00\n        /* \"#utility.yul\":7943:7946   */\n      dup4\n        /* \"#utility.yul\":7939:7950   */\n      add\n        /* \"#utility.yul\":7932:7987   */\n      mstore\n        /* \"#utility.yul\":8018:8024   */\n      0x74696f6e00000000000000000000000000000000000000000000000000000000\n        /* \"#utility.yul\":8013:8015   */\n      0x20\n        /* \"#utility.yul\":8008:8011   */\n      dup4\n        /* \"#utility.yul\":8004:8016   */\n      add\n        /* \"#utility.yul\":7997:8025   */\n      mstore\n        /* \"#utility.yul\":8051:8053   */\n      0x40\n        /* \"#utility.yul\":8046:8049   */\n      dup3\n        /* \"#utility.yul\":8042:8054   */\n      add\n        /* \"#utility.yul\":8035:8054   */\n      swap1\n      pop\n        /* \"#utility.yul\":7838:8060   */\n      swap2\n      swap1\n      pop\n      jump\t// out\n        /* \"#utility.yul\":8066:8390   */\n    tag_434:\n      0x00\n        /* \"#utility.yul\":8229:8296   */\n      tag_436\n        /* \"#utility.yul\":8293:8295   */\n      0x1a\n        /* \"#utility.yul\":8288:8291   */\n      dup4\n        /* \"#utility.yul\":8229:8296   */\n      tag_408\n      jump\t// in\n    tag_436:\n        /* \"#utility.yul\":8222:8296   */\n      swap2\n      pop\n        /* \"#utility.yul\":8326:8354   */\n      0x4f6e6c79206a6f62206f776e65722063616e2064697370757465000000000000\n        /* \"#utility.yul\":8322:8323   */\n      0x00\n        /* \"#utility.yul\":8317:8320   */\n      dup4\n        /* \"#utility.yul\":8313:8324   */\n      add\n        /* \"#utility.yul\":8306:8355   */\n      mstore\n        /* \"#utility.yul\":8381:8383   */\n      0x20\n        /* \"#utility.yul\":8376:8379   */\n      dup3\n        /* \"#utility.yul\":8372:8384   */\n      add\n        /* \"#utility.yul\":8365:8384   */\n      swap1\n      pop\n        /* \"#utility.yul\":8212:8390   */\n      swap2\n      swap1\n      pop\n      jump\t// out\n        /* \"#utility.yul\":8396:8721   */\n    tag_437:\n      0x00\n        /* \"#utility.yul\":8559:8626   */\n      tag_439\n        /* \"#utility.yul\":8623:8625   */\n      0x1b\n        /* \"#utility.yul\":8618:8621   */\n      dup4\n        /* \"#utility.yul\":8559:8626   */\n      tag_408\n      jump\t// in\n    tag_439:\n        /* \"#utility.yul\":8552:8626   */\n      swap2\n      pop\n        /* \"#utility.yul\":8656:8685   */\n      0x496e636f727265637420457468657220616d6f756e742073656e740000000000\n        /* \"#utility.yul\":8652:8653   */\n      0x00\n        /* \"#utility.yul\":8647:8650   */\n      dup4\n        /* \"#utility.yul\":8643:8654   */\n      add\n        /* \"#utility.yul\":8636:8686   */\n      mstore\n        /* \"#utility.yul\":8712:8714   */\n      0x20\n        /* \"#utility.yul\":8707:8710   */\n      dup3\n        /* \"#utility.yul\":8703:8715   */\n      add\n        /* \"#utility.yul\":8696:8715   */\n      swap1\n      pop\n        /* \"#utility.yul\":8542:8721   */\n      swap2\n      swap1\n      pop\n      jump\t// out\n        /* \"#utility.yul\":8727:9037   */\n    tag_440:\n      0x00\n        /* \"#utility.yul\":8890:8957   */\n      tag_442\n        /* \"#utility.yul\":8954:8956   */\n      0x0c\n        /* \"#utility.yul\":8949:8952   */\n      dup4\n        /* \"#utility.yul\":8890:8957   */\n      tag_408\n      jump\t// in\n    tag_442:\n        /* \"#utility.yul\":8883:8957   */\n      swap2\n      pop\n        /* \"#utility.yul\":8987:9001   */\n      0x496e76616c696420726f6c650000000000000000000000000000000000000000\n        /* \"#utility.yul\":8983:8984   */\n      0x00\n        /* \"#utility.yul\":8978:8981   */\n      dup4\n        /* \"#utility.yul\":8974:8985   */\n      add\n        /* \"#utility.yul\":8967:9002   */\n      mstore\n        /* \"#utility.yul\":9028:9030   */\n      0x20\n        /* \"#utility.yul\":9023:9026   */\n      dup3\n        /* \"#utility.yul\":9019:9031   */\n      add\n        /* \"#utility.yul\":9012:9031   */\n      swap1\n      pop\n        /* \"#utility.yul\":8873:9037   */\n      swap2\n      swap1\n      pop\n      jump\t// out\n        /* \"#utility.yul\":9043:9364   */\n    tag_443:\n      0x00\n        /* \"#utility.yul\":9206:9273   */\n      tag_445\n        /* \"#utility.yul\":9270:9272   */\n      0x17\n        /* \"#utility.yul\":9265:9268   */\n      dup4\n        /* \"#utility.yul\":9206:9273   */\n      tag_408\n      jump\t// in\n    tag_445:\n        /* \"#utility.yul\":9199:9273   */\n      swap2\n      pop\n        /* \"#utility.yul\":9303:9328   */\n      0x55736572206d7573742062652072656769737465726564000000000000000000\n        /* \"#utility.yul\":9299:9300   */\n      0x00\n        /* \"#utility.yul\":9294:9297   */\n      dup4\n        /* \"#utility.yul\":9290:9301   */\n      add\n        /* \"#utility.yul\":9283:9329   */\n      mstore\n        /* \"#utility.yul\":9355:9357   */\n      0x20\n        /* \"#utility.yul\":9350:9353   */\n      dup3\n        /* \"#utility.yul\":9346:9358   */\n      add\n        /* \"#utility.yul\":9339:9358   */\n      swap1\n      pop\n        /* \"#utility.yul\":9189:9364   */\n      swap2\n      swap1\n      pop\n      jump\t// out\n        /* \"#utility.yul\":9370:9693   */\n    tag_446:\n      0x00\n        /* \"#utility.yul\":9533:9600   */\n      tag_448\n        /* \"#utility.yul\":9597:9599   */\n      0x19\n        /* \"#utility.yul\":9592:9595   */\n      dup4\n        /* \"#utility.yul\":9533:9600   */\n      tag_408\n      jump\t// in\n    tag_448:\n        /* \"#utility.yul\":9526:9600   */\n      swap2\n      pop\n        /* \"#utility.yul\":9630:9657   */\n      0x52657075746174696f6e20746f6f206c6f7720746f2062696400000000000000\n        /* \"#utility.yul\":9626:9627   */\n      0x00\n        /* \"#utility.yul\":9621:9624   */\n      dup4\n        /* \"#utility.yul\":9617:9628   */\n      add\n        /* \"#utility.yul\":9610:9658   */\n      mstore\n        /* \"#utility.yul\":9684:9686   */\n      0x20\n        /* \"#utility.yul\":9679:9682   */\n      dup3\n        /* \"#utility.yul\":9675:9687   */\n      add\n        /* \"#utility.yul\":9668:9687   */\n      swap1\n      pop\n        /* \"#utility.yul\":9516:9693   */\n      swap2\n      swap1\n      pop\n      jump\t// out\n        /* \"#utility.yul\":9699:10023   */\n    tag_449:\n      0x00\n        /* \"#utility.yul\":9862:9929   */\n      tag_451\n        /* \"#utility.yul\":9926:9928   */\n      0x1a\n        /* \"#utility.yul\":9921:9924   */\n      dup4\n        /* \"#utility.yul\":9862:9929   */\n      tag_408\n      jump\t// in\n    tag_451:\n        /* \"#utility.yul\":9855:9929   */\n      swap2\n      pop\n        /* \"#utility.yul\":9959:9987   */\n      0x4f6e6c79206a6f62206f776e65722063616e20617070726f7665000000000000\n        /* \"#utility.yul\":9955:9956   */\n      0x00\n        /* \"#utility.yul\":9950:9953   */\n      dup4\n        /* \"#utility.yul\":9946:9957   */\n      add\n        /* \"#utility.yul\":9939:9988   */\n      mstore\n        /* \"#utility.yul\":10014:10016   */\n      0x20\n        /* \"#utility.yul\":10009:10012   */\n      dup3\n        /* \"#utility.yul\":10005:10017   */\n      add\n        /* \"#utility.yul\":9998:10017   */\n      swap1\n      pop\n        /* \"#utility.yul\":9845:10023   */\n      swap2\n      swap1\n      pop\n      jump\t// out\n        /* \"#utility.yul\":10029:10350   */\n    tag_452:\n      0x00\n        /* \"#utility.yul\":10192:10259   */\n      tag_454\n        /* \"#utility.yul\":10256:10258   */\n      0x17\n        /* \"#utility.yul\":10251:10254   */\n      dup4\n        /* \"#utility.yul\":10192:10259   */\n      tag_408\n      jump\t// in\n    tag_454:\n        /* \"#utility.yul\":10185:10259   */\n      swap2\n      pop\n        /* \"#utility.yul\":10289:10314   */\n      0x5573657220616c72656164792072656769737465726564000000000000000000\n        /* \"#utility.yul\":10285:10286   */\n      0x00\n        /* \"#utility.yul\":10280:10283   */\n      dup4\n        /* \"#utility.yul\":10276:10287   */\n      add\n        /* \"#utility.yul\":10269:10315   */\n      mstore\n        /* \"#utility.yul\":10341:10343   */\n      0x20\n        /* \"#utility.yul\":10336:10339   */\n      dup3\n        /* \"#utility.yul\":10332:10344   */\n      add\n        /* \"#utility.yul\":10325:10344   */\n      swap1\n      pop\n        /* \"#utility.yul\":10175:10350   */\n      swap2\n      swap1\n      pop\n      jump\t// out\n        /* \"#utility.yul\":10356:10728   */\n    tag_455:\n      0x00\n        /* \"#utility.yul\":10519:10586   */\n      tag_457\n        /* \"#utility.yul\":10583:10585   */\n      0x28\n        /* \"#utility.yul\":10578:10581   */\n      dup4\n        /* \"#utility.yul\":10519:10586   */\n      tag_408\n      jump\t// in\n    tag_457:\n        /* \"#utility.yul\":10512:10586   */\n      swap2\n      pop\n        /* \"#utility.yul\":10616:10650   */\n      0x4f6e6c7920467265656c616e636572732063616e20706572666f726d20746869\n        /* \"#utility.yul\":10612:10613   */\n      0x00\n        /* \"#utility.yul\":10607:10610   */\n      dup4\n        /* \"#utility.yul\":10603:10614   */\n      add\n        /* \"#utility.yul\":10596:10651   */\n      mstore\n        /* \"#utility.yul\":10682:10692   */\n      0x7320616374696f6e000000000000000000000000000000000000000000000000\n        /* \"#utility.yul\":10677:10679   */\n      0x20\n        /* \"#utility.yul\":10672:10675   */\n      dup4\n        /* \"#utility.yul\":10668:10680   */\n      add\n        /* \"#utility.yul\":10661:10693   */\n      mstore\n        /* \"#utility.yul\":10719:10721   */\n      0x40\n        /* \"#utility.yul\":10714:10717   */\n      dup3\n        /* \"#utility.yul\":10710:10722   */\n      add\n        /* \"#utility.yul\":10703:10722   */\n      swap1\n      pop\n        /* \"#utility.yul\":10502:10728   */\n      swap2\n      swap1\n      pop\n      jump\t// out\n        /* \"#utility.yul\":10734:11062   */\n    tag_458:\n      0x00\n        /* \"#utility.yul\":10897:10964   */\n      tag_460\n        /* \"#utility.yul\":10961:10963   */\n      0x1e\n        /* \"#utility.yul\":10956:10959   */\n      dup4\n        /* \"#utility.yul\":10897:10964   */\n      tag_408\n      jump\t// in\n    tag_460:\n        /* \"#utility.yul\":10890:10964   */\n      swap2\n      pop\n        /* \"#utility.yul\":10994:11026   */\n      0x596f7520617265206e6f7420686972656420666f722074686973206a6f620000\n        /* \"#utility.yul\":10990:10991   */\n      0x00\n        /* \"#utility.yul\":10985:10988   */\n      dup4\n        /* \"#utility.yul\":10981:10992   */\n      add\n        /* \"#utility.yul\":10974:11027   */\n      mstore\n        /* \"#utility.yul\":11053:11055   */\n      0x20\n        /* \"#utility.yul\":11048:11051   */\n      dup3\n        /* \"#utility.yul\":11044:11056   */\n      add\n        /* \"#utility.yul\":11037:11056   */\n      swap1\n      pop\n        /* \"#utility.yul\":10880:11062   */\n      swap2\n      swap1\n      pop\n      jump\t// out\n        /* \"#utility.yul\":11068:11393   */\n    tag_461:\n      0x00\n        /* \"#utility.yul\":11231:11298   */\n      tag_463\n        /* \"#utility.yul\":11295:11297   */\n      0x1b\n        /* \"#utility.yul\":11290:11293   */\n      dup4\n        /* \"#utility.yul\":11231:11298   */\n      tag_408\n      jump\t// in\n    tag_463:\n        /* \"#utility.yul\":11224:11298   */\n      swap2\n      pop\n        /* \"#utility.yul\":11328:11357   */\n      0x4f6e6c7920746865206a6f62206f776e65722063616e20686972650000000000\n        /* \"#utility.yul\":11324:11325   */\n      0x00\n        /* \"#utility.yul\":11319:11322   */\n      dup4\n        /* \"#utility.yul\":11315:11326   */\n      add\n        /* \"#utility.yul\":11308:11358   */\n      mstore\n        /* \"#utility.yul\":11384:11386   */\n      0x20\n        /* \"#utility.yul\":11379:11382   */\n      dup3\n        /* \"#utility.yul\":11375:11387   */\n      add\n        /* \"#utility.yul\":11368:11387   */\n      swap1\n      pop\n        /* \"#utility.yul\":11214:11393   */\n      swap2\n      swap1\n      pop\n      jump\t// out\n        /* \"#utility.yul\":11399:11712   */\n    tag_464:\n      0x00\n        /* \"#utility.yul\":11562:11629   */\n      tag_466\n        /* \"#utility.yul\":11626:11628   */\n      0x0f\n        /* \"#utility.yul\":11621:11624   */\n      dup4\n        /* \"#utility.yul\":11562:11629   */\n      tag_408\n      jump\t// in\n    tag_466:\n        /* \"#utility.yul\":11555:11629   */\n      swap2\n      pop\n        /* \"#utility.yul\":11659:11676   */\n      0x467265656c616e63657220506169640000000000000000000000000000000000\n        /* \"#utility.yul\":11655:11656   */\n      0x00\n        /* \"#utility.yul\":11650:11653   */\n      dup4\n        /* \"#utility.yul\":11646:11657   */\n      add\n        /* \"#utility.yul\":11639:11677   */\n      mstore\n        /* \"#utility.yul\":11703:11705   */\n      0x20\n        /* \"#utility.yul\":11698:11701   */\n      dup3\n        /* \"#utility.yul\":11694:11706   */\n      add\n        /* \"#utility.yul\":11687:11706   */\n      swap1\n      pop\n        /* \"#utility.yul\":11545:11712   */\n      swap2\n      swap1\n      pop\n      jump\t// out\n        /* \"#utility.yul\":11718:12035   */\n    tag_467:\n      0x00\n        /* \"#utility.yul\":11881:11948   */\n      tag_469\n        /* \"#utility.yul\":11945:11947   */\n      0x13\n        /* \"#utility.yul\":11940:11943   */\n      dup4\n        /* \"#utility.yul\":11881:11948   */\n      tag_408\n      jump\t// in\n    tag_469:\n        /* \"#utility.yul\":11874:11948   */\n      swap2\n      pop\n        /* \"#utility.yul\":11978:11999   */\n      0x4a6f62206973206e6f7420646973707574656400000000000000000000000000\n        /* \"#utility.yul\":11974:11975   */\n      0x00\n        /* \"#utility.yul\":11969:11972   */\n      dup4\n        /* \"#utility.yul\":11965:11976   */\n      add\n        /* \"#utility.yul\":11958:12000   */\n      mstore\n        /* \"#utility.yul\":12026:12028   */\n      0x20\n        /* \"#utility.yul\":12021:12024   */\n      dup3\n        /* \"#utility.yul\":12017:12029   */\n      add\n        /* \"#utility.yul\":12010:12029   */\n      swap1\n      pop\n        /* \"#utility.yul\":11864:12035   */\n      swap2\n      swap1\n      pop\n      jump\t// out\n        /* \"#utility.yul\":12041:12357   */\n    tag_470:\n      0x00\n        /* \"#utility.yul\":12204:12271   */\n      tag_472\n        /* \"#utility.yul\":12268:12270   */\n      0x12\n        /* \"#utility.yul\":12263:12266   */\n      dup4\n        /* \"#utility.yul\":12204:12271   */\n      tag_408\n      jump\t// in\n    tag_472:\n        /* \"#utility.yul\":12197:12271   */\n      swap2\n      pop\n        /* \"#utility.yul\":12301:12321   */\n      0x4269642065786365656473206275646765740000000000000000000000000000\n        /* \"#utility.yul\":12297:12298   */\n      0x00\n        /* \"#utility.yul\":12292:12295   */\n      dup4\n        /* \"#utility.yul\":12288:12299   */\n      add\n        /* \"#utility.yul\":12281:12322   */\n      mstore\n        /* \"#utility.yul\":12348:12350   */\n      0x20\n        /* \"#utility.yul\":12343:12346   */\n      dup3\n        /* \"#utility.yul\":12339:12351   */\n      add\n        /* \"#utility.yul\":12332:12351   */\n      swap1\n      pop\n        /* \"#utility.yul\":12187:12357   */\n      swap2\n      swap1\n      pop\n      jump\t// out\n        /* \"#utility.yul\":12363:12481   */\n    tag_473:\n        /* \"#utility.yul\":12450:12474   */\n      tag_475\n        /* \"#utility.yul\":12468:12473   */\n      dup2\n        /* \"#utility.yul\":12450:12474   */\n      tag_476\n      jump\t// in\n    tag_475:\n        /* \"#utility.yul\":12445:12448   */\n      dup3\n        /* \"#utility.yul\":12438:12475   */\n      mstore\n        /* \"#utility.yul\":12428:12481   */\n      pop\n      pop\n      jump\t// out\n        /* \"#utility.yul\":12487:12709   */\n    tag_88:\n      0x00\n        /* \"#utility.yul\":12618:12620   */\n      0x20\n        /* \"#utility.yul\":12607:12616   */\n      dup3\n        /* \"#utility.yul\":12603:12621   */\n      add\n        /* \"#utility.yul\":12595:12621   */\n      swap1\n      pop\n        /* \"#utility.yul\":12631:12702   */\n      tag_478\n        /* \"#utility.yul\":12699:12700   */\n      0x00\n        /* \"#utility.yul\":12688:12697   */\n      dup4\n        /* \"#utility.yul\":12684:12701   */\n      add\n        /* \"#utility.yul\":12675:12681   */\n      dup5\n        /* \"#utility.yul\":12631:12702   */\n      tag_387\n      jump\t// in\n    tag_478:\n        /* \"#utility.yul\":12585:12709   */\n      swap3\n      swap2\n      pop\n      pop\n      jump\t// out\n        /* \"#utility.yul\":12715:13028   */\n    tag_239:\n      0x00\n        /* \"#utility.yul\":12866:12868   */\n      0x20\n        /* \"#utility.yul\":12855:12864   */\n      dup3\n        /* \"#utility.yul\":12851:12869   */\n      add\n        /* \"#utility.yul\":12843:12869   */\n      swap1\n      pop\n        /* \"#utility.yul\":12915:12924   */\n      dup2\n        /* \"#utility.yul\":12909:12913   */\n      dup2\n        /* \"#utility.yul\":12905:12925   */\n      sub\n        /* \"#utility.yul\":12901:12902   */\n      0x00\n        /* \"#utility.yul\":12890:12899   */\n      dup4\n        /* \"#utility.yul\":12886:12903   */\n      add\n        /* \"#utility.yul\":12879:12926   */\n      mstore\n        /* \"#utility.yul\":12943:13021   */\n      tag_480\n        /* \"#utility.yul\":13016:13020   */\n      dup2\n        /* \"#utility.yul\":13007:13013   */\n      dup5\n        /* \"#utility.yul\":12943:13021   */\n      tag_403\n      jump\t// in\n    tag_480:\n        /* \"#utility.yul\":12935:13021   */\n      swap1\n      pop\n        /* \"#utility.yul\":12833:13028   */\n      swap3\n      swap2\n      pop\n      pop\n      jump\t// out\n        /* \"#utility.yul\":13034:13465   */\n    tag_130:\n      0x00\n        /* \"#utility.yul\":13217:13219   */\n      0x40\n        /* \"#utility.yul\":13206:13215   */\n      dup3\n        /* \"#utility.yul\":13202:13220   */\n      add\n        /* \"#utility.yul\":13194:13220   */\n      swap1\n      pop\n        /* \"#utility.yul\":13266:13275   */\n      dup2\n        /* \"#utility.yul\":13260:13264   */\n      dup2\n        /* \"#utility.yul\":13256:13276   */\n      sub\n        /* \"#utility.yul\":13252:13253   */\n      0x00\n        /* \"#utility.yul\":13241:13250   */\n      dup4\n        /* \"#utility.yul\":13237:13254   */\n      add\n        /* \"#utility.yul\":13230:13277   */\n      mstore\n        /* \"#utility.yul\":13294:13372   */\n      tag_482\n        /* \"#utility.yul\":13367:13371   */\n      dup2\n        /* \"#utility.yul\":13358:13364   */\n      dup6\n        /* \"#utility.yul\":13294:13372   */\n      tag_403\n      jump\t// in\n    tag_482:\n        /* \"#utility.yul\":13286:13372   */\n      swap1\n      pop\n        /* \"#utility.yul\":13382:13458   */\n      tag_483\n        /* \"#utility.yul\":13454:13456   */\n      0x20\n        /* \"#utility.yul\":13443:13452   */\n      dup4\n        /* \"#utility.yul\":13439:13457   */\n      add\n        /* \"#utility.yul\":13430:13436   */\n      dup5\n        /* \"#utility.yul\":13382:13458   */\n      tag_399\n      jump\t// in\n    tag_483:\n        /* \"#utility.yul\":13184:13465   */\n      swap4\n      swap3\n      pop\n      pop\n      pop\n      jump\t// out\n        /* \"#utility.yul\":13471:14222   */\n    tag_68:\n      0x00\n        /* \"#utility.yul\":13732:13735   */\n      0xa0\n        /* \"#utility.yul\":13721:13730   */\n      dup3\n        /* \"#utility.yul\":13717:13736   */\n      add\n        /* \"#utility.yul\":13709:13736   */\n      swap1\n      pop\n        /* \"#utility.yul\":13782:13791   */\n      dup2\n        /* \"#utility.yul\":13776:13780   */\n      dup2\n        /* \"#utility.yul\":13772:13792   */\n      sub\n        /* \"#utility.yul\":13768:13769   */\n      0x00\n        /* \"#utility.yul\":13757:13766   */\n      dup4\n        /* \"#utility.yul\":13753:13770   */\n      add\n        /* \"#utility.yul\":13746:13793   */\n      mstore\n        /* \"#utility.yul\":13810:13888   */\n      tag_485\n        /* \"#utility.yul\":13883:13887   */\n      dup2\n        /* \"#utility.yul\":13874:13880   */\n      dup9\n        /* \"#utility.yul\":13810:13888   */\n      tag_403\n      jump\t// in\n    tag_485:\n        /* \"#utility.yul\":13802:13888   */\n      swap1\n      pop\n        /* \"#utility.yul\":13898:13974   */\n      tag_486\n        /* \"#utility.yul\":13970:13972   */\n      0x20\n        /* \"#utility.yul\":13959:13968   */\n      dup4\n        /* \"#utility.yul\":13955:13973   */\n      add\n        /* \"#utility.yul\":13946:13952   */\n      dup8\n        /* \"#utility.yul\":13898:13974   */\n      tag_399\n      jump\t// in\n    tag_486:\n        /* \"#utility.yul\":13984:14056   */\n      tag_487\n        /* \"#utility.yul\":14052:14054   */\n      0x40\n        /* \"#utility.yul\":14041:14050   */\n      dup4\n        /* \"#utility.yul\":14037:14055   */\n      add\n        /* \"#utility.yul\":14028:14034   */\n      dup7\n        /* \"#utility.yul\":13984:14056   */\n      tag_387\n      jump\t// in\n    tag_487:\n        /* \"#utility.yul\":14066:14138   */\n      tag_488\n        /* \"#utility.yul\":14134:14136   */\n      0x60\n        /* \"#utility.yul\":14123:14132   */\n      dup4\n        /* \"#utility.yul\":14119:14137   */\n      add\n        /* \"#utility.yul\":14110:14116   */\n      dup6\n        /* \"#utility.yul\":14066:14138   */\n      tag_473\n      jump\t// in\n    tag_488:\n        /* \"#utility.yul\":14148:14215   */\n      tag_489\n        /* \"#utility.yul\":14210:14213   */\n      0x80\n        /* \"#utility.yul\":14199:14208   */\n      dup4\n        /* \"#utility.yul\":14195:14214   */\n      add\n        /* \"#utility.yul\":14186:14192   */\n      dup5\n        /* \"#utility.yul\":14148:14215   */\n      tag_391\n      jump\t// in\n    tag_489:\n        /* \"#utility.yul\":13699:14222   */\n      swap7\n      swap6\n      pop\n      pop\n      pop\n      pop\n      pop\n      pop\n      jump\t// out\n        /* \"#utility.yul\":14228:14647   */\n    tag_284:\n      0x00\n        /* \"#utility.yul\":14432:14434   */\n      0x20\n        /* \"#utility.yul\":14421:14430   */\n      dup3\n        /* \"#utility.yul\":14417:14435   */\n      add\n        /* \"#utility.yul\":14409:14435   */\n      swap1\n      pop\n        /* \"#utility.yul\":14481:14490   */\n      dup2\n        /* \"#utility.yul\":14475:14479   */\n      dup2\n        /* \"#utility.yul\":14471:14491   */\n      sub\n        /* \"#utility.yul\":14467:14468   */\n      0x00\n        /* \"#utility.yul\":14456:14465   */\n      dup4\n        /* \"#utility.yul\":14452:14469   */\n      add\n        /* \"#utility.yul\":14445:14492   */\n      mstore\n        /* \"#utility.yul\":14509:14640   */\n      tag_491\n        /* \"#utility.yul\":14635:14639   */\n      dup2\n        /* \"#utility.yul\":14509:14640   */\n      tag_413\n      jump\t// in\n    tag_491:\n        /* \"#utility.yul\":14501:14640   */\n      swap1\n      pop\n        /* \"#utility.yul\":14399:14647   */\n      swap2\n      swap1\n      pop\n      jump\t// out\n        /* \"#utility.yul\":14653:15072   */\n    tag_176:\n      0x00\n        /* \"#utility.yul\":14857:14859   */\n      0x20\n        /* \"#utility.yul\":14846:14855   */\n      dup3\n        /* \"#utility.yul\":14842:14860   */\n      add\n        /* \"#utility.yul\":14834:14860   */\n      swap1\n      pop\n        /* \"#utility.yul\":14906:14915   */\n      dup2\n        /* \"#utility.yul\":14900:14904   */\n      dup2\n        /* \"#utility.yul\":14896:14916   */\n      sub\n        /* \"#utility.yul\":14892:14893   */\n      0x00\n        /* \"#utility.yul\":14881:14890   */\n      dup4\n        /* \"#utility.yul\":14877:14894   */\n      add\n        /* \"#utility.yul\":14870:14917   */\n      mstore\n        /* \"#utility.yul\":14934:15065   */\n      tag_493\n        /* \"#utility.yul\":15060:15064   */\n      dup2\n        /* \"#utility.yul\":14934:15065   */\n      tag_416\n      jump\t// in\n    tag_493:\n        /* \"#utility.yul\":14926:15065   */\n      swap1\n      pop\n        /* \"#utility.yul\":14824:15072   */\n      swap2\n      swap1\n      pop\n      jump\t// out\n        /* \"#utility.yul\":15078:15497   */\n    tag_213:\n      0x00\n        /* \"#utility.yul\":15282:15284   */\n      0x20\n        /* \"#utility.yul\":15271:15280   */\n      dup3\n        /* \"#utility.yul\":15267:15285   */\n      add\n        /* \"#utility.yul\":15259:15285   */\n      swap1\n      pop\n        /* \"#utility.yul\":15331:15340   */\n      dup2\n        /* \"#utility.yul\":15325:15329   */\n      dup2\n        /* \"#utility.yul\":15321:15341   */\n      sub\n        /* \"#utility.yul\":15317:15318   */\n      0x00\n        /* \"#utility.yul\":15306:15315   */\n      dup4\n        /* \"#utility.yul\":15302:15319   */\n      add\n        /* \"#utility.yul\":15295:15342   */\n      mstore\n        /* \"#utility.yul\":15359:15490   */\n      tag_495\n        /* \"#utility.yul\":15485:15489   */\n      dup2\n        /* \"#utility.yul\":15359:15490   */\n      tag_419\n      jump\t// in\n    tag_495:\n        /* \"#utility.yul\":15351:15490   */\n      swap1\n      pop\n        /* \"#utility.yul\":15249:15497   */\n      swap2\n      swap1\n      pop\n      jump\t// out\n        /* \"#utility.yul\":15503:15922   */\n    tag_166:\n      0x00\n        /* \"#utility.yul\":15707:15709   */\n      0x20\n        /* \"#utility.yul\":15696:15705   */\n      dup3\n        /* \"#utility.yul\":15692:15710   */\n      add\n        /* \"#utility.yul\":15684:15710   */\n      swap1\n      pop\n        /* \"#utility.yul\":15756:15765   */\n      dup2\n        /* \"#utility.yul\":15750:15754   */\n      dup2\n        /* \"#utility.yul\":15746:15766   */\n      sub\n        /* \"#utility.yul\":15742:15743   */\n      0x00\n        /* \"#utility.yul\":15731:15740   */\n      dup4\n        /* \"#utility.yul\":15727:15744   */\n      add\n        /* \"#utility.yul\":15720:15767   */\n      mstore\n        /* \"#utility.yul\":15784:15915   */\n      tag_497\n        /* \"#utility.yul\":15910:15914   */\n      dup2\n        /* \"#utility.yul\":15784:15915   */\n      tag_422\n      jump\t// in\n    tag_497:\n        /* \"#utility.yul\":15776:15915   */\n      swap1\n      pop\n        /* \"#utility.yul\":15674:15922   */\n      swap2\n      swap1\n      pop\n      jump\t// out\n        /* \"#utility.yul\":15928:16347   */\n    tag_121:\n      0x00\n        /* \"#utility.yul\":16132:16134   */\n      0x20\n        /* \"#utility.yul\":16121:16130   */\n      dup3\n        /* \"#utility.yul\":16117:16135   */\n      add\n        /* \"#utility.yul\":16109:16135   */\n      swap1\n      pop\n        /* \"#utility.yul\":16181:16190   */\n      dup2\n        /* \"#utility.yul\":16175:16179   */\n      dup2\n        /* \"#utility.yul\":16171:16191   */\n      sub\n        /* \"#utility.yul\":16167:16168   */\n      0x00\n        /* \"#utility.yul\":16156:16165   */\n      dup4\n        /* \"#utility.yul\":16152:16169   */\n      add\n        /* \"#utility.yul\":16145:16192   */\n      mstore\n        /* \"#utility.yul\":16209:16340   */\n      tag_499\n        /* \"#utility.yul\":16335:16339   */\n      dup2\n        /* \"#utility.yul\":16209:16340   */\n      tag_425\n      jump\t// in\n    tag_499:\n        /* \"#utility.yul\":16201:16340   */\n      swap1\n      pop\n        /* \"#utility.yul\":16099:16347   */\n      swap2\n      swap1\n      pop\n      jump\t// out\n        /* \"#utility.yul\":16353:16772   */\n    tag_185:\n      0x00\n        /* \"#utility.yul\":16557:16559   */\n      0x20\n        /* \"#utility.yul\":16546:16555   */\n      dup3\n        /* \"#utility.yul\":16542:16560   */\n      add\n        /* \"#utility.yul\":16534:16560   */\n      swap1\n      pop\n        /* \"#utility.yul\":16606:16615   */\n      dup2\n        /* \"#utility.yul\":16600:16604   */\n      dup2\n        /* \"#utility.yul\":16596:16616   */\n      sub\n        /* \"#utility.yul\":16592:16593   */\n      0x00\n        /* \"#utility.yul\":16581:16590   */\n      dup4\n        /* \"#utility.yul\":16577:16594   */\n      add\n        /* \"#utility.yul\":16570:16617   */\n      mstore\n        /* \"#utility.yul\":16634:16765   */\n      tag_501\n        /* \"#utility.yul\":16760:16764   */\n      dup2\n        /* \"#utility.yul\":16634:16765   */\n      tag_428\n      jump\t// in\n    tag_501:\n        /* \"#utility.yul\":16626:16765   */\n      swap1\n      pop\n        /* \"#utility.yul\":16524:16772   */\n      swap2\n      swap1\n      pop\n      jump\t// out\n        /* \"#utility.yul\":16778:17197   */\n    tag_134:\n      0x00\n        /* \"#utility.yul\":16982:16984   */\n      0x20\n        /* \"#utility.yul\":16971:16980   */\n      dup3\n        /* \"#utility.yul\":16967:16985   */\n      add\n        /* \"#utility.yul\":16959:16985   */\n      swap1\n      pop\n        /* \"#utility.yul\":17031:17040   */\n      dup2\n        /* \"#utility.yul\":17025:17029   */\n      dup2\n        /* \"#utility.yul\":17021:17041   */\n      sub\n        /* \"#utility.yul\":17017:17018   */\n      0x00\n        /* \"#utility.yul\":17006:17015   */\n      dup4\n        /* \"#utility.yul\":17002:17019   */\n      add\n        /* \"#utility.yul\":16995:17042   */\n      mstore\n        /* \"#utility.yul\":17059:17190   */\n      tag_503\n        /* \"#utility.yul\":17185:17189   */\n      dup2\n        /* \"#utility.yul\":17059:17190   */\n      tag_431\n      jump\t// in\n    tag_503:\n        /* \"#utility.yul\":17051:17190   */\n      swap1\n      pop\n        /* \"#utility.yul\":16949:17197   */\n      swap2\n      swap1\n      pop\n      jump\t// out\n        /* \"#utility.yul\":17203:17622   */\n    tag_279:\n      0x00\n        /* \"#utility.yul\":17407:17409   */\n      0x20\n        /* \"#utility.yul\":17396:17405   */\n      dup3\n        /* \"#utility.yul\":17392:17410   */\n      add\n        /* \"#utility.yul\":17384:17410   */\n      swap1\n      pop\n        /* \"#utility.yul\":17456:17465   */\n      dup2\n        /* \"#utility.yul\":17450:17454   */\n      dup2\n        /* \"#utility.yul\":17446:17466   */\n      sub\n        /* \"#utility.yul\":17442:17443   */\n      0x00\n        /* \"#utility.yul\":17431:17440   */\n      dup4\n        /* \"#utility.yul\":17427:17444   */\n      add\n        /* \"#utility.yul\":17420:17467   */\n      mstore\n        /* \"#utility.yul\":17484:17615   */\n      tag_505\n        /* \"#utility.yul\":17610:17614   */\n      dup2\n        /* \"#utility.yul\":17484:17615   */\n      tag_434\n      jump\t// in\n    tag_505:\n        /* \"#utility.yul\":17476:17615   */\n      swap1\n      pop\n        /* \"#utility.yul\":17374:17622   */\n      swap2\n      swap1\n      pop\n      jump\t// out\n        /* \"#utility.yul\":17628:18047   */\n    tag_311:\n      0x00\n        /* \"#utility.yul\":17832:17834   */\n      0x20\n        /* \"#utility.yul\":17821:17830   */\n      dup3\n        /* \"#utility.yul\":17817:17835   */\n      add\n        /* \"#utility.yul\":17809:17835   */\n      swap1\n      pop\n        /* \"#utility.yul\":17881:17890   */\n      dup2\n        /* \"#utility.yul\":17875:17879   */\n      dup2\n        /* \"#utility.yul\":17871:17891   */\n      sub\n        /* \"#utility.yul\":17867:17868   */\n      0x00\n        /* \"#utility.yul\":17856:17865   */\n      dup4\n        /* \"#utility.yul\":17852:17869   */\n      add\n        /* \"#utility.yul\":17845:17892   */\n      mstore\n        /* \"#utility.yul\":17909:18040   */\n      tag_507\n        /* \"#utility.yul\":18035:18039   */\n      dup2\n        /* \"#utility.yul\":17909:18040   */\n      tag_437\n      jump\t// in\n    tag_507:\n        /* \"#utility.yul\":17901:18040   */\n      swap1\n      pop\n        /* \"#utility.yul\":17799:18047   */\n      swap2\n      swap1\n      pop\n      jump\t// out\n        /* \"#utility.yul\":18053:18472   */\n    tag_115:\n      0x00\n        /* \"#utility.yul\":18257:18259   */\n      0x20\n        /* \"#utility.yul\":18246:18255   */\n      dup3\n        /* \"#utility.yul\":18242:18260   */\n      add\n        /* \"#utility.yul\":18234:18260   */\n      swap1\n      pop\n        /* \"#utility.yul\":18306:18315   */\n      dup2\n        /* \"#utility.yul\":18300:18304   */\n      dup2\n        /* \"#utility.yul\":18296:18316   */\n      sub\n        /* \"#utility.yul\":18292:18293   */\n      0x00\n        /* \"#utility.yul\":18281:18290   */\n      dup4\n        /* \"#utility.yul\":18277:18294   */\n      add\n        /* \"#utility.yul\":18270:18317   */\n      mstore\n        /* \"#utility.yul\":18334:18465   */\n      tag_509\n        /* \"#utility.yul\":18460:18464   */\n      dup2\n        /* \"#utility.yul\":18334:18465   */\n      tag_440\n      jump\t// in\n    tag_509:\n        /* \"#utility.yul\":18326:18465   */\n      swap1\n      pop\n        /* \"#utility.yul\":18224:18472   */\n      swap2\n      swap1\n      pop\n      jump\t// out\n        /* \"#utility.yul\":18478:18897   */\n    tag_170:\n      0x00\n        /* \"#utility.yul\":18682:18684   */\n      0x20\n        /* \"#utility.yul\":18671:18680   */\n      dup3\n        /* \"#utility.yul\":18667:18685   */\n      add\n        /* \"#utility.yul\":18659:18685   */\n      swap1\n      pop\n        /* \"#utility.yul\":18731:18740   */\n      dup2\n        /* \"#utility.yul\":18725:18729   */\n      dup2\n        /* \"#utility.yul\":18721:18741   */\n      sub\n        /* \"#utility.yul\":18717:18718   */\n      0x00\n        /* \"#utility.yul\":18706:18715   */\n      dup4\n        /* \"#utility.yul\":18702:18719   */\n      add\n        /* \"#utility.yul\":18695:18742   */\n      mstore\n        /* \"#utility.yul\":18759:18890   */\n      tag_511\n        /* \"#utility.yul\":18885:18889   */\n      dup2\n        /* \"#utility.yul\":18759:18890   */\n      tag_443\n      jump\t// in\n    tag_511:\n        /* \"#utility.yul\":18751:18890   */\n      swap1\n      pop\n        /* \"#utility.yul\":18649:18897   */\n      swap2\n      swap1\n      pop\n      jump\t// out\n        /* \"#utility.yul\":18903:19322   */\n    tag_219:\n      0x00\n        /* \"#utility.yul\":19107:19109   */\n      0x20\n        /* \"#utility.yul\":19096:19105   */\n      dup3\n        /* \"#utility.yul\":19092:19110   */\n      add\n        /* \"#utility.yul\":19084:19110   */\n      swap1\n      pop\n        /* \"#utility.yul\":19156:19165   */\n      dup2\n        /* \"#utility.yul\":19150:19154   */\n      dup2\n        /* \"#utility.yul\":19146:19166   */\n      sub\n        /* \"#utility.yul\":19142:19143   */\n      0x00\n        /* \"#utility.yul\":19131:19140   */\n      dup4\n        /* \"#utility.yul\":19127:19144   */\n      add\n        /* \"#utility.yul\":19120:19167   */\n      mstore\n        /* \"#utility.yul\":19184:19315   */\n      tag_513\n        /* \"#utility.yul\":19310:19314   */\n      dup2\n        /* \"#utility.yul\":19184:19315   */\n      tag_446\n      jump\t// in\n    tag_513:\n        /* \"#utility.yul\":19176:19315   */\n      swap1\n      pop\n        /* \"#utility.yul\":19074:19322   */\n      swap2\n      swap1\n      pop\n      jump\t// out\n        /* \"#utility.yul\":19328:19747   */\n    tag_180:\n      0x00\n        /* \"#utility.yul\":19532:19534   */\n      0x20\n        /* \"#utility.yul\":19521:19530   */\n      dup3\n        /* \"#utility.yul\":19517:19535   */\n      add\n        /* \"#utility.yul\":19509:19535   */\n      swap1\n      pop\n        /* \"#utility.yul\":19581:19590   */\n      dup2\n        /* \"#utility.yul\":19575:19579   */\n      dup2\n        /* \"#utility.yul\":19571:19591   */\n      sub\n        /* \"#utility.yul\":19567:19568   */\n      0x00\n        /* \"#utility.yul\":19556:19565   */\n      dup4\n        /* \"#utility.yul\":19552:19569   */\n      add\n        /* \"#utility.yul\":19545:19592   */\n      mstore\n        /* \"#utility.yul\":19609:19740   */\n      tag_515\n        /* \"#utility.yul\":19735:19739   */\n      dup2\n        /* \"#utility.yul\":19609:19740   */\n      tag_449\n      jump\t// in\n    tag_515:\n        /* \"#utility.yul\":19601:19740   */\n      swap1\n      pop\n        /* \"#utility.yul\":19499:19747   */\n      swap2\n      swap1\n      pop\n      jump\t// out\n        /* \"#utility.yul\":19753:20172   */\n    tag_103:\n      0x00\n        /* \"#utility.yul\":19957:19959   */\n      0x20\n        /* \"#utility.yul\":19946:19955   */\n      dup3\n        /* \"#utility.yul\":19942:19960   */\n      add\n        /* \"#utility.yul\":19934:19960   */\n      swap1\n      pop\n        /* \"#utility.yul\":20006:20015   */\n      dup2\n        /* \"#utility.yul\":20000:20004   */\n      dup2\n        /* \"#utility.yul\":19996:20016   */\n      sub\n        /* \"#utility.yul\":19992:19993   */\n      0x00\n        /* \"#utility.yul\":19981:19990   */\n      dup4\n        /* \"#utility.yul\":19977:19994   */\n      add\n        /* \"#utility.yul\":19970:20017   */\n      mstore\n        /* \"#utility.yul\":20034:20165   */\n      tag_517\n        /* \"#utility.yul\":20160:20164   */\n      dup2\n        /* \"#utility.yul\":20034:20165   */\n      tag_452\n      jump\t// in\n    tag_517:\n        /* \"#utility.yul\":20026:20165   */\n      swap1\n      pop\n        /* \"#utility.yul\":19924:20172   */\n      swap2\n      swap1\n      pop\n      jump\t// out\n        /* \"#utility.yul\":20178:20597   */\n    tag_207:\n      0x00\n        /* \"#utility.yul\":20382:20384   */\n      0x20\n        /* \"#utility.yul\":20371:20380   */\n      dup3\n        /* \"#utility.yul\":20367:20385   */\n      add\n        /* \"#utility.yul\":20359:20385   */\n      swap1\n      pop\n        /* \"#utility.yul\":20431:20440   */\n      dup2\n        /* \"#utility.yul\":20425:20429   */\n      dup2\n        /* \"#utility.yul\":20421:20441   */\n      sub\n        /* \"#utility.yul\":20417:20418   */\n      0x00\n        /* \"#utility.yul\":20406:20415   */\n      dup4\n        /* \"#utility.yul\":20402:20419   */\n      add\n        /* \"#utility.yul\":20395:20442   */\n      mstore\n        /* \"#utility.yul\":20459:20590   */\n      tag_519\n        /* \"#utility.yul\":20585:20589   */\n      dup2\n        /* \"#utility.yul\":20459:20590   */\n      tag_455\n      jump\t// in\n    tag_519:\n        /* \"#utility.yul\":20451:20590   */\n      swap1\n      pop\n        /* \"#utility.yul\":20349:20597   */\n      swap2\n      swap1\n      pop\n      jump\t// out\n        /* \"#utility.yul\":20603:21022   */\n    tag_263:\n      0x00\n        /* \"#utility.yul\":20807:20809   */\n      0x20\n        /* \"#utility.yul\":20796:20805   */\n      dup3\n        /* \"#utility.yul\":20792:20810   */\n      add\n        /* \"#utility.yul\":20784:20810   */\n      swap1\n      pop\n        /* \"#utility.yul\":20856:20865   */\n      dup2\n        /* \"#utility.yul\":20850:20854   */\n      dup2\n        /* \"#utility.yul\":20846:20866   */\n      sub\n        /* \"#utility.yul\":20842:20843   */\n      0x00\n        /* \"#utility.yul\":20831:20840   */\n      dup4\n        /* \"#utility.yul\":20827:20844   */\n      add\n        /* \"#utility.yul\":20820:20867   */\n      mstore\n        /* \"#utility.yul\":20884:21015   */\n      tag_521\n        /* \"#utility.yul\":21010:21014   */\n      dup2\n        /* \"#utility.yul\":20884:21015   */\n      tag_458\n      jump\t// in\n    tag_521:\n        /* \"#utility.yul\":20876:21015   */\n      swap1\n      pop\n        /* \"#utility.yul\":20774:21022   */\n      swap2\n      swap1\n      pop\n      jump\t// out\n        /* \"#utility.yul\":21028:21447   */\n    tag_297:\n      0x00\n        /* \"#utility.yul\":21232:21234   */\n      0x20\n        /* \"#utility.yul\":21221:21230   */\n      dup3\n        /* \"#utility.yul\":21217:21235   */\n      add\n        /* \"#utility.yul\":21209:21235   */\n      swap1\n      pop\n        /* \"#utility.yul\":21281:21290   */\n      dup2\n        /* \"#utility.yul\":21275:21279   */\n      dup2\n        /* \"#utility.yul\":21271:21291   */\n      sub\n        /* \"#utility.yul\":21267:21268   */\n      0x00\n        /* \"#utility.yul\":21256:21265   */\n      dup4\n        /* \"#utility.yul\":21252:21269   */\n      add\n        /* \"#utility.yul\":21245:21292   */\n      mstore\n        /* \"#utility.yul\":21309:21440   */\n      tag_523\n        /* \"#utility.yul\":21435:21439   */\n      dup2\n        /* \"#utility.yul\":21309:21440   */\n      tag_461\n      jump\t// in\n    tag_523:\n        /* \"#utility.yul\":21301:21440   */\n      swap1\n      pop\n        /* \"#utility.yul\":21199:21447   */\n      swap2\n      swap1\n      pop\n      jump\t// out\n        /* \"#utility.yul\":21453:21872   */\n    tag_158:\n      0x00\n        /* \"#utility.yul\":21657:21659   */\n      0x20\n        /* \"#utility.yul\":21646:21655   */\n      dup3\n        /* \"#utility.yul\":21642:21660   */\n      add\n        /* \"#utility.yul\":21634:21660   */\n      swap1\n      pop\n        /* \"#utility.yul\":21706:21715   */\n      dup2\n        /* \"#utility.yul\":21700:21704   */\n      dup2\n        /* \"#utility.yul\":21696:21716   */\n      sub\n        /* \"#utility.yul\":21692:21693   */\n      0x00\n        /* \"#utility.yul\":21681:21690   */\n      dup4\n        /* \"#utility.yul\":21677:21694   */\n      add\n        /* \"#utility.yul\":21670:21717   */\n      mstore\n        /* \"#utility.yul\":21734:21865   */\n      tag_525\n        /* \"#utility.yul\":21860:21864   */\n      dup2\n        /* \"#utility.yul\":21734:21865   */\n      tag_464\n      jump\t// in\n    tag_525:\n        /* \"#utility.yul\":21726:21865   */\n      swap1\n      pop\n        /* \"#utility.yul\":21624:21872   */\n      swap2\n      swap1\n      pop\n      jump\t// out\n        /* \"#utility.yul\":21878:22297   */\n    tag_140:\n      0x00\n        /* \"#utility.yul\":22082:22084   */\n      0x20\n        /* \"#utility.yul\":22071:22080   */\n      dup3\n        /* \"#utility.yul\":22067:22085   */\n      add\n        /* \"#utility.yul\":22059:22085   */\n      swap1\n      pop\n        /* \"#utility.yul\":22131:22140   */\n      dup2\n        /* \"#utility.yul\":22125:22129   */\n      dup2\n        /* \"#utility.yul\":22121:22141   */\n      sub\n        /* \"#utility.yul\":22117:22118   */\n      0x00\n        /* \"#utility.yul\":22106:22115   */\n      dup4\n        /* \"#utility.yul\":22102:22119   */\n      add\n        /* \"#utility.yul\":22095:22142   */\n      mstore\n        /* \"#utility.yul\":22159:22290   */\n      tag_527\n        /* \"#utility.yul\":22285:22289   */\n      dup2\n        /* \"#utility.yul\":22159:22290   */\n      tag_467\n      jump\t// in\n    tag_527:\n        /* \"#utility.yul\":22151:22290   */\n      swap1\n      pop\n        /* \"#utility.yul\":22049:22297   */\n      swap2\n      swap1\n      pop\n      jump\t// out\n        /* \"#utility.yul\":22303:22722   */\n    tag_216:\n      0x00\n        /* \"#utility.yul\":22507:22509   */\n      0x20\n        /* \"#utility.yul\":22496:22505   */\n      dup3\n        /* \"#utility.yul\":22492:22510   */\n      add\n        /* \"#utility.yul\":22484:22510   */\n      swap1\n      pop\n        /* \"#utility.yul\":22556:22565   */\n      dup2\n        /* \"#utility.yul\":22550:22554   */\n      dup2\n        /* \"#utility.yul\":22546:22566   */\n      sub\n        /* \"#utility.yul\":22542:22543   */\n      0x00\n        /* \"#utility.yul\":22531:22540   */\n      dup4\n        /* \"#utility.yul\":22527:22544   */\n      add\n        /* \"#utility.yul\":22520:22567   */\n      mstore\n        /* \"#utility.yul\":22584:22715   */\n      tag_529\n        /* \"#utility.yul\":22710:22714   */\n      dup2\n        /* \"#utility.yul\":22584:22715   */\n      tag_470\n      jump\t// in\n    tag_529:\n        /* \"#utility.yul\":22576:22715   */\n      swap1\n      pop\n        /* \"#utility.yul\":22474:22722   */\n      swap2\n      swap1\n      pop\n      jump\t// out\n        /* \"#utility.yul\":22728:22950   */\n    tag_49:\n      0x00\n        /* \"#utility.yul\":22859:22861   */\n      0x20\n        /* \"#utility.yul\":22848:22857   */\n      dup3\n        /* \"#utility.yul\":22844:22862   */\n      add\n        /* \"#utility.yul\":22836:22862   */\n      swap1\n      pop\n        /* \"#utility.yul\":22872:22943   */\n      tag_531\n        /* \"#utility.yul\":22940:22941   */\n      0x00\n        /* \"#utility.yul\":22929:22938   */\n      dup4\n        /* \"#utility.yul\":22925:22942   */\n      add\n        /* \"#utility.yul\":22916:22922   */\n      dup5\n        /* \"#utility.yul\":22872:22943   */\n      tag_473\n      jump\t// in\n    tag_531:\n        /* \"#utility.yul\":22826:22950   */\n      swap3\n      swap2\n      pop\n      pop\n      jump\t// out\n        /* \"#utility.yul\":22956:24266   */\n    tag_25:\n      0x00\n        /* \"#utility.yul\":23361:23364   */\n      0x0120\n        /* \"#utility.yul\":23350:23359   */\n      dup3\n        /* \"#utility.yul\":23346:23365   */\n      add\n        /* \"#utility.yul\":23338:23365   */\n      swap1\n      pop\n        /* \"#utility.yul\":23375:23446   */\n      tag_533\n        /* \"#utility.yul\":23443:23444   */\n      0x00\n        /* \"#utility.yul\":23432:23441   */\n      dup4\n        /* \"#utility.yul\":23428:23445   */\n      add\n        /* \"#utility.yul\":23419:23425   */\n      dup13\n        /* \"#utility.yul\":23375:23446   */\n      tag_473\n      jump\t// in\n    tag_533:\n        /* \"#utility.yul\":23456:23528   */\n      tag_534\n        /* \"#utility.yul\":23524:23526   */\n      0x20\n        /* \"#utility.yul\":23513:23522   */\n      dup4\n        /* \"#utility.yul\":23509:23527   */\n      add\n        /* \"#utility.yul\":23500:23506   */\n      dup12\n        /* \"#utility.yul\":23456:23528   */\n      tag_387\n      jump\t// in\n    tag_534:\n        /* \"#utility.yul\":23575:23584   */\n      dup2\n        /* \"#utility.yul\":23569:23573   */\n      dup2\n        /* \"#utility.yul\":23565:23585   */\n      sub\n        /* \"#utility.yul\":23560:23562   */\n      0x40\n        /* \"#utility.yul\":23549:23558   */\n      dup4\n        /* \"#utility.yul\":23545:23563   */\n      add\n        /* \"#utility.yul\":23538:23586   */\n      mstore\n        /* \"#utility.yul\":23603:23681   */\n      tag_535\n        /* \"#utility.yul\":23676:23680   */\n      dup2\n        /* \"#utility.yul\":23667:23673   */\n      dup11\n        /* \"#utility.yul\":23603:23681   */\n      tag_403\n      jump\t// in\n    tag_535:\n        /* \"#utility.yul\":23595:23681   */\n      swap1\n      pop\n        /* \"#utility.yul\":23728:23737   */\n      dup2\n        /* \"#utility.yul\":23722:23726   */\n      dup2\n        /* \"#utility.yul\":23718:23738   */\n      sub\n        /* \"#utility.yul\":23713:23715   */\n      0x60\n        /* \"#utility.yul\":23702:23711   */\n      dup4\n        /* \"#utility.yul\":23698:23716   */\n      add\n        /* \"#utility.yul\":23691:23739   */\n      mstore\n        /* \"#utility.yul\":23756:23834   */\n      tag_536\n        /* \"#utility.yul\":23829:23833   */\n      dup2\n        /* \"#utility.yul\":23820:23826   */\n      dup10\n        /* \"#utility.yul\":23756:23834   */\n      tag_403\n      jump\t// in\n    tag_536:\n        /* \"#utility.yul\":23748:23834   */\n      swap1\n      pop\n        /* \"#utility.yul\":23844:23917   */\n      tag_537\n        /* \"#utility.yul\":23912:23915   */\n      0x80\n        /* \"#utility.yul\":23901:23910   */\n      dup4\n        /* \"#utility.yul\":23897:23916   */\n      add\n        /* \"#utility.yul\":23888:23894   */\n      dup9\n        /* \"#utility.yul\":23844:23917   */\n      tag_473\n      jump\t// in\n    tag_537:\n        /* \"#utility.yul\":23927:24000   */\n      tag_538\n        /* \"#utility.yul\":23995:23998   */\n      0xa0\n        /* \"#utility.yul\":23984:23993   */\n      dup4\n        /* \"#utility.yul\":23980:23999   */\n      add\n        /* \"#utility.yul\":23971:23977   */\n      dup8\n        /* \"#utility.yul\":23927:24000   */\n      tag_473\n      jump\t// in\n    tag_538:\n        /* \"#utility.yul\":24010:24093   */\n      tag_539\n        /* \"#utility.yul\":24088:24091   */\n      0xc0\n        /* \"#utility.yul\":24077:24086   */\n      dup4\n        /* \"#utility.yul\":24073:24092   */\n      add\n        /* \"#utility.yul\":24064:24070   */\n      dup7\n        /* \"#utility.yul\":24010:24093   */\n      tag_395\n      jump\t// in\n    tag_539:\n        /* \"#utility.yul\":24103:24176   */\n      tag_540\n        /* \"#utility.yul\":24171:24174   */\n      0xe0\n        /* \"#utility.yul\":24160:24169   */\n      dup4\n        /* \"#utility.yul\":24156:24175   */\n      add\n        /* \"#utility.yul\":24147:24153   */\n      dup6\n        /* \"#utility.yul\":24103:24176   */\n      tag_473\n      jump\t// in\n    tag_540:\n        /* \"#utility.yul\":24186:24259   */\n      tag_541\n        /* \"#utility.yul\":24254:24257   */\n      0x0100\n        /* \"#utility.yul\":24243:24252   */\n      dup4\n        /* \"#utility.yul\":24239:24258   */\n      add\n        /* \"#utility.yul\":24230:24236   */\n      dup5\n        /* \"#utility.yul\":24186:24259   */\n      tag_387\n      jump\t// in\n    tag_541:\n        /* \"#utility.yul\":23328:24266   */\n      swap11\n      swap10\n      pop\n      pop\n      pop\n      pop\n      pop\n      pop\n      pop\n      pop\n      pop\n      pop\n      jump\t// out\n        /* \"#utility.yul\":24272:24916   */\n    tag_61:\n      0x00\n        /* \"#utility.yul\":24507:24510   */\n      0x80\n        /* \"#utility.yul\":24496:24505   */\n      dup3\n        /* \"#utility.yul\":24492:24511   */\n      add\n        /* \"#utility.yul\":24484:24511   */\n      swap1\n      pop\n        /* \"#utility.yul\":24521:24592   */\n      tag_543\n        /* \"#utility.yul\":24589:24590   */\n      0x00\n        /* \"#utility.yul\":24578:24587   */\n      dup4\n        /* \"#utility.yul\":24574:24591   */\n      add\n        /* \"#utility.yul\":24565:24571   */\n      dup8\n        /* \"#utility.yul\":24521:24592   */\n      tag_473\n      jump\t// in\n    tag_543:\n        /* \"#utility.yul\":24602:24674   */\n      tag_544\n        /* \"#utility.yul\":24670:24672   */\n      0x20\n        /* \"#utility.yul\":24659:24668   */\n      dup4\n        /* \"#utility.yul\":24655:24673   */\n      add\n        /* \"#utility.yul\":24646:24652   */\n      dup7\n        /* \"#utility.yul\":24602:24674   */\n      tag_387\n      jump\t// in\n    tag_544:\n        /* \"#utility.yul\":24684:24756   */\n      tag_545\n        /* \"#utility.yul\":24752:24754   */\n      0x40\n        /* \"#utility.yul\":24741:24750   */\n      dup4\n        /* \"#utility.yul\":24737:24755   */\n      add\n        /* \"#utility.yul\":24728:24734   */\n      dup6\n        /* \"#utility.yul\":24684:24756   */\n      tag_473\n      jump\t// in\n    tag_545:\n        /* \"#utility.yul\":24803:24812   */\n      dup2\n        /* \"#utility.yul\":24797:24801   */\n      dup2\n        /* \"#utility.yul\":24793:24813   */\n      sub\n        /* \"#utility.yul\":24788:24790   */\n      0x60\n        /* \"#utility.yul\":24777:24786   */\n      dup4\n        /* \"#utility.yul\":24773:24791   */\n      add\n        /* \"#utility.yul\":24766:24814   */\n      mstore\n        /* \"#utility.yul\":24831:24909   */\n      tag_546\n        /* \"#utility.yul\":24904:24908   */\n      dup2\n        /* \"#utility.yul\":24895:24901   */\n      dup5\n        /* \"#utility.yul\":24831:24909   */\n      tag_403\n      jump\t// in\n    tag_546:\n        /* \"#utility.yul\":24823:24909   */\n      swap1\n      pop\n        /* \"#utility.yul\":24474:24916   */\n      swap6\n      swap5\n      pop\n      pop\n      pop\n      pop\n      pop\n      jump\t// out\n        /* \"#utility.yul\":24922:25205   */\n    tag_330:\n      0x00\n        /* \"#utility.yul\":24988:24990   */\n      0x40\n        /* \"#utility.yul\":24982:24991   */\n      mload\n        /* \"#utility.yul\":24972:24991   */\n      swap1\n      pop\n        /* \"#utility.yul\":25030:25034   */\n      dup2\n        /* \"#utility.yul\":25022:25028   */\n      dup2\n        /* \"#utility.yul\":25018:25035   */\n      add\n        /* \"#utility.yul\":25137:25143   */\n      dup2\n        /* \"#utility.yul\":25125:25135   */\n      dup2\n        /* \"#utility.yul\":25122:25144   */\n      lt\n        /* \"#utility.yul\":25101:25119   */\n      0xffffffffffffffff\n        /* \"#utility.yul\":25089:25099   */\n      dup3\n        /* \"#utility.yul\":25086:25120   */\n      gt\n        /* \"#utility.yul\":25083:25145   */\n      or\n        /* \"#utility.yul\":25080:25082   */\n      iszero\n      tag_548\n      jumpi\n        /* \"#utility.yul\":25148:25166   */\n      tag_549\n      tag_550\n      jump\t// in\n    tag_549:\n        /* \"#utility.yul\":25080:25082   */\n    tag_548:\n        /* \"#utility.yul\":25188:25198   */\n      dup1\n        /* \"#utility.yul\":25184:25186   */\n      0x40\n        /* \"#utility.yul\":25177:25199   */\n      mstore\n        /* \"#utility.yul\":24962:25205   */\n      pop\n      swap2\n      swap1\n      pop\n      jump\t// out\n        /* \"#utility.yul\":25211:25543   */\n    tag_329:\n      0x00\n        /* \"#utility.yul\":25363:25381   */\n      0xffffffffffffffff\n        /* \"#utility.yul\":25355:25361   */\n      dup3\n        /* \"#utility.yul\":25352:25382   */\n      gt\n        /* \"#utility.yul\":25349:25351   */\n      iszero\n      tag_552\n      jumpi\n        /* \"#utility.yul\":25385:25403   */\n      tag_553\n      tag_550\n      jump\t// in\n    tag_553:\n        /* \"#utility.yul\":25349:25351   */\n    tag_552:\n        /* \"#utility.yul\":25470:25474   */\n      0x1f\n        /* \"#utility.yul\":25466:25475   */\n      not\n        /* \"#utility.yul\":25459:25463   */\n      0x1f\n        /* \"#utility.yul\":25451:25457   */\n      dup4\n        /* \"#utility.yul\":25447:25464   */\n      add\n        /* \"#utility.yul\":25443:25476   */\n      and\n        /* \"#utility.yul\":25435:25476   */\n      swap1\n      pop\n        /* \"#utility.yul\":25531:25535   */\n      0x20\n        /* \"#utility.yul\":25525:25529   */\n      dup2\n        /* \"#utility.yul\":25521:25536   */\n      add\n        /* \"#utility.yul\":25513:25536   */\n      swap1\n      pop\n        /* \"#utility.yul\":25278:25543   */\n      swap2\n      swap1\n      pop\n      jump\t// out\n        /* \"#utility.yul\":25549:25648   */\n    tag_406:\n      0x00\n        /* \"#utility.yul\":25635:25640   */\n      dup2\n        /* \"#utility.yul\":25629:25641   */\n      mload\n        /* \"#utility.yul\":25619:25641   */\n      swap1\n      pop\n        /* \"#utility.yul\":25608:25648   */\n      swap2\n      swap1\n      pop\n      jump\t// out\n        /* \"#utility.yul\":25654:25823   */\n    tag_408:\n      0x00\n        /* \"#utility.yul\":25772:25778   */\n      dup3\n        /* \"#utility.yul\":25767:25770   */\n      dup3\n        /* \"#utility.yul\":25760:25779   */\n      mstore\n        /* \"#utility.yul\":25812:25816   */\n      0x20\n        /* \"#utility.yul\":25807:25810   */\n      dup3\n        /* \"#utility.yul\":25803:25817   */\n      add\n        /* \"#utility.yul\":25788:25817   */\n      swap1\n      pop\n        /* \"#utility.yul\":25750:25823   */\n      swap3\n      swap2\n      pop\n      pop\n      jump\t// out\n        /* \"#utility.yul\":25829:26134   */\n    tag_152:\n      0x00\n        /* \"#utility.yul\":25888:25908   */\n      tag_557\n        /* \"#utility.yul\":25906:25907   */\n      dup3\n        /* \"#utility.yul\":25888:25908   */\n      tag_476\n      jump\t// in\n    tag_557:\n        /* \"#utility.yul\":25883:25908   */\n      swap2\n      pop\n        /* \"#utility.yul\":25922:25942   */\n      tag_558\n        /* \"#utility.yul\":25940:25941   */\n      dup4\n        /* \"#utility.yul\":25922:25942   */\n      tag_476\n      jump\t// in\n    tag_558:\n        /* \"#utility.yul\":25917:25942   */\n      swap3\n      pop\n        /* \"#utility.yul\":26076:26077   */\n      dup3\n        /* \"#utility.yul\":26008:26074   */\n      0xffffffffffffffffffffffffffffffffffffffffffffffffffffffffffffffff\n        /* \"#utility.yul\":26004:26078   */\n      sub\n        /* \"#utility.yul\":26001:26002   */\n      dup3\n        /* \"#utility.yul\":25998:26079   */\n      gt\n        /* \"#utility.yul\":25995:25997   */\n      iszero\n      tag_559\n      jumpi\n        /* \"#utility.yul\":26082:26100   */\n      tag_560\n      tag_561\n      jump\t// in\n    tag_560:\n        /* \"#utility.yul\":25995:25997   */\n    tag_559:\n        /* \"#utility.yul\":26126:26127   */\n      dup3\n        /* \"#utility.yul\":26123:26124   */\n      dup3\n        /* \"#utility.yul\":26119:26128   */\n      add\n        /* \"#utility.yul\":26112:26128   */\n      swap1\n      pop\n        /* \"#utility.yul\":25873:26134   */\n      swap3\n      swap2\n      pop\n      pop\n      jump\t// out\n        /* \"#utility.yul\":26140:26325   */\n    tag_147:\n      0x00\n        /* \"#utility.yul\":26197:26217   */\n      tag_563\n        /* \"#utility.yul\":26215:26216   */\n      dup3\n        /* \"#utility.yul\":26197:26217   */\n      tag_476\n      jump\t// in\n    tag_563:\n        /* \"#utility.yul\":26192:26217   */\n      swap2\n      pop\n        /* \"#utility.yul\":26231:26251   */\n      tag_564\n        /* \"#utility.yul\":26249:26250   */\n      dup4\n        /* \"#utility.yul\":26231:26251   */\n      tag_476\n      jump\t// in\n    tag_564:\n        /* \"#utility.yul\":26226:26251   */\n      swap3\n      pop\n        /* \"#utility.yul\":26270:26271   */\n      dup3\n        /* \"#utility.yul\":26260:26262   */\n      tag_565\n      jumpi\n        /* \"#utility.yul\":26275:26293   */\n      tag_566\n      tag_567\n      jump\t// in\n    tag_566:\n        /* \"#utility.yul\":26260:26262   */\n    tag_565:\n        /* \"#utility.yul\":26317:26318   */\n      dup3\n        /* \"#utility.yul\":26314:26315   */\n      dup3\n        /* \"#utility.yul\":26310:26319   */\n      div\n        /* \"#utility.yul\":26305:26319   */\n      swap1\n      pop\n        /* \"#utility.yul\":26182:26325   */\n      swap3\n      swap2\n      pop\n      pop\n      jump\t// out\n        /* \"#utility.yul\":26331:26679   */\n    tag_145:\n      0x00\n        /* \"#utility.yul\":26394:26414   */\n      tag_569\n        /* \"#utility.yul\":26412:26413   */\n      dup3\n        /* \"#utility.yul\":26394:26414   */\n      tag_476\n      jump\t// in\n    tag_569:\n        /* \"#utility.yul\":26389:26414   */\n      swap2\n      pop\n        /* \"#utility.yul\":26428:26448   */\n      tag_570\n        /* \"#utility.yul\":26446:26447   */\n      dup4\n        /* \"#utility.yul\":26428:26448   */\n      tag_476\n      jump\t// in\n    tag_570:\n        /* \"#utility.yul\":26423:26448   */\n      swap3\n      pop\n        /* \"#utility.yul\":26616:26617   */\n      dup2\n        /* \"#utility.yul\":26548:26614   */\n      0xffffffffffffffffffffffffffffffffffffffffffffffffffffffffffffffff\n        /* \"#utility.yul\":26544:26618   */\n      div\n        /* \"#utility.yul\":26541:26542   */\n      dup4\n        /* \"#utility.yul\":26538:26619   */\n      gt\n        /* \"#utility.yul\":26533:26534   */\n      dup3\n        /* \"#utility.yul\":26526:26535   */\n      iszero\n        /* \"#utility.yul\":26519:26536   */\n      iszero\n        /* \"#utility.yul\":26515:26620   */\n      and\n        /* \"#utility.yul\":26512:26514   */\n      iszero\n      tag_571\n      jumpi\n        /* \"#utility.yul\":26623:26641   */\n      tag_572\n      tag_561\n      jump\t// in\n    tag_572:\n        /* \"#utility.yul\":26512:26514   */\n    tag_571:\n        /* \"#utility.yul\":26671:26672   */\n      dup3\n        /* \"#utility.yul\":26668:26669   */\n      dup3\n        /* \"#utility.yul\":26664:26673   */\n      mul\n        /* \"#utility.yul\":26653:26673   */\n      swap1\n      pop\n        /* \"#utility.yul\":26379:26679   */\n      swap3\n      swap2\n      pop\n      pop\n      jump\t// out\n        /* \"#utility.yul\":26685:26876   */\n    tag_154:\n      0x00\n        /* \"#utility.yul\":26745:26765   */\n      tag_574\n        /* \"#utility.yul\":26763:26764   */\n      dup3\n        /* \"#utility.yul\":26745:26765   */\n      tag_476\n      jump\t// in\n    tag_574:\n        /* \"#utility.yul\":26740:26765   */\n      swap2\n      pop\n        /* \"#utility.yul\":26779:26799   */\n      tag_575\n        /* \"#utility.yul\":26797:26798   */\n      dup4\n        /* \"#utility.yul\":26779:26799   */\n      tag_476\n      jump\t// in\n    tag_575:\n        /* \"#utility.yul\":26774:26799   */\n      swap3\n      pop\n        /* \"#utility.yul\":26818:26819   */\n      dup3\n        /* \"#utility.yul\":26815:26816   */\n      dup3\n        /* \"#utility.yul\":26812:26820   */\n      lt\n        /* \"#utility.yul\":26809:26811   */\n      iszero\n      tag_576\n      jumpi\n        /* \"#utility.yul\":26823:26841   */\n      tag_577\n      tag_561\n      jump\t// in\n    tag_577:\n        /* \"#utility.yul\":26809:26811   */\n    tag_576:\n        /* \"#utility.yul\":26868:26869   */\n      dup3\n        /* \"#utility.yul\":26865:26866   */\n      dup3\n        /* \"#utility.yul\":26861:26870   */\n      sub\n        /* \"#utility.yul\":26853:26870   */\n      swap1\n      pop\n        /* \"#utility.yul\":26730:26876   */\n      swap3\n      swap2\n      pop\n      pop\n      jump\t// out\n        /* \"#utility.yul\":26882:26978   */\n    tag_390:\n      0x00\n        /* \"#utility.yul\":26948:26972   */\n      tag_579\n        /* \"#utility.yul\":26966:26971   */\n      dup3\n        /* \"#utility.yul\":26948:26972   */\n      tag_580\n      jump\t// in\n    tag_579:\n        /* \"#utility.yul\":26937:26972   */\n      swap1\n      pop\n        /* \"#utility.yul\":26927:26978   */\n      swap2\n      swap1\n      pop\n      jump\t// out\n        /* \"#utility.yul\":26984:27074   */\n    tag_394:\n      0x00\n        /* \"#utility.yul\":27061:27066   */\n      dup2\n        /* \"#utility.yul\":27054:27067   */\n      iszero\n        /* \"#utility.yul\":27047:27068   */\n      iszero\n        /* \"#utility.yul\":27036:27068   */\n      swap1\n      pop\n        /* \"#utility.yul\":27026:27074   */\n      swap2\n      swap1\n      pop\n      jump\t// out\n        /* \"#utility.yul\":27080:27215   */\n    tag_582:\n      0x00\n        /* \"#utility.yul\":27158:27163   */\n      dup2\n        /* \"#utility.yul\":27147:27163   */\n      swap1\n      pop\n        /* \"#utility.yul\":27164:27209   */\n      tag_584\n        /* \"#utility.yul\":27203:27208   */\n      dup3\n        /* \"#utility.yul\":27164:27209   */\n      tag_585\n      jump\t// in\n    tag_584:\n        /* \"#utility.yul\":27137:27215   */\n      swap2\n      swap1\n      pop\n      jump\t// out\n        /* \"#utility.yul\":27221:27344   */\n    tag_586:\n      0x00\n        /* \"#utility.yul\":27293:27298   */\n      dup2\n        /* \"#utility.yul\":27282:27298   */\n      swap1\n      pop\n        /* \"#utility.yul\":27299:27338   */\n      tag_588\n        /* \"#utility.yul\":27332:27337   */\n      dup3\n        /* \"#utility.yul\":27299:27338   */\n      tag_589\n      jump\t// in\n    tag_588:\n        /* \"#utility.yul\":27272:27344   */\n      swap2\n      swap1\n      pop\n      jump\t// out\n        /* \"#utility.yul\":27350:27476   */\n    tag_580:\n      0x00\n        /* \"#utility.yul\":27427:27469   */\n      0xffffffffffffffffffffffffffffffffffffffff\n        /* \"#utility.yul\":27420:27425   */\n      dup3\n        /* \"#utility.yul\":27416:27470   */\n      and\n        /* \"#utility.yul\":27405:27470   */\n      swap1\n      pop\n        /* \"#utility.yul\":27395:27476   */\n      swap2\n      swap1\n      pop\n      jump\t// out\n        /* \"#utility.yul\":27482:27559   */\n    tag_476:\n      0x00\n        /* \"#utility.yul\":27548:27553   */\n      dup2\n        /* \"#utility.yul\":27537:27553   */\n      swap1\n      pop\n        /* \"#utility.yul\":27527:27559   */\n      swap2\n      swap1\n      pop\n      jump\t// out\n        /* \"#utility.yul\":27565:27651   */\n    tag_592:\n      0x00\n        /* \"#utility.yul\":27640:27644   */\n      0xff\n        /* \"#utility.yul\":27633:27638   */\n      dup3\n        /* \"#utility.yul\":27629:27645   */\n      and\n        /* \"#utility.yul\":27618:27645   */\n      swap1\n      pop\n        /* \"#utility.yul\":27608:27651   */\n      swap2\n      swap1\n      pop\n      jump\t// out\n        /* \"#utility.yul\":27657:27792   */\n    tag_398:\n      0x00\n        /* \"#utility.yul\":27750:27786   */\n      tag_595\n        /* \"#utility.yul\":27780:27785   */\n      dup3\n        /* \"#utility.yul\":27750:27786   */\n      tag_582\n      jump\t// in\n    tag_595:\n        /* \"#utility.yul\":27737:27786   */\n      swap1\n      pop\n        /* \"#utility.yul\":27727:27792   */\n      swap2\n      swap1\n      pop\n      jump\t// out\n        /* \"#utility.yul\":27798:27921   */\n    tag_402:\n      0x00\n        /* \"#utility.yul\":27885:27915   */\n      tag_597\n        /* \"#utility.yul\":27909:27914   */\n      dup3\n        /* \"#utility.yul\":27885:27915   */\n      tag_586\n      jump\t// in\n    tag_597:\n        /* \"#utility.yul\":27872:27915   */\n      swap1\n      pop\n        /* \"#utility.yul\":27862:27921   */\n      swap2\n      swap1\n      pop\n      jump\t// out\n        /* \"#utility.yul\":27927:28081   */\n    tag_333:\n        /* \"#utility.yul\":28011:28017   */\n      dup3\n        /* \"#utility.yul\":28006:28009   */\n      dup2\n        /* \"#utility.yul\":28001:28004   */\n      dup4\n        /* \"#utility.yul\":27988:28018   */\n      calldatacopy\n        /* \"#utility.yul\":28073:28074   */\n      0x00\n        /* \"#utility.yul\":28064:28070   */\n      dup4\n        /* \"#utility.yul\":28059:28062   */\n      dup4\n        /* \"#utility.yul\":28055:28071   */\n      add\n        /* \"#utility.yul\":28048:28075   */\n      mstore\n        /* \"#utility.yul\":27978:28081   */\n      pop\n      pop\n      pop\n      jump\t// out\n        /* \"#utility.yul\":28087:28394   */\n    tag_410:\n        /* \"#utility.yul\":28155:28156   */\n      0x00\n        /* \"#utility.yul\":28165:28278   */\n    tag_600:\n        /* \"#utility.yul\":28179:28185   */\n      dup4\n        /* \"#utility.yul\":28176:28177   */\n      dup2\n        /* \"#utility.yul\":28173:28186   */\n      lt\n        /* \"#utility.yul\":28165:28278   */\n      iszero\n      tag_602\n      jumpi\n        /* \"#utility.yul\":28264:28265   */\n      dup1\n        /* \"#utility.yul\":28259:28262   */\n      dup3\n        /* \"#utility.yul\":28255:28266   */\n      add\n        /* \"#utility.yul\":28249:28267   */\n      mload\n        /* \"#utility.yul\":28245:28246   */\n      dup2\n        /* \"#utility.yul\":28240:28243   */\n      dup5\n        /* \"#utility.yul\":28236:28247   */\n      add\n        /* \"#utility.yul\":28229:28268   */\n      mstore\n        /* \"#utility.yul\":28201:28203   */\n      0x20\n        /* \"#utility.yul\":28198:28199   */\n      dup2\n        /* \"#utility.yul\":28194:28204   */\n      add\n        /* \"#utility.yul\":28189:28204   */\n      swap1\n      pop\n        /* \"#utility.yul\":28165:28278   */\n      jump(tag_600)\n    tag_602:\n        /* \"#utility.yul\":28296:28302   */\n      dup4\n        /* \"#utility.yul\":28293:28294   */\n      dup2\n        /* \"#utility.yul\":28290:28303   */\n      gt\n        /* \"#utility.yul\":28287:28289   */\n      iszero\n      tag_603\n      jumpi\n        /* \"#utility.yul\":28376:28377   */\n      0x00\n        /* \"#utility.yul\":28367:28373   */\n      dup5\n        /* \"#utility.yul\":28362:28365   */\n      dup5\n        /* \"#utility.yul\":28358:28374   */\n      add\n        /* \"#utility.yul\":28351:28378   */\n      mstore\n        /* \"#utility.yul\":28287:28289   */\n    tag_603:\n        /* \"#utility.yul\":28136:28394   */\n      pop\n      pop\n      pop\n      pop\n      jump\t// out\n        /* \"#utility.yul\":28400:28720   */\n    tag_90:\n      0x00\n        /* \"#utility.yul\":28481:28482   */\n      0x02\n        /* \"#utility.yul\":28475:28479   */\n      dup3\n        /* \"#utility.yul\":28471:28483   */\n      div\n        /* \"#utility.yul\":28461:28483   */\n      swap1\n      pop\n        /* \"#utility.yul\":28528:28529   */\n      0x01\n        /* \"#utility.yul\":28522:28526   */\n      dup3\n        /* \"#utility.yul\":28518:28530   */\n      and\n        /* \"#utility.yul\":28549:28567   */\n      dup1\n        /* \"#utility.yul\":28539:28541   */\n      tag_605\n      jumpi\n        /* \"#utility.yul\":28605:28609   */\n      0x7f\n        /* \"#utility.yul\":28597:28603   */\n      dup3\n        /* \"#utility.yul\":28593:28610   */\n      and\n        /* \"#utility.yul\":28583:28610   */\n      swap2\n      pop\n        /* \"#utility.yul\":28539:28541   */\n    tag_605:\n        /* \"#utility.yul\":28667:28669   */\n      0x20\n        /* \"#utility.yul\":28659:28665   */\n      dup3\n        /* \"#utility.yul\":28656:28670   */\n      lt\n        /* \"#utility.yul\":28636:28654   */\n      dup2\n        /* \"#utility.yul\":28633:28671   */\n      eq\n        /* \"#utility.yul\":28630:28632   */\n      iszero\n      tag_606\n      jumpi\n        /* \"#utility.yul\":28686:28704   */\n      tag_607\n      tag_608\n      jump\t// in\n    tag_607:\n        /* \"#utility.yul\":28630:28632   */\n    tag_606:\n        /* \"#utility.yul\":28451:28720   */\n      pop\n      swap2\n      swap1\n      pop\n      jump\t// out\n        /* \"#utility.yul\":28726:28959   */\n    tag_233:\n      0x00\n        /* \"#utility.yul\":28788:28812   */\n      tag_610\n        /* \"#utility.yul\":28806:28811   */\n      dup3\n        /* \"#utility.yul\":28788:28812   */\n      tag_476\n      jump\t// in\n    tag_610:\n        /* \"#utility.yul\":28779:28812   */\n      swap2\n      pop\n        /* \"#utility.yul\":28834:28900   */\n      0xffffffffffffffffffffffffffffffffffffffffffffffffffffffffffffffff\n        /* \"#utility.yul\":28827:28832   */\n      dup3\n        /* \"#utility.yul\":28824:28901   */\n      eq\n        /* \"#utility.yul\":28821:28823   */\n      iszero\n      tag_611\n      jumpi\n        /* \"#utility.yul\":28904:28922   */\n      tag_612\n      tag_561\n      jump\t// in\n    tag_612:\n        /* \"#utility.yul\":28821:28823   */\n    tag_611:\n        /* \"#utility.yul\":28951:28952   */\n      0x01\n        /* \"#utility.yul\":28944:28949   */\n      dup3\n        /* \"#utility.yul\":28940:28953   */\n      add\n        /* \"#utility.yul\":28933:28953   */\n      swap1\n      pop\n        /* \"#utility.yul\":28769:28959   */\n      swap2\n      swap1\n      pop\n      jump\t// out\n        /* \"#utility.yul\":28965:29145   */\n    tag_561:\n        /* \"#utility.yul\":29013:29090   */\n      0x4e487b7100000000000000000000000000000000000000000000000000000000\n        /* \"#utility.yul\":29010:29011   */\n      0x00\n        /* \"#utility.yul\":29003:29091   */\n      mstore\n        /* \"#utility.yul\":29110:29114   */\n      0x11\n        /* \"#utility.yul\":29107:29108   */\n      0x04\n        /* \"#utility.yul\":29100:29115   */\n      mstore\n        /* \"#utility.yul\":29134:29138   */\n      0x24\n        /* \"#utility.yul\":29131:29132   */\n      0x00\n        /* \"#utility.yul\":29124:29139   */\n      revert\n        /* \"#utility.yul\":29151:29331   */\n    tag_567:\n        /* \"#utility.yul\":29199:29276   */\n      0x4e487b7100000000000000000000000000000000000000000000000000000000\n        /* \"#utility.yul\":29196:29197   */\n      0x00\n        /* \"#utility.yul\":29189:29277   */\n      mstore\n        /* \"#utility.yul\":29296:29300   */\n      0x12\n        /* \"#utility.yul\":29293:29294   */\n      0x04\n        /* \"#utility.yul\":29286:29301   */\n      mstore\n        /* \"#utility.yul\":29320:29324   */\n      0x24\n        /* \"#utility.yul\":29317:29318   */\n      0x00\n        /* \"#utility.yul\":29310:29325   */\n      revert\n        /* \"#utility.yul\":29337:29517   */\n    tag_615:\n        /* \"#utility.yul\":29385:29462   */\n      0x4e487b7100000000000000000000000000000000000000000000000000000000\n        /* \"#utility.yul\":29382:29383   */\n      0x00\n        /* \"#utility.yul\":29375:29463   */\n      mstore\n        /* \"#utility.yul\":29482:29486   */\n      0x21\n        /* \"#utility.yul\":29479:29480   */\n      0x04\n        /* \"#utility.yul\":29472:29487   */\n      mstore\n        /* \"#utility.yul\":29506:29510   */\n      0x24\n        /* \"#utility.yul\":29503:29504   */\n      0x00\n        /* \"#utility.yul\":29496:29511   */\n      revert\n        /* \"#utility.yul\":29523:29703   */\n    tag_608:\n        /* \"#utility.yul\":29571:29648   */\n      0x4e487b7100000000000000000000000000000000000000000000000000000000\n        /* \"#utility.yul\":29568:29569   */\n      0x00\n        /* \"#utility.yul\":29561:29649   */\n      mstore\n        /* \"#utility.yul\":29668:29672   */\n      0x22\n        /* \"#utility.yul\":29665:29666   */\n      0x04\n        /* \"#utility.yul\":29658:29673   */\n      mstore\n        /* \"#utility.yul\":29692:29696   */\n      0x24\n        /* \"#utility.yul\":29689:29690   */\n      0x00\n        /* \"#utility.yul\":29682:29697   */\n      revert\n        /* \"#utility.yul\":29709:29889   */\n    tag_550:\n        /* \"#utility.yul\":29757:29834   */\n      0x4e487b7100000000000000000000000000000000000000000000000000000000\n        /* \"#utility.yul\":29754:29755   */\n      0x00\n        /* \"#utility.yul\":29747:29835   */\n      mstore\n        /* \"#utility.yul\":29854:29858   */\n      0x41\n        /* \"#utility.yul\":29851:29852   */\n      0x04\n        /* \"#utility.yul\":29844:29859   */\n      mstore\n        /* \"#utility.yul\":29878:29882   */\n      0x24\n        /* \"#utility.yul\":29875:29876   */\n      0x00\n        /* \"#utility.yul\":29868:29883   */\n      revert\n        /* \"#utility.yul\":29895:29997   */\n    tag_412:\n      0x00\n        /* \"#utility.yul\":29987:29989   */\n      0x1f\n        /* \"#utility.yul\":29983:29990   */\n      not\n        /* \"#utility.yul\":29978:29980   */\n      0x1f\n        /* \"#utility.yul\":29971:29976   */\n      dup4\n        /* \"#utility.yul\":29967:29981   */\n      add\n        /* \"#utility.yul\":29963:29991   */\n      and\n        /* \"#utility.yul\":29953:29991   */\n      swap1\n      pop\n        /* \"#utility.yul\":29943:29997   */\n      swap2\n      swap1\n      pop\n      jump\t// out\n        /* \"#utility.yul\":30003:30120   */\n    tag_585:\n        /* \"#utility.yul\":30088:30089   */\n      0x06\n        /* \"#utility.yul\":30081:30086   */\n      dup2\n        /* \"#utility.yul\":30078:30090   */\n      lt\n        /* \"#utility.yul\":30068:30070   */\n      tag_621\n      jumpi\n        /* \"#utility.yul\":30094:30112   */\n      tag_622\n      tag_615\n      jump\t// in\n    tag_622:\n        /* \"#utility.yul\":30068:30070   */\n    tag_621:\n        /* \"#utility.yul\":30058:30120   */\n      pop\n      jump\t// out\n        /* \"#utility.yul\":30126:30237   */\n    tag_589:\n        /* \"#utility.yul\":30205:30206   */\n      0x04\n        /* \"#utility.yul\":30198:30203   */\n      dup2\n        /* \"#utility.yul\":30195:30207   */\n      lt\n        /* \"#utility.yul\":30185:30187   */\n      tag_624\n      jumpi\n        /* \"#utility.yul\":30211:30229   */\n      tag_625\n      tag_615\n      jump\t// in\n    tag_625:\n        /* \"#utility.yul\":30185:30187   */\n    tag_624:\n        /* \"#utility.yul\":30175:30237   */\n      pop\n      jump\t// out\n        /* \"#utility.yul\":30243:30365   */\n    tag_337:\n        /* \"#utility.yul\":30316:30340   */\n      tag_627\n        /* \"#utility.yul\":30334:30339   */\n      dup2\n        /* \"#utility.yul\":30316:30340   */\n      tag_390\n      jump\t// in\n    tag_627:\n        /* \"#utility.yul\":30309:30314   */\n      dup2\n        /* \"#utility.yul\":30306:30341   */\n      eq\n        /* \"#utility.yul\":30296:30298   */\n      tag_628\n      jumpi\n        /* \"#utility.yul\":30355:30356   */\n      0x00\n        /* \"#utility.yul\":30352:30353   */\n      dup1\n        /* \"#utility.yul\":30345:30357   */\n      revert\n        /* \"#utility.yul\":30296:30298   */\n    tag_628:\n        /* \"#utility.yul\":30286:30365   */\n      pop\n      jump\t// out\n        /* \"#utility.yul\":30371:30487   */\n    tag_341:\n        /* \"#utility.yul\":30441:30462   */\n      tag_630\n        /* \"#utility.yul\":30456:30461   */\n      dup2\n        /* \"#utility.yul\":30441:30462   */\n      tag_394\n      jump\t// in\n    tag_630:\n        /* \"#utility.yul\":30434:30439   */\n      dup2\n        /* \"#utility.yul\":30431:30463   */\n      eq\n        /* \"#utility.yul\":30421:30423   */\n      tag_631\n      jumpi\n        /* \"#utility.yul\":30477:30478   */\n      0x00\n        /* \"#utility.yul\":30474:30475   */\n      dup1\n        /* \"#utility.yul\":30467:30479   */\n      revert\n        /* \"#utility.yul\":30421:30423   */\n    tag_631:\n        /* \"#utility.yul\":30411:30487   */\n      pop\n      jump\t// out\n        /* \"#utility.yul\":30493:30615   */\n    tag_349:\n        /* \"#utility.yul\":30566:30590   */\n      tag_633\n        /* \"#utility.yul\":30584:30589   */\n      dup2\n        /* \"#utility.yul\":30566:30590   */\n      tag_476\n      jump\t// in\n    tag_633:\n        /* \"#utility.yul\":30559:30564   */\n      dup2\n        /* \"#utility.yul\":30556:30591   */\n      eq\n        /* \"#utility.yul\":30546:30548   */\n      tag_634\n      jumpi\n        /* \"#utility.yul\":30605:30606   */\n      0x00\n        /* \"#utility.yul\":30602:30603   */\n      dup1\n        /* \"#utility.yul\":30595:30607   */\n      revert\n        /* \"#utility.yul\":30546:30548   */\n    tag_634:\n        /* \"#utility.yul\":30536:30615   */\n      pop\n      jump\t// out\n        /* \"#utility.yul\":30621:30739   */\n    tag_353:\n        /* \"#utility.yul\":30692:30714   */\n      tag_636\n        /* \"#utility.yul\":30708:30713   */\n      dup2\n        /* \"#utility.yul\":30692:30714   */\n      tag_592\n      jump\t// in\n    tag_636:\n        /* \"#utility.yul\":30685:30690   */\n      dup2\n        /* \"#utility.yul\":30682:30715   */\n      eq\n        /* \"#utility.yul\":30672:30674   */\n      tag_637\n      jumpi\n        /* \"#utility.yul\":30729:30730   */\n      0x00\n        /* \"#utility.yul\":30726:30727   */\n      dup1\n        /* \"#utility.yul\":30719:30731   */\n      revert\n        /* \"#utility.yul\":30672:30674   */\n    tag_637:\n        /* \"#utility.yul\":30662:30739   */\n      pop\n      jump\t// out\n\n    auxdata: 0xa2646970667358221220cf7c44a019eb91857285f9b5c982d7df457104b659451187fcf0191c2b13d8fc64736f6c63430008000033\n}\n",
				"bytecode": {
					"linkReferences": {},
					"object": "608060405234801561001057600080fd5b50336000806101000a81548173ffffffffffffffffffffffffffffffffffffffff021916908373ffffffffffffffffffffffffffffffffffffffff160217905550613f28806100606000396000f3fe6080604052600436106100dd5760003560e01c8063840850d11161007f578063c4c1152311610059578063c4c11523146102cb578063d93d9beb146102f4578063f73b60a91461031d578063fe25e00a14610339576100dd565b8063840850d11461021f578063a87430ba1461025f578063b36ffca6146102a0576100dd565b80633d01e0fa116100bb5780633d01e0fa1461017957806344739b52146101a257806350355d76146101cb57806371bf6bed146101f6576100dd565b8063180aedf3146100e2578063338e12eb1461012757806334b25ee214610150575b600080fd5b3480156100ee57600080fd5b5061010960048036038101906101049190612ef1565b610364565b60405161011e9998979695949392919061399d565b60405180910390f35b34801561013357600080fd5b5061014e60048036038101906101499190612e9d565b61050f565b005b34801561015c57600080fd5b5061017760048036038101906101729190612f1a565b610b02565b005b34801561018557600080fd5b506101a0600480360381019061019b9190612ef1565b610ff6565b005b3480156101ae57600080fd5b506101c960048036038101906101c49190612f92565b61154b565b005b3480156101d757600080fd5b506101e06119c5565b6040516101ed9190613982565b60405180910390f35b34801561020257600080fd5b5061021d60048036038101906102189190612e0a565b6119cb565b005b34801561022b57600080fd5b5061024660048036038101906102419190612f56565b611dd3565b6040516102569493929190613a38565b60405180910390f35b34801561026b57600080fd5b5061028660048036038101906102819190612de1565b611ec8565b6040516102979594939291906136a8565b60405180910390f35b3480156102ac57600080fd5b506102b5611fc0565b6040516102c29190613982565b60405180910390f35b3480156102d757600080fd5b506102f260048036038101906102ed9190612ef1565b611fc6565b005b34801561030057600080fd5b5061031b60048036038101906103169190612ef1565b61230b565b005b61033760048036038101906103329190612f56565b6126a3565b005b34801561034557600080fd5b5061034e612c5e565b60405161035b919061363b565b60405180910390f35b60046020528060005260406000206000915090508060000154908060010160009054906101000a900473ffffffffffffffffffffffffffffffffffffffff16908060020180546103b390613cf7565b80601f01602080910402602001604051908101604052809291908181526020018280546103df90613cf7565b801561042c5780601f106104015761010080835404028352916020019161042c565b820191906000526020600020905b81548152906001019060200180831161040f57829003601f168201915b50505050509080600301805461044190613cf7565b80601f016020809104026020016040519081016040528092919081815260200182805461046d90613cf7565b80156104ba5780601f1061048f576101008083540402835291602001916104ba565b820191906000526020600020905b81548152906001019060200180831161049d57829003601f168201915b5050505050908060040154908060050154908060060160009054906101000a900460ff16908060070154908060080160009054906101000a900473ffffffffffffffffffffffffffffffffffffffff16905089565b600360003373ffffffffffffffffffffffffffffffffffffffff1673ffffffffffffffffffffffffffffffffffffffff16815260200190815260200160002060030160009054906101000a900460ff161561059f576040517f08c379a0000000000000000000000000000000000000000000000000000000008152600401610596906138a2565b60405180910390fd5b60008160ff1660038111156105dd577f4e487b7100000000000000000000000000000000000000000000000000000000600052602160045260246000fd5b905060026003811115610619577f4e487b7100000000000000000000000000000000000000000000000000000000600052602160045260246000fd5b816003811115610652577f4e487b7100000000000000000000000000000000000000000000000000000000600052602160045260246000fd5b14806106cd5750600380811115610692577f4e487b7100000000000000000000000000000000000000000000000000000000600052602160045260246000fd5b8160038111156106cb577f4e487b7100000000000000000000000000000000000000000000000000000000600052602160045260246000fd5b145b8061074857506001600381111561070d577f4e487b7100000000000000000000000000000000000000000000000000000000600052602160045260246000fd5b816003811115610746577f4e487b7100000000000000000000000000000000000000000000000000000000600052602160045260246000fd5b145b610787576040517f08c379a000000000000000000000000000000000000000000000000000000000815260040161077e90613822565b60405180910390fd5b600160038111156107c1577f4e487b7100000000000000000000000000000000000000000000000000000000600052602160045260246000fd5b8160038111156107fa577f4e487b7100000000000000000000000000000000000000000000000000000000600052602160045260246000fd5b141561088f5760008054906101000a900473ffffffffffffffffffffffffffffffffffffffff1673ffffffffffffffffffffffffffffffffffffffff163373ffffffffffffffffffffffffffffffffffffffff161461088e576040517f08c379a000000000000000000000000000000000000000000000000000000000815260040161088590613782565b60405180910390fd5b5b60006003808111156108ca577f4e487b7100000000000000000000000000000000000000000000000000000000600052602160045260246000fd5b826003811115610903577f4e487b7100000000000000000000000000000000000000000000000000000000600052602160045260246000fd5b141561090e57606490505b6040518060a00160405280858152602001836003811115610958577f4e487b7100000000000000000000000000000000000000000000000000000000600052602160045260246000fd5b81526020013373ffffffffffffffffffffffffffffffffffffffff16815260200182815260200160011515815250600360003373ffffffffffffffffffffffffffffffffffffffff1673ffffffffffffffffffffffffffffffffffffffff16815260200190815260200160002060008201518160000190805190602001906109e1929190612c82565b5060208201518160010160006101000a81548160ff02191690836003811115610a33577f4e487b7100000000000000000000000000000000000000000000000000000000600052602160045260246000fd5b021790555060408201518160010160016101000a81548173ffffffffffffffffffffffffffffffffffffffff021916908373ffffffffffffffffffffffffffffffffffffffff1602179055506060820151816002015560808201518160030160006101000a81548160ff0219169083151502179055509050503373ffffffffffffffffffffffffffffffffffffffff167fc2e5d5da58bd71d1a2d14cdef02a4256d971b728088f8190d067ccfbae3bd73e8584604051610af4929190613678565b60405180910390a250505050565b60008054906101000a900473ffffffffffffffffffffffffffffffffffffffff1673ffffffffffffffffffffffffffffffffffffffff163373ffffffffffffffffffffffffffffffffffffffff1614610b90576040517f08c379a0000000000000000000000000000000000000000000000000000000008152600401610b87906137c2565b60405180910390fd5b600060046000848152602001908152602001600020905060036005811115610be1577f4e487b7100000000000000000000000000000000000000000000000000000000600052602160045260246000fd5b8160060160009054906101000a900460ff166005811115610c2b577f4e487b7100000000000000000000000000000000000000000000000000000000600052602160045260246000fd5b14610c6b576040517f08c379a0000000000000000000000000000000000000000000000000000000008152600401610c6290613942565b60405180910390fd5b6000816007015490506000826007018190555060048260060160006101000a81548160ff02191690836005811115610ccc577f4e487b7100000000000000000000000000000000000000000000000000000000600052602160045260246000fd5b02179055508215610df0576000670de0b6b3a7640000821015610d09576064600283610cf89190613b88565b610d029190613b57565b9050610d25565b6064600183610d189190613b88565b610d229190613b57565b90505b8060026000828254610d379190613b01565b925050819055508260080160009054906101000a900473ffffffffffffffffffffffffffffffffffffffff1673ffffffffffffffffffffffffffffffffffffffff166108fc8284610d889190613be2565b9081150290604051600060405180830381858888f19350505050158015610db3573d6000803e3d6000fd5b50847f831764ac02a33c193cba23a0de34c986e9b50402bf3c9febf6ff2f63d4c0435d604051610de290613922565b60405180910390a250610ff0565b6014600360008460080160009054906101000a900473ffffffffffffffffffffffffffffffffffffffff1673ffffffffffffffffffffffffffffffffffffffff1673ffffffffffffffffffffffffffffffffffffffff1681526020019081526020016000206002015410610ee1576014600360008460080160009054906101000a900473ffffffffffffffffffffffffffffffffffffffff1673ffffffffffffffffffffffffffffffffffffffff1673ffffffffffffffffffffffffffffffffffffffff1681526020019081526020016000206002016000828254610ed59190613be2565b92505081905550610f4e565b6000600360008460080160009054906101000a900473ffffffffffffffffffffffffffffffffffffffff1673ffffffffffffffffffffffffffffffffffffffff1673ffffffffffffffffffffffffffffffffffffffff168152602001908152602001600020600201819055505b8160010160009054906101000a900473ffffffffffffffffffffffffffffffffffffffff1673ffffffffffffffffffffffffffffffffffffffff166108fc829081150290604051600060405180830381858888f19350505050158015610fb8573d6000803e3d6000fd5b50837f831764ac02a33c193cba23a0de34c986e9b50402bf3c9febf6ff2f63d4c0435d604051610fe790613762565b60405180910390a25b50505050565b600360003373ffffffffffffffffffffffffffffffffffffffff1673ffffffffffffffffffffffffffffffffffffffff16815260200190815260200160002060030160009054906101000a900460ff16611085576040517f08c379a000000000000000000000000000000000000000000000000000000000815260040161107c90613842565b60405180910390fd5b600260038111156110bf577f4e487b7100000000000000000000000000000000000000000000000000000000600052602160045260246000fd5b600360003373ffffffffffffffffffffffffffffffffffffffff1673ffffffffffffffffffffffffffffffffffffffff16815260200190815260200160002060010160009054906101000a900460ff166003811115611147577f4e487b7100000000000000000000000000000000000000000000000000000000600052602160045260246000fd5b14611187576040517f08c379a000000000000000000000000000000000000000000000000000000000815260040161117e90613722565b60405180910390fd5b60006004600083815260200190815260200160002090503373ffffffffffffffffffffffffffffffffffffffff168160010160009054906101000a900473ffffffffffffffffffffffffffffffffffffffff1673ffffffffffffffffffffffffffffffffffffffff1614611230576040517f08c379a000000000000000000000000000000000000000000000000000000000815260040161122790613882565b60405180910390fd5b6001600581111561126a577f4e487b7100000000000000000000000000000000000000000000000000000000600052602160045260246000fd5b8160060160009054906101000a900460ff1660058111156112b4577f4e487b7100000000000000000000000000000000000000000000000000000000600052602160045260246000fd5b146112f4576040517f08c379a00000000000000000000000000000000000000000000000000000000081526004016112eb906137a2565b60405180910390fd5b6000816007015490506000670de0b6b3a764000082101561132f57606460028361131e9190613b88565b6113289190613b57565b905061134b565b606460018361133e9190613b88565b6113489190613b57565b90505b600081836113599190613be2565b9050816002600082825461136d9190613b01565b9250508190555060058460060160006101000a81548160ff021916908360058111156113c2577f4e487b7100000000000000000000000000000000000000000000000000000000600052602160045260246000fd5b021790555060008460070181905550600a600360008660080160009054906101000a900473ffffffffffffffffffffffffffffffffffffffff1673ffffffffffffffffffffffffffffffffffffffff1673ffffffffffffffffffffffffffffffffffffffff16815260200190815260200160002060020160008282546114489190613b01565b925050819055508360080160009054906101000a900473ffffffffffffffffffffffffffffffffffffffff1673ffffffffffffffffffffffffffffffffffffffff166108fc829081150290604051600060405180830381858888f193505050501580156114b9573d6000803e3d6000fd5b508360080160009054906101000a900473ffffffffffffffffffffffffffffffffffffffff1673ffffffffffffffffffffffffffffffffffffffff163373ffffffffffffffffffffffffffffffffffffffff16867f38ba31afab7a6f7c4f61e48a6dd88917047ea884c3659fa86145e037c22162768560405161153c9190613982565b60405180910390a45050505050565b600360003373ffffffffffffffffffffffffffffffffffffffff1673ffffffffffffffffffffffffffffffffffffffff16815260200190815260200160002060030160009054906101000a900460ff166115da576040517f08c379a00000000000000000000000000000000000000000000000000000000081526004016115d190613842565b60405180910390fd5b600380811115611613577f4e487b7100000000000000000000000000000000000000000000000000000000600052602160045260246000fd5b600360003373ffffffffffffffffffffffffffffffffffffffff1673ffffffffffffffffffffffffffffffffffffffff16815260200190815260200160002060010160009054906101000a900460ff16600381111561169b577f4e487b7100000000000000000000000000000000000000000000000000000000600052602160045260246000fd5b146116db576040517f08c379a00000000000000000000000000000000000000000000000000000000081526004016116d2906138c2565b60405180910390fd5b60006004600085815260200190815260200160002090506000600581111561172c577f4e487b7100000000000000000000000000000000000000000000000000000000600052602160045260246000fd5b8160060160009054906101000a900460ff166005811115611776577f4e487b7100000000000000000000000000000000000000000000000000000000600052602160045260246000fd5b146117b6576040517f08c379a00000000000000000000000000000000000000000000000000000000081526004016117ad90613742565b60405180910390fd5b80600401548311156117fd576040517f08c379a00000000000000000000000000000000000000000000000000000000081526004016117f490613962565b60405180910390fd5b6032600360003373ffffffffffffffffffffffffffffffffffffffff1673ffffffffffffffffffffffffffffffffffffffff168152602001908152602001600020600201541015611883576040517f08c379a000000000000000000000000000000000000000000000000000000000815260040161187a90613862565b60405180910390fd5b6005600085815260200190815260200160002060405180608001604052808681526020013373ffffffffffffffffffffffffffffffffffffffff1681526020018581526020018481525090806001815401808255809150506001900390600052602060002090600402016000909190919091506000820151816000015560208201518160010160006101000a81548173ffffffffffffffffffffffffffffffffffffffff021916908373ffffffffffffffffffffffffffffffffffffffff16021790555060408201518160020155606082015181600301908051906020019061196d929190612c82565b5050503373ffffffffffffffffffffffffffffffffffffffff16847f0e54eff26401bf69b81b26f60bd85ef47f5d85275c1d268d84f68d6897431c47856040516119b79190613982565b60405180910390a350505050565b60015481565b600360003373ffffffffffffffffffffffffffffffffffffffff1673ffffffffffffffffffffffffffffffffffffffff16815260200190815260200160002060030160009054906101000a900460ff16611a5a576040517f08c379a0000000000000000000000000000000000000000000000000000000008152600401611a5190613842565b60405180910390fd5b60026003811115611a94577f4e487b7100000000000000000000000000000000000000000000000000000000600052602160045260246000fd5b600360003373ffffffffffffffffffffffffffffffffffffffff1673ffffffffffffffffffffffffffffffffffffffff16815260200190815260200160002060010160009054906101000a900460ff166003811115611b1c577f4e487b7100000000000000000000000000000000000000000000000000000000600052602160045260246000fd5b14611b5c576040517f08c379a0000000000000000000000000000000000000000000000000000000008152600401611b5390613722565b60405180910390fd5b60016000815480929190611b6f90613d29565b919050555060405180610120016040528060015481526020013373ffffffffffffffffffffffffffffffffffffffff16815260200185815260200184815260200183815260200182815260200160006005811115611bf6577f4e487b7100000000000000000000000000000000000000000000000000000000600052602160045260246000fd5b815260200160008152602001600073ffffffffffffffffffffffffffffffffffffffff168152506004600060015481526020019081526020016000206000820151816000015560208201518160010160006101000a81548173ffffffffffffffffffffffffffffffffffffffff021916908373ffffffffffffffffffffffffffffffffffffffff1602179055506040820151816002019080519060200190611c9f929190612c82565b506060820151816003019080519060200190611cbc929190612c82565b506080820151816004015560a0820151816005015560c08201518160060160006101000a81548160ff02191690836005811115611d22577f4e487b7100000000000000000000000000000000000000000000000000000000600052602160045260246000fd5b021790555060e082015181600701556101008201518160080160006101000a81548173ffffffffffffffffffffffffffffffffffffffff021916908373ffffffffffffffffffffffffffffffffffffffff1602179055509050503373ffffffffffffffffffffffffffffffffffffffff166001547f874d4755e4be9f976c7833fc413deb77c1acbf096d6535b71953c36eb838cf4086604051611dc59190613656565b60405180910390a350505050565b60056020528160005260406000208181548110611def57600080fd5b9060005260206000209060040201600091509150508060000154908060010160009054906101000a900473ffffffffffffffffffffffffffffffffffffffff1690806002015490806003018054611e4590613cf7565b80601f0160208091040260200160405190810160405280929190818152602001828054611e7190613cf7565b8015611ebe5780601f10611e9357610100808354040283529160200191611ebe565b820191906000526020600020905b815481529060010190602001808311611ea157829003601f168201915b5050505050905084565b6003602052806000526040600020600091509050806000018054611eeb90613cf7565b80601f0160208091040260200160405190810160405280929190818152602001828054611f1790613cf7565b8015611f645780601f10611f3957610100808354040283529160200191611f64565b820191906000526020600020905b815481529060010190602001808311611f4757829003601f168201915b5050505050908060010160009054906101000a900460ff16908060010160019054906101000a900473ffffffffffffffffffffffffffffffffffffffff16908060020154908060030160009054906101000a900460ff16905085565b60025481565b600360003373ffffffffffffffffffffffffffffffffffffffff1673ffffffffffffffffffffffffffffffffffffffff16815260200190815260200160002060030160009054906101000a900460ff16612055576040517f08c379a000000000000000000000000000000000000000000000000000000000815260040161204c90613842565b60405180910390fd5b60038081111561208e577f4e487b7100000000000000000000000000000000000000000000000000000000600052602160045260246000fd5b600360003373ffffffffffffffffffffffffffffffffffffffff1673ffffffffffffffffffffffffffffffffffffffff16815260200190815260200160002060010160009054906101000a900460ff166003811115612116577f4e487b7100000000000000000000000000000000000000000000000000000000600052602160045260246000fd5b14612156576040517f08c379a000000000000000000000000000000000000000000000000000000000815260040161214d906138c2565b60405180910390fd5b60006004600083815260200190815260200160002090503373ffffffffffffffffffffffffffffffffffffffff168160080160009054906101000a900473ffffffffffffffffffffffffffffffffffffffff1673ffffffffffffffffffffffffffffffffffffffff16146121ff576040517f08c379a00000000000000000000000000000000000000000000000000000000081526004016121f6906138e2565b60405180910390fd5b60016005811115612239577f4e487b7100000000000000000000000000000000000000000000000000000000600052602160045260246000fd5b8160060160009054906101000a900460ff166005811115612283577f4e487b7100000000000000000000000000000000000000000000000000000000600052602160045260246000fd5b146122c3576040517f08c379a00000000000000000000000000000000000000000000000000000000081526004016122ba906137a2565b60405180910390fd5b3373ffffffffffffffffffffffffffffffffffffffff16827f2e1034180f85502b3a04560be6ed4c24fe9b9c9e0bd7f4e09720494ac48859fa60405160405180910390a35050565b600360003373ffffffffffffffffffffffffffffffffffffffff1673ffffffffffffffffffffffffffffffffffffffff16815260200190815260200160002060030160009054906101000a900460ff1661239a576040517f08c379a000000000000000000000000000000000000000000000000000000000815260040161239190613842565b60405180910390fd5b600260038111156123d4577f4e487b7100000000000000000000000000000000000000000000000000000000600052602160045260246000fd5b600360003373ffffffffffffffffffffffffffffffffffffffff1673ffffffffffffffffffffffffffffffffffffffff16815260200190815260200160002060010160009054906101000a900460ff16600381111561245c577f4e487b7100000000000000000000000000000000000000000000000000000000600052602160045260246000fd5b1461249c576040517f08c379a000000000000000000000000000000000000000000000000000000000815260040161249390613722565b60405180910390fd5b60006004600083815260200190815260200160002090503373ffffffffffffffffffffffffffffffffffffffff168160010160009054906101000a900473ffffffffffffffffffffffffffffffffffffffff1673ffffffffffffffffffffffffffffffffffffffff1614612545576040517f08c379a000000000000000000000000000000000000000000000000000000000815260040161253c906137e2565b60405180910390fd5b6001600581111561257f577f4e487b7100000000000000000000000000000000000000000000000000000000600052602160045260246000fd5b8160060160009054906101000a900460ff1660058111156125c9577f4e487b7100000000000000000000000000000000000000000000000000000000600052602160045260246000fd5b14612609576040517f08c379a000000000000000000000000000000000000000000000000000000000815260040161260090613702565b60405180910390fd5b60038160060160006101000a81548160ff02191690836005811115612657577f4e487b7100000000000000000000000000000000000000000000000000000000600052602160045260246000fd5b02179055503373ffffffffffffffffffffffffffffffffffffffff16827e7a04c23fac86b9f00290f402ccec895256f0b46ad331c80038b783acbfe41960405160405180910390a35050565b600360003373ffffffffffffffffffffffffffffffffffffffff1673ffffffffffffffffffffffffffffffffffffffff16815260200190815260200160002060030160009054906101000a900460ff16612732576040517f08c379a000000000000000000000000000000000000000000000000000000000815260040161272990613842565b60405180910390fd5b6002600381111561276c577f4e487b7100000000000000000000000000000000000000000000000000000000600052602160045260246000fd5b600360003373ffffffffffffffffffffffffffffffffffffffff1673ffffffffffffffffffffffffffffffffffffffff16815260200190815260200160002060010160009054906101000a900460ff1660038111156127f4577f4e487b7100000000000000000000000000000000000000000000000000000000600052602160045260246000fd5b14612834576040517f08c379a000000000000000000000000000000000000000000000000000000000815260040161282b90613722565b60405180910390fd5b60006004600084815260200190815260200160002090503373ffffffffffffffffffffffffffffffffffffffff168160010160009054906101000a900473ffffffffffffffffffffffffffffffffffffffff1673ffffffffffffffffffffffffffffffffffffffff16146128dd576040517f08c379a00000000000000000000000000000000000000000000000000000000081526004016128d490613902565b60405180910390fd5b60006005811115612917577f4e487b7100000000000000000000000000000000000000000000000000000000600052602160045260246000fd5b8160060160009054906101000a900460ff166005811115612961577f4e487b7100000000000000000000000000000000000000000000000000000000600052602160045260246000fd5b146129a1576040517f08c379a000000000000000000000000000000000000000000000000000000000815260040161299890613742565b60405180910390fd5b60006005600085815260200190815260200160002083815481106129ee577f4e487b7100000000000000000000000000000000000000000000000000000000600052603260045260246000fd5b9060005260206000209060040201604051806080016040529081600082015481526020016001820160009054906101000a900473ffffffffffffffffffffffffffffffffffffffff1673ffffffffffffffffffffffffffffffffffffffff1673ffffffffffffffffffffffffffffffffffffffff16815260200160028201548152602001600382018054612a8190613cf7565b80601f0160208091040260200160405190810160405280929190818152602001828054612aad90613cf7565b8015612afa5780601f10612acf57610100808354040283529160200191612afa565b820191906000526020600020905b815481529060010190602001808311612add57829003601f168201915b505050505081525050905080604001513414612b4b576040517f08c379a0000000000000000000000000000000000000000000000000000000008152600401612b4290613802565b60405180910390fd5b80602001518260080160006101000a81548173ffffffffffffffffffffffffffffffffffffffff021916908373ffffffffffffffffffffffffffffffffffffffff16021790555034826007018190555060018260060160006101000a81548160ff02191690836005811115612be9577f4e487b7100000000000000000000000000000000000000000000000000000000600052602160045260246000fd5b0217905550806020015173ffffffffffffffffffffffffffffffffffffffff163373ffffffffffffffffffffffffffffffffffffffff16857f3296be5329aa51bec44418f854418438cc19283bf0c117497123e5ccfa662d8e34604051612c509190613982565b60405180910390a450505050565b60008054906101000a900473ffffffffffffffffffffffffffffffffffffffff1681565b828054612c8e90613cf7565b90600052602060002090601f016020900481019282612cb05760008555612cf7565b82601f10612cc957805160ff1916838001178555612cf7565b82800160010185558215612cf7579182015b82811115612cf6578251825591602001919060010190612cdb565b5b509050612d049190612d08565b5090565b5b80821115612d21576000816000905550600101612d09565b5090565b6000612d38612d3384613ab5565b613a84565b905082815260208101848484011115612d5057600080fd5b612d5b848285613cb5565b509392505050565b600081359050612d7281613e96565b92915050565b600081359050612d8781613ead565b92915050565b600082601f830112612d9e57600080fd5b8135612dae848260208601612d25565b91505092915050565b600081359050612dc681613ec4565b92915050565b600081359050612ddb81613edb565b92915050565b600060208284031215612df357600080fd5b6000612e0184828501612d63565b91505092915050565b60008060008060808587031215612e2057600080fd5b600085013567ffffffffffffffff811115612e3a57600080fd5b612e4687828801612d8d565b945050602085013567ffffffffffffffff811115612e6357600080fd5b612e6f87828801612d8d565b9350506040612e8087828801612db7565b9250506060612e9187828801612db7565b91505092959194509250565b60008060408385031215612eb057600080fd5b600083013567ffffffffffffffff811115612eca57600080fd5b612ed685828601612d8d565b9250506020612ee785828601612dcc565b9150509250929050565b600060208284031215612f0357600080fd5b6000612f1184828501612db7565b91505092915050565b60008060408385031215612f2d57600080fd5b6000612f3b85828601612db7565b9250506020612f4c85828601612d78565b9150509250929050565b60008060408385031215612f6957600080fd5b6000612f7785828601612db7565b9250506020612f8885828601612db7565b9150509250929050565b600080600060608486031215612fa757600080fd5b6000612fb586828701612db7565b9350506020612fc686828701612db7565b925050604084013567ffffffffffffffff811115612fe357600080fd5b612fef86828701612d8d565b9150509250925092565b61300281613c16565b82525050565b61301181613c28565b82525050565b61302081613c91565b82525050565b61302f81613ca3565b82525050565b600061304082613ae5565b61304a8185613af0565b935061305a818560208601613cc4565b61306381613e5d565b840191505092915050565b600061307b602283613af0565b91507f4a6f62206d75737420626520696e2070726f677265737320746f20646973707560008301527f74650000000000000000000000000000000000000000000000000000000000006020830152604082019050919050565b60006130e1602483613af0565b91507f4f6e6c7920436c69656e74732063616e20706572666f726d207468697320616360008301527f74696f6e000000000000000000000000000000000000000000000000000000006020830152604082019050919050565b6000613147600f83613af0565b91507f4a6f62206973206e6f74206f70656e00000000000000000000000000000000006000830152602082019050919050565b6000613187600f83613af0565b91507f436c69656e7420526566756e64656400000000000000000000000000000000006000830152602082019050919050565b60006131c7602583613af0565b91507f4f6e6c79206465706c6f7965722063616e20726567697374657220617320417260008301527f62697465720000000000000000000000000000000000000000000000000000006020830152604082019050919050565b600061322d601383613af0565b91507f4a6f62206e6f7420696e2070726f6772657373000000000000000000000000006000830152602082019050919050565b600061326d602483613af0565b91507f4f6e6c7920417262697465722063616e20706572666f726d207468697320616360008301527f74696f6e000000000000000000000000000000000000000000000000000000006020830152604082019050919050565b60006132d3601a83613af0565b91507f4f6e6c79206a6f62206f776e65722063616e20646973707574650000000000006000830152602082019050919050565b6000613313601b83613af0565b91507f496e636f727265637420457468657220616d6f756e742073656e7400000000006000830152602082019050919050565b6000613353600c83613af0565b91507f496e76616c696420726f6c6500000000000000000000000000000000000000006000830152602082019050919050565b6000613393601783613af0565b91507f55736572206d75737420626520726567697374657265640000000000000000006000830152602082019050919050565b60006133d3601983613af0565b91507f52657075746174696f6e20746f6f206c6f7720746f20626964000000000000006000830152602082019050919050565b6000613413601a83613af0565b91507f4f6e6c79206a6f62206f776e65722063616e20617070726f76650000000000006000830152602082019050919050565b6000613453601783613af0565b91507f5573657220616c726561647920726567697374657265640000000000000000006000830152602082019050919050565b6000613493602883613af0565b91507f4f6e6c7920467265656c616e636572732063616e20706572666f726d2074686960008301527f7320616374696f6e0000000000000000000000000000000000000000000000006020830152604082019050919050565b60006134f9601e83613af0565b91507f596f7520617265206e6f7420686972656420666f722074686973206a6f6200006000830152602082019050919050565b6000613539601b83613af0565b91507f4f6e6c7920746865206a6f62206f776e65722063616e206869726500000000006000830152602082019050919050565b6000613579600f83613af0565b91507f467265656c616e636572205061696400000000000000000000000000000000006000830152602082019050919050565b60006135b9601383613af0565b91507f4a6f62206973206e6f74206469737075746564000000000000000000000000006000830152602082019050919050565b60006135f9601283613af0565b91507f42696420657863656564732062756467657400000000000000000000000000006000830152602082019050919050565b61363581613c7a565b82525050565b60006020820190506136506000830184612ff9565b92915050565b600060208201905081810360008301526136708184613035565b905092915050565b600060408201905081810360008301526136928185613035565b90506136a16020830184613026565b9392505050565b600060a08201905081810360008301526136c28188613035565b90506136d16020830187613026565b6136de6040830186612ff9565b6136eb606083018561362c565b6136f86080830184613008565b9695505050505050565b6000602082019050818103600083015261371b8161306e565b9050919050565b6000602082019050818103600083015261373b816130d4565b9050919050565b6000602082019050818103600083015261375b8161313a565b9050919050565b6000602082019050818103600083015261377b8161317a565b9050919050565b6000602082019050818103600083015261379b816131ba565b9050919050565b600060208201905081810360008301526137bb81613220565b9050919050565b600060208201905081810360008301526137db81613260565b9050919050565b600060208201905081810360008301526137fb816132c6565b9050919050565b6000602082019050818103600083015261381b81613306565b9050919050565b6000602082019050818103600083015261383b81613346565b9050919050565b6000602082019050818103600083015261385b81613386565b9050919050565b6000602082019050818103600083015261387b816133c6565b9050919050565b6000602082019050818103600083015261389b81613406565b9050919050565b600060208201905081810360008301526138bb81613446565b9050919050565b600060208201905081810360008301526138db81613486565b9050919050565b600060208201905081810360008301526138fb816134ec565b9050919050565b6000602082019050818103600083015261391b8161352c565b9050919050565b6000602082019050818103600083015261393b8161356c565b9050919050565b6000602082019050818103600083015261395b816135ac565b9050919050565b6000602082019050818103600083015261397b816135ec565b9050919050565b6000602082019050613997600083018461362c565b92915050565b6000610120820190506139b3600083018c61362c565b6139c0602083018b612ff9565b81810360408301526139d2818a613035565b905081810360608301526139e68189613035565b90506139f5608083018861362c565b613a0260a083018761362c565b613a0f60c0830186613017565b613a1c60e083018561362c565b613a2a610100830184612ff9565b9a9950505050505050505050565b6000608082019050613a4d600083018761362c565b613a5a6020830186612ff9565b613a67604083018561362c565b8181036060830152613a798184613035565b905095945050505050565b6000604051905081810181811067ffffffffffffffff82111715613aab57613aaa613e2e565b5b8060405250919050565b600067ffffffffffffffff821115613ad057613acf613e2e565b5b601f19601f8301169050602081019050919050565b600081519050919050565b600082825260208201905092915050565b6000613b0c82613c7a565b9150613b1783613c7a565b9250827fffffffffffffffffffffffffffffffffffffffffffffffffffffffffffffffff03821115613b4c57613b4b613d72565b5b828201905092915050565b6000613b6282613c7a565b9150613b6d83613c7a565b925082613b7d57613b7c613da1565b5b828204905092915050565b6000613b9382613c7a565b9150613b9e83613c7a565b9250817fffffffffffffffffffffffffffffffffffffffffffffffffffffffffffffffff0483118215151615613bd757613bd6613d72565b5b828202905092915050565b6000613bed82613c7a565b9150613bf883613c7a565b925082821015613c0b57613c0a613d72565b5b828203905092915050565b6000613c2182613c5a565b9050919050565b60008115159050919050565b6000819050613c4282613e6e565b919050565b6000819050613c5582613e82565b919050565b600073ffffffffffffffffffffffffffffffffffffffff82169050919050565b6000819050919050565b600060ff82169050919050565b6000613c9c82613c34565b9050919050565b6000613cae82613c47565b9050919050565b82818337600083830152505050565b60005b83811015613ce2578082015181840152602081019050613cc7565b83811115613cf1576000848401525b50505050565b60006002820490506001821680613d0f57607f821691505b60208210811415613d2357613d22613dff565b5b50919050565b6000613d3482613c7a565b91507fffffffffffffffffffffffffffffffffffffffffffffffffffffffffffffffff821415613d6757613d66613d72565b5b600182019050919050565b7f4e487b7100000000000000000000000000000000000000000000000000000000600052601160045260246000fd5b7f4e487b7100000000000000000000000000000000000000000000000000000000600052601260045260246000fd5b7f4e487b7100000000000000000000000000000000000000000000000000000000600052602160045260246000fd5b7f4e487b7100000000000000000000000000000000000000000000000000000000600052602260045260246000fd5b7f4e487b7100000000000000000000000000000000000000000000000000000000600052604160045260246000fd5b6000601f19601f8301169050919050565b60068110613e7f57613e7e613dd0565b5b50565b60048110613e9357613e92613dd0565b5b50565b613e9f81613c16565b8114613eaa57600080fd5b50565b613eb681613c28565b8114613ec157600080fd5b50565b613ecd81613c7a565b8114613ed857600080fd5b50565b613ee481613c84565b8114613eef57600080fd5b5056fea2646970667358221220cf7c44a019eb91857285f9b5c982d7df457104b659451187fcf0191c2b13d8fc64736f6c63430008000033",
					"opcodes": "PUSH1 0x80 PUSH1 0x40 MSTORE CALLVALUE DUP1 ISZERO PUSH2 0x10 JUMPI PUSH1 0x0 DUP1 REVERT JUMPDEST POP CALLER PUSH1 0x0 DUP1 PUSH2 0x100 EXP DUP2 SLOAD DUP2 PUSH20 0xFFFFFFFFFFFFFFFFFFFFFFFFFFFFFFFFFFFFFFFF MUL NOT AND SWAP1 DUP4 PUSH20 0xFFFFFFFFFFFFFFFFFFFFFFFFFFFFFFFFFFFFFFFF AND MUL OR SWAP1 SSTORE POP PUSH2 0x3F28 DUP1 PUSH2 0x60 PUSH1 0x0 CODECOPY PUSH1 0x0 RETURN INVALID PUSH1 0x80 PUSH1 0x40 MSTORE PUSH1 0x4 CALLDATASIZE LT PUSH2 0xDD JUMPI PUSH1 0x0 CALLDATALOAD PUSH1 0xE0 SHR DUP1 PUSH4 0x840850D1 GT PUSH2 0x7F JUMPI DUP1 PUSH4 0xC4C11523 GT PUSH2 0x59 JUMPI DUP1 PUSH4 0xC4C11523 EQ PUSH2 0x2CB JUMPI DUP1 PUSH4 0xD93D9BEB EQ PUSH2 0x2F4 JUMPI DUP1 PUSH4 0xF73B60A9 EQ PUSH2 0x31D JUMPI DUP1 PUSH4 0xFE25E00A EQ PUSH2 0x339 JUMPI PUSH2 0xDD JUMP JUMPDEST DUP1 PUSH4 0x840850D1 EQ PUSH2 0x21F JUMPI DUP1 PUSH4 0xA87430BA EQ PUSH2 0x25F JUMPI DUP1 PUSH4 0xB36FFCA6 EQ PUSH2 0x2A0 JUMPI PUSH2 0xDD JUMP JUMPDEST DUP1 PUSH4 0x3D01E0FA GT PUSH2 0xBB JUMPI DUP1 PUSH4 0x3D01E0FA EQ PUSH2 0x179 JUMPI DUP1 PUSH4 0x44739B52 EQ PUSH2 0x1A2 JUMPI DUP1 PUSH4 0x50355D76 EQ PUSH2 0x1CB JUMPI DUP1 PUSH4 0x71BF6BED EQ PUSH2 0x1F6 JUMPI PUSH2 0xDD JUMP JUMPDEST DUP1 PUSH4 0x180AEDF3 EQ PUSH2 0xE2 JUMPI DUP1 PUSH4 0x338E12EB EQ PUSH2 0x127 JUMPI DUP1 PUSH4 0x34B25EE2 EQ PUSH2 0x150 JUMPI JUMPDEST PUSH1 0x0 DUP1 REVERT JUMPDEST CALLVALUE DUP1 ISZERO PUSH2 0xEE JUMPI PUSH1 0x0 DUP1 REVERT JUMPDEST POP PUSH2 0x109 PUSH1 0x4 DUP1 CALLDATASIZE SUB DUP2 ADD SWAP1 PUSH2 0x104 SWAP2 SWAP1 PUSH2 0x2EF1 JUMP JUMPDEST PUSH2 0x364 JUMP JUMPDEST PUSH1 0x40 MLOAD PUSH2 0x11E SWAP10 SWAP9 SWAP8 SWAP7 SWAP6 SWAP5 SWAP4 SWAP3 SWAP2 SWAP1 PUSH2 0x399D JUMP JUMPDEST PUSH1 0x40 MLOAD DUP1 SWAP2 SUB SWAP1 RETURN JUMPDEST CALLVALUE DUP1 ISZERO PUSH2 0x133 JUMPI PUSH1 0x0 DUP1 REVERT JUMPDEST POP PUSH2 0x14E PUSH1 0x4 DUP1 CALLDATASIZE SUB DUP2 ADD SWAP1 PUSH2 0x149 SWAP2 SWAP1 PUSH2 0x2E9D JUMP JUMPDEST PUSH2 0x50F JUMP JUMPDEST STOP JUMPDEST CALLVALUE DUP1 ISZERO PUSH2 0x15C JUMPI PUSH1 0x0 DUP1 REVERT JUMPDEST POP PUSH2 0x177 PUSH1 0x4 DUP1 CALLDATASIZE SUB DUP2 ADD SWAP1 PUSH2 0x172 SWAP2 SWAP1 PUSH2 0x2F1A JUMP JUMPDEST PUSH2 0xB02 JUMP JUMPDEST STOP JUMPDEST CALLVALUE DUP1 ISZERO PUSH2 0x185 JUMPI PUSH1 0x0 DUP1 REVERT JUMPDEST POP PUSH2 0x1A0 PUSH1 0x4 DUP1 CALLDATASIZE SUB DUP2 ADD SWAP1 PUSH2 0x19B SWAP2 SWAP1 PUSH2 0x2EF1 JUMP JUMPDEST PUSH2 0xFF6 JUMP JUMPDEST STOP JUMPDEST CALLVALUE DUP1 ISZERO PUSH2 0x1AE JUMPI PUSH1 0x0 DUP1 REVERT JUMPDEST POP PUSH2 0x1C9 PUSH1 0x4 DUP1 CALLDATASIZE SUB DUP2 ADD SWAP1 PUSH2 0x1C4 SWAP2 SWAP1 PUSH2 0x2F92 JUMP JUMPDEST PUSH2 0x154B JUMP JUMPDEST STOP JUMPDEST CALLVALUE DUP1 ISZERO PUSH2 0x1D7 JUMPI PUSH1 0x0 DUP1 REVERT JUMPDEST POP PUSH2 0x1E0 PUSH2 0x19C5 JUMP JUMPDEST PUSH1 0x40 MLOAD PUSH2 0x1ED SWAP2 SWAP1 PUSH2 0x3982 JUMP JUMPDEST PUSH1 0x40 MLOAD DUP1 SWAP2 SUB SWAP1 RETURN JUMPDEST CALLVALUE DUP1 ISZERO PUSH2 0x202 JUMPI PUSH1 0x0 DUP1 REVERT JUMPDEST POP PUSH2 0x21D PUSH1 0x4 DUP1 CALLDATASIZE SUB DUP2 ADD SWAP1 PUSH2 0x218 SWAP2 SWAP1 PUSH2 0x2E0A JUMP JUMPDEST PUSH2 0x19CB JUMP JUMPDEST STOP JUMPDEST CALLVALUE DUP1 ISZERO PUSH2 0x22B JUMPI PUSH1 0x0 DUP1 REVERT JUMPDEST POP PUSH2 0x246 PUSH1 0x4 DUP1 CALLDATASIZE SUB DUP2 ADD SWAP1 PUSH2 0x241 SWAP2 SWAP1 PUSH2 0x2F56 JUMP JUMPDEST PUSH2 0x1DD3 JUMP JUMPDEST PUSH1 0x40 MLOAD PUSH2 0x256 SWAP5 SWAP4 SWAP3 SWAP2 SWAP1 PUSH2 0x3A38 JUMP JUMPDEST PUSH1 0x40 MLOAD DUP1 SWAP2 SUB SWAP1 RETURN JUMPDEST CALLVALUE DUP1 ISZERO PUSH2 0x26B JUMPI PUSH1 0x0 DUP1 REVERT JUMPDEST POP PUSH2 0x286 PUSH1 0x4 DUP1 CALLDATASIZE SUB DUP2 ADD SWAP1 PUSH2 0x281 SWAP2 SWAP1 PUSH2 0x2DE1 JUMP JUMPDEST PUSH2 0x1EC8 JUMP JUMPDEST PUSH1 0x40 MLOAD PUSH2 0x297 SWAP6 SWAP5 SWAP4 SWAP3 SWAP2 SWAP1 PUSH2 0x36A8 JUMP JUMPDEST PUSH1 0x40 MLOAD DUP1 SWAP2 SUB SWAP1 RETURN JUMPDEST CALLVALUE DUP1 ISZERO PUSH2 0x2AC JUMPI PUSH1 0x0 DUP1 REVERT JUMPDEST POP PUSH2 0x2B5 PUSH2 0x1FC0 JUMP JUMPDEST PUSH1 0x40 MLOAD PUSH2 0x2C2 SWAP2 SWAP1 PUSH2 0x3982 JUMP JUMPDEST PUSH1 0x40 MLOAD DUP1 SWAP2 SUB SWAP1 RETURN JUMPDEST CALLVALUE DUP1 ISZERO PUSH2 0x2D7 JUMPI PUSH1 0x0 DUP1 REVERT JUMPDEST POP PUSH2 0x2F2 PUSH1 0x4 DUP1 CALLDATASIZE SUB DUP2 ADD SWAP1 PUSH2 0x2ED SWAP2 SWAP1 PUSH2 0x2EF1 JUMP JUMPDEST PUSH2 0x1FC6 JUMP JUMPDEST STOP JUMPDEST CALLVALUE DUP1 ISZERO PUSH2 0x300 JUMPI PUSH1 0x0 DUP1 REVERT JUMPDEST POP PUSH2 0x31B PUSH1 0x4 DUP1 CALLDATASIZE SUB DUP2 ADD SWAP1 PUSH2 0x316 SWAP2 SWAP1 PUSH2 0x2EF1 JUMP JUMPDEST PUSH2 0x230B JUMP JUMPDEST STOP JUMPDEST PUSH2 0x337 PUSH1 0x4 DUP1 CALLDATASIZE SUB DUP2 ADD SWAP1 PUSH2 0x332 SWAP2 SWAP1 PUSH2 0x2F56 JUMP JUMPDEST PUSH2 0x26A3 JUMP JUMPDEST STOP JUMPDEST CALLVALUE DUP1 ISZERO PUSH2 0x345 JUMPI PUSH1 0x0 DUP1 REVERT JUMPDEST POP PUSH2 0x34E PUSH2 0x2C5E JUMP JUMPDEST PUSH1 0x40 MLOAD PUSH2 0x35B SWAP2 SWAP1 PUSH2 0x363B JUMP JUMPDEST PUSH1 0x40 MLOAD DUP1 SWAP2 SUB SWAP1 RETURN JUMPDEST PUSH1 0x4 PUSH1 0x20 MSTORE DUP1 PUSH1 0x0 MSTORE PUSH1 0x40 PUSH1 0x0 KECCAK256 PUSH1 0x0 SWAP2 POP SWAP1 POP DUP1 PUSH1 0x0 ADD SLOAD SWAP1 DUP1 PUSH1 0x1 ADD PUSH1 0x0 SWAP1 SLOAD SWAP1 PUSH2 0x100 EXP SWAP1 DIV PUSH20 0xFFFFFFFFFFFFFFFFFFFFFFFFFFFFFFFFFFFFFFFF AND SWAP1 DUP1 PUSH1 0x2 ADD DUP1 SLOAD PUSH2 0x3B3 SWAP1 PUSH2 0x3CF7 JUMP JUMPDEST DUP1 PUSH1 0x1F ADD PUSH1 0x20 DUP1 SWAP2 DIV MUL PUSH1 0x20 ADD PUSH1 0x40 MLOAD SWAP1 DUP2 ADD PUSH1 0x40 MSTORE DUP1 SWAP3 SWAP2 SWAP1 DUP2 DUP2 MSTORE PUSH1 0x20 ADD DUP3 DUP1 SLOAD PUSH2 0x3DF SWAP1 PUSH2 0x3CF7 JUMP JUMPDEST DUP1 ISZERO PUSH2 0x42C JUMPI DUP1 PUSH1 0x1F LT PUSH2 0x401 JUMPI PUSH2 0x100 DUP1 DUP4 SLOAD DIV MUL DUP4 MSTORE SWAP2 PUSH1 0x20 ADD SWAP2 PUSH2 0x42C JUMP JUMPDEST DUP3 ADD SWAP2 SWAP1 PUSH1 0x0 MSTORE PUSH1 0x20 PUSH1 0x0 KECCAK256 SWAP1 JUMPDEST DUP2 SLOAD DUP2 MSTORE SWAP1 PUSH1 0x1 ADD SWAP1 PUSH1 0x20 ADD DUP1 DUP4 GT PUSH2 0x40F JUMPI DUP3 SWAP1 SUB PUSH1 0x1F AND DUP3 ADD SWAP2 JUMPDEST POP POP POP POP POP SWAP1 DUP1 PUSH1 0x3 ADD DUP1 SLOAD PUSH2 0x441 SWAP1 PUSH2 0x3CF7 JUMP JUMPDEST DUP1 PUSH1 0x1F ADD PUSH1 0x20 DUP1 SWAP2 DIV MUL PUSH1 0x20 ADD PUSH1 0x40 MLOAD SWAP1 DUP2 ADD PUSH1 0x40 MSTORE DUP1 SWAP3 SWAP2 SWAP1 DUP2 DUP2 MSTORE PUSH1 0x20 ADD DUP3 DUP1 SLOAD PUSH2 0x46D SWAP1 PUSH2 0x3CF7 JUMP JUMPDEST DUP1 ISZERO PUSH2 0x4BA JUMPI DUP1 PUSH1 0x1F LT PUSH2 0x48F JUMPI PUSH2 0x100 DUP1 DUP4 SLOAD DIV MUL DUP4 MSTORE SWAP2 PUSH1 0x20 ADD SWAP2 PUSH2 0x4BA JUMP JUMPDEST DUP3 ADD SWAP2 SWAP1 PUSH1 0x0 MSTORE PUSH1 0x20 PUSH1 0x0 KECCAK256 SWAP1 JUMPDEST DUP2 SLOAD DUP2 MSTORE SWAP1 PUSH1 0x1 ADD SWAP1 PUSH1 0x20 ADD DUP1 DUP4 GT PUSH2 0x49D JUMPI DUP3 SWAP1 SUB PUSH1 0x1F AND DUP3 ADD SWAP2 JUMPDEST POP POP POP POP POP SWAP1 DUP1 PUSH1 0x4 ADD SLOAD SWAP1 DUP1 PUSH1 0x5 ADD SLOAD SWAP1 DUP1 PUSH1 0x6 ADD PUSH1 0x0 SWAP1 SLOAD SWAP1 PUSH2 0x100 EXP SWAP1 DIV PUSH1 0xFF AND SWAP1 DUP1 PUSH1 0x7 ADD SLOAD SWAP1 DUP1 PUSH1 0x8 ADD PUSH1 0x0 SWAP1 SLOAD SWAP1 PUSH2 0x100 EXP SWAP1 DIV PUSH20 0xFFFFFFFFFFFFFFFFFFFFFFFFFFFFFFFFFFFFFFFF AND SWAP1 POP DUP10 JUMP JUMPDEST PUSH1 0x3 PUSH1 0x0 CALLER PUSH20 0xFFFFFFFFFFFFFFFFFFFFFFFFFFFFFFFFFFFFFFFF AND PUSH20 0xFFFFFFFFFFFFFFFFFFFFFFFFFFFFFFFFFFFFFFFF AND DUP2 MSTORE PUSH1 0x20 ADD SWAP1 DUP2 MSTORE PUSH1 0x20 ADD PUSH1 0x0 KECCAK256 PUSH1 0x3 ADD PUSH1 0x0 SWAP1 SLOAD SWAP1 PUSH2 0x100 EXP SWAP1 DIV PUSH1 0xFF AND ISZERO PUSH2 0x59F JUMPI PUSH1 0x40 MLOAD PUSH32 0x8C379A000000000000000000000000000000000000000000000000000000000 DUP2 MSTORE PUSH1 0x4 ADD PUSH2 0x596 SWAP1 PUSH2 0x38A2 JUMP JUMPDEST PUSH1 0x40 MLOAD DUP1 SWAP2 SUB SWAP1 REVERT JUMPDEST PUSH1 0x0 DUP2 PUSH1 0xFF AND PUSH1 0x3 DUP2 GT ISZERO PUSH2 0x5DD JUMPI PUSH32 0x4E487B7100000000000000000000000000000000000000000000000000000000 PUSH1 0x0 MSTORE PUSH1 0x21 PUSH1 0x4 MSTORE PUSH1 0x24 PUSH1 0x0 REVERT JUMPDEST SWAP1 POP PUSH1 0x2 PUSH1 0x3 DUP2 GT ISZERO PUSH2 0x619 JUMPI PUSH32 0x4E487B7100000000000000000000000000000000000000000000000000000000 PUSH1 0x0 MSTORE PUSH1 0x21 PUSH1 0x4 MSTORE PUSH1 0x24 PUSH1 0x0 REVERT JUMPDEST DUP2 PUSH1 0x3 DUP2 GT ISZERO PUSH2 0x652 JUMPI PUSH32 0x4E487B7100000000000000000000000000000000000000000000000000000000 PUSH1 0x0 MSTORE PUSH1 0x21 PUSH1 0x4 MSTORE PUSH1 0x24 PUSH1 0x0 REVERT JUMPDEST EQ DUP1 PUSH2 0x6CD JUMPI POP PUSH1 0x3 DUP1 DUP2 GT ISZERO PUSH2 0x692 JUMPI PUSH32 0x4E487B7100000000000000000000000000000000000000000000000000000000 PUSH1 0x0 MSTORE PUSH1 0x21 PUSH1 0x4 MSTORE PUSH1 0x24 PUSH1 0x0 REVERT JUMPDEST DUP2 PUSH1 0x3 DUP2 GT ISZERO PUSH2 0x6CB JUMPI PUSH32 0x4E487B7100000000000000000000000000000000000000000000000000000000 PUSH1 0x0 MSTORE PUSH1 0x21 PUSH1 0x4 MSTORE PUSH1 0x24 PUSH1 0x0 REVERT JUMPDEST EQ JUMPDEST DUP1 PUSH2 0x748 JUMPI POP PUSH1 0x1 PUSH1 0x3 DUP2 GT ISZERO PUSH2 0x70D JUMPI PUSH32 0x4E487B7100000000000000000000000000000000000000000000000000000000 PUSH1 0x0 MSTORE PUSH1 0x21 PUSH1 0x4 MSTORE PUSH1 0x24 PUSH1 0x0 REVERT JUMPDEST DUP2 PUSH1 0x3 DUP2 GT ISZERO PUSH2 0x746 JUMPI PUSH32 0x4E487B7100000000000000000000000000000000000000000000000000000000 PUSH1 0x0 MSTORE PUSH1 0x21 PUSH1 0x4 MSTORE PUSH1 0x24 PUSH1 0x0 REVERT JUMPDEST EQ JUMPDEST PUSH2 0x787 JUMPI PUSH1 0x40 MLOAD PUSH32 0x8C379A000000000000000000000000000000000000000000000000000000000 DUP2 MSTORE PUSH1 0x4 ADD PUSH2 0x77E SWAP1 PUSH2 0x3822 JUMP JUMPDEST PUSH1 0x40 MLOAD DUP1 SWAP2 SUB SWAP1 REVERT JUMPDEST PUSH1 0x1 PUSH1 0x3 DUP2 GT ISZERO PUSH2 0x7C1 JUMPI PUSH32 0x4E487B7100000000000000000000000000000000000000000000000000000000 PUSH1 0x0 MSTORE PUSH1 0x21 PUSH1 0x4 MSTORE PUSH1 0x24 PUSH1 0x0 REVERT JUMPDEST DUP2 PUSH1 0x3 DUP2 GT ISZERO PUSH2 0x7FA JUMPI PUSH32 0x4E487B7100000000000000000000000000000000000000000000000000000000 PUSH1 0x0 MSTORE PUSH1 0x21 PUSH1 0x4 MSTORE PUSH1 0x24 PUSH1 0x0 REVERT JUMPDEST EQ ISZERO PUSH2 0x88F JUMPI PUSH1 0x0 DUP1 SLOAD SWAP1 PUSH2 0x100 EXP SWAP1 DIV PUSH20 0xFFFFFFFFFFFFFFFFFFFFFFFFFFFFFFFFFFFFFFFF AND PUSH20 0xFFFFFFFFFFFFFFFFFFFFFFFFFFFFFFFFFFFFFFFF AND CALLER PUSH20 0xFFFFFFFFFFFFFFFFFFFFFFFFFFFFFFFFFFFFFFFF AND EQ PUSH2 0x88E JUMPI PUSH1 0x40 MLOAD PUSH32 0x8C379A000000000000000000000000000000000000000000000000000000000 DUP2 MSTORE PUSH1 0x4 ADD PUSH2 0x885 SWAP1 PUSH2 0x3782 JUMP JUMPDEST PUSH1 0x40 MLOAD DUP1 SWAP2 SUB SWAP1 REVERT JUMPDEST JUMPDEST PUSH1 0x0 PUSH1 0x3 DUP1 DUP2 GT ISZERO PUSH2 0x8CA JUMPI PUSH32 0x4E487B7100000000000000000000000000000000000000000000000000000000 PUSH1 0x0 MSTORE PUSH1 0x21 PUSH1 0x4 MSTORE PUSH1 0x24 PUSH1 0x0 REVERT JUMPDEST DUP3 PUSH1 0x3 DUP2 GT ISZERO PUSH2 0x903 JUMPI PUSH32 0x4E487B7100000000000000000000000000000000000000000000000000000000 PUSH1 0x0 MSTORE PUSH1 0x21 PUSH1 0x4 MSTORE PUSH1 0x24 PUSH1 0x0 REVERT JUMPDEST EQ ISZERO PUSH2 0x90E JUMPI PUSH1 0x64 SWAP1 POP JUMPDEST PUSH1 0x40 MLOAD DUP1 PUSH1 0xA0 ADD PUSH1 0x40 MSTORE DUP1 DUP6 DUP2 MSTORE PUSH1 0x20 ADD DUP4 PUSH1 0x3 DUP2 GT ISZERO PUSH2 0x958 JUMPI PUSH32 0x4E487B7100000000000000000000000000000000000000000000000000000000 PUSH1 0x0 MSTORE PUSH1 0x21 PUSH1 0x4 MSTORE PUSH1 0x24 PUSH1 0x0 REVERT JUMPDEST DUP2 MSTORE PUSH1 0x20 ADD CALLER PUSH20 0xFFFFFFFFFFFFFFFFFFFFFFFFFFFFFFFFFFFFFFFF AND DUP2 MSTORE PUSH1 0x20 ADD DUP3 DUP2 MSTORE PUSH1 0x20 ADD PUSH1 0x1 ISZERO ISZERO DUP2 MSTORE POP PUSH1 0x3 PUSH1 0x0 CALLER PUSH20 0xFFFFFFFFFFFFFFFFFFFFFFFFFFFFFFFFFFFFFFFF AND PUSH20 0xFFFFFFFFFFFFFFFFFFFFFFFFFFFFFFFFFFFFFFFF AND DUP2 MSTORE PUSH1 0x20 ADD SWAP1 DUP2 MSTORE PUSH1 0x20 ADD PUSH1 0x0 KECCAK256 PUSH1 0x0 DUP3 ADD MLOAD DUP2 PUSH1 0x0 ADD SWAP1 DUP1 MLOAD SWAP1 PUSH1 0x20 ADD SWAP1 PUSH2 0x9E1 SWAP3 SWAP2 SWAP1 PUSH2 0x2C82 JUMP JUMPDEST POP PUSH1 0x20 DUP3 ADD MLOAD DUP2 PUSH1 0x1 ADD PUSH1 0x0 PUSH2 0x100 EXP DUP2 SLOAD DUP2 PUSH1 0xFF MUL NOT AND SWAP1 DUP4 PUSH1 0x3 DUP2 GT ISZERO PUSH2 0xA33 JUMPI PUSH32 0x4E487B7100000000000000000000000000000000000000000000000000000000 PUSH1 0x0 MSTORE PUSH1 0x21 PUSH1 0x4 MSTORE PUSH1 0x24 PUSH1 0x0 REVERT JUMPDEST MUL OR SWAP1 SSTORE POP PUSH1 0x40 DUP3 ADD MLOAD DUP2 PUSH1 0x1 ADD PUSH1 0x1 PUSH2 0x100 EXP DUP2 SLOAD DUP2 PUSH20 0xFFFFFFFFFFFFFFFFFFFFFFFFFFFFFFFFFFFFFFFF MUL NOT AND SWAP1 DUP4 PUSH20 0xFFFFFFFFFFFFFFFFFFFFFFFFFFFFFFFFFFFFFFFF AND MUL OR SWAP1 SSTORE POP PUSH1 0x60 DUP3 ADD MLOAD DUP2 PUSH1 0x2 ADD SSTORE PUSH1 0x80 DUP3 ADD MLOAD DUP2 PUSH1 0x3 ADD PUSH1 0x0 PUSH2 0x100 EXP DUP2 SLOAD DUP2 PUSH1 0xFF MUL NOT AND SWAP1 DUP4 ISZERO ISZERO MUL OR SWAP1 SSTORE POP SWAP1 POP POP CALLER PUSH20 0xFFFFFFFFFFFFFFFFFFFFFFFFFFFFFFFFFFFFFFFF AND PUSH32 0xC2E5D5DA58BD71D1A2D14CDEF02A4256D971B728088F8190D067CCFBAE3BD73E DUP6 DUP5 PUSH1 0x40 MLOAD PUSH2 0xAF4 SWAP3 SWAP2 SWAP1 PUSH2 0x3678 JUMP JUMPDEST PUSH1 0x40 MLOAD DUP1 SWAP2 SUB SWAP1 LOG2 POP POP POP POP JUMP JUMPDEST PUSH1 0x0 DUP1 SLOAD SWAP1 PUSH2 0x100 EXP SWAP1 DIV PUSH20 0xFFFFFFFFFFFFFFFFFFFFFFFFFFFFFFFFFFFFFFFF AND PUSH20 0xFFFFFFFFFFFFFFFFFFFFFFFFFFFFFFFFFFFFFFFF AND CALLER PUSH20 0xFFFFFFFFFFFFFFFFFFFFFFFFFFFFFFFFFFFFFFFF AND EQ PUSH2 0xB90 JUMPI PUSH1 0x40 MLOAD PUSH32 0x8C379A000000000000000000000000000000000000000000000000000000000 DUP2 MSTORE PUSH1 0x4 ADD PUSH2 0xB87 SWAP1 PUSH2 0x37C2 JUMP JUMPDEST PUSH1 0x40 MLOAD DUP1 SWAP2 SUB SWAP1 REVERT JUMPDEST PUSH1 0x0 PUSH1 0x4 PUSH1 0x0 DUP5 DUP2 MSTORE PUSH1 0x20 ADD SWAP1 DUP2 MSTORE PUSH1 0x20 ADD PUSH1 0x0 KECCAK256 SWAP1 POP PUSH1 0x3 PUSH1 0x5 DUP2 GT ISZERO PUSH2 0xBE1 JUMPI PUSH32 0x4E487B7100000000000000000000000000000000000000000000000000000000 PUSH1 0x0 MSTORE PUSH1 0x21 PUSH1 0x4 MSTORE PUSH1 0x24 PUSH1 0x0 REVERT JUMPDEST DUP2 PUSH1 0x6 ADD PUSH1 0x0 SWAP1 SLOAD SWAP1 PUSH2 0x100 EXP SWAP1 DIV PUSH1 0xFF AND PUSH1 0x5 DUP2 GT ISZERO PUSH2 0xC2B JUMPI PUSH32 0x4E487B7100000000000000000000000000000000000000000000000000000000 PUSH1 0x0 MSTORE PUSH1 0x21 PUSH1 0x4 MSTORE PUSH1 0x24 PUSH1 0x0 REVERT JUMPDEST EQ PUSH2 0xC6B JUMPI PUSH1 0x40 MLOAD PUSH32 0x8C379A000000000000000000000000000000000000000000000000000000000 DUP2 MSTORE PUSH1 0x4 ADD PUSH2 0xC62 SWAP1 PUSH2 0x3942 JUMP JUMPDEST PUSH1 0x40 MLOAD DUP1 SWAP2 SUB SWAP1 REVERT JUMPDEST PUSH1 0x0 DUP2 PUSH1 0x7 ADD SLOAD SWAP1 POP PUSH1 0x0 DUP3 PUSH1 0x7 ADD DUP2 SWAP1 SSTORE POP PUSH1 0x4 DUP3 PUSH1 0x6 ADD PUSH1 0x0 PUSH2 0x100 EXP DUP2 SLOAD DUP2 PUSH1 0xFF MUL NOT AND SWAP1 DUP4 PUSH1 0x5 DUP2 GT ISZERO PUSH2 0xCCC JUMPI PUSH32 0x4E487B7100000000000000000000000000000000000000000000000000000000 PUSH1 0x0 MSTORE PUSH1 0x21 PUSH1 0x4 MSTORE PUSH1 0x24 PUSH1 0x0 REVERT JUMPDEST MUL OR SWAP1 SSTORE POP DUP3 ISZERO PUSH2 0xDF0 JUMPI PUSH1 0x0 PUSH8 0xDE0B6B3A7640000 DUP3 LT ISZERO PUSH2 0xD09 JUMPI PUSH1 0x64 PUSH1 0x2 DUP4 PUSH2 0xCF8 SWAP2 SWAP1 PUSH2 0x3B88 JUMP JUMPDEST PUSH2 0xD02 SWAP2 SWAP1 PUSH2 0x3B57 JUMP JUMPDEST SWAP1 POP PUSH2 0xD25 JUMP JUMPDEST PUSH1 0x64 PUSH1 0x1 DUP4 PUSH2 0xD18 SWAP2 SWAP1 PUSH2 0x3B88 JUMP JUMPDEST PUSH2 0xD22 SWAP2 SWAP1 PUSH2 0x3B57 JUMP JUMPDEST SWAP1 POP JUMPDEST DUP1 PUSH1 0x2 PUSH1 0x0 DUP3 DUP3 SLOAD PUSH2 0xD37 SWAP2 SWAP1 PUSH2 0x3B01 JUMP JUMPDEST SWAP3 POP POP DUP2 SWAP1 SSTORE POP DUP3 PUSH1 0x8 ADD PUSH1 0x0 SWAP1 SLOAD SWAP1 PUSH2 0x100 EXP SWAP1 DIV PUSH20 0xFFFFFFFFFFFFFFFFFFFFFFFFFFFFFFFFFFFFFFFF AND PUSH20 0xFFFFFFFFFFFFFFFFFFFFFFFFFFFFFFFFFFFFFFFF AND PUSH2 0x8FC DUP3 DUP5 PUSH2 0xD88 SWAP2 SWAP1 PUSH2 0x3BE2 JUMP JUMPDEST SWAP1 DUP2 ISZERO MUL SWAP1 PUSH1 0x40 MLOAD PUSH1 0x0 PUSH1 0x40 MLOAD DUP1 DUP4 SUB DUP2 DUP6 DUP9 DUP9 CALL SWAP4 POP POP POP POP ISZERO DUP1 ISZERO PUSH2 0xDB3 JUMPI RETURNDATASIZE PUSH1 0x0 DUP1 RETURNDATACOPY RETURNDATASIZE PUSH1 0x0 REVERT JUMPDEST POP DUP5 PUSH32 0x831764AC02A33C193CBA23A0DE34C986E9B50402BF3C9FEBF6FF2F63D4C0435D PUSH1 0x40 MLOAD PUSH2 0xDE2 SWAP1 PUSH2 0x3922 JUMP JUMPDEST PUSH1 0x40 MLOAD DUP1 SWAP2 SUB SWAP1 LOG2 POP PUSH2 0xFF0 JUMP JUMPDEST PUSH1 0x14 PUSH1 0x3 PUSH1 0x0 DUP5 PUSH1 0x8 ADD PUSH1 0x0 SWAP1 SLOAD SWAP1 PUSH2 0x100 EXP SWAP1 DIV PUSH20 0xFFFFFFFFFFFFFFFFFFFFFFFFFFFFFFFFFFFFFFFF AND PUSH20 0xFFFFFFFFFFFFFFFFFFFFFFFFFFFFFFFFFFFFFFFF AND PUSH20 0xFFFFFFFFFFFFFFFFFFFFFFFFFFFFFFFFFFFFFFFF AND DUP2 MSTORE PUSH1 0x20 ADD SWAP1 DUP2 MSTORE PUSH1 0x20 ADD PUSH1 0x0 KECCAK256 PUSH1 0x2 ADD SLOAD LT PUSH2 0xEE1 JUMPI PUSH1 0x14 PUSH1 0x3 PUSH1 0x0 DUP5 PUSH1 0x8 ADD PUSH1 0x0 SWAP1 SLOAD SWAP1 PUSH2 0x100 EXP SWAP1 DIV PUSH20 0xFFFFFFFFFFFFFFFFFFFFFFFFFFFFFFFFFFFFFFFF AND PUSH20 0xFFFFFFFFFFFFFFFFFFFFFFFFFFFFFFFFFFFFFFFF AND PUSH20 0xFFFFFFFFFFFFFFFFFFFFFFFFFFFFFFFFFFFFFFFF AND DUP2 MSTORE PUSH1 0x20 ADD SWAP1 DUP2 MSTORE PUSH1 0x20 ADD PUSH1 0x0 KECCAK256 PUSH1 0x2 ADD PUSH1 0x0 DUP3 DUP3 SLOAD PUSH2 0xED5 SWAP2 SWAP1 PUSH2 0x3BE2 JUMP JUMPDEST SWAP3 POP POP DUP2 SWAP1 SSTORE POP PUSH2 0xF4E JUMP JUMPDEST PUSH1 0x0 PUSH1 0x3 PUSH1 0x0 DUP5 PUSH1 0x8 ADD PUSH1 0x0 SWAP1 SLOAD SWAP1 PUSH2 0x100 EXP SWAP1 DIV PUSH20 0xFFFFFFFFFFFFFFFFFFFFFFFFFFFFFFFFFFFFFFFF AND PUSH20 0xFFFFFFFFFFFFFFFFFFFFFFFFFFFFFFFFFFFFFFFF AND PUSH20 0xFFFFFFFFFFFFFFFFFFFFFFFFFFFFFFFFFFFFFFFF AND DUP2 MSTORE PUSH1 0x20 ADD SWAP1 DUP2 MSTORE PUSH1 0x20 ADD PUSH1 0x0 KECCAK256 PUSH1 0x2 ADD DUP2 SWAP1 SSTORE POP JUMPDEST DUP2 PUSH1 0x1 ADD PUSH1 0x0 SWAP1 SLOAD SWAP1 PUSH2 0x100 EXP SWAP1 DIV PUSH20 0xFFFFFFFFFFFFFFFFFFFFFFFFFFFFFFFFFFFFFFFF AND PUSH20 0xFFFFFFFFFFFFFFFFFFFFFFFFFFFFFFFFFFFFFFFF AND PUSH2 0x8FC DUP3 SWAP1 DUP2 ISZERO MUL SWAP1 PUSH1 0x40 MLOAD PUSH1 0x0 PUSH1 0x40 MLOAD DUP1 DUP4 SUB DUP2 DUP6 DUP9 DUP9 CALL SWAP4 POP POP POP POP ISZERO DUP1 ISZERO PUSH2 0xFB8 JUMPI RETURNDATASIZE PUSH1 0x0 DUP1 RETURNDATACOPY RETURNDATASIZE PUSH1 0x0 REVERT JUMPDEST POP DUP4 PUSH32 0x831764AC02A33C193CBA23A0DE34C986E9B50402BF3C9FEBF6FF2F63D4C0435D PUSH1 0x40 MLOAD PUSH2 0xFE7 SWAP1 PUSH2 0x3762 JUMP JUMPDEST PUSH1 0x40 MLOAD DUP1 SWAP2 SUB SWAP1 LOG2 JUMPDEST POP POP POP POP JUMP JUMPDEST PUSH1 0x3 PUSH1 0x0 CALLER PUSH20 0xFFFFFFFFFFFFFFFFFFFFFFFFFFFFFFFFFFFFFFFF AND PUSH20 0xFFFFFFFFFFFFFFFFFFFFFFFFFFFFFFFFFFFFFFFF AND DUP2 MSTORE PUSH1 0x20 ADD SWAP1 DUP2 MSTORE PUSH1 0x20 ADD PUSH1 0x0 KECCAK256 PUSH1 0x3 ADD PUSH1 0x0 SWAP1 SLOAD SWAP1 PUSH2 0x100 EXP SWAP1 DIV PUSH1 0xFF AND PUSH2 0x1085 JUMPI PUSH1 0x40 MLOAD PUSH32 0x8C379A000000000000000000000000000000000000000000000000000000000 DUP2 MSTORE PUSH1 0x4 ADD PUSH2 0x107C SWAP1 PUSH2 0x3842 JUMP JUMPDEST PUSH1 0x40 MLOAD DUP1 SWAP2 SUB SWAP1 REVERT JUMPDEST PUSH1 0x2 PUSH1 0x3 DUP2 GT ISZERO PUSH2 0x10BF JUMPI PUSH32 0x4E487B7100000000000000000000000000000000000000000000000000000000 PUSH1 0x0 MSTORE PUSH1 0x21 PUSH1 0x4 MSTORE PUSH1 0x24 PUSH1 0x0 REVERT JUMPDEST PUSH1 0x3 PUSH1 0x0 CALLER PUSH20 0xFFFFFFFFFFFFFFFFFFFFFFFFFFFFFFFFFFFFFFFF AND PUSH20 0xFFFFFFFFFFFFFFFFFFFFFFFFFFFFFFFFFFFFFFFF AND DUP2 MSTORE PUSH1 0x20 ADD SWAP1 DUP2 MSTORE PUSH1 0x20 ADD PUSH1 0x0 KECCAK256 PUSH1 0x1 ADD PUSH1 0x0 SWAP1 SLOAD SWAP1 PUSH2 0x100 EXP SWAP1 DIV PUSH1 0xFF AND PUSH1 0x3 DUP2 GT ISZERO PUSH2 0x1147 JUMPI PUSH32 0x4E487B7100000000000000000000000000000000000000000000000000000000 PUSH1 0x0 MSTORE PUSH1 0x21 PUSH1 0x4 MSTORE PUSH1 0x24 PUSH1 0x0 REVERT JUMPDEST EQ PUSH2 0x1187 JUMPI PUSH1 0x40 MLOAD PUSH32 0x8C379A000000000000000000000000000000000000000000000000000000000 DUP2 MSTORE PUSH1 0x4 ADD PUSH2 0x117E SWAP1 PUSH2 0x3722 JUMP JUMPDEST PUSH1 0x40 MLOAD DUP1 SWAP2 SUB SWAP1 REVERT JUMPDEST PUSH1 0x0 PUSH1 0x4 PUSH1 0x0 DUP4 DUP2 MSTORE PUSH1 0x20 ADD SWAP1 DUP2 MSTORE PUSH1 0x20 ADD PUSH1 0x0 KECCAK256 SWAP1 POP CALLER PUSH20 0xFFFFFFFFFFFFFFFFFFFFFFFFFFFFFFFFFFFFFFFF AND DUP2 PUSH1 0x1 ADD PUSH1 0x0 SWAP1 SLOAD SWAP1 PUSH2 0x100 EXP SWAP1 DIV PUSH20 0xFFFFFFFFFFFFFFFFFFFFFFFFFFFFFFFFFFFFFFFF AND PUSH20 0xFFFFFFFFFFFFFFFFFFFFFFFFFFFFFFFFFFFFFFFF AND EQ PUSH2 0x1230 JUMPI PUSH1 0x40 MLOAD PUSH32 0x8C379A000000000000000000000000000000000000000000000000000000000 DUP2 MSTORE PUSH1 0x4 ADD PUSH2 0x1227 SWAP1 PUSH2 0x3882 JUMP JUMPDEST PUSH1 0x40 MLOAD DUP1 SWAP2 SUB SWAP1 REVERT JUMPDEST PUSH1 0x1 PUSH1 0x5 DUP2 GT ISZERO PUSH2 0x126A JUMPI PUSH32 0x4E487B7100000000000000000000000000000000000000000000000000000000 PUSH1 0x0 MSTORE PUSH1 0x21 PUSH1 0x4 MSTORE PUSH1 0x24 PUSH1 0x0 REVERT JUMPDEST DUP2 PUSH1 0x6 ADD PUSH1 0x0 SWAP1 SLOAD SWAP1 PUSH2 0x100 EXP SWAP1 DIV PUSH1 0xFF AND PUSH1 0x5 DUP2 GT ISZERO PUSH2 0x12B4 JUMPI PUSH32 0x4E487B7100000000000000000000000000000000000000000000000000000000 PUSH1 0x0 MSTORE PUSH1 0x21 PUSH1 0x4 MSTORE PUSH1 0x24 PUSH1 0x0 REVERT JUMPDEST EQ PUSH2 0x12F4 JUMPI PUSH1 0x40 MLOAD PUSH32 0x8C379A000000000000000000000000000000000000000000000000000000000 DUP2 MSTORE PUSH1 0x4 ADD PUSH2 0x12EB SWAP1 PUSH2 0x37A2 JUMP JUMPDEST PUSH1 0x40 MLOAD DUP1 SWAP2 SUB SWAP1 REVERT JUMPDEST PUSH1 0x0 DUP2 PUSH1 0x7 ADD SLOAD SWAP1 POP PUSH1 0x0 PUSH8 0xDE0B6B3A7640000 DUP3 LT ISZERO PUSH2 0x132F JUMPI PUSH1 0x64 PUSH1 0x2 DUP4 PUSH2 0x131E SWAP2 SWAP1 PUSH2 0x3B88 JUMP JUMPDEST PUSH2 0x1328 SWAP2 SWAP1 PUSH2 0x3B57 JUMP JUMPDEST SWAP1 POP PUSH2 0x134B JUMP JUMPDEST PUSH1 0x64 PUSH1 0x1 DUP4 PUSH2 0x133E SWAP2 SWAP1 PUSH2 0x3B88 JUMP JUMPDEST PUSH2 0x1348 SWAP2 SWAP1 PUSH2 0x3B57 JUMP JUMPDEST SWAP1 POP JUMPDEST PUSH1 0x0 DUP2 DUP4 PUSH2 0x1359 SWAP2 SWAP1 PUSH2 0x3BE2 JUMP JUMPDEST SWAP1 POP DUP2 PUSH1 0x2 PUSH1 0x0 DUP3 DUP3 SLOAD PUSH2 0x136D SWAP2 SWAP1 PUSH2 0x3B01 JUMP JUMPDEST SWAP3 POP POP DUP2 SWAP1 SSTORE POP PUSH1 0x5 DUP5 PUSH1 0x6 ADD PUSH1 0x0 PUSH2 0x100 EXP DUP2 SLOAD DUP2 PUSH1 0xFF MUL NOT AND SWAP1 DUP4 PUSH1 0x5 DUP2 GT ISZERO PUSH2 0x13C2 JUMPI PUSH32 0x4E487B7100000000000000000000000000000000000000000000000000000000 PUSH1 0x0 MSTORE PUSH1 0x21 PUSH1 0x4 MSTORE PUSH1 0x24 PUSH1 0x0 REVERT JUMPDEST MUL OR SWAP1 SSTORE POP PUSH1 0x0 DUP5 PUSH1 0x7 ADD DUP2 SWAP1 SSTORE POP PUSH1 0xA PUSH1 0x3 PUSH1 0x0 DUP7 PUSH1 0x8 ADD PUSH1 0x0 SWAP1 SLOAD SWAP1 PUSH2 0x100 EXP SWAP1 DIV PUSH20 0xFFFFFFFFFFFFFFFFFFFFFFFFFFFFFFFFFFFFFFFF AND PUSH20 0xFFFFFFFFFFFFFFFFFFFFFFFFFFFFFFFFFFFFFFFF AND PUSH20 0xFFFFFFFFFFFFFFFFFFFFFFFFFFFFFFFFFFFFFFFF AND DUP2 MSTORE PUSH1 0x20 ADD SWAP1 DUP2 MSTORE PUSH1 0x20 ADD PUSH1 0x0 KECCAK256 PUSH1 0x2 ADD PUSH1 0x0 DUP3 DUP3 SLOAD PUSH2 0x1448 SWAP2 SWAP1 PUSH2 0x3B01 JUMP JUMPDEST SWAP3 POP POP DUP2 SWAP1 SSTORE POP DUP4 PUSH1 0x8 ADD PUSH1 0x0 SWAP1 SLOAD SWAP1 PUSH2 0x100 EXP SWAP1 DIV PUSH20 0xFFFFFFFFFFFFFFFFFFFFFFFFFFFFFFFFFFFFFFFF AND PUSH20 0xFFFFFFFFFFFFFFFFFFFFFFFFFFFFFFFFFFFFFFFF AND PUSH2 0x8FC DUP3 SWAP1 DUP2 ISZERO MUL SWAP1 PUSH1 0x40 MLOAD PUSH1 0x0 PUSH1 0x40 MLOAD DUP1 DUP4 SUB DUP2 DUP6 DUP9 DUP9 CALL SWAP4 POP POP POP POP ISZERO DUP1 ISZERO PUSH2 0x14B9 JUMPI RETURNDATASIZE PUSH1 0x0 DUP1 RETURNDATACOPY RETURNDATASIZE PUSH1 0x0 REVERT JUMPDEST POP DUP4 PUSH1 0x8 ADD PUSH1 0x0 SWAP1 SLOAD SWAP1 PUSH2 0x100 EXP SWAP1 DIV PUSH20 0xFFFFFFFFFFFFFFFFFFFFFFFFFFFFFFFFFFFFFFFF AND PUSH20 0xFFFFFFFFFFFFFFFFFFFFFFFFFFFFFFFFFFFFFFFF AND CALLER PUSH20 0xFFFFFFFFFFFFFFFFFFFFFFFFFFFFFFFFFFFFFFFF AND DUP7 PUSH32 0x38BA31AFAB7A6F7C4F61E48A6DD88917047EA884C3659FA86145E037C2216276 DUP6 PUSH1 0x40 MLOAD PUSH2 0x153C SWAP2 SWAP1 PUSH2 0x3982 JUMP JUMPDEST PUSH1 0x40 MLOAD DUP1 SWAP2 SUB SWAP1 LOG4 POP POP POP POP POP JUMP JUMPDEST PUSH1 0x3 PUSH1 0x0 CALLER PUSH20 0xFFFFFFFFFFFFFFFFFFFFFFFFFFFFFFFFFFFFFFFF AND PUSH20 0xFFFFFFFFFFFFFFFFFFFFFFFFFFFFFFFFFFFFFFFF AND DUP2 MSTORE PUSH1 0x20 ADD SWAP1 DUP2 MSTORE PUSH1 0x20 ADD PUSH1 0x0 KECCAK256 PUSH1 0x3 ADD PUSH1 0x0 SWAP1 SLOAD SWAP1 PUSH2 0x100 EXP SWAP1 DIV PUSH1 0xFF AND PUSH2 0x15DA JUMPI PUSH1 0x40 MLOAD PUSH32 0x8C379A000000000000000000000000000000000000000000000000000000000 DUP2 MSTORE PUSH1 0x4 ADD PUSH2 0x15D1 SWAP1 PUSH2 0x3842 JUMP JUMPDEST PUSH1 0x40 MLOAD DUP1 SWAP2 SUB SWAP1 REVERT JUMPDEST PUSH1 0x3 DUP1 DUP2 GT ISZERO PUSH2 0x1613 JUMPI PUSH32 0x4E487B7100000000000000000000000000000000000000000000000000000000 PUSH1 0x0 MSTORE PUSH1 0x21 PUSH1 0x4 MSTORE PUSH1 0x24 PUSH1 0x0 REVERT JUMPDEST PUSH1 0x3 PUSH1 0x0 CALLER PUSH20 0xFFFFFFFFFFFFFFFFFFFFFFFFFFFFFFFFFFFFFFFF AND PUSH20 0xFFFFFFFFFFFFFFFFFFFFFFFFFFFFFFFFFFFFFFFF AND DUP2 MSTORE PUSH1 0x20 ADD SWAP1 DUP2 MSTORE PUSH1 0x20 ADD PUSH1 0x0 KECCAK256 PUSH1 0x1 ADD PUSH1 0x0 SWAP1 SLOAD SWAP1 PUSH2 0x100 EXP SWAP1 DIV PUSH1 0xFF AND PUSH1 0x3 DUP2 GT ISZERO PUSH2 0x169B JUMPI PUSH32 0x4E487B7100000000000000000000000000000000000000000000000000000000 PUSH1 0x0 MSTORE PUSH1 0x21 PUSH1 0x4 MSTORE PUSH1 0x24 PUSH1 0x0 REVERT JUMPDEST EQ PUSH2 0x16DB JUMPI PUSH1 0x40 MLOAD PUSH32 0x8C379A000000000000000000000000000000000000000000000000000000000 DUP2 MSTORE PUSH1 0x4 ADD PUSH2 0x16D2 SWAP1 PUSH2 0x38C2 JUMP JUMPDEST PUSH1 0x40 MLOAD DUP1 SWAP2 SUB SWAP1 REVERT JUMPDEST PUSH1 0x0 PUSH1 0x4 PUSH1 0x0 DUP6 DUP2 MSTORE PUSH1 0x20 ADD SWAP1 DUP2 MSTORE PUSH1 0x20 ADD PUSH1 0x0 KECCAK256 SWAP1 POP PUSH1 0x0 PUSH1 0x5 DUP2 GT ISZERO PUSH2 0x172C JUMPI PUSH32 0x4E487B7100000000000000000000000000000000000000000000000000000000 PUSH1 0x0 MSTORE PUSH1 0x21 PUSH1 0x4 MSTORE PUSH1 0x24 PUSH1 0x0 REVERT JUMPDEST DUP2 PUSH1 0x6 ADD PUSH1 0x0 SWAP1 SLOAD SWAP1 PUSH2 0x100 EXP SWAP1 DIV PUSH1 0xFF AND PUSH1 0x5 DUP2 GT ISZERO PUSH2 0x1776 JUMPI PUSH32 0x4E487B7100000000000000000000000000000000000000000000000000000000 PUSH1 0x0 MSTORE PUSH1 0x21 PUSH1 0x4 MSTORE PUSH1 0x24 PUSH1 0x0 REVERT JUMPDEST EQ PUSH2 0x17B6 JUMPI PUSH1 0x40 MLOAD PUSH32 0x8C379A000000000000000000000000000000000000000000000000000000000 DUP2 MSTORE PUSH1 0x4 ADD PUSH2 0x17AD SWAP1 PUSH2 0x3742 JUMP JUMPDEST PUSH1 0x40 MLOAD DUP1 SWAP2 SUB SWAP1 REVERT JUMPDEST DUP1 PUSH1 0x4 ADD SLOAD DUP4 GT ISZERO PUSH2 0x17FD JUMPI PUSH1 0x40 MLOAD PUSH32 0x8C379A000000000000000000000000000000000000000000000000000000000 DUP2 MSTORE PUSH1 0x4 ADD PUSH2 0x17F4 SWAP1 PUSH2 0x3962 JUMP JUMPDEST PUSH1 0x40 MLOAD DUP1 SWAP2 SUB SWAP1 REVERT JUMPDEST PUSH1 0x32 PUSH1 0x3 PUSH1 0x0 CALLER PUSH20 0xFFFFFFFFFFFFFFFFFFFFFFFFFFFFFFFFFFFFFFFF AND PUSH20 0xFFFFFFFFFFFFFFFFFFFFFFFFFFFFFFFFFFFFFFFF AND DUP2 MSTORE PUSH1 0x20 ADD SWAP1 DUP2 MSTORE PUSH1 0x20 ADD PUSH1 0x0 KECCAK256 PUSH1 0x2 ADD SLOAD LT ISZERO PUSH2 0x1883 JUMPI PUSH1 0x40 MLOAD PUSH32 0x8C379A000000000000000000000000000000000000000000000000000000000 DUP2 MSTORE PUSH1 0x4 ADD PUSH2 0x187A SWAP1 PUSH2 0x3862 JUMP JUMPDEST PUSH1 0x40 MLOAD DUP1 SWAP2 SUB SWAP1 REVERT JUMPDEST PUSH1 0x5 PUSH1 0x0 DUP6 DUP2 MSTORE PUSH1 0x20 ADD SWAP1 DUP2 MSTORE PUSH1 0x20 ADD PUSH1 0x0 KECCAK256 PUSH1 0x40 MLOAD DUP1 PUSH1 0x80 ADD PUSH1 0x40 MSTORE DUP1 DUP7 DUP2 MSTORE PUSH1 0x20 ADD CALLER PUSH20 0xFFFFFFFFFFFFFFFFFFFFFFFFFFFFFFFFFFFFFFFF AND DUP2 MSTORE PUSH1 0x20 ADD DUP6 DUP2 MSTORE PUSH1 0x20 ADD DUP5 DUP2 MSTORE POP SWAP1 DUP1 PUSH1 0x1 DUP2 SLOAD ADD DUP1 DUP3 SSTORE DUP1 SWAP2 POP POP PUSH1 0x1 SWAP1 SUB SWAP1 PUSH1 0x0 MSTORE PUSH1 0x20 PUSH1 0x0 KECCAK256 SWAP1 PUSH1 0x4 MUL ADD PUSH1 0x0 SWAP1 SWAP2 SWAP1 SWAP2 SWAP1 SWAP2 POP PUSH1 0x0 DUP3 ADD MLOAD DUP2 PUSH1 0x0 ADD SSTORE PUSH1 0x20 DUP3 ADD MLOAD DUP2 PUSH1 0x1 ADD PUSH1 0x0 PUSH2 0x100 EXP DUP2 SLOAD DUP2 PUSH20 0xFFFFFFFFFFFFFFFFFFFFFFFFFFFFFFFFFFFFFFFF MUL NOT AND SWAP1 DUP4 PUSH20 0xFFFFFFFFFFFFFFFFFFFFFFFFFFFFFFFFFFFFFFFF AND MUL OR SWAP1 SSTORE POP PUSH1 0x40 DUP3 ADD MLOAD DUP2 PUSH1 0x2 ADD SSTORE PUSH1 0x60 DUP3 ADD MLOAD DUP2 PUSH1 0x3 ADD SWAP1 DUP1 MLOAD SWAP1 PUSH1 0x20 ADD SWAP1 PUSH2 0x196D SWAP3 SWAP2 SWAP1 PUSH2 0x2C82 JUMP JUMPDEST POP POP POP CALLER PUSH20 0xFFFFFFFFFFFFFFFFFFFFFFFFFFFFFFFFFFFFFFFF AND DUP5 PUSH32 0xE54EFF26401BF69B81B26F60BD85EF47F5D85275C1D268D84F68D6897431C47 DUP6 PUSH1 0x40 MLOAD PUSH2 0x19B7 SWAP2 SWAP1 PUSH2 0x3982 JUMP JUMPDEST PUSH1 0x40 MLOAD DUP1 SWAP2 SUB SWAP1 LOG3 POP POP POP POP JUMP JUMPDEST PUSH1 0x1 SLOAD DUP2 JUMP JUMPDEST PUSH1 0x3 PUSH1 0x0 CALLER PUSH20 0xFFFFFFFFFFFFFFFFFFFFFFFFFFFFFFFFFFFFFFFF AND PUSH20 0xFFFFFFFFFFFFFFFFFFFFFFFFFFFFFFFFFFFFFFFF AND DUP2 MSTORE PUSH1 0x20 ADD SWAP1 DUP2 MSTORE PUSH1 0x20 ADD PUSH1 0x0 KECCAK256 PUSH1 0x3 ADD PUSH1 0x0 SWAP1 SLOAD SWAP1 PUSH2 0x100 EXP SWAP1 DIV PUSH1 0xFF AND PUSH2 0x1A5A JUMPI PUSH1 0x40 MLOAD PUSH32 0x8C379A000000000000000000000000000000000000000000000000000000000 DUP2 MSTORE PUSH1 0x4 ADD PUSH2 0x1A51 SWAP1 PUSH2 0x3842 JUMP JUMPDEST PUSH1 0x40 MLOAD DUP1 SWAP2 SUB SWAP1 REVERT JUMPDEST PUSH1 0x2 PUSH1 0x3 DUP2 GT ISZERO PUSH2 0x1A94 JUMPI PUSH32 0x4E487B7100000000000000000000000000000000000000000000000000000000 PUSH1 0x0 MSTORE PUSH1 0x21 PUSH1 0x4 MSTORE PUSH1 0x24 PUSH1 0x0 REVERT JUMPDEST PUSH1 0x3 PUSH1 0x0 CALLER PUSH20 0xFFFFFFFFFFFFFFFFFFFFFFFFFFFFFFFFFFFFFFFF AND PUSH20 0xFFFFFFFFFFFFFFFFFFFFFFFFFFFFFFFFFFFFFFFF AND DUP2 MSTORE PUSH1 0x20 ADD SWAP1 DUP2 MSTORE PUSH1 0x20 ADD PUSH1 0x0 KECCAK256 PUSH1 0x1 ADD PUSH1 0x0 SWAP1 SLOAD SWAP1 PUSH2 0x100 EXP SWAP1 DIV PUSH1 0xFF AND PUSH1 0x3 DUP2 GT ISZERO PUSH2 0x1B1C JUMPI PUSH32 0x4E487B7100000000000000000000000000000000000000000000000000000000 PUSH1 0x0 MSTORE PUSH1 0x21 PUSH1 0x4 MSTORE PUSH1 0x24 PUSH1 0x0 REVERT JUMPDEST EQ PUSH2 0x1B5C JUMPI PUSH1 0x40 MLOAD PUSH32 0x8C379A000000000000000000000000000000000000000000000000000000000 DUP2 MSTORE PUSH1 0x4 ADD PUSH2 0x1B53 SWAP1 PUSH2 0x3722 JUMP JUMPDEST PUSH1 0x40 MLOAD DUP1 SWAP2 SUB SWAP1 REVERT JUMPDEST PUSH1 0x1 PUSH1 0x0 DUP2 SLOAD DUP1 SWAP3 SWAP2 SWAP1 PUSH2 0x1B6F SWAP1 PUSH2 0x3D29 JUMP JUMPDEST SWAP2 SWAP1 POP SSTORE POP PUSH1 0x40 MLOAD DUP1 PUSH2 0x120 ADD PUSH1 0x40 MSTORE DUP1 PUSH1 0x1 SLOAD DUP2 MSTORE PUSH1 0x20 ADD CALLER PUSH20 0xFFFFFFFFFFFFFFFFFFFFFFFFFFFFFFFFFFFFFFFF AND DUP2 MSTORE PUSH1 0x20 ADD DUP6 DUP2 MSTORE PUSH1 0x20 ADD DUP5 DUP2 MSTORE PUSH1 0x20 ADD DUP4 DUP2 MSTORE PUSH1 0x20 ADD DUP3 DUP2 MSTORE PUSH1 0x20 ADD PUSH1 0x0 PUSH1 0x5 DUP2 GT ISZERO PUSH2 0x1BF6 JUMPI PUSH32 0x4E487B7100000000000000000000000000000000000000000000000000000000 PUSH1 0x0 MSTORE PUSH1 0x21 PUSH1 0x4 MSTORE PUSH1 0x24 PUSH1 0x0 REVERT JUMPDEST DUP2 MSTORE PUSH1 0x20 ADD PUSH1 0x0 DUP2 MSTORE PUSH1 0x20 ADD PUSH1 0x0 PUSH20 0xFFFFFFFFFFFFFFFFFFFFFFFFFFFFFFFFFFFFFFFF AND DUP2 MSTORE POP PUSH1 0x4 PUSH1 0x0 PUSH1 0x1 SLOAD DUP2 MSTORE PUSH1 0x20 ADD SWAP1 DUP2 MSTORE PUSH1 0x20 ADD PUSH1 0x0 KECCAK256 PUSH1 0x0 DUP3 ADD MLOAD DUP2 PUSH1 0x0 ADD SSTORE PUSH1 0x20 DUP3 ADD MLOAD DUP2 PUSH1 0x1 ADD PUSH1 0x0 PUSH2 0x100 EXP DUP2 SLOAD DUP2 PUSH20 0xFFFFFFFFFFFFFFFFFFFFFFFFFFFFFFFFFFFFFFFF MUL NOT AND SWAP1 DUP4 PUSH20 0xFFFFFFFFFFFFFFFFFFFFFFFFFFFFFFFFFFFFFFFF AND MUL OR SWAP1 SSTORE POP PUSH1 0x40 DUP3 ADD MLOAD DUP2 PUSH1 0x2 ADD SWAP1 DUP1 MLOAD SWAP1 PUSH1 0x20 ADD SWAP1 PUSH2 0x1C9F SWAP3 SWAP2 SWAP1 PUSH2 0x2C82 JUMP JUMPDEST POP PUSH1 0x60 DUP3 ADD MLOAD DUP2 PUSH1 0x3 ADD SWAP1 DUP1 MLOAD SWAP1 PUSH1 0x20 ADD SWAP1 PUSH2 0x1CBC SWAP3 SWAP2 SWAP1 PUSH2 0x2C82 JUMP JUMPDEST POP PUSH1 0x80 DUP3 ADD MLOAD DUP2 PUSH1 0x4 ADD SSTORE PUSH1 0xA0 DUP3 ADD MLOAD DUP2 PUSH1 0x5 ADD SSTORE PUSH1 0xC0 DUP3 ADD MLOAD DUP2 PUSH1 0x6 ADD PUSH1 0x0 PUSH2 0x100 EXP DUP2 SLOAD DUP2 PUSH1 0xFF MUL NOT AND SWAP1 DUP4 PUSH1 0x5 DUP2 GT ISZERO PUSH2 0x1D22 JUMPI PUSH32 0x4E487B7100000000000000000000000000000000000000000000000000000000 PUSH1 0x0 MSTORE PUSH1 0x21 PUSH1 0x4 MSTORE PUSH1 0x24 PUSH1 0x0 REVERT JUMPDEST MUL OR SWAP1 SSTORE POP PUSH1 0xE0 DUP3 ADD MLOAD DUP2 PUSH1 0x7 ADD SSTORE PUSH2 0x100 DUP3 ADD MLOAD DUP2 PUSH1 0x8 ADD PUSH1 0x0 PUSH2 0x100 EXP DUP2 SLOAD DUP2 PUSH20 0xFFFFFFFFFFFFFFFFFFFFFFFFFFFFFFFFFFFFFFFF MUL NOT AND SWAP1 DUP4 PUSH20 0xFFFFFFFFFFFFFFFFFFFFFFFFFFFFFFFFFFFFFFFF AND MUL OR SWAP1 SSTORE POP SWAP1 POP POP CALLER PUSH20 0xFFFFFFFFFFFFFFFFFFFFFFFFFFFFFFFFFFFFFFFF AND PUSH1 0x1 SLOAD PUSH32 0x874D4755E4BE9F976C7833FC413DEB77C1ACBF096D6535B71953C36EB838CF40 DUP7 PUSH1 0x40 MLOAD PUSH2 0x1DC5 SWAP2 SWAP1 PUSH2 0x3656 JUMP JUMPDEST PUSH1 0x40 MLOAD DUP1 SWAP2 SUB SWAP1 LOG3 POP POP POP POP JUMP JUMPDEST PUSH1 0x5 PUSH1 0x20 MSTORE DUP2 PUSH1 0x0 MSTORE PUSH1 0x40 PUSH1 0x0 KECCAK256 DUP2 DUP2 SLOAD DUP2 LT PUSH2 0x1DEF JUMPI PUSH1 0x0 DUP1 REVERT JUMPDEST SWAP1 PUSH1 0x0 MSTORE PUSH1 0x20 PUSH1 0x0 KECCAK256 SWAP1 PUSH1 0x4 MUL ADD PUSH1 0x0 SWAP2 POP SWAP2 POP POP DUP1 PUSH1 0x0 ADD SLOAD SWAP1 DUP1 PUSH1 0x1 ADD PUSH1 0x0 SWAP1 SLOAD SWAP1 PUSH2 0x100 EXP SWAP1 DIV PUSH20 0xFFFFFFFFFFFFFFFFFFFFFFFFFFFFFFFFFFFFFFFF AND SWAP1 DUP1 PUSH1 0x2 ADD SLOAD SWAP1 DUP1 PUSH1 0x3 ADD DUP1 SLOAD PUSH2 0x1E45 SWAP1 PUSH2 0x3CF7 JUMP JUMPDEST DUP1 PUSH1 0x1F ADD PUSH1 0x20 DUP1 SWAP2 DIV MUL PUSH1 0x20 ADD PUSH1 0x40 MLOAD SWAP1 DUP2 ADD PUSH1 0x40 MSTORE DUP1 SWAP3 SWAP2 SWAP1 DUP2 DUP2 MSTORE PUSH1 0x20 ADD DUP3 DUP1 SLOAD PUSH2 0x1E71 SWAP1 PUSH2 0x3CF7 JUMP JUMPDEST DUP1 ISZERO PUSH2 0x1EBE JUMPI DUP1 PUSH1 0x1F LT PUSH2 0x1E93 JUMPI PUSH2 0x100 DUP1 DUP4 SLOAD DIV MUL DUP4 MSTORE SWAP2 PUSH1 0x20 ADD SWAP2 PUSH2 0x1EBE JUMP JUMPDEST DUP3 ADD SWAP2 SWAP1 PUSH1 0x0 MSTORE PUSH1 0x20 PUSH1 0x0 KECCAK256 SWAP1 JUMPDEST DUP2 SLOAD DUP2 MSTORE SWAP1 PUSH1 0x1 ADD SWAP1 PUSH1 0x20 ADD DUP1 DUP4 GT PUSH2 0x1EA1 JUMPI DUP3 SWAP1 SUB PUSH1 0x1F AND DUP3 ADD SWAP2 JUMPDEST POP POP POP POP POP SWAP1 POP DUP5 JUMP JUMPDEST PUSH1 0x3 PUSH1 0x20 MSTORE DUP1 PUSH1 0x0 MSTORE PUSH1 0x40 PUSH1 0x0 KECCAK256 PUSH1 0x0 SWAP2 POP SWAP1 POP DUP1 PUSH1 0x0 ADD DUP1 SLOAD PUSH2 0x1EEB SWAP1 PUSH2 0x3CF7 JUMP JUMPDEST DUP1 PUSH1 0x1F ADD PUSH1 0x20 DUP1 SWAP2 DIV MUL PUSH1 0x20 ADD PUSH1 0x40 MLOAD SWAP1 DUP2 ADD PUSH1 0x40 MSTORE DUP1 SWAP3 SWAP2 SWAP1 DUP2 DUP2 MSTORE PUSH1 0x20 ADD DUP3 DUP1 SLOAD PUSH2 0x1F17 SWAP1 PUSH2 0x3CF7 JUMP JUMPDEST DUP1 ISZERO PUSH2 0x1F64 JUMPI DUP1 PUSH1 0x1F LT PUSH2 0x1F39 JUMPI PUSH2 0x100 DUP1 DUP4 SLOAD DIV MUL DUP4 MSTORE SWAP2 PUSH1 0x20 ADD SWAP2 PUSH2 0x1F64 JUMP JUMPDEST DUP3 ADD SWAP2 SWAP1 PUSH1 0x0 MSTORE PUSH1 0x20 PUSH1 0x0 KECCAK256 SWAP1 JUMPDEST DUP2 SLOAD DUP2 MSTORE SWAP1 PUSH1 0x1 ADD SWAP1 PUSH1 0x20 ADD DUP1 DUP4 GT PUSH2 0x1F47 JUMPI DUP3 SWAP1 SUB PUSH1 0x1F AND DUP3 ADD SWAP2 JUMPDEST POP POP POP POP POP SWAP1 DUP1 PUSH1 0x1 ADD PUSH1 0x0 SWAP1 SLOAD SWAP1 PUSH2 0x100 EXP SWAP1 DIV PUSH1 0xFF AND SWAP1 DUP1 PUSH1 0x1 ADD PUSH1 0x1 SWAP1 SLOAD SWAP1 PUSH2 0x100 EXP SWAP1 DIV PUSH20 0xFFFFFFFFFFFFFFFFFFFFFFFFFFFFFFFFFFFFFFFF AND SWAP1 DUP1 PUSH1 0x2 ADD SLOAD SWAP1 DUP1 PUSH1 0x3 ADD PUSH1 0x0 SWAP1 SLOAD SWAP1 PUSH2 0x100 EXP SWAP1 DIV PUSH1 0xFF AND SWAP1 POP DUP6 JUMP JUMPDEST PUSH1 0x2 SLOAD DUP2 JUMP JUMPDEST PUSH1 0x3 PUSH1 0x0 CALLER PUSH20 0xFFFFFFFFFFFFFFFFFFFFFFFFFFFFFFFFFFFFFFFF AND PUSH20 0xFFFFFFFFFFFFFFFFFFFFFFFFFFFFFFFFFFFFFFFF AND DUP2 MSTORE PUSH1 0x20 ADD SWAP1 DUP2 MSTORE PUSH1 0x20 ADD PUSH1 0x0 KECCAK256 PUSH1 0x3 ADD PUSH1 0x0 SWAP1 SLOAD SWAP1 PUSH2 0x100 EXP SWAP1 DIV PUSH1 0xFF AND PUSH2 0x2055 JUMPI PUSH1 0x40 MLOAD PUSH32 0x8C379A000000000000000000000000000000000000000000000000000000000 DUP2 MSTORE PUSH1 0x4 ADD PUSH2 0x204C SWAP1 PUSH2 0x3842 JUMP JUMPDEST PUSH1 0x40 MLOAD DUP1 SWAP2 SUB SWAP1 REVERT JUMPDEST PUSH1 0x3 DUP1 DUP2 GT ISZERO PUSH2 0x208E JUMPI PUSH32 0x4E487B7100000000000000000000000000000000000000000000000000000000 PUSH1 0x0 MSTORE PUSH1 0x21 PUSH1 0x4 MSTORE PUSH1 0x24 PUSH1 0x0 REVERT JUMPDEST PUSH1 0x3 PUSH1 0x0 CALLER PUSH20 0xFFFFFFFFFFFFFFFFFFFFFFFFFFFFFFFFFFFFFFFF AND PUSH20 0xFFFFFFFFFFFFFFFFFFFFFFFFFFFFFFFFFFFFFFFF AND DUP2 MSTORE PUSH1 0x20 ADD SWAP1 DUP2 MSTORE PUSH1 0x20 ADD PUSH1 0x0 KECCAK256 PUSH1 0x1 ADD PUSH1 0x0 SWAP1 SLOAD SWAP1 PUSH2 0x100 EXP SWAP1 DIV PUSH1 0xFF AND PUSH1 0x3 DUP2 GT ISZERO PUSH2 0x2116 JUMPI PUSH32 0x4E487B7100000000000000000000000000000000000000000000000000000000 PUSH1 0x0 MSTORE PUSH1 0x21 PUSH1 0x4 MSTORE PUSH1 0x24 PUSH1 0x0 REVERT JUMPDEST EQ PUSH2 0x2156 JUMPI PUSH1 0x40 MLOAD PUSH32 0x8C379A000000000000000000000000000000000000000000000000000000000 DUP2 MSTORE PUSH1 0x4 ADD PUSH2 0x214D SWAP1 PUSH2 0x38C2 JUMP JUMPDEST PUSH1 0x40 MLOAD DUP1 SWAP2 SUB SWAP1 REVERT JUMPDEST PUSH1 0x0 PUSH1 0x4 PUSH1 0x0 DUP4 DUP2 MSTORE PUSH1 0x20 ADD SWAP1 DUP2 MSTORE PUSH1 0x20 ADD PUSH1 0x0 KECCAK256 SWAP1 POP CALLER PUSH20 0xFFFFFFFFFFFFFFFFFFFFFFFFFFFFFFFFFFFFFFFF AND DUP2 PUSH1 0x8 ADD PUSH1 0x0 SWAP1 SLOAD SWAP1 PUSH2 0x100 EXP SWAP1 DIV PUSH20 0xFFFFFFFFFFFFFFFFFFFFFFFFFFFFFFFFFFFFFFFF AND PUSH20 0xFFFFFFFFFFFFFFFFFFFFFFFFFFFFFFFFFFFFFFFF AND EQ PUSH2 0x21FF JUMPI PUSH1 0x40 MLOAD PUSH32 0x8C379A000000000000000000000000000000000000000000000000000000000 DUP2 MSTORE PUSH1 0x4 ADD PUSH2 0x21F6 SWAP1 PUSH2 0x38E2 JUMP JUMPDEST PUSH1 0x40 MLOAD DUP1 SWAP2 SUB SWAP1 REVERT JUMPDEST PUSH1 0x1 PUSH1 0x5 DUP2 GT ISZERO PUSH2 0x2239 JUMPI PUSH32 0x4E487B7100000000000000000000000000000000000000000000000000000000 PUSH1 0x0 MSTORE PUSH1 0x21 PUSH1 0x4 MSTORE PUSH1 0x24 PUSH1 0x0 REVERT JUMPDEST DUP2 PUSH1 0x6 ADD PUSH1 0x0 SWAP1 SLOAD SWAP1 PUSH2 0x100 EXP SWAP1 DIV PUSH1 0xFF AND PUSH1 0x5 DUP2 GT ISZERO PUSH2 0x2283 JUMPI PUSH32 0x4E487B7100000000000000000000000000000000000000000000000000000000 PUSH1 0x0 MSTORE PUSH1 0x21 PUSH1 0x4 MSTORE PUSH1 0x24 PUSH1 0x0 REVERT JUMPDEST EQ PUSH2 0x22C3 JUMPI PUSH1 0x40 MLOAD PUSH32 0x8C379A000000000000000000000000000000000000000000000000000000000 DUP2 MSTORE PUSH1 0x4 ADD PUSH2 0x22BA SWAP1 PUSH2 0x37A2 JUMP JUMPDEST PUSH1 0x40 MLOAD DUP1 SWAP2 SUB SWAP1 REVERT JUMPDEST CALLER PUSH20 0xFFFFFFFFFFFFFFFFFFFFFFFFFFFFFFFFFFFFFFFF AND DUP3 PUSH32 0x2E1034180F85502B3A04560BE6ED4C24FE9B9C9E0BD7F4E09720494AC48859FA PUSH1 0x40 MLOAD PUSH1 0x40 MLOAD DUP1 SWAP2 SUB SWAP1 LOG3 POP POP JUMP JUMPDEST PUSH1 0x3 PUSH1 0x0 CALLER PUSH20 0xFFFFFFFFFFFFFFFFFFFFFFFFFFFFFFFFFFFFFFFF AND PUSH20 0xFFFFFFFFFFFFFFFFFFFFFFFFFFFFFFFFFFFFFFFF AND DUP2 MSTORE PUSH1 0x20 ADD SWAP1 DUP2 MSTORE PUSH1 0x20 ADD PUSH1 0x0 KECCAK256 PUSH1 0x3 ADD PUSH1 0x0 SWAP1 SLOAD SWAP1 PUSH2 0x100 EXP SWAP1 DIV PUSH1 0xFF AND PUSH2 0x239A JUMPI PUSH1 0x40 MLOAD PUSH32 0x8C379A000000000000000000000000000000000000000000000000000000000 DUP2 MSTORE PUSH1 0x4 ADD PUSH2 0x2391 SWAP1 PUSH2 0x3842 JUMP JUMPDEST PUSH1 0x40 MLOAD DUP1 SWAP2 SUB SWAP1 REVERT JUMPDEST PUSH1 0x2 PUSH1 0x3 DUP2 GT ISZERO PUSH2 0x23D4 JUMPI PUSH32 0x4E487B7100000000000000000000000000000000000000000000000000000000 PUSH1 0x0 MSTORE PUSH1 0x21 PUSH1 0x4 MSTORE PUSH1 0x24 PUSH1 0x0 REVERT JUMPDEST PUSH1 0x3 PUSH1 0x0 CALLER PUSH20 0xFFFFFFFFFFFFFFFFFFFFFFFFFFFFFFFFFFFFFFFF AND PUSH20 0xFFFFFFFFFFFFFFFFFFFFFFFFFFFFFFFFFFFFFFFF AND DUP2 MSTORE PUSH1 0x20 ADD SWAP1 DUP2 MSTORE PUSH1 0x20 ADD PUSH1 0x0 KECCAK256 PUSH1 0x1 ADD PUSH1 0x0 SWAP1 SLOAD SWAP1 PUSH2 0x100 EXP SWAP1 DIV PUSH1 0xFF AND PUSH1 0x3 DUP2 GT ISZERO PUSH2 0x245C JUMPI PUSH32 0x4E487B7100000000000000000000000000000000000000000000000000000000 PUSH1 0x0 MSTORE PUSH1 0x21 PUSH1 0x4 MSTORE PUSH1 0x24 PUSH1 0x0 REVERT JUMPDEST EQ PUSH2 0x249C JUMPI PUSH1 0x40 MLOAD PUSH32 0x8C379A000000000000000000000000000000000000000000000000000000000 DUP2 MSTORE PUSH1 0x4 ADD PUSH2 0x2493 SWAP1 PUSH2 0x3722 JUMP JUMPDEST PUSH1 0x40 MLOAD DUP1 SWAP2 SUB SWAP1 REVERT JUMPDEST PUSH1 0x0 PUSH1 0x4 PUSH1 0x0 DUP4 DUP2 MSTORE PUSH1 0x20 ADD SWAP1 DUP2 MSTORE PUSH1 0x20 ADD PUSH1 0x0 KECCAK256 SWAP1 POP CALLER PUSH20 0xFFFFFFFFFFFFFFFFFFFFFFFFFFFFFFFFFFFFFFFF AND DUP2 PUSH1 0x1 ADD PUSH1 0x0 SWAP1 SLOAD SWAP1 PUSH2 0x100 EXP SWAP1 DIV PUSH20 0xFFFFFFFFFFFFFFFFFFFFFFFFFFFFFFFFFFFFFFFF AND PUSH20 0xFFFFFFFFFFFFFFFFFFFFFFFFFFFFFFFFFFFFFFFF AND EQ PUSH2 0x2545 JUMPI PUSH1 0x40 MLOAD PUSH32 0x8C379A000000000000000000000000000000000000000000000000000000000 DUP2 MSTORE PUSH1 0x4 ADD PUSH2 0x253C SWAP1 PUSH2 0x37E2 JUMP JUMPDEST PUSH1 0x40 MLOAD DUP1 SWAP2 SUB SWAP1 REVERT JUMPDEST PUSH1 0x1 PUSH1 0x5 DUP2 GT ISZERO PUSH2 0x257F JUMPI PUSH32 0x4E487B7100000000000000000000000000000000000000000000000000000000 PUSH1 0x0 MSTORE PUSH1 0x21 PUSH1 0x4 MSTORE PUSH1 0x24 PUSH1 0x0 REVERT JUMPDEST DUP2 PUSH1 0x6 ADD PUSH1 0x0 SWAP1 SLOAD SWAP1 PUSH2 0x100 EXP SWAP1 DIV PUSH1 0xFF AND PUSH1 0x5 DUP2 GT ISZERO PUSH2 0x25C9 JUMPI PUSH32 0x4E487B7100000000000000000000000000000000000000000000000000000000 PUSH1 0x0 MSTORE PUSH1 0x21 PUSH1 0x4 MSTORE PUSH1 0x24 PUSH1 0x0 REVERT JUMPDEST EQ PUSH2 0x2609 JUMPI PUSH1 0x40 MLOAD PUSH32 0x8C379A000000000000000000000000000000000000000000000000000000000 DUP2 MSTORE PUSH1 0x4 ADD PUSH2 0x2600 SWAP1 PUSH2 0x3702 JUMP JUMPDEST PUSH1 0x40 MLOAD DUP1 SWAP2 SUB SWAP1 REVERT JUMPDEST PUSH1 0x3 DUP2 PUSH1 0x6 ADD PUSH1 0x0 PUSH2 0x100 EXP DUP2 SLOAD DUP2 PUSH1 0xFF MUL NOT AND SWAP1 DUP4 PUSH1 0x5 DUP2 GT ISZERO PUSH2 0x2657 JUMPI PUSH32 0x4E487B7100000000000000000000000000000000000000000000000000000000 PUSH1 0x0 MSTORE PUSH1 0x21 PUSH1 0x4 MSTORE PUSH1 0x24 PUSH1 0x0 REVERT JUMPDEST MUL OR SWAP1 SSTORE POP CALLER PUSH20 0xFFFFFFFFFFFFFFFFFFFFFFFFFFFFFFFFFFFFFFFF AND DUP3 PUSH31 0x7A04C23FAC86B9F00290F402CCEC895256F0B46AD331C80038B783ACBFE419 PUSH1 0x40 MLOAD PUSH1 0x40 MLOAD DUP1 SWAP2 SUB SWAP1 LOG3 POP POP JUMP JUMPDEST PUSH1 0x3 PUSH1 0x0 CALLER PUSH20 0xFFFFFFFFFFFFFFFFFFFFFFFFFFFFFFFFFFFFFFFF AND PUSH20 0xFFFFFFFFFFFFFFFFFFFFFFFFFFFFFFFFFFFFFFFF AND DUP2 MSTORE PUSH1 0x20 ADD SWAP1 DUP2 MSTORE PUSH1 0x20 ADD PUSH1 0x0 KECCAK256 PUSH1 0x3 ADD PUSH1 0x0 SWAP1 SLOAD SWAP1 PUSH2 0x100 EXP SWAP1 DIV PUSH1 0xFF AND PUSH2 0x2732 JUMPI PUSH1 0x40 MLOAD PUSH32 0x8C379A000000000000000000000000000000000000000000000000000000000 DUP2 MSTORE PUSH1 0x4 ADD PUSH2 0x2729 SWAP1 PUSH2 0x3842 JUMP JUMPDEST PUSH1 0x40 MLOAD DUP1 SWAP2 SUB SWAP1 REVERT JUMPDEST PUSH1 0x2 PUSH1 0x3 DUP2 GT ISZERO PUSH2 0x276C JUMPI PUSH32 0x4E487B7100000000000000000000000000000000000000000000000000000000 PUSH1 0x0 MSTORE PUSH1 0x21 PUSH1 0x4 MSTORE PUSH1 0x24 PUSH1 0x0 REVERT JUMPDEST PUSH1 0x3 PUSH1 0x0 CALLER PUSH20 0xFFFFFFFFFFFFFFFFFFFFFFFFFFFFFFFFFFFFFFFF AND PUSH20 0xFFFFFFFFFFFFFFFFFFFFFFFFFFFFFFFFFFFFFFFF AND DUP2 MSTORE PUSH1 0x20 ADD SWAP1 DUP2 MSTORE PUSH1 0x20 ADD PUSH1 0x0 KECCAK256 PUSH1 0x1 ADD PUSH1 0x0 SWAP1 SLOAD SWAP1 PUSH2 0x100 EXP SWAP1 DIV PUSH1 0xFF AND PUSH1 0x3 DUP2 GT ISZERO PUSH2 0x27F4 JUMPI PUSH32 0x4E487B7100000000000000000000000000000000000000000000000000000000 PUSH1 0x0 MSTORE PUSH1 0x21 PUSH1 0x4 MSTORE PUSH1 0x24 PUSH1 0x0 REVERT JUMPDEST EQ PUSH2 0x2834 JUMPI PUSH1 0x40 MLOAD PUSH32 0x8C379A000000000000000000000000000000000000000000000000000000000 DUP2 MSTORE PUSH1 0x4 ADD PUSH2 0x282B SWAP1 PUSH2 0x3722 JUMP JUMPDEST PUSH1 0x40 MLOAD DUP1 SWAP2 SUB SWAP1 REVERT JUMPDEST PUSH1 0x0 PUSH1 0x4 PUSH1 0x0 DUP5 DUP2 MSTORE PUSH1 0x20 ADD SWAP1 DUP2 MSTORE PUSH1 0x20 ADD PUSH1 0x0 KECCAK256 SWAP1 POP CALLER PUSH20 0xFFFFFFFFFFFFFFFFFFFFFFFFFFFFFFFFFFFFFFFF AND DUP2 PUSH1 0x1 ADD PUSH1 0x0 SWAP1 SLOAD SWAP1 PUSH2 0x100 EXP SWAP1 DIV PUSH20 0xFFFFFFFFFFFFFFFFFFFFFFFFFFFFFFFFFFFFFFFF AND PUSH20 0xFFFFFFFFFFFFFFFFFFFFFFFFFFFFFFFFFFFFFFFF AND EQ PUSH2 0x28DD JUMPI PUSH1 0x40 MLOAD PUSH32 0x8C379A000000000000000000000000000000000000000000000000000000000 DUP2 MSTORE PUSH1 0x4 ADD PUSH2 0x28D4 SWAP1 PUSH2 0x3902 JUMP JUMPDEST PUSH1 0x40 MLOAD DUP1 SWAP2 SUB SWAP1 REVERT JUMPDEST PUSH1 0x0 PUSH1 0x5 DUP2 GT ISZERO PUSH2 0x2917 JUMPI PUSH32 0x4E487B7100000000000000000000000000000000000000000000000000000000 PUSH1 0x0 MSTORE PUSH1 0x21 PUSH1 0x4 MSTORE PUSH1 0x24 PUSH1 0x0 REVERT JUMPDEST DUP2 PUSH1 0x6 ADD PUSH1 0x0 SWAP1 SLOAD SWAP1 PUSH2 0x100 EXP SWAP1 DIV PUSH1 0xFF AND PUSH1 0x5 DUP2 GT ISZERO PUSH2 0x2961 JUMPI PUSH32 0x4E487B7100000000000000000000000000000000000000000000000000000000 PUSH1 0x0 MSTORE PUSH1 0x21 PUSH1 0x4 MSTORE PUSH1 0x24 PUSH1 0x0 REVERT JUMPDEST EQ PUSH2 0x29A1 JUMPI PUSH1 0x40 MLOAD PUSH32 0x8C379A000000000000000000000000000000000000000000000000000000000 DUP2 MSTORE PUSH1 0x4 ADD PUSH2 0x2998 SWAP1 PUSH2 0x3742 JUMP JUMPDEST PUSH1 0x40 MLOAD DUP1 SWAP2 SUB SWAP1 REVERT JUMPDEST PUSH1 0x0 PUSH1 0x5 PUSH1 0x0 DUP6 DUP2 MSTORE PUSH1 0x20 ADD SWAP1 DUP2 MSTORE PUSH1 0x20 ADD PUSH1 0x0 KECCAK256 DUP4 DUP2 SLOAD DUP2 LT PUSH2 0x29EE JUMPI PUSH32 0x4E487B7100000000000000000000000000000000000000000000000000000000 PUSH1 0x0 MSTORE PUSH1 0x32 PUSH1 0x4 MSTORE PUSH1 0x24 PUSH1 0x0 REVERT JUMPDEST SWAP1 PUSH1 0x0 MSTORE PUSH1 0x20 PUSH1 0x0 KECCAK256 SWAP1 PUSH1 0x4 MUL ADD PUSH1 0x40 MLOAD DUP1 PUSH1 0x80 ADD PUSH1 0x40 MSTORE SWAP1 DUP2 PUSH1 0x0 DUP3 ADD SLOAD DUP2 MSTORE PUSH1 0x20 ADD PUSH1 0x1 DUP3 ADD PUSH1 0x0 SWAP1 SLOAD SWAP1 PUSH2 0x100 EXP SWAP1 DIV PUSH20 0xFFFFFFFFFFFFFFFFFFFFFFFFFFFFFFFFFFFFFFFF AND PUSH20 0xFFFFFFFFFFFFFFFFFFFFFFFFFFFFFFFFFFFFFFFF AND PUSH20 0xFFFFFFFFFFFFFFFFFFFFFFFFFFFFFFFFFFFFFFFF AND DUP2 MSTORE PUSH1 0x20 ADD PUSH1 0x2 DUP3 ADD SLOAD DUP2 MSTORE PUSH1 0x20 ADD PUSH1 0x3 DUP3 ADD DUP1 SLOAD PUSH2 0x2A81 SWAP1 PUSH2 0x3CF7 JUMP JUMPDEST DUP1 PUSH1 0x1F ADD PUSH1 0x20 DUP1 SWAP2 DIV MUL PUSH1 0x20 ADD PUSH1 0x40 MLOAD SWAP1 DUP2 ADD PUSH1 0x40 MSTORE DUP1 SWAP3 SWAP2 SWAP1 DUP2 DUP2 MSTORE PUSH1 0x20 ADD DUP3 DUP1 SLOAD PUSH2 0x2AAD SWAP1 PUSH2 0x3CF7 JUMP JUMPDEST DUP1 ISZERO PUSH2 0x2AFA JUMPI DUP1 PUSH1 0x1F LT PUSH2 0x2ACF JUMPI PUSH2 0x100 DUP1 DUP4 SLOAD DIV MUL DUP4 MSTORE SWAP2 PUSH1 0x20 ADD SWAP2 PUSH2 0x2AFA JUMP JUMPDEST DUP3 ADD SWAP2 SWAP1 PUSH1 0x0 MSTORE PUSH1 0x20 PUSH1 0x0 KECCAK256 SWAP1 JUMPDEST DUP2 SLOAD DUP2 MSTORE SWAP1 PUSH1 0x1 ADD SWAP1 PUSH1 0x20 ADD DUP1 DUP4 GT PUSH2 0x2ADD JUMPI DUP3 SWAP1 SUB PUSH1 0x1F AND DUP3 ADD SWAP2 JUMPDEST POP POP POP POP POP DUP2 MSTORE POP POP SWAP1 POP DUP1 PUSH1 0x40 ADD MLOAD CALLVALUE EQ PUSH2 0x2B4B JUMPI PUSH1 0x40 MLOAD PUSH32 0x8C379A000000000000000000000000000000000000000000000000000000000 DUP2 MSTORE PUSH1 0x4 ADD PUSH2 0x2B42 SWAP1 PUSH2 0x3802 JUMP JUMPDEST PUSH1 0x40 MLOAD DUP1 SWAP2 SUB SWAP1 REVERT JUMPDEST DUP1 PUSH1 0x20 ADD MLOAD DUP3 PUSH1 0x8 ADD PUSH1 0x0 PUSH2 0x100 EXP DUP2 SLOAD DUP2 PUSH20 0xFFFFFFFFFFFFFFFFFFFFFFFFFFFFFFFFFFFFFFFF MUL NOT AND SWAP1 DUP4 PUSH20 0xFFFFFFFFFFFFFFFFFFFFFFFFFFFFFFFFFFFFFFFF AND MUL OR SWAP1 SSTORE POP CALLVALUE DUP3 PUSH1 0x7 ADD DUP2 SWAP1 SSTORE POP PUSH1 0x1 DUP3 PUSH1 0x6 ADD PUSH1 0x0 PUSH2 0x100 EXP DUP2 SLOAD DUP2 PUSH1 0xFF MUL NOT AND SWAP1 DUP4 PUSH1 0x5 DUP2 GT ISZERO PUSH2 0x2BE9 JUMPI PUSH32 0x4E487B7100000000000000000000000000000000000000000000000000000000 PUSH1 0x0 MSTORE PUSH1 0x21 PUSH1 0x4 MSTORE PUSH1 0x24 PUSH1 0x0 REVERT JUMPDEST MUL OR SWAP1 SSTORE POP DUP1 PUSH1 0x20 ADD MLOAD PUSH20 0xFFFFFFFFFFFFFFFFFFFFFFFFFFFFFFFFFFFFFFFF AND CALLER PUSH20 0xFFFFFFFFFFFFFFFFFFFFFFFFFFFFFFFFFFFFFFFF AND DUP6 PUSH32 0x3296BE5329AA51BEC44418F854418438CC19283BF0C117497123E5CCFA662D8E CALLVALUE PUSH1 0x40 MLOAD PUSH2 0x2C50 SWAP2 SWAP1 PUSH2 0x3982 JUMP JUMPDEST PUSH1 0x40 MLOAD DUP1 SWAP2 SUB SWAP1 LOG4 POP POP POP POP JUMP JUMPDEST PUSH1 0x0 DUP1 SLOAD SWAP1 PUSH2 0x100 EXP SWAP1 DIV PUSH20 0xFFFFFFFFFFFFFFFFFFFFFFFFFFFFFFFFFFFFFFFF AND DUP2 JUMP JUMPDEST DUP3 DUP1 SLOAD PUSH2 0x2C8E SWAP1 PUSH2 0x3CF7 JUMP JUMPDEST SWAP1 PUSH1 0x0 MSTORE PUSH1 0x20 PUSH1 0x0 KECCAK256 SWAP1 PUSH1 0x1F ADD PUSH1 0x20 SWAP1 DIV DUP2 ADD SWAP3 DUP3 PUSH2 0x2CB0 JUMPI PUSH1 0x0 DUP6 SSTORE PUSH2 0x2CF7 JUMP JUMPDEST DUP3 PUSH1 0x1F LT PUSH2 0x2CC9 JUMPI DUP1 MLOAD PUSH1 0xFF NOT AND DUP4 DUP1 ADD OR DUP6 SSTORE PUSH2 0x2CF7 JUMP JUMPDEST DUP3 DUP1 ADD PUSH1 0x1 ADD DUP6 SSTORE DUP3 ISZERO PUSH2 0x2CF7 JUMPI SWAP2 DUP3 ADD JUMPDEST DUP3 DUP2 GT ISZERO PUSH2 0x2CF6 JUMPI DUP3 MLOAD DUP3 SSTORE SWAP2 PUSH1 0x20 ADD SWAP2 SWAP1 PUSH1 0x1 ADD SWAP1 PUSH2 0x2CDB JUMP JUMPDEST JUMPDEST POP SWAP1 POP PUSH2 0x2D04 SWAP2 SWAP1 PUSH2 0x2D08 JUMP JUMPDEST POP SWAP1 JUMP JUMPDEST JUMPDEST DUP1 DUP3 GT ISZERO PUSH2 0x2D21 JUMPI PUSH1 0x0 DUP2 PUSH1 0x0 SWAP1 SSTORE POP PUSH1 0x1 ADD PUSH2 0x2D09 JUMP JUMPDEST POP SWAP1 JUMP JUMPDEST PUSH1 0x0 PUSH2 0x2D38 PUSH2 0x2D33 DUP5 PUSH2 0x3AB5 JUMP JUMPDEST PUSH2 0x3A84 JUMP JUMPDEST SWAP1 POP DUP3 DUP2 MSTORE PUSH1 0x20 DUP2 ADD DUP5 DUP5 DUP5 ADD GT ISZERO PUSH2 0x2D50 JUMPI PUSH1 0x0 DUP1 REVERT JUMPDEST PUSH2 0x2D5B DUP5 DUP3 DUP6 PUSH2 0x3CB5 JUMP JUMPDEST POP SWAP4 SWAP3 POP POP POP JUMP JUMPDEST PUSH1 0x0 DUP2 CALLDATALOAD SWAP1 POP PUSH2 0x2D72 DUP2 PUSH2 0x3E96 JUMP JUMPDEST SWAP3 SWAP2 POP POP JUMP JUMPDEST PUSH1 0x0 DUP2 CALLDATALOAD SWAP1 POP PUSH2 0x2D87 DUP2 PUSH2 0x3EAD JUMP JUMPDEST SWAP3 SWAP2 POP POP JUMP JUMPDEST PUSH1 0x0 DUP3 PUSH1 0x1F DUP4 ADD SLT PUSH2 0x2D9E JUMPI PUSH1 0x0 DUP1 REVERT JUMPDEST DUP2 CALLDATALOAD PUSH2 0x2DAE DUP5 DUP3 PUSH1 0x20 DUP7 ADD PUSH2 0x2D25 JUMP JUMPDEST SWAP2 POP POP SWAP3 SWAP2 POP POP JUMP JUMPDEST PUSH1 0x0 DUP2 CALLDATALOAD SWAP1 POP PUSH2 0x2DC6 DUP2 PUSH2 0x3EC4 JUMP JUMPDEST SWAP3 SWAP2 POP POP JUMP JUMPDEST PUSH1 0x0 DUP2 CALLDATALOAD SWAP1 POP PUSH2 0x2DDB DUP2 PUSH2 0x3EDB JUMP JUMPDEST SWAP3 SWAP2 POP POP JUMP JUMPDEST PUSH1 0x0 PUSH1 0x20 DUP3 DUP5 SUB SLT ISZERO PUSH2 0x2DF3 JUMPI PUSH1 0x0 DUP1 REVERT JUMPDEST PUSH1 0x0 PUSH2 0x2E01 DUP5 DUP3 DUP6 ADD PUSH2 0x2D63 JUMP JUMPDEST SWAP2 POP POP SWAP3 SWAP2 POP POP JUMP JUMPDEST PUSH1 0x0 DUP1 PUSH1 0x0 DUP1 PUSH1 0x80 DUP6 DUP8 SUB SLT ISZERO PUSH2 0x2E20 JUMPI PUSH1 0x0 DUP1 REVERT JUMPDEST PUSH1 0x0 DUP6 ADD CALLDATALOAD PUSH8 0xFFFFFFFFFFFFFFFF DUP2 GT ISZERO PUSH2 0x2E3A JUMPI PUSH1 0x0 DUP1 REVERT JUMPDEST PUSH2 0x2E46 DUP8 DUP3 DUP9 ADD PUSH2 0x2D8D JUMP JUMPDEST SWAP5 POP POP PUSH1 0x20 DUP6 ADD CALLDATALOAD PUSH8 0xFFFFFFFFFFFFFFFF DUP2 GT ISZERO PUSH2 0x2E63 JUMPI PUSH1 0x0 DUP1 REVERT JUMPDEST PUSH2 0x2E6F DUP8 DUP3 DUP9 ADD PUSH2 0x2D8D JUMP JUMPDEST SWAP4 POP POP PUSH1 0x40 PUSH2 0x2E80 DUP8 DUP3 DUP9 ADD PUSH2 0x2DB7 JUMP JUMPDEST SWAP3 POP POP PUSH1 0x60 PUSH2 0x2E91 DUP8 DUP3 DUP9 ADD PUSH2 0x2DB7 JUMP JUMPDEST SWAP2 POP POP SWAP3 SWAP6 SWAP2 SWAP5 POP SWAP3 POP JUMP JUMPDEST PUSH1 0x0 DUP1 PUSH1 0x40 DUP4 DUP6 SUB SLT ISZERO PUSH2 0x2EB0 JUMPI PUSH1 0x0 DUP1 REVERT JUMPDEST PUSH1 0x0 DUP4 ADD CALLDATALOAD PUSH8 0xFFFFFFFFFFFFFFFF DUP2 GT ISZERO PUSH2 0x2ECA JUMPI PUSH1 0x0 DUP1 REVERT JUMPDEST PUSH2 0x2ED6 DUP6 DUP3 DUP7 ADD PUSH2 0x2D8D JUMP JUMPDEST SWAP3 POP POP PUSH1 0x20 PUSH2 0x2EE7 DUP6 DUP3 DUP7 ADD PUSH2 0x2DCC JUMP JUMPDEST SWAP2 POP POP SWAP3 POP SWAP3 SWAP1 POP JUMP JUMPDEST PUSH1 0x0 PUSH1 0x20 DUP3 DUP5 SUB SLT ISZERO PUSH2 0x2F03 JUMPI PUSH1 0x0 DUP1 REVERT JUMPDEST PUSH1 0x0 PUSH2 0x2F11 DUP5 DUP3 DUP6 ADD PUSH2 0x2DB7 JUMP JUMPDEST SWAP2 POP POP SWAP3 SWAP2 POP POP JUMP JUMPDEST PUSH1 0x0 DUP1 PUSH1 0x40 DUP4 DUP6 SUB SLT ISZERO PUSH2 0x2F2D JUMPI PUSH1 0x0 DUP1 REVERT JUMPDEST PUSH1 0x0 PUSH2 0x2F3B DUP6 DUP3 DUP7 ADD PUSH2 0x2DB7 JUMP JUMPDEST SWAP3 POP POP PUSH1 0x20 PUSH2 0x2F4C DUP6 DUP3 DUP7 ADD PUSH2 0x2D78 JUMP JUMPDEST SWAP2 POP POP SWAP3 POP SWAP3 SWAP1 POP JUMP JUMPDEST PUSH1 0x0 DUP1 PUSH1 0x40 DUP4 DUP6 SUB SLT ISZERO PUSH2 0x2F69 JUMPI PUSH1 0x0 DUP1 REVERT JUMPDEST PUSH1 0x0 PUSH2 0x2F77 DUP6 DUP3 DUP7 ADD PUSH2 0x2DB7 JUMP JUMPDEST SWAP3 POP POP PUSH1 0x20 PUSH2 0x2F88 DUP6 DUP3 DUP7 ADD PUSH2 0x2DB7 JUMP JUMPDEST SWAP2 POP POP SWAP3 POP SWAP3 SWAP1 POP JUMP JUMPDEST PUSH1 0x0 DUP1 PUSH1 0x0 PUSH1 0x60 DUP5 DUP7 SUB SLT ISZERO PUSH2 0x2FA7 JUMPI PUSH1 0x0 DUP1 REVERT JUMPDEST PUSH1 0x0 PUSH2 0x2FB5 DUP7 DUP3 DUP8 ADD PUSH2 0x2DB7 JUMP JUMPDEST SWAP4 POP POP PUSH1 0x20 PUSH2 0x2FC6 DUP7 DUP3 DUP8 ADD PUSH2 0x2DB7 JUMP JUMPDEST SWAP3 POP POP PUSH1 0x40 DUP5 ADD CALLDATALOAD PUSH8 0xFFFFFFFFFFFFFFFF DUP2 GT ISZERO PUSH2 0x2FE3 JUMPI PUSH1 0x0 DUP1 REVERT JUMPDEST PUSH2 0x2FEF DUP7 DUP3 DUP8 ADD PUSH2 0x2D8D JUMP JUMPDEST SWAP2 POP POP SWAP3 POP SWAP3 POP SWAP3 JUMP JUMPDEST PUSH2 0x3002 DUP2 PUSH2 0x3C16 JUMP JUMPDEST DUP3 MSTORE POP POP JUMP JUMPDEST PUSH2 0x3011 DUP2 PUSH2 0x3C28 JUMP JUMPDEST DUP3 MSTORE POP POP JUMP JUMPDEST PUSH2 0x3020 DUP2 PUSH2 0x3C91 JUMP JUMPDEST DUP3 MSTORE POP POP JUMP JUMPDEST PUSH2 0x302F DUP2 PUSH2 0x3CA3 JUMP JUMPDEST DUP3 MSTORE POP POP JUMP JUMPDEST PUSH1 0x0 PUSH2 0x3040 DUP3 PUSH2 0x3AE5 JUMP JUMPDEST PUSH2 0x304A DUP2 DUP6 PUSH2 0x3AF0 JUMP JUMPDEST SWAP4 POP PUSH2 0x305A DUP2 DUP6 PUSH1 0x20 DUP7 ADD PUSH2 0x3CC4 JUMP JUMPDEST PUSH2 0x3063 DUP2 PUSH2 0x3E5D JUMP JUMPDEST DUP5 ADD SWAP2 POP POP SWAP3 SWAP2 POP POP JUMP JUMPDEST PUSH1 0x0 PUSH2 0x307B PUSH1 0x22 DUP4 PUSH2 0x3AF0 JUMP JUMPDEST SWAP2 POP PUSH32 0x4A6F62206D75737420626520696E2070726F677265737320746F206469737075 PUSH1 0x0 DUP4 ADD MSTORE PUSH32 0x7465000000000000000000000000000000000000000000000000000000000000 PUSH1 0x20 DUP4 ADD MSTORE PUSH1 0x40 DUP3 ADD SWAP1 POP SWAP2 SWAP1 POP JUMP JUMPDEST PUSH1 0x0 PUSH2 0x30E1 PUSH1 0x24 DUP4 PUSH2 0x3AF0 JUMP JUMPDEST SWAP2 POP PUSH32 0x4F6E6C7920436C69656E74732063616E20706572666F726D2074686973206163 PUSH1 0x0 DUP4 ADD MSTORE PUSH32 0x74696F6E00000000000000000000000000000000000000000000000000000000 PUSH1 0x20 DUP4 ADD MSTORE PUSH1 0x40 DUP3 ADD SWAP1 POP SWAP2 SWAP1 POP JUMP JUMPDEST PUSH1 0x0 PUSH2 0x3147 PUSH1 0xF DUP4 PUSH2 0x3AF0 JUMP JUMPDEST SWAP2 POP PUSH32 0x4A6F62206973206E6F74206F70656E0000000000000000000000000000000000 PUSH1 0x0 DUP4 ADD MSTORE PUSH1 0x20 DUP3 ADD SWAP1 POP SWAP2 SWAP1 POP JUMP JUMPDEST PUSH1 0x0 PUSH2 0x3187 PUSH1 0xF DUP4 PUSH2 0x3AF0 JUMP JUMPDEST SWAP2 POP PUSH32 0x436C69656E7420526566756E6465640000000000000000000000000000000000 PUSH1 0x0 DUP4 ADD MSTORE PUSH1 0x20 DUP3 ADD SWAP1 POP SWAP2 SWAP1 POP JUMP JUMPDEST PUSH1 0x0 PUSH2 0x31C7 PUSH1 0x25 DUP4 PUSH2 0x3AF0 JUMP JUMPDEST SWAP2 POP PUSH32 0x4F6E6C79206465706C6F7965722063616E207265676973746572206173204172 PUSH1 0x0 DUP4 ADD MSTORE PUSH32 0x6269746572000000000000000000000000000000000000000000000000000000 PUSH1 0x20 DUP4 ADD MSTORE PUSH1 0x40 DUP3 ADD SWAP1 POP SWAP2 SWAP1 POP JUMP JUMPDEST PUSH1 0x0 PUSH2 0x322D PUSH1 0x13 DUP4 PUSH2 0x3AF0 JUMP JUMPDEST SWAP2 POP PUSH32 0x4A6F62206E6F7420696E2070726F677265737300000000000000000000000000 PUSH1 0x0 DUP4 ADD MSTORE PUSH1 0x20 DUP3 ADD SWAP1 POP SWAP2 SWAP1 POP JUMP JUMPDEST PUSH1 0x0 PUSH2 0x326D PUSH1 0x24 DUP4 PUSH2 0x3AF0 JUMP JUMPDEST SWAP2 POP PUSH32 0x4F6E6C7920417262697465722063616E20706572666F726D2074686973206163 PUSH1 0x0 DUP4 ADD MSTORE PUSH32 0x74696F6E00000000000000000000000000000000000000000000000000000000 PUSH1 0x20 DUP4 ADD MSTORE PUSH1 0x40 DUP3 ADD SWAP1 POP SWAP2 SWAP1 POP JUMP JUMPDEST PUSH1 0x0 PUSH2 0x32D3 PUSH1 0x1A DUP4 PUSH2 0x3AF0 JUMP JUMPDEST SWAP2 POP PUSH32 0x4F6E6C79206A6F62206F776E65722063616E2064697370757465000000000000 PUSH1 0x0 DUP4 ADD MSTORE PUSH1 0x20 DUP3 ADD SWAP1 POP SWAP2 SWAP1 POP JUMP JUMPDEST PUSH1 0x0 PUSH2 0x3313 PUSH1 0x1B DUP4 PUSH2 0x3AF0 JUMP JUMPDEST SWAP2 POP PUSH32 0x496E636F727265637420457468657220616D6F756E742073656E740000000000 PUSH1 0x0 DUP4 ADD MSTORE PUSH1 0x20 DUP3 ADD SWAP1 POP SWAP2 SWAP1 POP JUMP JUMPDEST PUSH1 0x0 PUSH2 0x3353 PUSH1 0xC DUP4 PUSH2 0x3AF0 JUMP JUMPDEST SWAP2 POP PUSH32 0x496E76616C696420726F6C650000000000000000000000000000000000000000 PUSH1 0x0 DUP4 ADD MSTORE PUSH1 0x20 DUP3 ADD SWAP1 POP SWAP2 SWAP1 POP JUMP JUMPDEST PUSH1 0x0 PUSH2 0x3393 PUSH1 0x17 DUP4 PUSH2 0x3AF0 JUMP JUMPDEST SWAP2 POP PUSH32 0x55736572206D7573742062652072656769737465726564000000000000000000 PUSH1 0x0 DUP4 ADD MSTORE PUSH1 0x20 DUP3 ADD SWAP1 POP SWAP2 SWAP1 POP JUMP JUMPDEST PUSH1 0x0 PUSH2 0x33D3 PUSH1 0x19 DUP4 PUSH2 0x3AF0 JUMP JUMPDEST SWAP2 POP PUSH32 0x52657075746174696F6E20746F6F206C6F7720746F2062696400000000000000 PUSH1 0x0 DUP4 ADD MSTORE PUSH1 0x20 DUP3 ADD SWAP1 POP SWAP2 SWAP1 POP JUMP JUMPDEST PUSH1 0x0 PUSH2 0x3413 PUSH1 0x1A DUP4 PUSH2 0x3AF0 JUMP JUMPDEST SWAP2 POP PUSH32 0x4F6E6C79206A6F62206F776E65722063616E20617070726F7665000000000000 PUSH1 0x0 DUP4 ADD MSTORE PUSH1 0x20 DUP3 ADD SWAP1 POP SWAP2 SWAP1 POP JUMP JUMPDEST PUSH1 0x0 PUSH2 0x3453 PUSH1 0x17 DUP4 PUSH2 0x3AF0 JUMP JUMPDEST SWAP2 POP PUSH32 0x5573657220616C72656164792072656769737465726564000000000000000000 PUSH1 0x0 DUP4 ADD MSTORE PUSH1 0x20 DUP3 ADD SWAP1 POP SWAP2 SWAP1 POP JUMP JUMPDEST PUSH1 0x0 PUSH2 0x3493 PUSH1 0x28 DUP4 PUSH2 0x3AF0 JUMP JUMPDEST SWAP2 POP PUSH32 0x4F6E6C7920467265656C616E636572732063616E20706572666F726D20746869 PUSH1 0x0 DUP4 ADD MSTORE PUSH32 0x7320616374696F6E000000000000000000000000000000000000000000000000 PUSH1 0x20 DUP4 ADD MSTORE PUSH1 0x40 DUP3 ADD SWAP1 POP SWAP2 SWAP1 POP JUMP JUMPDEST PUSH1 0x0 PUSH2 0x34F9 PUSH1 0x1E DUP4 PUSH2 0x3AF0 JUMP JUMPDEST SWAP2 POP PUSH32 0x596F7520617265206E6F7420686972656420666F722074686973206A6F620000 PUSH1 0x0 DUP4 ADD MSTORE PUSH1 0x20 DUP3 ADD SWAP1 POP SWAP2 SWAP1 POP JUMP JUMPDEST PUSH1 0x0 PUSH2 0x3539 PUSH1 0x1B DUP4 PUSH2 0x3AF0 JUMP JUMPDEST SWAP2 POP PUSH32 0x4F6E6C7920746865206A6F62206F776E65722063616E20686972650000000000 PUSH1 0x0 DUP4 ADD MSTORE PUSH1 0x20 DUP3 ADD SWAP1 POP SWAP2 SWAP1 POP JUMP JUMPDEST PUSH1 0x0 PUSH2 0x3579 PUSH1 0xF DUP4 PUSH2 0x3AF0 JUMP JUMPDEST SWAP2 POP PUSH32 0x467265656C616E63657220506169640000000000000000000000000000000000 PUSH1 0x0 DUP4 ADD MSTORE PUSH1 0x20 DUP3 ADD SWAP1 POP SWAP2 SWAP1 POP JUMP JUMPDEST PUSH1 0x0 PUSH2 0x35B9 PUSH1 0x13 DUP4 PUSH2 0x3AF0 JUMP JUMPDEST SWAP2 POP PUSH32 0x4A6F62206973206E6F7420646973707574656400000000000000000000000000 PUSH1 0x0 DUP4 ADD MSTORE PUSH1 0x20 DUP3 ADD SWAP1 POP SWAP2 SWAP1 POP JUMP JUMPDEST PUSH1 0x0 PUSH2 0x35F9 PUSH1 0x12 DUP4 PUSH2 0x3AF0 JUMP JUMPDEST SWAP2 POP PUSH32 0x4269642065786365656473206275646765740000000000000000000000000000 PUSH1 0x0 DUP4 ADD MSTORE PUSH1 0x20 DUP3 ADD SWAP1 POP SWAP2 SWAP1 POP JUMP JUMPDEST PUSH2 0x3635 DUP2 PUSH2 0x3C7A JUMP JUMPDEST DUP3 MSTORE POP POP JUMP JUMPDEST PUSH1 0x0 PUSH1 0x20 DUP3 ADD SWAP1 POP PUSH2 0x3650 PUSH1 0x0 DUP4 ADD DUP5 PUSH2 0x2FF9 JUMP JUMPDEST SWAP3 SWAP2 POP POP JUMP JUMPDEST PUSH1 0x0 PUSH1 0x20 DUP3 ADD SWAP1 POP DUP2 DUP2 SUB PUSH1 0x0 DUP4 ADD MSTORE PUSH2 0x3670 DUP2 DUP5 PUSH2 0x3035 JUMP JUMPDEST SWAP1 POP SWAP3 SWAP2 POP POP JUMP JUMPDEST PUSH1 0x0 PUSH1 0x40 DUP3 ADD SWAP1 POP DUP2 DUP2 SUB PUSH1 0x0 DUP4 ADD MSTORE PUSH2 0x3692 DUP2 DUP6 PUSH2 0x3035 JUMP JUMPDEST SWAP1 POP PUSH2 0x36A1 PUSH1 0x20 DUP4 ADD DUP5 PUSH2 0x3026 JUMP JUMPDEST SWAP4 SWAP3 POP POP POP JUMP JUMPDEST PUSH1 0x0 PUSH1 0xA0 DUP3 ADD SWAP1 POP DUP2 DUP2 SUB PUSH1 0x0 DUP4 ADD MSTORE PUSH2 0x36C2 DUP2 DUP9 PUSH2 0x3035 JUMP JUMPDEST SWAP1 POP PUSH2 0x36D1 PUSH1 0x20 DUP4 ADD DUP8 PUSH2 0x3026 JUMP JUMPDEST PUSH2 0x36DE PUSH1 0x40 DUP4 ADD DUP7 PUSH2 0x2FF9 JUMP JUMPDEST PUSH2 0x36EB PUSH1 0x60 DUP4 ADD DUP6 PUSH2 0x362C JUMP JUMPDEST PUSH2 0x36F8 PUSH1 0x80 DUP4 ADD DUP5 PUSH2 0x3008 JUMP JUMPDEST SWAP7 SWAP6 POP POP POP POP POP POP JUMP JUMPDEST PUSH1 0x0 PUSH1 0x20 DUP3 ADD SWAP1 POP DUP2 DUP2 SUB PUSH1 0x0 DUP4 ADD MSTORE PUSH2 0x371B DUP2 PUSH2 0x306E JUMP JUMPDEST SWAP1 POP SWAP2 SWAP1 POP JUMP JUMPDEST PUSH1 0x0 PUSH1 0x20 DUP3 ADD SWAP1 POP DUP2 DUP2 SUB PUSH1 0x0 DUP4 ADD MSTORE PUSH2 0x373B DUP2 PUSH2 0x30D4 JUMP JUMPDEST SWAP1 POP SWAP2 SWAP1 POP JUMP JUMPDEST PUSH1 0x0 PUSH1 0x20 DUP3 ADD SWAP1 POP DUP2 DUP2 SUB PUSH1 0x0 DUP4 ADD MSTORE PUSH2 0x375B DUP2 PUSH2 0x313A JUMP JUMPDEST SWAP1 POP SWAP2 SWAP1 POP JUMP JUMPDEST PUSH1 0x0 PUSH1 0x20 DUP3 ADD SWAP1 POP DUP2 DUP2 SUB PUSH1 0x0 DUP4 ADD MSTORE PUSH2 0x377B DUP2 PUSH2 0x317A JUMP JUMPDEST SWAP1 POP SWAP2 SWAP1 POP JUMP JUMPDEST PUSH1 0x0 PUSH1 0x20 DUP3 ADD SWAP1 POP DUP2 DUP2 SUB PUSH1 0x0 DUP4 ADD MSTORE PUSH2 0x379B DUP2 PUSH2 0x31BA JUMP JUMPDEST SWAP1 POP SWAP2 SWAP1 POP JUMP JUMPDEST PUSH1 0x0 PUSH1 0x20 DUP3 ADD SWAP1 POP DUP2 DUP2 SUB PUSH1 0x0 DUP4 ADD MSTORE PUSH2 0x37BB DUP2 PUSH2 0x3220 JUMP JUMPDEST SWAP1 POP SWAP2 SWAP1 POP JUMP JUMPDEST PUSH1 0x0 PUSH1 0x20 DUP3 ADD SWAP1 POP DUP2 DUP2 SUB PUSH1 0x0 DUP4 ADD MSTORE PUSH2 0x37DB DUP2 PUSH2 0x3260 JUMP JUMPDEST SWAP1 POP SWAP2 SWAP1 POP JUMP JUMPDEST PUSH1 0x0 PUSH1 0x20 DUP3 ADD SWAP1 POP DUP2 DUP2 SUB PUSH1 0x0 DUP4 ADD MSTORE PUSH2 0x37FB DUP2 PUSH2 0x32C6 JUMP JUMPDEST SWAP1 POP SWAP2 SWAP1 POP JUMP JUMPDEST PUSH1 0x0 PUSH1 0x20 DUP3 ADD SWAP1 POP DUP2 DUP2 SUB PUSH1 0x0 DUP4 ADD MSTORE PUSH2 0x381B DUP2 PUSH2 0x3306 JUMP JUMPDEST SWAP1 POP SWAP2 SWAP1 POP JUMP JUMPDEST PUSH1 0x0 PUSH1 0x20 DUP3 ADD SWAP1 POP DUP2 DUP2 SUB PUSH1 0x0 DUP4 ADD MSTORE PUSH2 0x383B DUP2 PUSH2 0x3346 JUMP JUMPDEST SWAP1 POP SWAP2 SWAP1 POP JUMP JUMPDEST PUSH1 0x0 PUSH1 0x20 DUP3 ADD SWAP1 POP DUP2 DUP2 SUB PUSH1 0x0 DUP4 ADD MSTORE PUSH2 0x385B DUP2 PUSH2 0x3386 JUMP JUMPDEST SWAP1 POP SWAP2 SWAP1 POP JUMP JUMPDEST PUSH1 0x0 PUSH1 0x20 DUP3 ADD SWAP1 POP DUP2 DUP2 SUB PUSH1 0x0 DUP4 ADD MSTORE PUSH2 0x387B DUP2 PUSH2 0x33C6 JUMP JUMPDEST SWAP1 POP SWAP2 SWAP1 POP JUMP JUMPDEST PUSH1 0x0 PUSH1 0x20 DUP3 ADD SWAP1 POP DUP2 DUP2 SUB PUSH1 0x0 DUP4 ADD MSTORE PUSH2 0x389B DUP2 PUSH2 0x3406 JUMP JUMPDEST SWAP1 POP SWAP2 SWAP1 POP JUMP JUMPDEST PUSH1 0x0 PUSH1 0x20 DUP3 ADD SWAP1 POP DUP2 DUP2 SUB PUSH1 0x0 DUP4 ADD MSTORE PUSH2 0x38BB DUP2 PUSH2 0x3446 JUMP JUMPDEST SWAP1 POP SWAP2 SWAP1 POP JUMP JUMPDEST PUSH1 0x0 PUSH1 0x20 DUP3 ADD SWAP1 POP DUP2 DUP2 SUB PUSH1 0x0 DUP4 ADD MSTORE PUSH2 0x38DB DUP2 PUSH2 0x3486 JUMP JUMPDEST SWAP1 POP SWAP2 SWAP1 POP JUMP JUMPDEST PUSH1 0x0 PUSH1 0x20 DUP3 ADD SWAP1 POP DUP2 DUP2 SUB PUSH1 0x0 DUP4 ADD MSTORE PUSH2 0x38FB DUP2 PUSH2 0x34EC JUMP JUMPDEST SWAP1 POP SWAP2 SWAP1 POP JUMP JUMPDEST PUSH1 0x0 PUSH1 0x20 DUP3 ADD SWAP1 POP DUP2 DUP2 SUB PUSH1 0x0 DUP4 ADD MSTORE PUSH2 0x391B DUP2 PUSH2 0x352C JUMP JUMPDEST SWAP1 POP SWAP2 SWAP1 POP JUMP JUMPDEST PUSH1 0x0 PUSH1 0x20 DUP3 ADD SWAP1 POP DUP2 DUP2 SUB PUSH1 0x0 DUP4 ADD MSTORE PUSH2 0x393B DUP2 PUSH2 0x356C JUMP JUMPDEST SWAP1 POP SWAP2 SWAP1 POP JUMP JUMPDEST PUSH1 0x0 PUSH1 0x20 DUP3 ADD SWAP1 POP DUP2 DUP2 SUB PUSH1 0x0 DUP4 ADD MSTORE PUSH2 0x395B DUP2 PUSH2 0x35AC JUMP JUMPDEST SWAP1 POP SWAP2 SWAP1 POP JUMP JUMPDEST PUSH1 0x0 PUSH1 0x20 DUP3 ADD SWAP1 POP DUP2 DUP2 SUB PUSH1 0x0 DUP4 ADD MSTORE PUSH2 0x397B DUP2 PUSH2 0x35EC JUMP JUMPDEST SWAP1 POP SWAP2 SWAP1 POP JUMP JUMPDEST PUSH1 0x0 PUSH1 0x20 DUP3 ADD SWAP1 POP PUSH2 0x3997 PUSH1 0x0 DUP4 ADD DUP5 PUSH2 0x362C JUMP JUMPDEST SWAP3 SWAP2 POP POP JUMP JUMPDEST PUSH1 0x0 PUSH2 0x120 DUP3 ADD SWAP1 POP PUSH2 0x39B3 PUSH1 0x0 DUP4 ADD DUP13 PUSH2 0x362C JUMP JUMPDEST PUSH2 0x39C0 PUSH1 0x20 DUP4 ADD DUP12 PUSH2 0x2FF9 JUMP JUMPDEST DUP2 DUP2 SUB PUSH1 0x40 DUP4 ADD MSTORE PUSH2 0x39D2 DUP2 DUP11 PUSH2 0x3035 JUMP JUMPDEST SWAP1 POP DUP2 DUP2 SUB PUSH1 0x60 DUP4 ADD MSTORE PUSH2 0x39E6 DUP2 DUP10 PUSH2 0x3035 JUMP JUMPDEST SWAP1 POP PUSH2 0x39F5 PUSH1 0x80 DUP4 ADD DUP9 PUSH2 0x362C JUMP JUMPDEST PUSH2 0x3A02 PUSH1 0xA0 DUP4 ADD DUP8 PUSH2 0x362C JUMP JUMPDEST PUSH2 0x3A0F PUSH1 0xC0 DUP4 ADD DUP7 PUSH2 0x3017 JUMP JUMPDEST PUSH2 0x3A1C PUSH1 0xE0 DUP4 ADD DUP6 PUSH2 0x362C JUMP JUMPDEST PUSH2 0x3A2A PUSH2 0x100 DUP4 ADD DUP5 PUSH2 0x2FF9 JUMP JUMPDEST SWAP11 SWAP10 POP POP POP POP POP POP POP POP POP POP JUMP JUMPDEST PUSH1 0x0 PUSH1 0x80 DUP3 ADD SWAP1 POP PUSH2 0x3A4D PUSH1 0x0 DUP4 ADD DUP8 PUSH2 0x362C JUMP JUMPDEST PUSH2 0x3A5A PUSH1 0x20 DUP4 ADD DUP7 PUSH2 0x2FF9 JUMP JUMPDEST PUSH2 0x3A67 PUSH1 0x40 DUP4 ADD DUP6 PUSH2 0x362C JUMP JUMPDEST DUP2 DUP2 SUB PUSH1 0x60 DUP4 ADD MSTORE PUSH2 0x3A79 DUP2 DUP5 PUSH2 0x3035 JUMP JUMPDEST SWAP1 POP SWAP6 SWAP5 POP POP POP POP POP JUMP JUMPDEST PUSH1 0x0 PUSH1 0x40 MLOAD SWAP1 POP DUP2 DUP2 ADD DUP2 DUP2 LT PUSH8 0xFFFFFFFFFFFFFFFF DUP3 GT OR ISZERO PUSH2 0x3AAB JUMPI PUSH2 0x3AAA PUSH2 0x3E2E JUMP JUMPDEST JUMPDEST DUP1 PUSH1 0x40 MSTORE POP SWAP2 SWAP1 POP JUMP JUMPDEST PUSH1 0x0 PUSH8 0xFFFFFFFFFFFFFFFF DUP3 GT ISZERO PUSH2 0x3AD0 JUMPI PUSH2 0x3ACF PUSH2 0x3E2E JUMP JUMPDEST JUMPDEST PUSH1 0x1F NOT PUSH1 0x1F DUP4 ADD AND SWAP1 POP PUSH1 0x20 DUP2 ADD SWAP1 POP SWAP2 SWAP1 POP JUMP JUMPDEST PUSH1 0x0 DUP2 MLOAD SWAP1 POP SWAP2 SWAP1 POP JUMP JUMPDEST PUSH1 0x0 DUP3 DUP3 MSTORE PUSH1 0x20 DUP3 ADD SWAP1 POP SWAP3 SWAP2 POP POP JUMP JUMPDEST PUSH1 0x0 PUSH2 0x3B0C DUP3 PUSH2 0x3C7A JUMP JUMPDEST SWAP2 POP PUSH2 0x3B17 DUP4 PUSH2 0x3C7A JUMP JUMPDEST SWAP3 POP DUP3 PUSH32 0xFFFFFFFFFFFFFFFFFFFFFFFFFFFFFFFFFFFFFFFFFFFFFFFFFFFFFFFFFFFFFFFF SUB DUP3 GT ISZERO PUSH2 0x3B4C JUMPI PUSH2 0x3B4B PUSH2 0x3D72 JUMP JUMPDEST JUMPDEST DUP3 DUP3 ADD SWAP1 POP SWAP3 SWAP2 POP POP JUMP JUMPDEST PUSH1 0x0 PUSH2 0x3B62 DUP3 PUSH2 0x3C7A JUMP JUMPDEST SWAP2 POP PUSH2 0x3B6D DUP4 PUSH2 0x3C7A JUMP JUMPDEST SWAP3 POP DUP3 PUSH2 0x3B7D JUMPI PUSH2 0x3B7C PUSH2 0x3DA1 JUMP JUMPDEST JUMPDEST DUP3 DUP3 DIV SWAP1 POP SWAP3 SWAP2 POP POP JUMP JUMPDEST PUSH1 0x0 PUSH2 0x3B93 DUP3 PUSH2 0x3C7A JUMP JUMPDEST SWAP2 POP PUSH2 0x3B9E DUP4 PUSH2 0x3C7A JUMP JUMPDEST SWAP3 POP DUP2 PUSH32 0xFFFFFFFFFFFFFFFFFFFFFFFFFFFFFFFFFFFFFFFFFFFFFFFFFFFFFFFFFFFFFFFF DIV DUP4 GT DUP3 ISZERO ISZERO AND ISZERO PUSH2 0x3BD7 JUMPI PUSH2 0x3BD6 PUSH2 0x3D72 JUMP JUMPDEST JUMPDEST DUP3 DUP3 MUL SWAP1 POP SWAP3 SWAP2 POP POP JUMP JUMPDEST PUSH1 0x0 PUSH2 0x3BED DUP3 PUSH2 0x3C7A JUMP JUMPDEST SWAP2 POP PUSH2 0x3BF8 DUP4 PUSH2 0x3C7A JUMP JUMPDEST SWAP3 POP DUP3 DUP3 LT ISZERO PUSH2 0x3C0B JUMPI PUSH2 0x3C0A PUSH2 0x3D72 JUMP JUMPDEST JUMPDEST DUP3 DUP3 SUB SWAP1 POP SWAP3 SWAP2 POP POP JUMP JUMPDEST PUSH1 0x0 PUSH2 0x3C21 DUP3 PUSH2 0x3C5A JUMP JUMPDEST SWAP1 POP SWAP2 SWAP1 POP JUMP JUMPDEST PUSH1 0x0 DUP2 ISZERO ISZERO SWAP1 POP SWAP2 SWAP1 POP JUMP JUMPDEST PUSH1 0x0 DUP2 SWAP1 POP PUSH2 0x3C42 DUP3 PUSH2 0x3E6E JUMP JUMPDEST SWAP2 SWAP1 POP JUMP JUMPDEST PUSH1 0x0 DUP2 SWAP1 POP PUSH2 0x3C55 DUP3 PUSH2 0x3E82 JUMP JUMPDEST SWAP2 SWAP1 POP JUMP JUMPDEST PUSH1 0x0 PUSH20 0xFFFFFFFFFFFFFFFFFFFFFFFFFFFFFFFFFFFFFFFF DUP3 AND SWAP1 POP SWAP2 SWAP1 POP JUMP JUMPDEST PUSH1 0x0 DUP2 SWAP1 POP SWAP2 SWAP1 POP JUMP JUMPDEST PUSH1 0x0 PUSH1 0xFF DUP3 AND SWAP1 POP SWAP2 SWAP1 POP JUMP JUMPDEST PUSH1 0x0 PUSH2 0x3C9C DUP3 PUSH2 0x3C34 JUMP JUMPDEST SWAP1 POP SWAP2 SWAP1 POP JUMP JUMPDEST PUSH1 0x0 PUSH2 0x3CAE DUP3 PUSH2 0x3C47 JUMP JUMPDEST SWAP1 POP SWAP2 SWAP1 POP JUMP JUMPDEST DUP3 DUP2 DUP4 CALLDATACOPY PUSH1 0x0 DUP4 DUP4 ADD MSTORE POP POP POP JUMP JUMPDEST PUSH1 0x0 JUMPDEST DUP4 DUP2 LT ISZERO PUSH2 0x3CE2 JUMPI DUP1 DUP3 ADD MLOAD DUP2 DUP5 ADD MSTORE PUSH1 0x20 DUP2 ADD SWAP1 POP PUSH2 0x3CC7 JUMP JUMPDEST DUP4 DUP2 GT ISZERO PUSH2 0x3CF1 JUMPI PUSH1 0x0 DUP5 DUP5 ADD MSTORE JUMPDEST POP POP POP POP JUMP JUMPDEST PUSH1 0x0 PUSH1 0x2 DUP3 DIV SWAP1 POP PUSH1 0x1 DUP3 AND DUP1 PUSH2 0x3D0F JUMPI PUSH1 0x7F DUP3 AND SWAP2 POP JUMPDEST PUSH1 0x20 DUP3 LT DUP2 EQ ISZERO PUSH2 0x3D23 JUMPI PUSH2 0x3D22 PUSH2 0x3DFF JUMP JUMPDEST JUMPDEST POP SWAP2 SWAP1 POP JUMP JUMPDEST PUSH1 0x0 PUSH2 0x3D34 DUP3 PUSH2 0x3C7A JUMP JUMPDEST SWAP2 POP PUSH32 0xFFFFFFFFFFFFFFFFFFFFFFFFFFFFFFFFFFFFFFFFFFFFFFFFFFFFFFFFFFFFFFFF DUP3 EQ ISZERO PUSH2 0x3D67 JUMPI PUSH2 0x3D66 PUSH2 0x3D72 JUMP JUMPDEST JUMPDEST PUSH1 0x1 DUP3 ADD SWAP1 POP SWAP2 SWAP1 POP JUMP JUMPDEST PUSH32 0x4E487B7100000000000000000000000000000000000000000000000000000000 PUSH1 0x0 MSTORE PUSH1 0x11 PUSH1 0x4 MSTORE PUSH1 0x24 PUSH1 0x0 REVERT JUMPDEST PUSH32 0x4E487B7100000000000000000000000000000000000000000000000000000000 PUSH1 0x0 MSTORE PUSH1 0x12 PUSH1 0x4 MSTORE PUSH1 0x24 PUSH1 0x0 REVERT JUMPDEST PUSH32 0x4E487B7100000000000000000000000000000000000000000000000000000000 PUSH1 0x0 MSTORE PUSH1 0x21 PUSH1 0x4 MSTORE PUSH1 0x24 PUSH1 0x0 REVERT JUMPDEST PUSH32 0x4E487B7100000000000000000000000000000000000000000000000000000000 PUSH1 0x0 MSTORE PUSH1 0x22 PUSH1 0x4 MSTORE PUSH1 0x24 PUSH1 0x0 REVERT JUMPDEST PUSH32 0x4E487B7100000000000000000000000000000000000000000000000000000000 PUSH1 0x0 MSTORE PUSH1 0x41 PUSH1 0x4 MSTORE PUSH1 0x24 PUSH1 0x0 REVERT JUMPDEST PUSH1 0x0 PUSH1 0x1F NOT PUSH1 0x1F DUP4 ADD AND SWAP1 POP SWAP2 SWAP1 POP JUMP JUMPDEST PUSH1 0x6 DUP2 LT PUSH2 0x3E7F JUMPI PUSH2 0x3E7E PUSH2 0x3DD0 JUMP JUMPDEST JUMPDEST POP JUMP JUMPDEST PUSH1 0x4 DUP2 LT PUSH2 0x3E93 JUMPI PUSH2 0x3E92 PUSH2 0x3DD0 JUMP JUMPDEST JUMPDEST POP JUMP JUMPDEST PUSH2 0x3E9F DUP2 PUSH2 0x3C16 JUMP JUMPDEST DUP2 EQ PUSH2 0x3EAA JUMPI PUSH1 0x0 DUP1 REVERT JUMPDEST POP JUMP JUMPDEST PUSH2 0x3EB6 DUP2 PUSH2 0x3C28 JUMP JUMPDEST DUP2 EQ PUSH2 0x3EC1 JUMPI PUSH1 0x0 DUP1 REVERT JUMPDEST POP JUMP JUMPDEST PUSH2 0x3ECD DUP2 PUSH2 0x3C7A JUMP JUMPDEST DUP2 EQ PUSH2 0x3ED8 JUMPI PUSH1 0x0 DUP1 REVERT JUMPDEST POP JUMP JUMPDEST PUSH2 0x3EE4 DUP2 PUSH2 0x3C84 JUMP JUMPDEST DUP2 EQ PUSH2 0x3EEF JUMPI PUSH1 0x0 DUP1 REVERT JUMPDEST POP JUMP INVALID LOG2 PUSH5 0x6970667358 0x22 SLT KECCAK256 0xCF PUSH29 0x44A019EB91857285F9B5C982D7DF457104B659451187FCF0191C2B13D8 0xFC PUSH5 0x736F6C6343 STOP ADDMOD STOP STOP CALLER "
				},
				"gasEstimates": {
					"creation": {
						"codeDepositCost": "3233600",
						"executionCost": "24453",
						"totalCost": "3258053"
					},
					"external": {
						"approveWork(uint256)": "infinite",
						"arbiter()": "1299",
						"disputeJob(uint256)": "26719",
						"hireFreelancer(uint256,uint256)": "infinite",
						"jobBids(uint256,uint256)": "infinite",
						"jobCounter()": "1196",
						"jobs(uint256)": "infinite",
						"placeBid(uint256,uint256,string)": "infinite",
						"platformFeesCollected()": "1196",
						"postJob(string,string,uint256,uint256)": "infinite",
						"registerUser(string,uint8)": "infinite",
						"resolveDispute(uint256,bool)": "infinite",
						"submitWork(uint256)": "5804",
						"users(address)": "infinite"
					}
				},
				"methodIdentifiers": {
					"approveWork(uint256)": "3d01e0fa",
					"arbiter()": "fe25e00a",
					"disputeJob(uint256)": "d93d9beb",
					"hireFreelancer(uint256,uint256)": "f73b60a9",
					"jobBids(uint256,uint256)": "840850d1",
					"jobCounter()": "50355d76",
					"jobs(uint256)": "180aedf3",
					"placeBid(uint256,uint256,string)": "44739b52",
					"platformFeesCollected()": "b36ffca6",
					"postJob(string,string,uint256,uint256)": "71bf6bed",
					"registerUser(string,uint8)": "338e12eb",
					"resolveDispute(uint256,bool)": "34b25ee2",
					"submitWork(uint256)": "c4c11523",
					"users(address)": "a87430ba"
				}
			},
			"storageLayout": {
				"storage": [
					{
						"astId": 56,
						"contract": "FreelanceMarketplace.sol:FreelanceMarketplace",
						"label": "arbiter",
						"offset": 0,
						"slot": "0",
						"type": "t_address"
					},
					{
						"astId": 58,
						"contract": "FreelanceMarketplace.sol:FreelanceMarketplace",
						"label": "jobCounter",
						"offset": 0,
						"slot": "1",
						"type": "t_uint256"
					},
					{
						"astId": 60,
						"contract": "FreelanceMarketplace.sol:FreelanceMarketplace",
						"label": "platformFeesCollected",
						"offset": 0,
						"slot": "2",
						"type": "t_uint256"
					},
					{
						"astId": 65,
						"contract": "FreelanceMarketplace.sol:FreelanceMarketplace",
						"label": "users",
						"offset": 0,
						"slot": "3",
						"type": "t_mapping(t_address,t_struct(User)25_storage)"
					},
					{
						"astId": 70,
						"contract": "FreelanceMarketplace.sol:FreelanceMarketplace",
						"label": "jobs",
						"offset": 0,
						"slot": "4",
						"type": "t_mapping(t_uint256,t_struct(Job)45_storage)"
					},
					{
						"astId": 76,
						"contract": "FreelanceMarketplace.sol:FreelanceMarketplace",
						"label": "jobBids",
						"offset": 0,
						"slot": "5",
						"type": "t_mapping(t_uint256,t_array(t_struct(Bid)54_storage)dyn_storage)"
					}
				],
				"types": {
					"t_address": {
						"encoding": "inplace",
						"label": "address",
						"numberOfBytes": "20"
					},
					"t_array(t_struct(Bid)54_storage)dyn_storage": {
						"base": "t_struct(Bid)54_storage",
						"encoding": "dynamic_array",
						"label": "struct FreelanceMarketplace.Bid[]",
						"numberOfBytes": "32"
					},
					"t_bool": {
						"encoding": "inplace",
						"label": "bool",
						"numberOfBytes": "1"
					},
					"t_enum(JobStatus)13": {
						"encoding": "inplace",
						"label": "enum FreelanceMarketplace.JobStatus",
						"numberOfBytes": "1"
					},
					"t_enum(Role)6": {
						"encoding": "inplace",
						"label": "enum FreelanceMarketplace.Role",
						"numberOfBytes": "1"
					},
					"t_mapping(t_address,t_struct(User)25_storage)": {
						"encoding": "mapping",
						"key": "t_address",
						"label": "mapping(address => struct FreelanceMarketplace.User)",
						"numberOfBytes": "32",
						"value": "t_struct(User)25_storage"
					},
					"t_mapping(t_uint256,t_array(t_struct(Bid)54_storage)dyn_storage)": {
						"encoding": "mapping",
						"key": "t_uint256",
						"label": "mapping(uint256 => struct FreelanceMarketplace.Bid[])",
						"numberOfBytes": "32",
						"value": "t_array(t_struct(Bid)54_storage)dyn_storage"
					},
					"t_mapping(t_uint256,t_struct(Job)45_storage)": {
						"encoding": "mapping",
						"key": "t_uint256",
						"label": "mapping(uint256 => struct FreelanceMarketplace.Job)",
						"numberOfBytes": "32",
						"value": "t_struct(Job)45_storage"
					},
					"t_string_storage": {
						"encoding": "bytes",
						"label": "string",
						"numberOfBytes": "32"
					},
					"t_struct(Bid)54_storage": {
						"encoding": "inplace",
						"label": "struct FreelanceMarketplace.Bid",
						"members": [
							{
								"astId": 47,
								"contract": "FreelanceMarketplace.sol:FreelanceMarketplace",
								"label": "jobId",
								"offset": 0,
								"slot": "0",
								"type": "t_uint256"
							},
							{
								"astId": 49,
								"contract": "FreelanceMarketplace.sol:FreelanceMarketplace",
								"label": "freelancer",
								"offset": 0,
								"slot": "1",
								"type": "t_address"
							},
							{
								"astId": 51,
								"contract": "FreelanceMarketplace.sol:FreelanceMarketplace",
								"label": "bidAmount",
								"offset": 0,
								"slot": "2",
								"type": "t_uint256"
							},
							{
								"astId": 53,
								"contract": "FreelanceMarketplace.sol:FreelanceMarketplace",
								"label": "proposedTime",
								"offset": 0,
								"slot": "3",
								"type": "t_string_storage"
							}
						],
						"numberOfBytes": "128"
					},
					"t_struct(Job)45_storage": {
						"encoding": "inplace",
						"label": "struct FreelanceMarketplace.Job",
						"members": [
							{
								"astId": 27,
								"contract": "FreelanceMarketplace.sol:FreelanceMarketplace",
								"label": "id",
								"offset": 0,
								"slot": "0",
								"type": "t_uint256"
							},
							{
								"astId": 29,
								"contract": "FreelanceMarketplace.sol:FreelanceMarketplace",
								"label": "client",
								"offset": 0,
								"slot": "1",
								"type": "t_address"
							},
							{
								"astId": 31,
								"contract": "FreelanceMarketplace.sol:FreelanceMarketplace",
								"label": "title",
								"offset": 0,
								"slot": "2",
								"type": "t_string_storage"
							},
							{
								"astId": 33,
								"contract": "FreelanceMarketplace.sol:FreelanceMarketplace",
								"label": "category",
								"offset": 0,
								"slot": "3",
								"type": "t_string_storage"
							},
							{
								"astId": 35,
								"contract": "FreelanceMarketplace.sol:FreelanceMarketplace",
								"label": "maxBudget",
								"offset": 0,
								"slot": "4",
								"type": "t_uint256"
							},
							{
								"astId": 37,
								"contract": "FreelanceMarketplace.sol:FreelanceMarketplace",
								"label": "deadline",
								"offset": 0,
								"slot": "5",
								"type": "t_uint256"
							},
							{
								"astId": 40,
								"contract": "FreelanceMarketplace.sol:FreelanceMarketplace",
								"label": "status",
								"offset": 0,
								"slot": "6",
								"type": "t_enum(JobStatus)13"
							},
							{
								"astId": 42,
								"contract": "FreelanceMarketplace.sol:FreelanceMarketplace",
								"label": "lockedAmount",
								"offset": 0,
								"slot": "7",
								"type": "t_uint256"
							},
							{
								"astId": 44,
								"contract": "FreelanceMarketplace.sol:FreelanceMarketplace",
								"label": "selectedFreelancer",
								"offset": 0,
								"slot": "8",
								"type": "t_address"
							}
						],
						"numberOfBytes": "288"
					},
					"t_struct(User)25_storage": {
						"encoding": "inplace",
						"label": "struct FreelanceMarketplace.User",
						"members": [
							{
								"astId": 15,
								"contract": "FreelanceMarketplace.sol:FreelanceMarketplace",
								"label": "name",
								"offset": 0,
								"slot": "0",
								"type": "t_string_storage"
							},
							{
								"astId": 18,
								"contract": "FreelanceMarketplace.sol:FreelanceMarketplace",
								"label": "role",
								"offset": 0,
								"slot": "1",
								"type": "t_enum(Role)6"
							},
							{
								"astId": 20,
								"contract": "FreelanceMarketplace.sol:FreelanceMarketplace",
								"label": "walletAddress",
								"offset": 1,
								"slot": "1",
								"type": "t_address"
							},
							{
								"astId": 22,
								"contract": "FreelanceMarketplace.sol:FreelanceMarketplace",
								"label": "reputation",
								"offset": 0,
								"slot": "2",
								"type": "t_uint256"
							},
							{
								"astId": 24,
								"contract": "FreelanceMarketplace.sol:FreelanceMarketplace",
								"label": "isRegistered",
								"offset": 0,
								"slot": "3",
								"type": "t_bool"
							}
						],
						"numberOfBytes": "128"
					},
					"t_uint256": {
						"encoding": "inplace",
						"label": "uint256",
						"numberOfBytes": "32"
					}
				}
			},
			"userdoc": {
				"kind": "user",
				"methods": {},
				"version": 1
			}
		}
	}
}