{
  "contractName": "FreelanceMarketplace",
  "abi": [
    {
      "inputs": [],
      "stateMutability": "nonpayable",
      "type": "constructor"
    },
    {
      "anonymous": false,
      "inputs": [
        {
          "indexed": true,
          "internalType": "uint256",
          "name": "jobId",
          "type": "uint256"
        },
        {
          "indexed": true,
          "internalType": "address",
          "name": "freelancer",
          "type": "address"
        },
        {
          "indexed": false,
          "internalType": "uint256",
          "name": "amount",
          "type": "uint256"
        }
      ],
      "name": "BidPlaced",
      "type": "event"
    },
    {
      "anonymous": false,
      "inputs": [
        {
          "indexed": true,
          "internalType": "uint256",
          "name": "jobId",
          "type": "uint256"
        },
        {
          "indexed": false,
          "internalType": "string",
          "name": "outcome",
          "type": "string"
        }
      ],
      "name": "DisputeResolved",
      "type": "event"
    },
    {
      "anonymous": false,
      "inputs": [
        {
          "indexed": true,
          "internalType": "uint256",
          "name": "jobId",
          "type": "uint256"
        },
        {
          "indexed": true,
          "internalType": "address",
          "name": "client",
          "type": "address"
        },
        {
          "indexed": true,
          "internalType": "address",
          "name": "freelancer",
          "type": "address"
        },
        {
          "indexed": false,
          "internalType": "uint256",
          "name": "feeDeducted",
          "type": "uint256"
        }
      ],
      "name": "JobCompleted",
      "type": "event"
    },
    {
      "anonymous": false,
      "inputs": [
        {
          "indexed": true,
          "internalType": "uint256",
          "name": "jobId",
          "type": "uint256"
        },
        {
          "indexed": true,
          "internalType": "address",
          "name": "client",
          "type": "address"
        }
      ],
      "name": "JobDisputed",
      "type": "event"
    },
    {
      "anonymous": false,
      "inputs": [
        {
          "indexed": true,
          "internalType": "uint256",
          "name": "jobId",
          "type": "uint256"
        },
        {
          "indexed": true,
          "internalType": "address",
          "name": "client",
          "type": "address"
        },
        {
          "indexed": true,
          "internalType": "address",
          "name": "freelancer",
          "type": "address"
        },
        {
          "indexed": false,
          "internalType": "uint256",
          "name": "amount",
          "type": "uint256"
        }
      ],
      "name": "JobHired",
      "type": "event"
    },
    {
      "anonymous": false,
      "inputs": [
        {
          "indexed": true,
          "internalType": "uint256",
          "name": "jobId",
          "type": "uint256"
        },
        {
          "indexed": true,
          "internalType": "address",
          "name": "client",
          "type": "address"
        },
        {
          "indexed": false,
          "internalType": "string",
          "name": "title",
          "type": "string"
        }
      ],
      "name": "JobPosted",
      "type": "event"
    },
    {
      "anonymous": false,
      "inputs": [
        {
          "indexed": true,
          "internalType": "address",
          "name": "user",
          "type": "address"
        },
        {
          "indexed": false,
          "internalType": "string",
          "name": "name",
          "type": "string"
        },
        {
          "indexed": false,
          "internalType": "enum FreelanceMarketplace.Role",
          "name": "role",
          "type": "uint8"
        }
      ],
      "name": "UserRegistered",
      "type": "event"
    },
    {
      "anonymous": false,
      "inputs": [
        {
          "indexed": true,
          "internalType": "uint256",
          "name": "jobId",
          "type": "uint256"
        },
        {
          "indexed": true,
          "internalType": "address",
          "name": "freelancer",
          "type": "address"
        }
      ],
      "name": "WorkSubmitted",
      "type": "event"
    },
    {
      "inputs": [],
      "name": "arbiter",
      "outputs": [
        {
          "internalType": "address",
          "name": "",
          "type": "address"
        }
      ],
      "stateMutability": "view",
      "type": "function",
      "constant": true
    },
    {
      "inputs": [
        {
          "internalType": "uint256",
          "name": "",
          "type": "uint256"
        },
        {
          "internalType": "uint256",
          "name": "",
          "type": "uint256"
        }
      ],
      "name": "jobBids",
      "outputs": [
        {
          "internalType": "uint256",
          "name": "jobId",
          "type": "uint256"
        },
        {
          "internalType": "address",
          "name": "freelancer",
          "type": "address"
        },
        {
          "internalType": "uint256",
          "name": "bidAmount",
          "type": "uint256"
        },
        {
          "internalType": "string",
          "name": "proposedTime",
          "type": "string"
        }
      ],
      "stateMutability": "view",
      "type": "function",
      "constant": true
    },
    {
      "inputs": [],
      "name": "jobCounter",
      "outputs": [
        {
          "internalType": "uint256",
          "name": "",
          "type": "uint256"
        }
      ],
      "stateMutability": "view",
      "type": "function",
      "constant": true
    },
    {
      "inputs": [
        {
          "internalType": "uint256",
          "name": "",
          "type": "uint256"
        }
      ],
      "name": "jobs",
      "outputs": [
        {
          "internalType": "uint256",
          "name": "id",
          "type": "uint256"
        },
        {
          "internalType": "address",
          "name": "client",
          "type": "address"
        },
        {
          "internalType": "string",
          "name": "title",
          "type": "string"
        },
        {
          "internalType": "string",
          "name": "category",
          "type": "string"
        },
        {
          "internalType": "uint256",
          "name": "maxBudget",
          "type": "uint256"
        },
        {
          "internalType": "uint256",
          "name": "deadline",
          "type": "uint256"
        },
        {
          "internalType": "enum FreelanceMarketplace.JobStatus",
          "name": "status",
          "type": "uint8"
        },
        {
          "internalType": "uint256",
          "name": "lockedAmount",
          "type": "uint256"
        },
        {
          "internalType": "address",
          "name": "selectedFreelancer",
          "type": "address"
        }
      ],
      "stateMutability": "view",
      "type": "function",
      "constant": true
    },
    {
      "inputs": [],
      "name": "platformFeesCollected",
      "outputs": [
        {
          "internalType": "uint256",
          "name": "",
          "type": "uint256"
        }
      ],
      "stateMutability": "view",
      "type": "function",
      "constant": true
    },
    {
      "inputs": [
        {
          "internalType": "address",
          "name": "",
          "type": "address"
        }
      ],
      "name": "users",
      "outputs": [
        {
          "internalType": "string",
          "name": "name",
          "type": "string"
        },
        {
          "internalType": "enum FreelanceMarketplace.Role",
          "name": "role",
          "type": "uint8"
        },
        {
          "internalType": "address",
          "name": "walletAddress",
          "type": "address"
        },
        {
          "internalType": "uint256",
          "name": "reputation",
          "type": "uint256"
        },
        {
          "internalType": "bool",
          "name": "isRegistered",
          "type": "bool"
        }
      ],
      "stateMutability": "view",
      "type": "function",
      "constant": true
    },
    {
      "inputs": [
        {
          "internalType": "string",
          "name": "_name",
          "type": "string"
        },
        {
          "internalType": "uint8",
          "name": "_roleIndex",
          "type": "uint8"
        }
      ],
      "name": "registerUser",
      "outputs": [],
      "stateMutability": "nonpayable",
      "type": "function"
    },
    {
      "inputs": [
        {
          "internalType": "string",
          "name": "_title",
          "type": "string"
        },
        {
          "internalType": "string",
          "name": "_category",
          "type": "string"
        },
        {
          "internalType": "uint256",
          "name": "_maxBudget",
          "type": "uint256"
        },
        {
          "internalType": "uint256",
          "name": "_deadline",
          "type": "uint256"
        }
      ],
      "name": "postJob",
      "outputs": [],
      "stateMutability": "nonpayable",
      "type": "function"
    },
    {
      "inputs": [
        {
          "internalType": "uint256",
          "name": "_jobId",
          "type": "uint256"
        },
        {
          "internalType": "uint256",
          "name": "_bidAmount",
          "type": "uint256"
        },
        {
          "internalType": "string",
          "name": "_proposedTime",
          "type": "string"
        }
      ],
      "name": "placeBid",
      "outputs": [],
      "stateMutability": "nonpayable",
      "type": "function"
    },
    {
      "inputs": [
        {
          "internalType": "uint256",
          "name": "_jobId",
          "type": "uint256"
        },
        {
          "internalType": "uint256",
          "name": "_bidIndex",
          "type": "uint256"
        }
      ],
      "name": "hireFreelancer",
      "outputs": [],
      "stateMutability": "payable",
      "type": "function",
      "payable": true
    },
    {
      "inputs": [
        {
          "internalType": "uint256",
          "name": "_jobId",
          "type": "uint256"
        }
      ],
      "name": "submitWork",
      "outputs": [],
      "stateMutability": "nonpayable",
      "type": "function"
    },
    {
      "inputs": [
        {
          "internalType": "uint256",
          "name": "_jobId",
          "type": "uint256"
        }
      ],
      "name": "approveWork",
      "outputs": [],
      "stateMutability": "nonpayable",
      "type": "function"
    },
    {
      "inputs": [
        {
          "internalType": "uint256",
          "name": "_jobId",
          "type": "uint256"
        }
      ],
      "name": "disputeJob",
      "outputs": [],
      "stateMutability": "nonpayable",
      "type": "function"
    },
    {
      "inputs": [
        {
          "internalType": "uint256",
          "name": "_jobId",
          "type": "uint256"
        },
        {
          "internalType": "bool",
          "name": "_payFreelancer",
          "type": "bool"
        }
      ],
      "name": "resolveDispute",
      "outputs": [],
      "stateMutability": "nonpayable",
      "type": "function"
    }
  ],
  "bytecode": "0x608060405234801561001057600080fd5b50336000806101000a81548173ffffffffffffffffffffffffffffffffffffffff021916908373ffffffffffffffffffffffffffffffffffffffff160217905550613bbd806100606000396000f3fe6080604052600436106100dd5760003560e01c8063840850d11161007f578063c4c1152311610059578063c4c11523146102cb578063d93d9beb146102f4578063f73b60a91461031d578063fe25e00a14610339576100dd565b8063840850d11461021f578063a87430ba1461025f578063b36ffca6146102a0576100dd565b80633d01e0fa116100bb5780633d01e0fa1461017957806344739b52146101a257806350355d76146101cb57806371bf6bed146101f6576100dd565b8063180aedf3146100e2578063338e12eb1461012757806334b25ee214610150575b600080fd5b3480156100ee57600080fd5b5061010960048036038101906101049190612626565b610364565b60405161011e999897969594939291906127aa565b60405180910390f35b34801561013357600080fd5b5061014e600480360381019061014991906129b3565b61050f565b005b34801561015c57600080fd5b5061017760048036038101906101729190612a47565b61090b565b005b34801561018557600080fd5b506101a0600480360381019061019b9190612626565b610d8d565b005b3480156101ae57600080fd5b506101c960048036038101906101c49190612a87565b611224565b005b3480156101d757600080fd5b506101e06115ff565b6040516101ed9190612af6565b60405180910390f35b34801561020257600080fd5b5061021d60048036038101906102189190612b11565b611605565b005b34801561022b57600080fd5b5061024660048036038101906102419190612bb0565b611967565b6040516102569493929190612bf0565b60405180910390f35b34801561026b57600080fd5b5061028660048036038101906102819190612c68565b611a5c565b604051610297959493929190612cec565b60405180910390f35b3480156102ac57600080fd5b506102b5611b54565b6040516102c29190612af6565b60405180910390f35b3480156102d757600080fd5b506102f260048036038101906102ed9190612626565b611b5a565b005b34801561030057600080fd5b5061031b60048036038101906103169190612626565b611e07565b005b61033760048036038101906103329190612bb0565b6120e1565b005b34801561034557600080fd5b5061034e6125b8565b60405161035b9190612d46565b60405180910390f35b60046020528060005260406000206000915090508060000154908060010160009054906101000a900473ffffffffffffffffffffffffffffffffffffffff16908060020180546103b390612d90565b80601f01602080910402602001604051908101604052809291908181526020018280546103df90612d90565b801561042c5780601f106104015761010080835404028352916020019161042c565b820191906000526020600020905b81548152906001019060200180831161040f57829003601f168201915b50505050509080600301805461044190612d90565b80601f016020809104026020016040519081016040528092919081815260200182805461046d90612d90565b80156104ba5780601f1061048f576101008083540402835291602001916104ba565b820191906000526020600020905b81548152906001019060200180831161049d57829003601f168201915b5050505050908060040154908060050154908060060160009054906101000a900460ff16908060070154908060080160009054906101000a900473ffffffffffffffffffffffffffffffffffffffff16905089565b600360003373ffffffffffffffffffffffffffffffffffffffff1673ffffffffffffffffffffffffffffffffffffffff16815260200190815260200160002060030160009054906101000a900460ff161561059f576040517f08c379a000000000000000000000000000000000000000000000000000000000815260040161059690612e0d565b60405180910390fd5b60008160ff1660038111156105b7576105b6612733565b5b9050600260038111156105cd576105cc612733565b5b8160038111156105e0576105df612733565b5b148061060f57506003808111156105fa576105f9612733565b5b81600381111561060d5761060c612733565b5b145b8061063e57506001600381111561062957610628612733565b5b81600381111561063c5761063b612733565b5b145b61067d576040517f08c379a000000000000000000000000000000000000000000000000000000000815260040161067490612e79565b60405180910390fd5b6001600381111561069157610690612733565b5b8160038111156106a4576106a3612733565b5b036107385760008054906101000a900473ffffffffffffffffffffffffffffffffffffffff1673ffffffffffffffffffffffffffffffffffffffff163373ffffffffffffffffffffffffffffffffffffffff1614610737576040517f08c379a000000000000000000000000000000000000000000000000000000000815260040161072e90612f0b565b60405180910390fd5b5b600060038081111561074d5761074c612733565b5b8260038111156107605761075f612733565b5b0361076a57606490505b6040518060a0016040528085815260200183600381111561078e5761078d612733565b5b81526020013373ffffffffffffffffffffffffffffffffffffffff16815260200182815260200160011515815250600360003373ffffffffffffffffffffffffffffffffffffffff1673ffffffffffffffffffffffffffffffffffffffff168152602001908152602001600020600082015181600001908161081091906130d7565b5060208201518160010160006101000a81548160ff0219169083600381111561083c5761083b612733565b5b021790555060408201518160010160016101000a81548173ffffffffffffffffffffffffffffffffffffffff021916908373ffffffffffffffffffffffffffffffffffffffff1602179055506060820151816002015560808201518160030160006101000a81548160ff0219169083151502179055509050503373ffffffffffffffffffffffffffffffffffffffff167fc2e5d5da58bd71d1a2d14cdef02a4256d971b728088f8190d067ccfbae3bd73e85846040516108fd9291906131a9565b60405180910390a250505050565b60008054906101000a900473ffffffffffffffffffffffffffffffffffffffff1673ffffffffffffffffffffffffffffffffffffffff163373ffffffffffffffffffffffffffffffffffffffff1614610999576040517f08c379a00000000000000000000000000000000000000000000000000000000081526004016109909061324b565b60405180910390fd5b6000600460008481526020019081526020016000209050600360058111156109c4576109c3612733565b5b8160060160009054906101000a900460ff1660058111156109e8576109e7612733565b5b14610a28576040517f08c379a0000000000000000000000000000000000000000000000000000000008152600401610a1f906132b7565b60405180910390fd5b6000816007015490506000826007018190555060048260060160006101000a81548160ff02191690836005811115610a6357610a62612733565b5b02179055508215610b87576000670de0b6b3a7640000821015610aa0576064600283610a8f9190613306565b610a99919061338f565b9050610abc565b6064600183610aaf9190613306565b610ab9919061338f565b90505b8060026000828254610ace91906133c0565b925050819055508260080160009054906101000a900473ffffffffffffffffffffffffffffffffffffffff1673ffffffffffffffffffffffffffffffffffffffff166108fc8284610b1f91906133f4565b9081150290604051600060405180830381858888f19350505050158015610b4a573d6000803e3d6000fd5b50847f831764ac02a33c193cba23a0de34c986e9b50402bf3c9febf6ff2f63d4c0435d604051610b7990613474565b60405180910390a250610d87565b6014600360008460080160009054906101000a900473ffffffffffffffffffffffffffffffffffffffff1673ffffffffffffffffffffffffffffffffffffffff1673ffffffffffffffffffffffffffffffffffffffff1681526020019081526020016000206002015410610c78576014600360008460080160009054906101000a900473ffffffffffffffffffffffffffffffffffffffff1673ffffffffffffffffffffffffffffffffffffffff1673ffffffffffffffffffffffffffffffffffffffff1681526020019081526020016000206002016000828254610c6c91906133f4565b92505081905550610ce5565b6000600360008460080160009054906101000a900473ffffffffffffffffffffffffffffffffffffffff1673ffffffffffffffffffffffffffffffffffffffff1673ffffffffffffffffffffffffffffffffffffffff168152602001908152602001600020600201819055505b8160010160009054906101000a900473ffffffffffffffffffffffffffffffffffffffff1673ffffffffffffffffffffffffffffffffffffffff166108fc829081150290604051600060405180830381858888f19350505050158015610d4f573d6000803e3d6000fd5b50837f831764ac02a33c193cba23a0de34c986e9b50402bf3c9febf6ff2f63d4c0435d604051610d7e906134e0565b60405180910390a25b50505050565b600360003373ffffffffffffffffffffffffffffffffffffffff1673ffffffffffffffffffffffffffffffffffffffff16815260200190815260200160002060030160009054906101000a900460ff16610e1c576040517f08c379a0000000000000000000000000000000000000000000000000000000008152600401610e139061354c565b60405180910390fd5b60026003811115610e3057610e2f612733565b5b600360003373ffffffffffffffffffffffffffffffffffffffff1673ffffffffffffffffffffffffffffffffffffffff16815260200190815260200160002060010160009054906101000a900460ff166003811115610e9257610e91612733565b5b14610ed2576040517f08c379a0000000000000000000000000000000000000000000000000000000008152600401610ec9906135de565b60405180910390fd5b60006004600083815260200190815260200160002090503373ffffffffffffffffffffffffffffffffffffffff168160010160009054906101000a900473ffffffffffffffffffffffffffffffffffffffff1673ffffffffffffffffffffffffffffffffffffffff1614610f7b576040517f08c379a0000000000000000000000000000000000000000000000000000000008152600401610f729061364a565b60405180910390fd5b60016005811115610f8f57610f8e612733565b5b8160060160009054906101000a900460ff166005811115610fb357610fb2612733565b5b14610ff3576040517f08c379a0000000000000000000000000000000000000000000000000000000008152600401610fea906136b6565b60405180910390fd5b6000816007015490506000670de0b6b3a764000082101561102e57606460028361101d9190613306565b611027919061338f565b905061104a565b606460018361103d9190613306565b611047919061338f565b90505b6000818361105891906133f4565b9050816002600082825461106c91906133c0565b9250508190555060058460060160006101000a81548160ff0219169083600581111561109b5761109a612733565b5b021790555060008460070181905550600a600360008660080160009054906101000a900473ffffffffffffffffffffffffffffffffffffffff1673ffffffffffffffffffffffffffffffffffffffff1673ffffffffffffffffffffffffffffffffffffffff168152602001908152602001600020600201600082825461112191906133c0565b925050819055508360080160009054906101000a900473ffffffffffffffffffffffffffffffffffffffff1673ffffffffffffffffffffffffffffffffffffffff166108fc829081150290604051600060405180830381858888f19350505050158015611192573d6000803e3d6000fd5b508360080160009054906101000a900473ffffffffffffffffffffffffffffffffffffffff1673ffffffffffffffffffffffffffffffffffffffff163373ffffffffffffffffffffffffffffffffffffffff16867f38ba31afab7a6f7c4f61e48a6dd88917047ea884c3659fa86145e037c2216276856040516112159190612af6565b60405180910390a45050505050565b600360003373ffffffffffffffffffffffffffffffffffffffff1673ffffffffffffffffffffffffffffffffffffffff16815260200190815260200160002060030160009054906101000a900460ff166112b3576040517f08c379a00000000000000000000000000000000000000000000000000000000081526004016112aa9061354c565b60405180910390fd5b6003808111156112c6576112c5612733565b5b600360003373ffffffffffffffffffffffffffffffffffffffff1673ffffffffffffffffffffffffffffffffffffffff16815260200190815260200160002060010160009054906101000a900460ff16600381111561132857611327612733565b5b14611368576040517f08c379a000000000000000000000000000000000000000000000000000000000815260040161135f90613748565b60405180910390fd5b60006004600085815260200190815260200160002090506000600581111561139357611392612733565b5b8160060160009054906101000a900460ff1660058111156113b7576113b6612733565b5b146113f7576040517f08c379a00000000000000000000000000000000000000000000000000000000081526004016113ee906137b4565b60405180910390fd5b806004015483111561143e576040517f08c379a000000000000000000000000000000000000000000000000000000000815260040161143590613820565b60405180910390fd5b6032600360003373ffffffffffffffffffffffffffffffffffffffff1673ffffffffffffffffffffffffffffffffffffffff1681526020019081526020016000206002015410156114c4576040517f08c379a00000000000000000000000000000000000000000000000000000000081526004016114bb9061388c565b60405180910390fd5b6005600085815260200190815260200160002060405180608001604052808681526020013373ffffffffffffffffffffffffffffffffffffffff1681526020018581526020018481525090806001815401808255809150506001900390600052602060002090600402016000909190919091506000820151816000015560208201518160010160006101000a81548173ffffffffffffffffffffffffffffffffffffffff021916908373ffffffffffffffffffffffffffffffffffffffff1602179055506040820151816002015560608201518160030190816115a791906130d7565b5050503373ffffffffffffffffffffffffffffffffffffffff16847f0e54eff26401bf69b81b26f60bd85ef47f5d85275c1d268d84f68d6897431c47856040516115f19190612af6565b60405180910390a350505050565b60015481565b600360003373ffffffffffffffffffffffffffffffffffffffff1673ffffffffffffffffffffffffffffffffffffffff16815260200190815260200160002060030160009054906101000a900460ff16611694576040517f08c379a000000000000000000000000000000000000000000000000000000000815260040161168b9061354c565b60405180910390fd5b600260038111156116a8576116a7612733565b5b600360003373ffffffffffffffffffffffffffffffffffffffff1673ffffffffffffffffffffffffffffffffffffffff16815260200190815260200160002060010160009054906101000a900460ff16600381111561170a57611709612733565b5b1461174a576040517f08c379a0000000000000000000000000000000000000000000000000000000008152600401611741906135de565b60405180910390fd5b6001600081548092919061175d906138ac565b919050555060405180610120016040528060015481526020013373ffffffffffffffffffffffffffffffffffffffff168152602001858152602001848152602001838152602001828152602001600060058111156117be576117bd612733565b5b815260200160008152602001600073ffffffffffffffffffffffffffffffffffffffff168152506004600060015481526020019081526020016000206000820151816000015560208201518160010160006101000a81548173ffffffffffffffffffffffffffffffffffffffff021916908373ffffffffffffffffffffffffffffffffffffffff160217905550604082015181600201908161186091906130d7565b50606082015181600301908161187691906130d7565b506080820151816004015560a0820151816005015560c08201518160060160006101000a81548160ff021916908360058111156118b6576118b5612733565b5b021790555060e082015181600701556101008201518160080160006101000a81548173ffffffffffffffffffffffffffffffffffffffff021916908373ffffffffffffffffffffffffffffffffffffffff1602179055509050503373ffffffffffffffffffffffffffffffffffffffff166001547f874d4755e4be9f976c7833fc413deb77c1acbf096d6535b71953c36eb838cf408660405161195991906138f4565b60405180910390a350505050565b6005602052816000526040600020818154811061198357600080fd5b9060005260206000209060040201600091509150508060000154908060010160009054906101000a900473ffffffffffffffffffffffffffffffffffffffff16908060020154908060030180546119d990612d90565b80601f0160208091040260200160405190810160405280929190818152602001828054611a0590612d90565b8015611a525780601f10611a2757610100808354040283529160200191611a52565b820191906000526020600020905b815481529060010190602001808311611a3557829003601f168201915b5050505050905084565b6003602052806000526040600020600091509050806000018054611a7f90612d90565b80601f0160208091040260200160405190810160405280929190818152602001828054611aab90612d90565b8015611af85780601f10611acd57610100808354040283529160200191611af8565b820191906000526020600020905b815481529060010190602001808311611adb57829003601f168201915b5050505050908060010160009054906101000a900460ff16908060010160019054906101000a900473ffffffffffffffffffffffffffffffffffffffff16908060020154908060030160009054906101000a900460ff16905085565b60025481565b600360003373ffffffffffffffffffffffffffffffffffffffff1673ffffffffffffffffffffffffffffffffffffffff16815260200190815260200160002060030160009054906101000a900460ff16611be9576040517f08c379a0000000000000000000000000000000000000000000000000000000008152600401611be09061354c565b60405180910390fd5b600380811115611bfc57611bfb612733565b5b600360003373ffffffffffffffffffffffffffffffffffffffff1673ffffffffffffffffffffffffffffffffffffffff16815260200190815260200160002060010160009054906101000a900460ff166003811115611c5e57611c5d612733565b5b14611c9e576040517f08c379a0000000000000000000000000000000000000000000000000000000008152600401611c9590613748565b60405180910390fd5b60006004600083815260200190815260200160002090503373ffffffffffffffffffffffffffffffffffffffff168160080160009054906101000a900473ffffffffffffffffffffffffffffffffffffffff1673ffffffffffffffffffffffffffffffffffffffff1614611d47576040517f08c379a0000000000000000000000000000000000000000000000000000000008152600401611d3e90613962565b60405180910390fd5b60016005811115611d5b57611d5a612733565b5b8160060160009054906101000a900460ff166005811115611d7f57611d7e612733565b5b14611dbf576040517f08c379a0000000000000000000000000000000000000000000000000000000008152600401611db6906136b6565b60405180910390fd5b3373ffffffffffffffffffffffffffffffffffffffff16827f2e1034180f85502b3a04560be6ed4c24fe9b9c9e0bd7f4e09720494ac48859fa60405160405180910390a35050565b600360003373ffffffffffffffffffffffffffffffffffffffff1673ffffffffffffffffffffffffffffffffffffffff16815260200190815260200160002060030160009054906101000a900460ff16611e96576040517f08c379a0000000000000000000000000000000000000000000000000000000008152600401611e8d9061354c565b60405180910390fd5b60026003811115611eaa57611ea9612733565b5b600360003373ffffffffffffffffffffffffffffffffffffffff1673ffffffffffffffffffffffffffffffffffffffff16815260200190815260200160002060010160009054906101000a900460ff166003811115611f0c57611f0b612733565b5b14611f4c576040517f08c379a0000000000000000000000000000000000000000000000000000000008152600401611f43906135de565b60405180910390fd5b60006004600083815260200190815260200160002090503373ffffffffffffffffffffffffffffffffffffffff168160010160009054906101000a900473ffffffffffffffffffffffffffffffffffffffff1673ffffffffffffffffffffffffffffffffffffffff1614611ff5576040517f08c379a0000000000000000000000000000000000000000000000000000000008152600401611fec906139ce565b60405180910390fd5b6001600581111561200957612008612733565b5b8160060160009054906101000a900460ff16600581111561202d5761202c612733565b5b1461206d576040517f08c379a000000000000000000000000000000000000000000000000000000000815260040161206490613a60565b60405180910390fd5b60038160060160006101000a81548160ff0219169083600581111561209557612094612733565b5b02179055503373ffffffffffffffffffffffffffffffffffffffff16827e7a04c23fac86b9f00290f402ccec895256f0b46ad331c80038b783acbfe41960405160405180910390a35050565b600360003373ffffffffffffffffffffffffffffffffffffffff1673ffffffffffffffffffffffffffffffffffffffff16815260200190815260200160002060030160009054906101000a900460ff16612170576040517f08c379a00000000000000000000000000000000000000000000000000000000081526004016121679061354c565b60405180910390fd5b6002600381111561218457612183612733565b5b600360003373ffffffffffffffffffffffffffffffffffffffff1673ffffffffffffffffffffffffffffffffffffffff16815260200190815260200160002060010160009054906101000a900460ff1660038111156121e6576121e5612733565b5b14612226576040517f08c379a000000000000000000000000000000000000000000000000000000000815260040161221d906135de565b60405180910390fd5b60006004600084815260200190815260200160002090503373ffffffffffffffffffffffffffffffffffffffff168160010160009054906101000a900473ffffffffffffffffffffffffffffffffffffffff1673ffffffffffffffffffffffffffffffffffffffff16146122cf576040517f08c379a00000000000000000000000000000000000000000000000000000000081526004016122c690613acc565b60405180910390fd5b600060058111156122e3576122e2612733565b5b8160060160009054906101000a900460ff16600581111561230757612306612733565b5b14612347576040517f08c379a000000000000000000000000000000000000000000000000000000000815260040161233e906137b4565b60405180910390fd5b600060056000858152602001908152602001600020838154811061236e5761236d613aec565b5b9060005260206000209060040201604051806080016040529081600082015481526020016001820160009054906101000a900473ffffffffffffffffffffffffffffffffffffffff1673ffffffffffffffffffffffffffffffffffffffff1673ffffffffffffffffffffffffffffffffffffffff1681526020016002820154815260200160038201805461240190612d90565b80601f016020809104026020016040519081016040528092919081815260200182805461242d90612d90565b801561247a5780601f1061244f5761010080835404028352916020019161247a565b820191906000526020600020905b81548152906001019060200180831161245d57829003601f168201915b5050505050815250509050806040015134146124cb576040517f08c379a00000000000000000000000000000000000000000000000000000000081526004016124c290613b67565b60405180910390fd5b80602001518260080160006101000a81548173ffffffffffffffffffffffffffffffffffffffff021916908373ffffffffffffffffffffffffffffffffffffffff16021790555034826007018190555060018260060160006101000a81548160ff0219169083600581111561254357612542612733565b5b0217905550806020015173ffffffffffffffffffffffffffffffffffffffff163373ffffffffffffffffffffffffffffffffffffffff16857f3296be5329aa51bec44418f854418438cc19283bf0c117497123e5ccfa662d8e346040516125aa9190612af6565b60405180910390a450505050565b60008054906101000a900473ffffffffffffffffffffffffffffffffffffffff1681565b6000604051905090565b600080fd5b600080fd5b6000819050919050565b612603816125f0565b811461260e57600080fd5b50565b600081359050612620816125fa565b92915050565b60006020828403121561263c5761263b6125e6565b5b600061264a84828501612611565b91505092915050565b61265c816125f0565b82525050565b600073ffffffffffffffffffffffffffffffffffffffff82169050919050565b600061268d82612662565b9050919050565b61269d81612682565b82525050565b600081519050919050565b600082825260208201905092915050565b60005b838110156126dd5780820151818401526020810190506126c2565b60008484015250505050565b6000601f19601f8301169050919050565b6000612705826126a3565b61270f81856126ae565b935061271f8185602086016126bf565b612728816126e9565b840191505092915050565b7f4e487b7100000000000000000000000000000000000000000000000000000000600052602160045260246000fd5b6006811061277357612772612733565b5b50565b600081905061278482612762565b919050565b600061279482612776565b9050919050565b6127a481612789565b82525050565b6000610120820190506127c0600083018c612653565b6127cd602083018b612694565b81810360408301526127df818a6126fa565b905081810360608301526127f381896126fa565b90506128026080830188612653565b61280f60a0830187612653565b61281c60c083018661279b565b61282960e0830185612653565b612837610100830184612694565b9a9950505050505050505050565b600080fd5b600080fd5b7f4e487b7100000000000000000000000000000000000000000000000000000000600052604160045260246000fd5b612887826126e9565b810181811067ffffffffffffffff821117156128a6576128a561284f565b5b80604052505050565b60006128b96125dc565b90506128c5828261287e565b919050565b600067ffffffffffffffff8211156128e5576128e461284f565b5b6128ee826126e9565b9050602081019050919050565b82818337600083830152505050565b600061291d612918846128ca565b6128af565b9050828152602081018484840111156129395761293861284a565b5b6129448482856128fb565b509392505050565b600082601f83011261296157612960612845565b5b813561297184826020860161290a565b91505092915050565b600060ff82169050919050565b6129908161297a565b811461299b57600080fd5b50565b6000813590506129ad81612987565b92915050565b600080604083850312156129ca576129c96125e6565b5b600083013567ffffffffffffffff8111156129e8576129e76125eb565b5b6129f48582860161294c565b9250506020612a058582860161299e565b9150509250929050565b60008115159050919050565b612a2481612a0f565b8114612a2f57600080fd5b50565b600081359050612a4181612a1b565b92915050565b60008060408385031215612a5e57612a5d6125e6565b5b6000612a6c85828601612611565b9250506020612a7d85828601612a32565b9150509250929050565b600080600060608486031215612aa057612a9f6125e6565b5b6000612aae86828701612611565b9350506020612abf86828701612611565b925050604084013567ffffffffffffffff811115612ae057612adf6125eb565b5b612aec8682870161294c565b9150509250925092565b6000602082019050612b0b6000830184612653565b92915050565b60008060008060808587031215612b2b57612b2a6125e6565b5b600085013567ffffffffffffffff811115612b4957612b486125eb565b5b612b558782880161294c565b945050602085013567ffffffffffffffff811115612b7657612b756125eb565b5b612b828782880161294c565b9350506040612b9387828801612611565b9250506060612ba487828801612611565b91505092959194509250565b60008060408385031215612bc757612bc66125e6565b5b6000612bd585828601612611565b9250506020612be685828601612611565b9150509250929050565b6000608082019050612c056000830187612653565b612c126020830186612694565b612c1f6040830185612653565b8181036060830152612c3181846126fa565b905095945050505050565b612c4581612682565b8114612c5057600080fd5b50565b600081359050612c6281612c3c565b92915050565b600060208284031215612c7e57612c7d6125e6565b5b6000612c8c84828501612c53565b91505092915050565b60048110612ca657612ca5612733565b5b50565b6000819050612cb782612c95565b919050565b6000612cc782612ca9565b9050919050565b612cd781612cbc565b82525050565b612ce681612a0f565b82525050565b600060a0820190508181036000830152612d0681886126fa565b9050612d156020830187612cce565b612d226040830186612694565b612d2f6060830185612653565b612d3c6080830184612cdd565b9695505050505050565b6000602082019050612d5b6000830184612694565b92915050565b7f4e487b7100000000000000000000000000000000000000000000000000000000600052602260045260246000fd5b60006002820490506001821680612da857607f821691505b602082108103612dbb57612dba612d61565b5b50919050565b7f5573657220616c72656164792072656769737465726564000000000000000000600082015250565b6000612df76017836126ae565b9150612e0282612dc1565b602082019050919050565b60006020820190508181036000830152612e2681612dea565b9050919050565b7f496e76616c696420726f6c650000000000000000000000000000000000000000600082015250565b6000612e63600c836126ae565b9150612e6e82612e2d565b602082019050919050565b60006020820190508181036000830152612e9281612e56565b9050919050565b7f4f6e6c79206465706c6f7965722063616e20726567697374657220617320417260008201527f6269746572000000000000000000000000000000000000000000000000000000602082015250565b6000612ef56025836126ae565b9150612f0082612e99565b604082019050919050565b60006020820190508181036000830152612f2481612ee8565b9050919050565b60008190508160005260206000209050919050565b60006020601f8301049050919050565b600082821b905092915050565b600060088302612f8d7fffffffffffffffffffffffffffffffffffffffffffffffffffffffffffffffff82612f50565b612f978683612f50565b95508019841693508086168417925050509392505050565b6000819050919050565b6000612fd4612fcf612fca846125f0565b612faf565b6125f0565b9050919050565b6000819050919050565b612fee83612fb9565b613002612ffa82612fdb565b848454612f5d565b825550505050565b600090565b61301761300a565b613022818484612fe5565b505050565b5b818110156130465761303b60008261300f565b600181019050613028565b5050565b601f82111561308b5761305c81612f2b565b61306584612f40565b81016020851015613074578190505b61308861308085612f40565b830182613027565b50505b505050565b600082821c905092915050565b60006130ae60001984600802613090565b1980831691505092915050565b60006130c7838361309d565b9150826002028217905092915050565b6130e0826126a3565b67ffffffffffffffff8111156130f9576130f861284f565b5b6131038254612d90565b61310e82828561304a565b600060209050601f831160018114613141576000841561312f578287015190505b61313985826130bb565b8655506131a1565b601f19841661314f86612f2b565b60005b8281101561317757848901518255600182019150602085019450602081019050613152565b868310156131945784890151613190601f89168261309d565b8355505b6001600288020188555050505b505050505050565b600060408201905081810360008301526131c381856126fa565b90506131d26020830184612cce565b9392505050565b7f4f6e6c7920417262697465722063616e20706572666f726d207468697320616360008201527f74696f6e00000000000000000000000000000000000000000000000000000000602082015250565b60006132356024836126ae565b9150613240826131d9565b604082019050919050565b6000602082019050818103600083015261326481613228565b9050919050565b7f4a6f62206973206e6f7420646973707574656400000000000000000000000000600082015250565b60006132a16013836126ae565b91506132ac8261326b565b602082019050919050565b600060208201905081810360008301526132d081613294565b9050919050565b7f4e487b7100000000000000000000000000000000000000000000000000000000600052601160045260246000fd5b6000613311826125f0565b915061331c836125f0565b9250817fffffffffffffffffffffffffffffffffffffffffffffffffffffffffffffffff0483118215151615613355576133546132d7565b5b828202905092915050565b7f4e487b7100000000000000000000000000000000000000000000000000000000600052601260045260246000fd5b600061339a826125f0565b91506133a5836125f0565b9250826133b5576133b4613360565b5b828204905092915050565b60006133cb826125f0565b91506133d6836125f0565b92508282019050808211156133ee576133ed6132d7565b5b92915050565b60006133ff826125f0565b915061340a836125f0565b9250828203905081811115613422576134216132d7565b5b92915050565b7f467265656c616e63657220506169640000000000000000000000000000000000600082015250565b600061345e600f836126ae565b915061346982613428565b602082019050919050565b6000602082019050818103600083015261348d81613451565b9050919050565b7f436c69656e7420526566756e6465640000000000000000000000000000000000600082015250565b60006134ca600f836126ae565b91506134d582613494565b602082019050919050565b600060208201905081810360008301526134f9816134bd565b9050919050565b7f55736572206d7573742062652072656769737465726564000000000000000000600082015250565b60006135366017836126ae565b915061354182613500565b602082019050919050565b6000602082019050818103600083015261356581613529565b9050919050565b7f4f6e6c7920436c69656e74732063616e20706572666f726d207468697320616360008201527f74696f6e00000000000000000000000000000000000000000000000000000000602082015250565b60006135c86024836126ae565b91506135d38261356c565b604082019050919050565b600060208201905081810360008301526135f7816135bb565b9050919050565b7f4f6e6c79206a6f62206f776e65722063616e20617070726f7665000000000000600082015250565b6000613634601a836126ae565b915061363f826135fe565b602082019050919050565b6000602082019050818103600083015261366381613627565b9050919050565b7f4a6f62206e6f7420696e2070726f677265737300000000000000000000000000600082015250565b60006136a06013836126ae565b91506136ab8261366a565b602082019050919050565b600060208201905081810360008301526136cf81613693565b9050919050565b7f4f6e6c7920467265656c616e636572732063616e20706572666f726d2074686960008201527f7320616374696f6e000000000000000000000000000000000000000000000000602082015250565b60006137326028836126ae565b915061373d826136d6565b604082019050919050565b6000602082019050818103600083015261376181613725565b9050919050565b7f4a6f62206973206e6f74206f70656e0000000000000000000000000000000000600082015250565b600061379e600f836126ae565b91506137a982613768565b602082019050919050565b600060208201905081810360008301526137cd81613791565b9050919050565b7f4269642065786365656473206275646765740000000000000000000000000000600082015250565b600061380a6012836126ae565b9150613815826137d4565b602082019050919050565b60006020820190508181036000830152613839816137fd565b9050919050565b7f52657075746174696f6e20746f6f206c6f7720746f2062696400000000000000600082015250565b60006138766019836126ae565b915061388182613840565b602082019050919050565b600060208201905081810360008301526138a581613869565b9050919050565b60006138b7826125f0565b91507fffffffffffffffffffffffffffffffffffffffffffffffffffffffffffffffff82036138e9576138e86132d7565b5b600182019050919050565b6000602082019050818103600083015261390e81846126fa565b905092915050565b7f596f7520617265206e6f7420686972656420666f722074686973206a6f620000600082015250565b600061394c601e836126ae565b915061395782613916565b602082019050919050565b6000602082019050818103600083015261397b8161393f565b9050919050565b7f4f6e6c79206a6f62206f776e65722063616e2064697370757465000000000000600082015250565b60006139b8601a836126ae565b91506139c382613982565b602082019050919050565b600060208201905081810360008301526139e7816139ab565b9050919050565b7f4a6f62206d75737420626520696e2070726f677265737320746f20646973707560008201527f7465000000000000000000000000000000000000000000000000000000000000602082015250565b6000613a4a6022836126ae565b9150613a55826139ee565b604082019050919050565b60006020820190508181036000830152613a7981613a3d565b9050919050565b7f4f6e6c7920746865206a6f62206f776e65722063616e20686972650000000000600082015250565b6000613ab6601b836126ae565b9150613ac182613a80565b602082019050919050565b60006020820190508181036000830152613ae581613aa9565b9050919050565b7f4e487b7100000000000000000000000000000000000000000000000000000000600052603260045260246000fd5b7f496e636f727265637420457468657220616d6f756e742073656e740000000000600082015250565b6000613b51601b836126ae565b9150613b5c82613b1b565b602082019050919050565b60006020820190508181036000830152613b8081613b44565b905091905056fea264697066735822122045762c4a1880d2e43e5da7e67855fe1792eb9aad336b2ca29711c90825bca1ed64736f6c63430008100033",
  "immutableReferences": {},
  "source": "// SPDX-License-Identifier: MIT\r\npragma solidity ^0.8.0;\r\n\r\ncontract FreelanceMarketplace {\r\n\r\n    // --- Enums & Structs ---\r\n    enum Role { None, Arbiter, Client, Freelancer }\r\n    enum JobStatus { Open, InProgress, Completed, Disputed, Resolved, Closed }\r\n\r\n    struct User {\r\n        string name;\r\n        Role role;\r\n        address walletAddress;\r\n        uint256 reputation; // Only relevant for Freelancers\r\n        bool isRegistered;\r\n    }\r\n\r\n    struct Job {\r\n        uint256 id;\r\n        address client;\r\n        string title;\r\n        string category;\r\n        uint256 maxBudget;\r\n        uint256 deadline;\r\n        JobStatus status;\r\n        uint256 lockedAmount; // Amount held in escrow\r\n        address selectedFreelancer;\r\n    }\r\n\r\n    struct Bid {\r\n        uint256 jobId;\r\n        address freelancer;\r\n        uint256 bidAmount;\r\n        string proposedTime;\r\n    }\r\n\r\n    // --- State Variables ---\r\n    address public arbiter; // The platform owner\r\n    uint256 public jobCounter;\r\n    uint256 public platformFeesCollected;\r\n\r\n    // Mappings\r\n    mapping(address => User) public users;\r\n    mapping(uint256 => Job) public jobs;\r\n    mapping(uint256 => Bid[]) public jobBids;\r\n\r\n    // --- Events ---\r\n    event UserRegistered(address indexed user, string name, Role role);\r\n    event JobPosted(uint256 indexed jobId, address indexed client, string title);\r\n    event BidPlaced(uint256 indexed jobId, address indexed freelancer, uint256 amount);\r\n    event JobHired(uint256 indexed jobId, address indexed client, address indexed freelancer, uint256 amount);\r\n    event WorkSubmitted(uint256 indexed jobId, address indexed freelancer);\r\n    event JobCompleted(uint256 indexed jobId, address indexed client, address indexed freelancer, uint256 feeDeducted);\r\n    event JobDisputed(uint256 indexed jobId, address indexed client);\r\n    event DisputeResolved(uint256 indexed jobId, string outcome);\r\n\r\n    // --- Modifiers ---\r\n    modifier onlyArbiter() {\r\n        require(msg.sender == arbiter, \"Only Arbiter can perform this action\");\r\n        _;\r\n    }\r\n\r\n    modifier onlyRegistered() {\r\n        require(users[msg.sender].isRegistered, \"User must be registered\");\r\n        _;\r\n    }\r\n\r\n    modifier onlyClient() {\r\n        require(users[msg.sender].role == Role.Client, \"Only Clients can perform this action\");\r\n        _;\r\n    }\r\n\r\n    modifier onlyFreelancer() {\r\n        require(users[msg.sender].role == Role.Freelancer, \"Only Freelancers can perform this action\");\r\n        _;\r\n    }\r\n\r\n    constructor() {\r\n        arbiter = msg.sender; // Deployer is the Arbiter\r\n    }\r\n\r\n    // --- 1. User Registration ---\r\n    function registerUser(string memory _name, uint8 _roleIndex) public {\r\n        require(!users[msg.sender].isRegistered, \"User already registered\");\r\n        \r\n        Role _role = Role(_roleIndex);\r\n        \r\n        // Constraint: Freelancer cannot register if already a Client (handled by isRegistered check above as address is unique key)\r\n        require(_role == Role.Client || _role == Role.Freelancer || _role == Role.Arbiter, \"Invalid role\");\r\n\r\n        // If trying to register as Arbiter, must be the contract deployer\r\n        if (_role == Role.Arbiter) {\r\n            require(msg.sender == arbiter, \"Only deployer can register as Arbiter\");\r\n        }\r\n\r\n        uint256 initialReputation = 0;\r\n        // Constraint: Freelancers start with 100 Reputation\r\n        if (_role == Role.Freelancer) {\r\n            initialReputation = 100;\r\n        }\r\n\r\n        users[msg.sender] = User({\r\n            name: _name,\r\n            role: _role,\r\n            walletAddress: msg.sender,\r\n            reputation: initialReputation,\r\n            isRegistered: true\r\n        });\r\n\r\n        emit UserRegistered(msg.sender, _name, _role);\r\n    }\r\n\r\n    // --- 2. Post a Job ---\r\n    function postJob(string memory _title, string memory _category, uint256 _maxBudget, uint256 _deadline) public onlyRegistered onlyClient {\r\n        jobCounter++;\r\n        \r\n        jobs[jobCounter] = Job({\r\n            id: jobCounter,\r\n            client: msg.sender,\r\n            title: _title,\r\n            category: _category,\r\n            maxBudget: _maxBudget,\r\n            deadline: _deadline,\r\n            status: JobStatus.Open,\r\n            lockedAmount: 0,\r\n            selectedFreelancer: address(0)\r\n        });\r\n\r\n        emit JobPosted(jobCounter, msg.sender, _title);\r\n    }\r\n\r\n    // --- 3. Bidding System ---\r\n    function placeBid(uint256 _jobId, uint256 _bidAmount, string memory _proposedTime) public onlyRegistered onlyFreelancer {\r\n        Job storage job = jobs[_jobId];\r\n        \r\n        require(job.status == JobStatus.Open, \"Job is not open\");\r\n        // Constraint: Bid Amount cannot exceed Client's Max Budget\r\n        require(_bidAmount <= job.maxBudget, \"Bid exceeds budget\");\r\n        // Constraint: Reputation must be >= 50 \r\n        require(users[msg.sender].reputation >= 50, \"Reputation too low to bid\");\r\n\r\n        jobBids[_jobId].push(Bid({\r\n            jobId: _jobId,\r\n            freelancer: msg.sender,\r\n            bidAmount: _bidAmount,\r\n            proposedTime: _proposedTime\r\n        }));\r\n\r\n        emit BidPlaced(_jobId, msg.sender, _bidAmount);\r\n    }\r\n\r\n    // --- 4. Hire & Escrow ---\r\n    function hireFreelancer(uint256 _jobId, uint256 _bidIndex) public payable onlyRegistered onlyClient {\r\n        Job storage job = jobs[_jobId];\r\n        require(job.client == msg.sender, \"Only the job owner can hire\");\r\n        require(job.status == JobStatus.Open, \"Job is not open\");\r\n        \r\n        Bid memory selectedBid = jobBids[_jobId][_bidIndex];\r\n        \r\n        // Constraint: Must send exact Bid Amount\r\n        require(msg.value == selectedBid.bidAmount, \"Incorrect Ether amount sent\");\r\n\r\n        job.selectedFreelancer = selectedBid.freelancer;\r\n        job.lockedAmount = msg.value; // Escrow holds the money\r\n        job.status = JobStatus.InProgress;\r\n\r\n        emit JobHired(_jobId, msg.sender, selectedBid.freelancer, msg.value);\r\n    }\r\n\r\n    // --- 5. Work Submission & Completion ---\r\n    function submitWork(uint256 _jobId) public onlyRegistered onlyFreelancer {\r\n        Job storage job = jobs[_jobId];\r\n        require(job.selectedFreelancer == msg.sender, \"You are not hired for this job\");\r\n        require(job.status == JobStatus.InProgress, \"Job not in progress\");\r\n\r\n        // Mark logically (status doesn't strictly change to a new enum, but we notify client)\r\n        emit WorkSubmitted(_jobId, msg.sender);\r\n    }\r\n\r\n    function approveWork(uint256 _jobId) public onlyRegistered onlyClient {\r\n        Job storage job = jobs[_jobId];\r\n        require(job.client == msg.sender, \"Only job owner can approve\");\r\n        require(job.status == JobStatus.InProgress, \"Job not in progress\");\r\n\r\n        uint256 payout = job.lockedAmount;\r\n        uint256 fee = 0;\r\n\r\n        // Constraint: Dynamic Fee\r\n        if (payout < 1 ether) {\r\n            fee = (payout * 2) / 100; // 2%\r\n        } else {\r\n            fee = (payout * 1) / 100; // 1%\r\n        }\r\n\r\n        uint256 freelancerAmount = payout - fee;\r\n\r\n        // Update balances and state\r\n        platformFeesCollected += fee;\r\n        job.status = JobStatus.Closed;\r\n        job.lockedAmount = 0;\r\n\r\n        // Update Reputation: +10 points\r\n        users[job.selectedFreelancer].reputation += 10;\r\n\r\n        // Transfer funds\r\n        payable(job.selectedFreelancer).transfer(freelancerAmount);\r\n\r\n        emit JobCompleted(_jobId, msg.sender, job.selectedFreelancer, fee);\r\n    }\r\n\r\n    // --- 6. Dispute & Resolution ---\r\n    function disputeJob(uint256 _jobId) public onlyRegistered onlyClient {\r\n        Job storage job = jobs[_jobId];\r\n        require(job.client == msg.sender, \"Only job owner can dispute\");\r\n        require(job.status == JobStatus.InProgress, \"Job must be in progress to dispute\");\r\n\r\n        job.status = JobStatus.Disputed;\r\n        emit JobDisputed(_jobId, msg.sender);\r\n    }\r\n\r\n    function resolveDispute(uint256 _jobId, bool _payFreelancer) public onlyArbiter {\r\n        Job storage job = jobs[_jobId];\r\n        require(job.status == JobStatus.Disputed, \"Job is not disputed\");\r\n\r\n        uint256 totalAmount = job.lockedAmount;\r\n        job.lockedAmount = 0;\r\n        job.status = JobStatus.Resolved;\r\n\r\n        if (_payFreelancer) {\r\n            // Case: Pay Freelancer (minus fees)\r\n            uint256 fee;\r\n            if (totalAmount < 1 ether) {\r\n                fee = (totalAmount * 2) / 100;\r\n            } else {\r\n                fee = (totalAmount * 1) / 100;\r\n            }\r\n            platformFeesCollected += fee;\r\n            payable(job.selectedFreelancer).transfer(totalAmount - fee);\r\n            emit DisputeResolved(_jobId, \"Freelancer Paid\");\r\n        } else {\r\n            // Case: Refund Client 100% \r\n            // Constraint: Freelancer Reputation -20 points\r\n            if (users[job.selectedFreelancer].reputation >= 20) {\r\n                users[job.selectedFreelancer].reputation -= 20;\r\n            } else {\r\n                users[job.selectedFreelancer].reputation = 0;\r\n            }\r\n            \r\n            payable(job.client).transfer(totalAmount);\r\n            emit DisputeResolved(_jobId, \"Client Refunded\");\r\n        }\r\n    }\r\n\r\n}\r\n",
  "sourcePath": "/home/majed/storage/FreelanceMarketplace-Solidity-/contracts/FreelanceMarketplace.sol",
  "compiler": {
    "name": "solc",
    "version": "0.8.16+commit.07a7930e.Emscripten.clang"
  },
  "schemaVersion": "3.4.16",
  "updatedAt": "2025-12-28T15:55:04.373Z",
  "networkType": "ethereum",
  "devdoc": {
    "kind": "dev",
    "methods": {},
    "version": 1
  },
  "userdoc": {
    "kind": "user",
    "methods": {},
    "version": 1
  }
}